{
  "_format": "hh-sol-artifact-1",
  "contractName": "BankExtension",
  "sourceName": "build/sources/extensions/bank/Bank.sol",
  "abi": [
    {
      "inputs": [],
      "stateMutability": "nonpayable",
      "type": "constructor"
    },
    {
      "anonymous": false,
      "inputs": [
        {
          "indexed": false,
          "internalType": "address",
          "name": "member",
          "type": "address"
        },
        {
          "indexed": false,
          "internalType": "address",
          "name": "tokenAddr",
          "type": "address"
        },
        {
          "indexed": false,
          "internalType": "uint160",
          "name": "amount",
          "type": "uint160"
        }
      ],
      "name": "NewBalance",
      "type": "event"
    },
    {
      "anonymous": false,
      "inputs": [
        {
          "indexed": false,
          "internalType": "address",
          "name": "account",
          "type": "address"
        },
        {
          "indexed": false,
          "internalType": "address",
          "name": "tokenAddr",
          "type": "address"
        },
        {
          "indexed": false,
          "internalType": "uint160",
          "name": "amount",
          "type": "uint160"
        }
      ],
      "name": "Withdraw",
      "type": "event"
    },
    {
      "inputs": [
        {
          "internalType": "address",
          "name": "member",
          "type": "address"
        },
        {
          "internalType": "address",
          "name": "token",
          "type": "address"
        },
        {
          "internalType": "uint256",
          "name": "amount",
          "type": "uint256"
        }
      ],
      "name": "addToBalance",
      "outputs": [],
      "stateMutability": "payable",
      "type": "function"
    },
    {
      "inputs": [
        {
          "internalType": "address",
          "name": "",
          "type": "address"
        }
      ],
      "name": "availableInternalTokens",
      "outputs": [
        {
          "internalType": "bool",
          "name": "",
          "type": "bool"
        }
      ],
      "stateMutability": "view",
      "type": "function"
    },
    {
      "inputs": [
        {
          "internalType": "address",
          "name": "",
          "type": "address"
        }
      ],
      "name": "availableTokens",
      "outputs": [
        {
          "internalType": "bool",
          "name": "",
          "type": "bool"
        }
      ],
      "stateMutability": "view",
      "type": "function"
    },
    {
      "inputs": [
        {
          "internalType": "address",
          "name": "member",
          "type": "address"
        },
        {
          "internalType": "address",
          "name": "tokenAddr",
          "type": "address"
        }
      ],
      "name": "balanceOf",
      "outputs": [
        {
          "internalType": "uint160",
          "name": "",
          "type": "uint160"
        }
      ],
      "stateMutability": "view",
      "type": "function"
    },
    {
      "inputs": [
        {
          "internalType": "address",
          "name": "",
          "type": "address"
        },
        {
          "internalType": "address",
          "name": "",
          "type": "address"
        },
        {
          "internalType": "uint32",
          "name": "",
          "type": "uint32"
        }
      ],
      "name": "checkpoints",
      "outputs": [
        {
          "internalType": "uint96",
          "name": "fromBlock",
          "type": "uint96"
        },
        {
          "internalType": "uint160",
          "name": "amount",
          "type": "uint160"
        }
      ],
      "stateMutability": "view",
      "type": "function"
    },
    {
      "inputs": [],
      "name": "dao",
      "outputs": [
        {
          "internalType": "contract DaoRegistry",
          "name": "",
          "type": "address"
        }
      ],
      "stateMutability": "view",
      "type": "function"
    },
    {
      "inputs": [
        {
          "internalType": "uint256",
          "name": "flags",
          "type": "uint256"
        },
        {
          "internalType": "uint256",
          "name": "flag",
          "type": "uint256"
        }
      ],
      "name": "getFlag",
      "outputs": [
        {
          "internalType": "bool",
          "name": "",
          "type": "bool"
        }
      ],
      "stateMutability": "pure",
      "type": "function"
    },
    {
      "inputs": [
        {
          "internalType": "uint256",
          "name": "index",
          "type": "uint256"
        }
      ],
      "name": "getInternalToken",
      "outputs": [
        {
          "internalType": "address",
          "name": "",
          "type": "address"
        }
      ],
      "stateMutability": "view",
      "type": "function"
    },
    {
      "inputs": [
        {
          "internalType": "address",
          "name": "account",
          "type": "address"
        },
        {
          "internalType": "address",
          "name": "tokenAddr",
          "type": "address"
        },
        {
          "internalType": "uint256",
          "name": "blockNumber",
          "type": "uint256"
        }
      ],
      "name": "getPriorAmount",
      "outputs": [
        {
          "internalType": "uint256",
          "name": "",
          "type": "uint256"
        }
      ],
      "stateMutability": "view",
      "type": "function"
    },
    {
      "inputs": [
        {
          "internalType": "uint256",
          "name": "index",
          "type": "uint256"
        }
      ],
      "name": "getToken",
      "outputs": [
        {
          "internalType": "address",
          "name": "",
          "type": "address"
        }
      ],
      "stateMutability": "view",
      "type": "function"
    },
    {
      "inputs": [],
      "name": "getTokens",
      "outputs": [
        {
          "internalType": "address[]",
          "name": "",
          "type": "address[]"
        }
      ],
      "stateMutability": "view",
      "type": "function"
    },
    {
      "inputs": [
        {
          "internalType": "contract DaoRegistry",
          "name": "_dao",
          "type": "address"
        },
        {
          "internalType": "address",
          "name": "creator",
          "type": "address"
        }
      ],
      "name": "initialize",
      "outputs": [],
      "stateMutability": "nonpayable",
      "type": "function"
    },
    {
      "inputs": [],
      "name": "initialized",
      "outputs": [
        {
          "internalType": "bool",
          "name": "",
          "type": "bool"
        }
      ],
      "stateMutability": "view",
      "type": "function"
    },
    {
      "inputs": [
        {
          "internalType": "uint256",
          "name": "",
          "type": "uint256"
        }
      ],
      "name": "internalTokens",
      "outputs": [
        {
          "internalType": "address",
          "name": "",
          "type": "address"
        }
      ],
      "stateMutability": "view",
      "type": "function"
    },
    {
      "inputs": [
        {
          "internalType": "address",
          "name": "from",
          "type": "address"
        },
        {
          "internalType": "address",
          "name": "to",
          "type": "address"
        },
        {
          "internalType": "address",
          "name": "token",
          "type": "address"
        },
        {
          "internalType": "uint256",
          "name": "amount",
          "type": "uint256"
        }
      ],
      "name": "internalTransfer",
      "outputs": [],
      "stateMutability": "nonpayable",
      "type": "function"
    },
    {
      "inputs": [
        {
          "internalType": "address",
          "name": "token",
          "type": "address"
        }
      ],
      "name": "isInternalToken",
      "outputs": [
        {
          "internalType": "bool",
          "name": "",
          "type": "bool"
        }
      ],
      "stateMutability": "view",
      "type": "function"
    },
    {
      "inputs": [
        {
          "internalType": "address",
          "name": "addr",
          "type": "address"
        }
      ],
      "name": "isNotReservedAddress",
      "outputs": [
        {
          "internalType": "bool",
          "name": "",
          "type": "bool"
        }
      ],
      "stateMutability": "pure",
      "type": "function"
    },
    {
      "inputs": [
        {
          "internalType": "address",
          "name": "addr",
          "type": "address"
        }
      ],
      "name": "isNotZeroAddress",
      "outputs": [
        {
          "internalType": "bool",
          "name": "",
          "type": "bool"
        }
      ],
      "stateMutability": "pure",
      "type": "function"
    },
    {
      "inputs": [
        {
          "internalType": "address",
          "name": "token",
          "type": "address"
        }
      ],
      "name": "isTokenAllowed",
      "outputs": [
        {
          "internalType": "bool",
          "name": "",
          "type": "bool"
        }
      ],
      "stateMutability": "view",
      "type": "function"
    },
    {
      "inputs": [],
      "name": "maxExternalTokens",
      "outputs": [
        {
          "internalType": "uint8",
          "name": "",
          "type": "uint8"
        }
      ],
      "stateMutability": "view",
      "type": "function"
    },
    {
      "inputs": [],
      "name": "nbInternalTokens",
      "outputs": [
        {
          "internalType": "uint256",
          "name": "",
          "type": "uint256"
        }
      ],
      "stateMutability": "view",
      "type": "function"
    },
    {
      "inputs": [],
      "name": "nbTokens",
      "outputs": [
        {
          "internalType": "uint256",
          "name": "",
          "type": "uint256"
        }
      ],
      "stateMutability": "view",
      "type": "function"
    },
    {
      "inputs": [
        {
          "internalType": "address",
          "name": "",
          "type": "address"
        },
        {
          "internalType": "address",
          "name": "",
          "type": "address"
        }
      ],
      "name": "numCheckpoints",
      "outputs": [
        {
          "internalType": "uint32",
          "name": "",
          "type": "uint32"
        }
      ],
      "stateMutability": "view",
      "type": "function"
    },
    {
      "inputs": [
        {
          "internalType": "address",
          "name": "token",
          "type": "address"
        }
      ],
      "name": "registerPotentialNewInternalToken",
      "outputs": [],
      "stateMutability": "nonpayable",
      "type": "function"
    },
    {
      "inputs": [
        {
          "internalType": "address",
          "name": "token",
          "type": "address"
        }
      ],
      "name": "registerPotentialNewToken",
      "outputs": [],
      "stateMutability": "nonpayable",
      "type": "function"
    },
    {
      "inputs": [
        {
          "internalType": "uint256",
          "name": "flags",
          "type": "uint256"
        },
        {
          "internalType": "uint256",
          "name": "flag",
          "type": "uint256"
        },
        {
          "internalType": "bool",
          "name": "value",
          "type": "bool"
        }
      ],
      "name": "setFlag",
      "outputs": [
        {
          "internalType": "uint256",
          "name": "",
          "type": "uint256"
        }
      ],
      "stateMutability": "pure",
      "type": "function"
    },
    {
      "inputs": [
        {
          "internalType": "uint8",
          "name": "maxTokens",
          "type": "uint8"
        }
      ],
      "name": "setMaxExternalTokens",
      "outputs": [],
      "stateMutability": "nonpayable",
      "type": "function"
    },
    {
      "inputs": [
        {
          "internalType": "address",
          "name": "member",
          "type": "address"
        },
        {
          "internalType": "address",
          "name": "token",
          "type": "address"
        },
        {
          "internalType": "uint256",
          "name": "amount",
          "type": "uint256"
        }
      ],
      "name": "subtractFromBalance",
      "outputs": [],
      "stateMutability": "nonpayable",
      "type": "function"
    },
    {
      "inputs": [
        {
          "internalType": "uint256",
          "name": "",
          "type": "uint256"
        }
      ],
      "name": "tokens",
      "outputs": [
        {
          "internalType": "address",
          "name": "",
          "type": "address"
        }
      ],
      "stateMutability": "view",
      "type": "function"
    },
    {
      "inputs": [
        {
          "internalType": "address",
          "name": "tokenAddr",
          "type": "address"
        }
      ],
      "name": "updateToken",
      "outputs": [],
      "stateMutability": "nonpayable",
      "type": "function"
    },
    {
      "inputs": [
        {
          "internalType": "address payable",
          "name": "member",
          "type": "address"
        },
        {
          "internalType": "address",
          "name": "tokenAddr",
          "type": "address"
        },
        {
          "internalType": "uint256",
          "name": "amount",
          "type": "uint256"
        }
      ],
      "name": "withdraw",
      "outputs": [],
      "stateMutability": "nonpayable",
      "type": "function"
    }
  ],
  "bytecode": "0x60806040526000805461ff001916905534801561001b57600080fd5b5061313e8061002b6000396000f3fe6080604052600436106101d85760003560e01c80638f02487811610102578063e3a05cc111610095578063f7e15acf11610064578063f7e15acf14610555578063f9eaee0d14610575578063faaf38b314610595578063fc258031146105b5576101d8565b8063e3a05cc1146104d5578063e4b50cb8146104f5578063ef6a249914610515578063f7888aec14610535576101d8565b8063b244a41d116100d1578063b244a41d14610462578063c57d5fe914610482578063ca0f463314610495578063d9caed12146104b5576101d8565b80638f024878146103de57806394cb0947146103fe5780639d9ccd7d1461041e578063aa6ca80814610440576101d8565b80634f64b2be1161017a5780637a81edb9116101495780637a81edb91461035a5780637ad3def21461037c5780637de66b6d1461039c57806387c672ee146103b1576101d8565b80634f64b2be146102cc5780636347c440146102ec57806369af242f1461030c5780637082e63d1461032c576101d8565b8063388495ba116101b6578063388495ba146102555780634162169f1461027557806344a29e2a1461028a578063485cc955146102ac576101d8565b806314a33216146101dd578063158ef93e1461021357806315d89f6014610228575b600080fd5b3480156101e957600080fd5b506101fd6101f83660046125e1565b6105d5565b60405161020a9190612903565b60405180910390f35b34801561021f57600080fd5b506101fd6105f3565b34801561023457600080fd5b50610248610243366004612782565b610601565b60405161020a9190612840565b34801561026157600080fd5b506101fd6102703660046125e1565b61063f565b34801561028157600080fd5b50610248610654565b34801561029657600080fd5b506102aa6102a5366004612691565b610669565b005b3480156102b857600080fd5b506102aa6102c7366004612659565b61086c565b3480156102d857600080fd5b506102486102e7366004612782565b610bc4565b3480156102f857600080fd5b50610248610307366004612782565b610bee565b34801561031857600080fd5b506102aa6103273660046125e1565b610bfe565b34801561033857600080fd5b5061034c6103473660046126f5565b610eb0565b60405161020a929190612e86565b34801561036657600080fd5b5061036f610ef3565b60405161020a9190612e5e565b34801561038857600080fd5b506102aa6103973660046125e1565b610ef9565b3480156103a857600080fd5b5061036f6111f8565b3480156103bd57600080fd5b506103d16103cc366004612659565b6111fe565b60405161020a9190612e67565b3480156103ea57600080fd5b506102aa6103f9366004612800565b611221565b34801561040a57600080fd5b506101fd6104193660046125e1565b611292565b34801561042a57600080fd5b506104336112a7565b60405161020a9190612e78565b34801561044c57600080fd5b506104556112b0565b60405161020a91906128b6565b34801561046e57600080fd5b5061036f61047d3660046127d3565b611312565b6102aa6104903660046126e1565b61136e565b3480156104a157600080fd5b506101fd6104b03660046125e1565b6115be565b3480156104c157600080fd5b506102aa6104d0366004612619565b6115cc565b3480156104e157600080fd5b506102aa6104f03660046126e1565b61181e565b34801561050157600080fd5b50610248610510366004612782565b6119f9565b34801561052157600080fd5b506101fd6105303660046125e1565b611a1c565b34801561054157600080fd5b50610248610550366004612659565b611a61565b34801561056157600080fd5b506102aa6105703660046125e1565b611afe565b34801561058157600080fd5b506101fd6105903660046125e1565b611d87565b3480156105a157600080fd5b5061036f6105b03660046126e1565b611da5565b3480156105c157600080fd5b506101fd6105d03660046127b2565b612057565b6001600160a01b031660009081526004602052604090205460ff1690565b600054610100900460ff1681565b60006002828154811061062457634e487b7160e01b600052603260045260246000fd5b6000918252602090912001546001600160a01b031692915050565b60046020526000908152604090205460ff1681565b6000546201000090046001600160a01b031681565b60023033148061068957506000546201000090046001600160a01b031633145b80610737575060008060029054906101000a90046001600160a01b03166001600160a01b031663c19d93fb6040518163ffffffff1660e01b815260040160206040518083038186803b1580156106de57600080fd5b505afa1580156106f2573d6000803e3d6000fd5b505050506040513d601f19601f820116820180604052508101906107169190612763565b600181111561073557634e487b7160e01b600052602160045260246000fd5b145b806107e457506000546201000090046001600160a01b0316636cfdc32e333084600681111561077657634e487b7160e01b600052602160045260246000fd5b6040518463ffffffff1660e01b815260040161079493929190612877565b60206040518083038186803b1580156107ac57600080fd5b505afa1580156107c0573d6000803e3d6000fd5b505050506040513d601f19601f820116820180604052508101906107e49190612747565b6108095760405162461bcd60e51b8152600401610800906129d5565b60405180910390fd5b6000826108168786611a61565b6001600160a01b0316610829919061301f565b90506000836108388787611a61565b6001600160a01b031661084b9190612ead565b9050610858878684612074565b610863868683612074565b50505050505050565b600054610100900460ff16156108945760405162461bcd60e51b815260040161080090612a78565b6040517fa230c5240000000000000000000000000000000000000000000000000000000081526001600160a01b0383169063a230c524906108d9908490600401612840565b60206040518083038186803b1580156108f157600080fd5b505afa158015610905573d6000803e3d6000fd5b505050506040513d601f19601f820116820180604052508101906109299190612747565b6109455760405162461bcd60e51b815260040161080090612e27565b6000805461ff00196001600160a01b0385166201000081027fffffffffffffffffffff0000000000000000000000000000000000000000ffff9093169290921716610100178255600460208181527fb7f83afeb462637ef6301fd56570add78cf92cc9f170798dfd2d97a6853e4f6a805460ff1990811660019081179092556002805480840182557f405787fa12a823e0f2b7631cc41b3ba8828b3321ca811111fa75cd3aa3bb5ace908101805473ffffffffffffffffffffffffffffffffffffffff19908116620ff1ce179091557f139afb03ad4684ea54b0250d557080b7436d54fab3fc5f659ac9e92ea508ac46805490941685179093558154938401825590875291909101805490911663decafbad179055604080517fc6714366000000000000000000000000000000000000000000000000000000008152905163c6714366938281019392829003018186803b158015610aa257600080fd5b505afa158015610ab6573d6000803e3d6000fd5b505050506040513d601f19601f82011682018060405250810190610ada919061279a565b905060005b81811015610b9e576040517f9029444a000000000000000000000000000000000000000000000000000000008152610b8c906001600160a01b03861690639029444a90610b30908590600401612e5e565b60206040518083038186803b158015610b4857600080fd5b505afa158015610b5c573d6000803e3d6000fd5b505050506040513d601f19601f82011682018060405250810190610b8091906125fd565b63decafbad600161136e565b80610b9681613087565b915050610adf565b50610bae82620ff1ce6001612074565b610bbf61babe620ff1ce6001612074565b505050565b60018181548110610bd457600080fd5b6000918252602090912001546001600160a01b0316905081565b60028181548110610bd457600080fd5b600430331480610c1e57506000546201000090046001600160a01b031633145b80610ccc575060008060029054906101000a90046001600160a01b03166001600160a01b031663c19d93fb6040518163ffffffff1660e01b815260040160206040518083038186803b158015610c7357600080fd5b505afa158015610c87573d6000803e3d6000fd5b505050506040513d601f19601f82011682018060405250810190610cab9190612763565b6001811115610cca57634e487b7160e01b600052602160045260246000fd5b145b80610d7957506000546201000090046001600160a01b0316636cfdc32e3330846006811115610d0b57634e487b7160e01b600052602160045260246000fd5b6040518463ffffffff1660e01b8152600401610d2993929190612877565b60206040518083038186803b158015610d4157600080fd5b505afa158015610d55573d6000803e3d6000fd5b505050506040513d601f19601f82011682018060405250810190610d799190612747565b610d955760405162461bcd60e51b8152600401610800906129d5565b610d9e82611a1c565b610dba5760405162461bcd60e51b815260040161080090612941565b6001600160a01b03821660009081526004602052604090205460ff1615610df35760405162461bcd60e51b815260040161080090612c6b565b60005460015460ff9091161015610e1c5760405162461bcd60e51b815260040161080090612c0e565b6001600160a01b03821660009081526003602052604090205460ff16610eac576001600160a01b0382166000818152600360205260408120805460ff191660019081179091558054808201825591527fb10e2d527612073b26eecdfd717e6a320cf44b4afac2b0732d9fcbe2b7fa0cf601805473ffffffffffffffffffffffffffffffffffffffff191690911790555b5050565b60056020908152600093845260408085208252928452828420905282529020546bffffffffffffffffffffffff811690600160601b90046001600160a01b031682565b60025490565b600630331480610f1957506000546201000090046001600160a01b031633145b80610fc7575060008060029054906101000a90046001600160a01b03166001600160a01b031663c19d93fb6040518163ffffffff1660e01b815260040160206040518083038186803b158015610f6e57600080fd5b505afa158015610f82573d6000803e3d6000fd5b505050506040513d601f19601f82011682018060405250810190610fa69190612763565b6001811115610fc557634e487b7160e01b600052602160045260246000fd5b145b8061107457506000546201000090046001600160a01b0316636cfdc32e333084600681111561100657634e487b7160e01b600052602160045260246000fd5b6040518463ffffffff1660e01b815260040161102493929190612877565b60206040518083038186803b15801561103c57600080fd5b505afa158015611050573d6000803e3d6000fd5b505050506040513d601f19601f820116820180604052508101906110749190612747565b6110905760405162461bcd60e51b8152600401610800906129d5565b61109982611d87565b6110b55760405162461bcd60e51b815260040161080090612ae6565b60006110c361babe84611a61565b6001600160a01b03908116915060009084166110e057504761117b565b6040517f70a0823100000000000000000000000000000000000000000000000000000000815284906001600160a01b038216906370a0823190611127903090600401612840565b60206040518083038186803b15801561113f57600080fd5b505afa158015611153573d6000803e3d6000fd5b505050506040513d601f19601f82011682018060405250810190611177919061279a565b9150505b808210156111995761119461dead85610490858561301f565b6111f2565b808211156111f25760006111ad828461301f565b905060006111bd61dead87611a61565b6001600160a01b03169050818111156111e2576111dd61dead878461181e565b6111ef565b6111ef61dead878361181e565b50505b50505050565b60015490565b600660209081526000928352604080842090915290825290205463ffffffff1681565b600054610100900460ff16156112495760405162461bcd60e51b815260040161080090612a78565b60008160ff16118015611260575060c860ff821611155b61127c5760405162461bcd60e51b815260040161080090612dca565b6000805460ff191660ff92909216919091179055565b60036020526000908152604090205460ff1681565b60005460ff1681565b6060600180548060200260200160405190810160405280929190818152602001828054801561130857602002820191906000526020600020905b81546001600160a01b031681526001909101906020018083116112ea575b5050505050905090565b60008115156113218585612057565b15151461136457811561134a57611339836002612f56565b6113439085612ead565b9050611367565b611355836002612f56565b611343908561301f565b611367565b50825b9392505050565b60003033148061138e57506000546201000090046001600160a01b031633145b8061143c575060008060029054906101000a90046001600160a01b03166001600160a01b031663c19d93fb6040518163ffffffff1660e01b815260040160206040518083038186803b1580156113e357600080fd5b505afa1580156113f7573d6000803e3d6000fd5b505050506040513d601f19601f8201168201806040525081019061141b9190612763565b600181111561143a57634e487b7160e01b600052602160045260246000fd5b145b806114e957506000546201000090046001600160a01b0316636cfdc32e333084600681111561147b57634e487b7160e01b600052602160045260246000fd5b6040518463ffffffff1660e01b815260040161149993929190612877565b60206040518083038186803b1580156114b157600080fd5b505afa1580156114c5573d6000803e3d6000fd5b505050506040513d601f19601f820116820180604052508101906114e99190612747565b6115055760405162461bcd60e51b8152600401610800906129d5565b6001600160a01b03831660009081526003602052604090205460ff168061154457506001600160a01b03831660009081526004602052604090205460ff165b6115605760405162461bcd60e51b815260040161080090612ca2565b60008261156d8686611a61565b6001600160a01b03166115809190612ead565b905060008361159161babe87611a61565b6001600160a01b03166115a49190612ead565b90506115b1868684612074565b6111ef61babe8683612074565b6001600160a01b0316151590565b6003303314806115ec57506000546201000090046001600160a01b031633145b8061169a575060008060029054906101000a90046001600160a01b03166001600160a01b031663c19d93fb6040518163ffffffff1660e01b815260040160206040518083038186803b15801561164157600080fd5b505afa158015611655573d6000803e3d6000fd5b505050506040513d601f19601f820116820180604052508101906116799190612763565b600181111561169857634e487b7160e01b600052602160045260246000fd5b145b8061174757506000546201000090046001600160a01b0316636cfdc32e33308460068111156116d957634e487b7160e01b600052602160045260246000fd5b6040518463ffffffff1660e01b81526004016116f793929190612877565b60206040518083038186803b15801561170f57600080fd5b505afa158015611723573d6000803e3d6000fd5b505050506040513d601f19601f820116820180604052508101906117479190612747565b6117635760405162461bcd60e51b8152600401610800906129d5565b8161176e8585611a61565b6001600160a01b031610156117955760405162461bcd60e51b815260040161080090612a43565b6117a084848461181e565b6001600160a01b0383166117c6576117c16001600160a01b03851683612350565b6117dd565b826117db6001600160a01b03821686856123ec565b505b7ff4d47ca48b90728e6b853fff159bd92cdbd2be6ce116e9ebd8ca4f7f68ce4c8d84848460405161181093929190612854565b60405180910390a150505050565b60013033148061183e57506000546201000090046001600160a01b031633145b806118ec575060008060029054906101000a90046001600160a01b03166001600160a01b031663c19d93fb6040518163ffffffff1660e01b815260040160206040518083038186803b15801561189357600080fd5b505afa1580156118a7573d6000803e3d6000fd5b505050506040513d601f19601f820116820180604052508101906118cb9190612763565b60018111156118ea57634e487b7160e01b600052602160045260246000fd5b145b8061199957506000546201000090046001600160a01b0316636cfdc32e333084600681111561192b57634e487b7160e01b600052602160045260246000fd5b6040518463ffffffff1660e01b815260040161194993929190612877565b60206040518083038186803b15801561196157600080fd5b505afa158015611975573d6000803e3d6000fd5b505050506040513d601f19601f820116820180604052508101906119999190612747565b6119b55760405162461bcd60e51b8152600401610800906129d5565b6000826119c28686611a61565b6001600160a01b03166119d5919061301f565b90506000836119e661babe87611a61565b6001600160a01b03166115a4919061301f565b60006001828154811061062457634e487b7160e01b600052603260045260246000fd5b60006001600160a01b03821661dead14801590611a4457506001600160a01b03821661babe14155b8015611a5b57506001600160a01b038216614bec14155b92915050565b6001600160a01b03808216600090815260066020908152604080832093861683529290529081205463ffffffff1680611a9b576000611af6565b6001600160a01b038084166000908152600560209081526040808320938816835292905290812090611ace600184613036565b63ffffffff168152602081019190915260400160002054600160601b90046001600160a01b03165b949350505050565b600530331480611b1e57506000546201000090046001600160a01b031633145b80611bcc575060008060029054906101000a90046001600160a01b03166001600160a01b031663c19d93fb6040518163ffffffff1660e01b815260040160206040518083038186803b158015611b7357600080fd5b505afa158015611b87573d6000803e3d6000fd5b505050506040513d601f19601f82011682018060405250810190611bab9190612763565b6001811115611bca57634e487b7160e01b600052602160045260246000fd5b145b80611c7957506000546201000090046001600160a01b0316636cfdc32e3330846006811115611c0b57634e487b7160e01b600052602160045260246000fd5b6040518463ffffffff1660e01b8152600401611c2993929190612877565b60206040518083038186803b158015611c4157600080fd5b505afa158015611c55573d6000803e3d6000fd5b505050506040513d601f19601f82011682018060405250810190611c799190612747565b611c955760405162461bcd60e51b8152600401610800906129d5565b611c9e82611a1c565b611cba5760405162461bcd60e51b815260040161080090612941565b6001600160a01b03821660009081526003602052604090205460ff1615611cf35760405162461bcd60e51b815260040161080090612a0c565b6001600160a01b03821660009081526004602052604090205460ff16610eac57506001600160a01b03166000818152600460205260408120805460ff191660019081179091556002805491820181559091527f405787fa12a823e0f2b7631cc41b3ba8828b3321ca811111fa75cd3aa3bb5ace01805473ffffffffffffffffffffffffffffffffffffffff19169091179055565b6001600160a01b031660009081526003602052604090205460ff1690565b6000438210611dc65760405162461bcd60e51b815260040161080090612bb1565b6001600160a01b0380841660009081526006602090815260408083209388168352929052205463ffffffff1680611e01576000915050611367565b6001600160a01b03808516600090815260056020908152604080832093891683529290529081208491611e35600185613036565b63ffffffff1681526020810191909152604001600020546bffffffffffffffffffffffff1611611ec2576001600160a01b038085166000908152600560209081526040808320938916835292905290812090611e92600184613036565b63ffffffff168152602081019190915260400160002054600160601b90046001600160a01b031691506113679050565b6001600160a01b0380851660009081526005602090815260408083209389168352928152828220828052905220546bffffffffffffffffffffffff16831015611f0f576000915050611367565b600080611f1d600184613036565b90505b8163ffffffff168163ffffffff16111561200c5760006002611f428484613036565b611f4c9190612eed565b611f569083613036565b6001600160a01b0380891660009081526005602090815260408083208d85168452825280832063ffffffff861684528252918290208251808401909352546bffffffffffffffffffffffff8116808452600160601b90910490931690820152919250871415611fd857602001516001600160a01b031694506113679350505050565b80516bffffffffffffffffffffffff16871115611ff757819350612005565b612002600183613036565b92505b5050611f20565b506001600160a01b0380861660009081526005602090815260408083208a85168452825280832063ffffffff90951683529390529190912054600160601b9004169150509392505050565b600061206a600260ff841685901c6130a2565b6001149392505050565b6001600160a01b03821660009081526004602052604081205460ff16156120c7576affffffffffffffffffffff82106120bf5760405162461bcd60e51b815260040161080090612d10565b506001612112565b6001600160a01b03831660009081526003602052604090205460ff1615612112576001600160a01b03821061210e5760405162461bcd60e51b815260040161080090612978565b5060015b81816121305760405162461bcd60e51b815260040161080090612aaf565b6001600160a01b0380851660009081526006602090815260408083209389168352929052205463ffffffff1680158015906121c157506001600160a01b038086166000908152600560209081526040808320938a168352929052908120439161219a600185613036565b63ffffffff1681526020810191909152604001600020546bffffffffffffffffffffffff16145b1561223f576001600160a01b038086166000908152600560209081526040808320938a16835292905290812083916121fa600185613036565b63ffffffff168152602081019190915260400160002080546001600160a01b0392909216600160601b026bffffffffffffffffffffffff90921691909117905561230d565b6040805180820182526bffffffffffffffffffffffff43811682526001600160a01b0380861660208085019182528a83166000908152600582528681208d85168252825286812063ffffffff8916825290915294909420925183549451909116600160601b029082166bffffffffffffffffffffffff1990941693909317169190911790556122cf816001612ec5565b6001600160a01b038681166000908152600660209081526040808320938b16835292905220805463ffffffff191663ffffffff929092169190911790555b7f8c48e112a72a674174f206bf9efbb831870ac801f9c5e7953811c0a70d1ab00186868460405161234093929190612854565b60405180910390a1505050505050565b804710156123705760405162461bcd60e51b815260040161080090612b7a565b6000826001600160a01b0316826040516123899061283d565b60006040518083038185875af1925050503d80600081146123c6576040519150601f19603f3d011682016040523d82523d6000602084013e6123cb565b606091505b5050905080610bbf5760405162461bcd60e51b815260040161080090612b1d565b610bbf8363a9059cbb60e01b848460405160240161240b92919061289d565b60408051601f198184030181529190526020810180517bffffffffffffffffffffffffffffffffffffffffffffffffffffffff167fffffffff000000000000000000000000000000000000000000000000000000009093169290921790915260006124bf826040518060400160405280602081526020017f5361666545524332303a206c6f772d6c6576656c2063616c6c206661696c6564815250856001600160a01b03166124f99092919063ffffffff16565b805190915015610bbf57808060200190518101906124dd9190612747565b610bbf5760405162461bcd60e51b815260040161080090612d6d565b6060611af684846000858561250d856125a2565b6125295760405162461bcd60e51b815260040161080090612cd9565b600080866001600160a01b031685876040516125459190612821565b60006040518083038185875af1925050503d8060008114612582576040519150601f19603f3d011682016040523d82523d6000602084013e612587565b606091505b50915091506125978282866125a8565b979650505050505050565b3b151590565b606083156125b7575081611367565b8251156125c75782518084602001fd5b8160405162461bcd60e51b8152600401610800919061290e565b6000602082840312156125f2578081fd5b8135611367816130e2565b60006020828403121561260e578081fd5b8151611367816130e2565b60008060006060848603121561262d578182fd5b8335612638816130e2565b92506020840135612648816130e2565b929592945050506040919091013590565b6000806040838503121561266b578182fd5b8235612676816130e2565b91506020830135612686816130e2565b809150509250929050565b600080600080608085870312156126a6578081fd5b84356126b1816130e2565b935060208501356126c1816130e2565b925060408501356126d1816130e2565b9396929550929360600135925050565b60008060006060848603121561262d578283fd5b600080600060608486031215612709578283fd5b8335612714816130e2565b92506020840135612724816130e2565b9150604084013563ffffffff8116811461273c578182fd5b809150509250925092565b600060208284031215612758578081fd5b8151611367816130fa565b600060208284031215612774578081fd5b815160028110611367578182fd5b600060208284031215612793578081fd5b5035919050565b6000602082840312156127ab578081fd5b5051919050565b600080604083850312156127c4578182fd5b50508035926020909101359150565b6000806000606084860312156127e7578081fd5b8335925060208401359150604084013561273c816130fa565b600060208284031215612811578081fd5b813560ff81168114611367578182fd5b6000825161283381846020870161305b565b9190910192915050565b90565b6001600160a01b0391909116815260200190565b6001600160a01b0393841681529183166020830152909116604082015260600190565b6001600160a01b03938416815291909216602082015260ff909116604082015260600190565b6001600160a01b03929092168252602082015260400190565b6020808252825182820181905260009190848201906040850190845b818110156128f75783516001600160a01b0316835292840192918401916001016128d2565b50909695505050505050565b901515815260200190565b600060208252825180602084015261292d81604085016020870161305b565b601f01601f19169190910160400192915050565b6020808252600d908201527f7265736572766564546f6b656e00000000000000000000000000000000000000604082015260600190565b6020808252603a908201527f746f6b656e20616d6f756e74206578636565647320746865206d6178696d756d60408201527f206c696d697420666f722065787465726e616c20746f6b656e73000000000000606082015260800190565b60208082526012908201527f62616e6b3a3a61636365737344656e6965640000000000000000000000000000604082015260600190565b6020808252600e908201527f617661696c61626c65546f6b656e000000000000000000000000000000000000604082015260600190565b6020808252818101527f62616e6b3a3a77697468647261773a3a6e6f7420656e6f7567682066756e6473604082015260600190565b60208082526018908201527f62616e6b20616c726561647920696e697469616c697a65640000000000000000604082015260600190565b60208082526014908201527f746f6b656e206e6f742072656769737465726564000000000000000000000000604082015260600190565b60208082526011908201527f746f6b656e206e6f7420616c6c6f776564000000000000000000000000000000604082015260600190565b6020808252603a908201527f416464726573733a20756e61626c6520746f2073656e642076616c75652c207260408201527f6563697069656e74206d61792068617665207265766572746564000000000000606082015260800190565b6020808252601d908201527f416464726573733a20696e73756666696369656e742062616c616e6365000000604082015260600190565b60208082526027908201527f556e693a3a6765745072696f72416d6f756e743a206e6f74207965742064657460408201527f65726d696e656400000000000000000000000000000000000000000000000000606082015260800190565b60208082526022908201527f6578636565647320746865206d6178696d756d20746f6b656e7320616c6c6f7760408201527f6564000000000000000000000000000000000000000000000000000000000000606082015260800190565b6020808252600d908201527f696e7465726e616c546f6b656e00000000000000000000000000000000000000604082015260600190565b60208082526015908201527f756e6b6e6f776e20746f6b656e20616464726573730000000000000000000000604082015260600190565b6020808252601d908201527f416464726573733a2063616c6c20746f206e6f6e2d636f6e7472616374000000604082015260600190565b6020808252603a908201527f746f6b656e20616d6f756e74206578636565647320746865206d6178696d756d60408201527f206c696d697420666f7220696e7465726e616c20746f6b656e73000000000000606082015260800190565b6020808252602a908201527f5361666545524332303a204552433230206f7065726174696f6e20646964206e60408201527f6f74207375636365656400000000000000000000000000000000000000000000606082015260800190565b6020808252602f908201527f6d6178206e756d626572206f662065787465726e616c20746f6b656e7320736860408201527f6f756c642062652028302c323030290000000000000000000000000000000000606082015260800190565b60208082526010908201527f62616e6b3a3a6e6f74206d656d62657200000000000000000000000000000000604082015260600190565b90815260200190565b63ffffffff91909116815260200190565b60ff91909116815260200190565b6bffffffffffffffffffffffff9290921682526001600160a01b0316602082015260400190565b60008219821115612ec057612ec06130b6565b500190565b600063ffffffff808316818516808303821115612ee457612ee46130b6565b01949350505050565b600063ffffffff80841680612f0457612f046130cc565b92169190910492915050565b80825b6001808611612f225750612f4d565b818704821115612f3457612f346130b6565b80861615612f4157918102915b9490941c938002612f13565b94509492505050565b60006113676000198484600082612f6f57506001611367565b81612f7c57506000611367565b8160018114612f925760028114612f9c57612fc9565b6001915050611367565b60ff841115612fad57612fad6130b6565b6001841b915084821115612fc357612fc36130b6565b50611367565b5060208310610133831016604e8410600b8410161715612ff7575081810a8381111561135f5761135f6130b6565b6130048484846001612f10565b808604821115613016576130166130b6565b02949350505050565b600082821015613031576130316130b6565b500390565b600063ffffffff83811690831681811015613053576130536130b6565b039392505050565b60005b8381101561307657818101518382015260200161305e565b838111156111f25750506000910152565b600060001982141561309b5761309b6130b6565b5060010190565b6000826130b1576130b16130cc565b500690565b634e487b7160e01b600052601160045260246000fd5b634e487b7160e01b600052601260045260246000fd5b6001600160a01b03811681146130f757600080fd5b50565b80151581146130f757600080fdfea2646970667358221220289aa78d0db9087e46f770ba68aaa7321cd036765de94387282291c94198d93c64736f6c63430008000033",
  "linkReferences": {},
  "deployedLinkReferences": {}
}