{
  "_format": "hh-sol-artifact-1",
  "contractName": "BankAdapterContract",
  "sourceName": "build/sources/adapters/BankAdapter.sol",
  "abi": [
    {
      "inputs": [
        {
          "internalType": "uint256",
          "name": "flags",
          "type": "uint256"
        },
        {
          "internalType": "uint256",
          "name": "flag",
          "type": "uint256"
        }
      ],
      "name": "getFlag",
      "outputs": [
        {
          "internalType": "bool",
          "name": "",
          "type": "bool"
        }
      ],
      "stateMutability": "pure",
      "type": "function"
    },
    {
      "inputs": [
        {
          "internalType": "address",
          "name": "addr",
          "type": "address"
        }
      ],
      "name": "isNotReservedAddress",
      "outputs": [
        {
          "internalType": "bool",
          "name": "",
          "type": "bool"
        }
      ],
      "stateMutability": "pure",
      "type": "function"
    },
    {
      "inputs": [
        {
          "internalType": "address",
          "name": "addr",
          "type": "address"
        }
      ],
      "name": "isNotZeroAddress",
      "outputs": [
        {
          "internalType": "bool",
          "name": "",
          "type": "bool"
        }
      ],
      "stateMutability": "pure",
      "type": "function"
    },
    {
      "inputs": [
        {
          "internalType": "uint256",
          "name": "flags",
          "type": "uint256"
        },
        {
          "internalType": "uint256",
          "name": "flag",
          "type": "uint256"
        },
        {
          "internalType": "bool",
          "name": "value",
          "type": "bool"
        }
      ],
      "name": "setFlag",
      "outputs": [
        {
          "internalType": "uint256",
          "name": "",
          "type": "uint256"
        }
      ],
      "stateMutability": "pure",
      "type": "function"
    },
    {
      "inputs": [
        {
          "internalType": "contract DaoRegistry",
          "name": "dao",
          "type": "address"
        },
        {
          "internalType": "address",
          "name": "token",
          "type": "address"
        }
      ],
      "name": "updateToken",
      "outputs": [],
      "stateMutability": "nonpayable",
      "type": "function"
    },
    {
      "inputs": [
        {
          "internalType": "contract DaoRegistry",
          "name": "dao",
          "type": "address"
        },
        {
          "internalType": "address payable",
          "name": "account",
          "type": "address"
        },
        {
          "internalType": "address",
          "name": "token",
          "type": "address"
        }
      ],
      "name": "withdraw",
      "outputs": [],
      "stateMutability": "nonpayable",
      "type": "function"
    },
    {
      "stateMutability": "payable",
      "type": "receive"
    }
  ],
  "bytecode": "0x608060405234801561001057600080fd5b50610bee806100206000396000f3fe6080604052600436106100695760003560e01c8063ef6a249911610043578063ef6a249914610119578063fc25803114610139578063ff7885e8146101595761008f565b8063366d2dba14610094578063b244a41d146100b6578063ca0f4633146100ec5761008f565b3661008f5760405162461bcd60e51b8152600401610086906109f5565b60405180910390fd5b600080fd5b3480156100a057600080fd5b506100b46100af3660046107fe565b610179565b005b3480156100c257600080fd5b506100d66100d13660046108b9565b6103cf565b6040516100e39190610947565b60405180910390f35b3480156100f857600080fd5b5061010c6101073660046107c6565b61042b565b6040516100e3919061093c565b34801561012557600080fd5b5061010c6101343660046107c6565b610439565b34801561014557600080fd5b5061010c610154366004610898565b61047e565b34801561016557600080fd5b506100b4610174366004610836565b61049b565b8143816001600160a01b031663b21634826040518163ffffffff1660e01b815260040160206040518083038186803b1580156101b457600080fd5b505afa1580156101c8573d6000803e3d6000fd5b505050506040513d601f19601f820116820180604052508101906101ec9190610880565b141561020a5760405162461bcd60e51b815260040161008690610987565b806001600160a01b03166310fdb0a26040518163ffffffff1660e01b8152600401600060405180830381600087803b15801561024557600080fd5b505af1158015610259573d6000803e3d6000fd5b5050604051632c9f4b5b60e11b8152600092506001600160a01b038616915063593e96b6906102ac907fea0ca03c7adbe41dc655fec28a9209dc8e6e042f3d991a67765ba285b9cf73a090600401610947565b60206040518083038186803b1580156102c457600080fd5b505afa1580156102d8573d6000803e3d6000fd5b505050506040513d601f19601f820116820180604052508101906102fc91906107e2565b6040517f7ad3def20000000000000000000000000000000000000000000000000000000081529091506001600160a01b03821690637ad3def2906103449086906004016108ea565b600060405180830381600087803b15801561035e57600080fd5b505af1158015610372573d6000803e3d6000fd5b5050505050806001600160a01b031663d4f7af436040518163ffffffff1660e01b8152600401600060405180830381600087803b1580156103b257600080fd5b505af11580156103c6573d6000803e3d6000fd5b50505050505050565b60008115156103de858561047e565b151514610421578115610407576103f6836002610a8a565b6104009085610a2c565b9050610424565b610412836002610a8a565b6104009085610b53565b610424565b50825b9392505050565b6001600160a01b0316151590565b60006001600160a01b03821661dead1480159061046157506001600160a01b03821661babe14155b801561047857506001600160a01b038216614bec14155b92915050565b6000610491600260ff841685901c610b6a565b6001149392505050565b8243816001600160a01b031663b21634826040518163ffffffff1660e01b815260040160206040518083038186803b1580156104d657600080fd5b505afa1580156104ea573d6000803e3d6000fd5b505050506040513d601f19601f8201168201806040525081019061050e9190610880565b141561052c5760405162461bcd60e51b815260040161008690610987565b806001600160a01b03166310fdb0a26040518163ffffffff1660e01b8152600401600060405180830381600087803b15801561056757600080fd5b505af115801561057b573d6000803e3d6000fd5b5050505061058883610439565b6105a45760405162461bcd60e51b815260040161008690610950565b604051632c9f4b5b60e11b81526000906001600160a01b0386169063593e96b6906105f3907fea0ca03c7adbe41dc655fec28a9209dc8e6e042f3d991a67765ba285b9cf73a090600401610947565b60206040518083038186803b15801561060b57600080fd5b505afa15801561061f573d6000803e3d6000fd5b505050506040513d601f19601f8201168201806040525081019061064391906107e2565b90506000816001600160a01b031663f7888aec86866040518363ffffffff1660e01b81526004016106759291906108fe565b60206040518083038186803b15801561068d57600080fd5b505afa1580156106a1573d6000803e3d6000fd5b505050506040513d601f19601f820116820180604052508101906106c591906107e2565b6001600160a01b03169050600081116106f05760405162461bcd60e51b8152600401610086906109be565b6040517fd9caed120000000000000000000000000000000000000000000000000000000081526001600160a01b0383169063d9caed129061073990889088908690600401610918565b600060405180830381600087803b15801561075357600080fd5b505af1158015610767573d6000803e3d6000fd5b505050505050806001600160a01b031663d4f7af436040518163ffffffff1660e01b8152600401600060405180830381600087803b1580156107a857600080fd5b505af11580156107bc573d6000803e3d6000fd5b5050505050505050565b6000602082840312156107d7578081fd5b813561042481610ba0565b6000602082840312156107f3578081fd5b815161042481610ba0565b60008060408385031215610810578081fd5b823561081b81610ba0565b9150602083013561082b81610ba0565b809150509250929050565b60008060006060848603121561084a578081fd5b833561085581610ba0565b9250602084013561086581610ba0565b9150604084013561087581610ba0565b809150509250925092565b600060208284031215610891578081fd5b5051919050565b600080604083850312156108aa578182fd5b50508035926020909101359150565b6000806000606084860312156108cd578283fd5b833592506020840135915060408401358015158114610875578182fd5b6001600160a01b0391909116815260200190565b6001600160a01b0392831681529116602082015260400190565b6001600160a01b039384168152919092166020820152604081019190915260600190565b901515815260200190565b90815260200190565b6020808252601a908201527f77697468647261773a3a72657365727665642061646472657373000000000000604082015260600190565b60208082526010908201527f7265656e7472616e637920677561726400000000000000000000000000000000604082015260600190565b60208082526013908201527f6e6f7468696e6720746f20776974686472617700000000000000000000000000604082015260600190565b6020808252600f908201527f66616c6c6261636b207265766572740000000000000000000000000000000000604082015260600190565b60008219821115610a3f57610a3f610b8a565b500190565b80825b6001808611610a565750610a81565b818704821115610a6857610a68610b8a565b80861615610a7557918102915b9490941c938002610a47565b94509492505050565b60006104246000198484600082610aa357506001610424565b81610ab057506000610424565b8160018114610ac65760028114610ad057610afd565b6001915050610424565b60ff841115610ae157610ae1610b8a565b6001841b915084821115610af757610af7610b8a565b50610424565b5060208310610133831016604e8410600b8410161715610b2b575081810a8381111561041c5761041c610b8a565b610b388484846001610a44565b808604821115610b4a57610b4a610b8a565b02949350505050565b600082821015610b6557610b65610b8a565b500390565b600082610b8557634e487b7160e01b81526012600452602481fd5b500690565b634e487b7160e01b600052601160045260246000fd5b6001600160a01b0381168114610bb557600080fd5b5056fea26469706673582212200dbeee987931ae4477270331f15c78b5c23b83532333de5557a5a7724f06f18d64736f6c63430008000033",
  "linkReferences": {},
  "deployedLinkReferences": {}
}