{
  "_format": "hh-sol-artifact-1",
  "contractName": "BankFactory",
  "sourceName": "build/sources/extensions/bank/BankFactory.sol",
  "abi": [
    {
      "inputs": [
        {
          "internalType": "address",
          "name": "_identityAddress",
          "type": "address"
        }
      ],
      "stateMutability": "nonpayable",
      "type": "constructor"
    },
    {
      "anonymous": false,
      "inputs": [
        {
          "indexed": false,
          "internalType": "address",
          "name": "bankAddress",
          "type": "address"
        }
      ],
      "name": "BankCreated",
      "type": "event"
    },
    {
      "inputs": [
        {
          "internalType": "uint8",
          "name": "maxExternalTokens",
          "type": "uint8"
        }
      ],
      "name": "createBank",
      "outputs": [],
      "stateMutability": "nonpayable",
      "type": "function"
    },
    {
      "inputs": [
        {
          "internalType": "uint256",
          "name": "flags",
          "type": "uint256"
        },
        {
          "internalType": "uint256",
          "name": "flag",
          "type": "uint256"
        }
      ],
      "name": "getFlag",
      "outputs": [
        {
          "internalType": "bool",
          "name": "",
          "type": "bool"
        }
      ],
      "stateMutability": "pure",
      "type": "function"
    },
    {
      "inputs": [],
      "name": "identityAddress",
      "outputs": [
        {
          "internalType": "address",
          "name": "",
          "type": "address"
        }
      ],
      "stateMutability": "view",
      "type": "function"
    },
    {
      "inputs": [
        {
          "internalType": "address",
          "name": "addr",
          "type": "address"
        }
      ],
      "name": "isNotReservedAddress",
      "outputs": [
        {
          "internalType": "bool",
          "name": "",
          "type": "bool"
        }
      ],
      "stateMutability": "pure",
      "type": "function"
    },
    {
      "inputs": [
        {
          "internalType": "address",
          "name": "addr",
          "type": "address"
        }
      ],
      "name": "isNotZeroAddress",
      "outputs": [
        {
          "internalType": "bool",
          "name": "",
          "type": "bool"
        }
      ],
      "stateMutability": "pure",
      "type": "function"
    },
    {
      "inputs": [
        {
          "internalType": "uint256",
          "name": "flags",
          "type": "uint256"
        },
        {
          "internalType": "uint256",
          "name": "flag",
          "type": "uint256"
        },
        {
          "internalType": "bool",
          "name": "value",
          "type": "bool"
        }
      ],
      "name": "setFlag",
      "outputs": [
        {
          "internalType": "uint256",
          "name": "",
          "type": "uint256"
        }
      ],
      "stateMutability": "pure",
      "type": "function"
    }
  ],
  "bytecode": "0x608060405234801561001057600080fd5b5060405161063538038061063583398101604081905261002f91610054565b600080546001600160a01b0319166001600160a01b0392909216919091179055610082565b600060208284031215610065578081fd5b81516001600160a01b038116811461007b578182fd5b9392505050565b6105a4806100916000396000f3fe608060405234801561001057600080fd5b50600436106100725760003560e01c8063d8747c6c11610050578063d8747c6c146100d5578063ef6a2499146100ea578063fc258031146100fd57610072565b8063b244a41d14610077578063bf45767a146100a0578063ca0f4633146100b5575b600080fd5b61008a610085366004610367565b610110565b60405161009791906103e3565b60405180910390f35b6100a861016c565b60405161009791906103c4565b6100c86100c336600461031f565b61017b565b60405161009791906103d8565b6100e86100e33660046103a3565b610189565b005b6100c86100f836600461031f565b610254565b6100c861010b366004610346565b610299565b600081151561011f8585610299565b15151461016257811561014857610137836002610458565b61014190856103fa565b9050610165565b610153836002610458565b6101419085610521565b610165565b50825b9392505050565b6000546001600160a01b031681565b6001600160a01b0316151590565b6000805461019f906001600160a01b03166102b6565b6040517f8f0248780000000000000000000000000000000000000000000000000000000081529091506001600160a01b03821690638f024878906101e79085906004016103ec565b600060405180830381600087803b15801561020157600080fd5b505af1158015610215573d6000803e3d6000fd5b505050507f4203ae6e1ecfdb54103a7066ce87de50f49b93c8c7f74eb0b41faff2d0344c1f8160405161024891906103c4565b60405180910390a15050565b60006001600160a01b03821661dead1480159061027c57506001600160a01b03821661babe14155b801561029357506001600160a01b038216614bec14155b92915050565b60006102ac600260ff841685901c610538565b6001149392505050565b6000808260601b90506040517f3d602d80600a3d3981f3363d3d373d3d3d363d7300000000000000000000000081528160148201527f5af43d82803e903d91602b57fd5bf3000000000000000000000000000000000060288201526037816000f0949350505050565b600060208284031215610330578081fd5b81356001600160a01b0381168114610165578182fd5b60008060408385031215610358578081fd5b50508035926020909101359150565b60008060006060848603121561037b578081fd5b833592506020840135915060408401358015158114610398578182fd5b809150509250925092565b6000602082840312156103b4578081fd5b813560ff81168114610165578182fd5b6001600160a01b0391909116815260200190565b901515815260200190565b90815260200190565b60ff91909116815260200190565b6000821982111561040d5761040d610558565b500190565b80825b6001808611610424575061044f565b81870482111561043657610436610558565b8086161561044357918102915b9490941c938002610415565b94509492505050565b6000610165600019848460008261047157506001610165565b8161047e57506000610165565b8160018114610494576002811461049e576104cb565b6001915050610165565b60ff8411156104af576104af610558565b6001841b9150848211156104c5576104c5610558565b50610165565b5060208310610133831016604e8410600b84101617156104f9575081810a8381111561015d5761015d610558565b6105068484846001610412565b80860482111561051857610518610558565b02949350505050565b60008282101561053357610533610558565b500390565b60008261055357634e487b7160e01b81526012600452602481fd5b500690565b634e487b7160e01b600052601160045260246000fdfea2646970667358221220d499fc9bdcd8270258698307066dfaff3cad93d1d2b05f182827ad8413bf1baa64736f6c63430008000033",
  "linkReferences": {},
  "deployedLinkReferences": {}
}