{
  "_format": "hh-sol-artifact-1",
  "contractName": "BatchVotingContract",
  "sourceName": "build/sources/adapters/voting/BatchVoting.sol",
  "abi": [
    {
      "inputs": [
        {
          "internalType": "contract SnapshotProposalContract",
          "name": "_spc",
          "type": "address"
        }
      ],
      "stateMutability": "nonpayable",
      "type": "constructor"
    },
    {
      "anonymous": false,
      "inputs": [
        {
          "indexed": false,
          "internalType": "address",
          "name": "dao",
          "type": "address"
        },
        {
          "indexed": false,
          "internalType": "address",
          "name": "actionId",
          "type": "address"
        },
        {
          "indexed": false,
          "internalType": "uint256",
          "name": "nbYes",
          "type": "uint256"
        },
        {
          "indexed": false,
          "internalType": "uint256",
          "name": "nbNo",
          "type": "uint256"
        }
      ],
      "name": "NewVoteResult",
      "type": "event"
    },
    {
      "inputs": [],
      "name": "ADAPTER_NAME",
      "outputs": [
        {
          "internalType": "string",
          "name": "",
          "type": "string"
        }
      ],
      "stateMutability": "view",
      "type": "function"
    },
    {
      "inputs": [],
      "name": "EIP712_DOMAIN",
      "outputs": [
        {
          "internalType": "string",
          "name": "",
          "type": "string"
        }
      ],
      "stateMutability": "view",
      "type": "function"
    },
    {
      "inputs": [],
      "name": "EIP712_DOMAIN_TYPEHASH",
      "outputs": [
        {
          "internalType": "bytes32",
          "name": "",
          "type": "bytes32"
        }
      ],
      "stateMutability": "view",
      "type": "function"
    },
    {
      "inputs": [
        {
          "internalType": "contract DaoRegistry",
          "name": "dao",
          "type": "address"
        },
        {
          "internalType": "uint256",
          "name": "votingPeriod",
          "type": "uint256"
        },
        {
          "internalType": "uint256",
          "name": "gracePeriod",
          "type": "uint256"
        }
      ],
      "name": "configureDao",
      "outputs": [],
      "stateMutability": "nonpayable",
      "type": "function"
    },
    {
      "inputs": [
        {
          "internalType": "contract DaoRegistry",
          "name": "dao",
          "type": "address"
        },
        {
          "internalType": "uint256",
          "name": "chainId",
          "type": "uint256"
        },
        {
          "internalType": "address",
          "name": "actionId",
          "type": "address"
        }
      ],
      "name": "domainSeparator",
      "outputs": [
        {
          "internalType": "bytes32",
          "name": "",
          "type": "bytes32"
        }
      ],
      "stateMutability": "pure",
      "type": "function"
    },
    {
      "inputs": [],
      "name": "getAdapterName",
      "outputs": [
        {
          "internalType": "string",
          "name": "",
          "type": "string"
        }
      ],
      "stateMutability": "pure",
      "type": "function"
    },
    {
      "inputs": [
        {
          "internalType": "uint256",
          "name": "flags",
          "type": "uint256"
        },
        {
          "internalType": "uint256",
          "name": "flag",
          "type": "uint256"
        }
      ],
      "name": "getFlag",
      "outputs": [
        {
          "internalType": "bool",
          "name": "",
          "type": "bool"
        }
      ],
      "stateMutability": "pure",
      "type": "function"
    },
    {
      "inputs": [
        {
          "internalType": "contract DaoRegistry",
          "name": "dao",
          "type": "address"
        },
        {
          "internalType": "address",
          "name": "actionId",
          "type": "address"
        },
        {
          "internalType": "bytes",
          "name": "data",
          "type": "bytes"
        },
        {
          "internalType": "address",
          "name": "",
          "type": "address"
        }
      ],
      "name": "getSenderAddress",
      "outputs": [
        {
          "internalType": "address",
          "name": "",
          "type": "address"
        }
      ],
      "stateMutability": "view",
      "type": "function"
    },
    {
      "inputs": [
        {
          "internalType": "contract DaoRegistry",
          "name": "dao",
          "type": "address"
        },
        {
          "internalType": "uint256",
          "name": "chainId",
          "type": "uint256"
        },
        {
          "internalType": "address",
          "name": "actionId",
          "type": "address"
        },
        {
          "internalType": "bytes32",
          "name": "message",
          "type": "bytes32"
        }
      ],
      "name": "hashMessage",
      "outputs": [
        {
          "internalType": "bytes32",
          "name": "",
          "type": "bytes32"
        }
      ],
      "stateMutability": "pure",
      "type": "function"
    },
    {
      "inputs": [
        {
          "internalType": "contract DaoRegistry",
          "name": "dao",
          "type": "address"
        },
        {
          "internalType": "address",
          "name": "_addr",
          "type": "address"
        }
      ],
      "name": "isActiveMember",
      "outputs": [
        {
          "internalType": "bool",
          "name": "",
          "type": "bool"
        }
      ],
      "stateMutability": "view",
      "type": "function"
    },
    {
      "inputs": [
        {
          "internalType": "address",
          "name": "addr",
          "type": "address"
        }
      ],
      "name": "isNotReservedAddress",
      "outputs": [
        {
          "internalType": "bool",
          "name": "",
          "type": "bool"
        }
      ],
      "stateMutability": "pure",
      "type": "function"
    },
    {
      "inputs": [
        {
          "internalType": "address",
          "name": "addr",
          "type": "address"
        }
      ],
      "name": "isNotZeroAddress",
      "outputs": [
        {
          "internalType": "bool",
          "name": "",
          "type": "bool"
        }
      ],
      "stateMutability": "pure",
      "type": "function"
    },
    {
      "inputs": [
        {
          "internalType": "contract DaoRegistry",
          "name": "dao",
          "type": "address"
        },
        {
          "internalType": "bytes32",
          "name": "proposalId",
          "type": "bytes32"
        },
        {
          "components": [
            {
              "components": [
                {
                  "internalType": "uint256",
                  "name": "timestamp",
                  "type": "uint256"
                },
                {
                  "components": [
                    {
                      "internalType": "uint32",
                      "name": "choice",
                      "type": "uint32"
                    },
                    {
                      "internalType": "bytes32",
                      "name": "proposalId",
                      "type": "bytes32"
                    }
                  ],
                  "internalType": "struct SnapshotProposalContract.VotePayload",
                  "name": "payload",
                  "type": "tuple"
                }
              ],
              "internalType": "struct SnapshotProposalContract.VoteMessage",
              "name": "vote",
              "type": "tuple"
            },
            {
              "internalType": "address",
              "name": "memberAddress",
              "type": "address"
            },
            {
              "internalType": "bytes",
              "name": "sig",
              "type": "bytes"
            }
          ],
          "internalType": "struct BatchVotingContract.VoteEntry[]",
          "name": "entries",
          "type": "tuple[]"
        }
      ],
      "name": "processVotes",
      "outputs": [
        {
          "internalType": "uint256",
          "name": "nbYes",
          "type": "uint256"
        },
        {
          "internalType": "uint256",
          "name": "nbNo",
          "type": "uint256"
        }
      ],
      "stateMutability": "view",
      "type": "function"
    },
    {
      "inputs": [
        {
          "internalType": "bytes32",
          "name": "hash",
          "type": "bytes32"
        },
        {
          "internalType": "bytes",
          "name": "sig",
          "type": "bytes"
        }
      ],
      "name": "recover",
      "outputs": [
        {
          "internalType": "address",
          "name": "",
          "type": "address"
        }
      ],
      "stateMutability": "pure",
      "type": "function"
    },
    {
      "inputs": [
        {
          "internalType": "uint256",
          "name": "flags",
          "type": "uint256"
        },
        {
          "internalType": "uint256",
          "name": "flag",
          "type": "uint256"
        },
        {
          "internalType": "bool",
          "name": "value",
          "type": "bool"
        }
      ],
      "name": "setFlag",
      "outputs": [
        {
          "internalType": "uint256",
          "name": "",
          "type": "uint256"
        }
      ],
      "stateMutability": "pure",
      "type": "function"
    },
    {
      "inputs": [
        {
          "internalType": "contract DaoRegistry",
          "name": "dao",
          "type": "address"
        },
        {
          "internalType": "bytes32",
          "name": "proposalId",
          "type": "bytes32"
        },
        {
          "internalType": "bytes",
          "name": "data",
          "type": "bytes"
        }
      ],
      "name": "startNewVotingForProposal",
      "outputs": [],
      "stateMutability": "nonpayable",
      "type": "function"
    },
    {
      "inputs": [
        {
          "internalType": "contract DaoRegistry",
          "name": "dao",
          "type": "address"
        },
        {
          "internalType": "bytes32",
          "name": "proposalId",
          "type": "bytes32"
        },
        {
          "components": [
            {
              "components": [
                {
                  "internalType": "uint256",
                  "name": "timestamp",
                  "type": "uint256"
                },
                {
                  "components": [
                    {
                      "internalType": "uint32",
                      "name": "choice",
                      "type": "uint32"
                    },
                    {
                      "internalType": "bytes32",
                      "name": "proposalId",
                      "type": "bytes32"
                    }
                  ],
                  "internalType": "struct SnapshotProposalContract.VotePayload",
                  "name": "payload",
                  "type": "tuple"
                }
              ],
              "internalType": "struct SnapshotProposalContract.VoteMessage",
              "name": "vote",
              "type": "tuple"
            },
            {
              "internalType": "address",
              "name": "memberAddress",
              "type": "address"
            },
            {
              "internalType": "bytes",
              "name": "sig",
              "type": "bytes"
            }
          ],
          "internalType": "struct BatchVotingContract.VoteEntry[]",
          "name": "votes",
          "type": "tuple[]"
        }
      ],
      "name": "submitVoteResult",
      "outputs": [],
      "stateMutability": "nonpayable",
      "type": "function"
    },
    {
      "inputs": [
        {
          "internalType": "contract DaoRegistry",
          "name": "dao",
          "type": "address"
        },
        {
          "internalType": "contract BankExtension",
          "name": "bank",
          "type": "address"
        },
        {
          "internalType": "address",
          "name": "actionId",
          "type": "address"
        },
        {
          "internalType": "uint256",
          "name": "snapshot",
          "type": "uint256"
        },
        {
          "internalType": "bytes32",
          "name": "proposalId",
          "type": "bytes32"
        },
        {
          "internalType": "address",
          "name": "previousAddress",
          "type": "address"
        },
        {
          "components": [
            {
              "components": [
                {
                  "internalType": "uint256",
                  "name": "timestamp",
                  "type": "uint256"
                },
                {
                  "components": [
                    {
                      "internalType": "uint32",
                      "name": "choice",
                      "type": "uint32"
                    },
                    {
                      "internalType": "bytes32",
                      "name": "proposalId",
                      "type": "bytes32"
                    }
                  ],
                  "internalType": "struct SnapshotProposalContract.VotePayload",
                  "name": "payload",
                  "type": "tuple"
                }
              ],
              "internalType": "struct SnapshotProposalContract.VoteMessage",
              "name": "vote",
              "type": "tuple"
            },
            {
              "internalType": "address",
              "name": "memberAddress",
              "type": "address"
            },
            {
              "internalType": "bytes",
              "name": "sig",
              "type": "bytes"
            }
          ],
          "internalType": "struct BatchVotingContract.VoteEntry",
          "name": "entry",
          "type": "tuple"
        }
      ],
      "name": "validateVote",
      "outputs": [
        {
          "internalType": "uint256",
          "name": "",
          "type": "uint256"
        }
      ],
      "stateMutability": "view",
      "type": "function"
    },
    {
      "inputs": [
        {
          "internalType": "contract DaoRegistry",
          "name": "dao",
          "type": "address"
        },
        {
          "internalType": "bytes32",
          "name": "proposalId",
          "type": "bytes32"
        }
      ],
      "name": "voteResult",
      "outputs": [
        {
          "internalType": "enum IVoting.VotingState",
          "name": "state",
          "type": "uint8"
        }
      ],
      "stateMutability": "view",
      "type": "function"
    },
    {
      "inputs": [
        {
          "internalType": "address",
          "name": "",
          "type": "address"
        },
        {
          "internalType": "bytes32",
          "name": "",
          "type": "bytes32"
        }
      ],
      "name": "votingSessions",
      "outputs": [
        {
          "internalType": "uint256",
          "name": "snapshot",
          "type": "uint256"
        },
        {
          "internalType": "uint256",
          "name": "nbYes",
          "type": "uint256"
        },
        {
          "internalType": "uint256",
          "name": "nbNo",
          "type": "uint256"
        },
        {
          "internalType": "address",
          "name": "actionId",
          "type": "address"
        },
        {
          "internalType": "bytes32",
          "name": "proposalHash",
          "type": "bytes32"
        },
        {
          "internalType": "uint256",
          "name": "startingTime",
          "type": "uint256"
        },
        {
          "internalType": "uint256",
          "name": "gracePeriodStartingTime",
          "type": "uint256"
        }
      ],
      "stateMutability": "view",
      "type": "function"
    }
  ],
  "bytecode": "0x60806040523480156200001157600080fd5b5060405162002fd438038062002fd483398101604081905262000034916200005a565b600080546001600160a01b0319166001600160a01b03929092169190911790556200008a565b6000602082840312156200006c578081fd5b81516001600160a01b038116811462000083578182fd5b9392505050565b612f3a806200009a6000396000f3fe608060405234801561001057600080fd5b506004361061016c5760003560e01c80638ecf7720116100cd578063c7977be711610081578063e1b11da411610066578063e1b11da414610300578063ef6a249914610308578063fc2580311461031b5761016c565b8063c7977be7146102e5578063ca0f4633146102ed5761016c565b80639cf2fa27116100b25780639cf2fa27146102ac578063a60e68fe146102bf578063b244a41d146102d25761016c565b80638ecf772014610279578063966917d0146102995761016c565b80632298e6ed1161012457806372af51a01161010957806372af51a01461022b57806376225e73146102515780637fd3cd8b146102715761016c565b80632298e6ed146102055780632b0974d0146102185761016c565b8063197cb62411610155578063197cb624146101bb5780631a25c910146101d05780631f86f5b3146101f05761016c565b806303de75491461017157806319045a251461019b575b600080fd5b61018461017f366004612212565b61032e565b6040516101929291906126f4565b60405180910390f35b6101ae6101a9366004612110565b6104ba565b6040516101929190612618565b6101ce6101c9366004612212565b6104cf565b005b6101e36101de3660046123e9565b61073c565b60405161019291906126b7565b6101f861077b565b60405161019291906128a7565b6101e361021336600461230f565b6107b2565b6101ce6102263660046122b8565b610a28565b61023e6102393660046120b1565b610ec6565b6040516101929796959493929190612bc1565b61026461025f366004612200565b610f14565b604051610192919061287f565b6101f8611100565b61028c610287366004612155565b611139565b60405161019291906126ac565b6101ae6102a736600461218d565b61139d565b6101e36102ba3660046123a8565b611453565b6101ce6102cd366004612430565b61150e565b6101e36102e036600461256d565b611756565b6101e36117af565b61028c6102fb366004612079565b6117f1565b6101f8611803565b61028c610316366004612079565b61181f565b61028c61032936600461254c565b611863565b6000806000856001600160a01b031663593e96b67fea0ca03c7adbe41dc655fec28a9209dc8e6e042f3d991a67765ba285b9cf73a06040518263ffffffff1660e01b815260040161037f91906126b7565b60206040518083038186803b15801561039757600080fd5b505afa1580156103ab573d6000803e3d6000fd5b505050506040513d601f19601f820116820180604052508101906103cf9190612095565b6001600160a01b0380881660009081526001602090815260408083208a8452909152812080546003820154600483015495965091949093919091169190815b89518110156104ab5760008a828151811061043957634e487b7160e01b600052603260045260246000fd5b6020026020010151905060006104548e8a888a888a886107b2565b9050816020015194508160000151602001516000015163ffffffff166001141561048957610482818c612c70565b9a50610496565b610493818b612c70565b99505b505080806104a390612e17565b91505061040e565b50505050505050935093915050565b60006104c68383611880565b90505b92915050565b6001600160a01b0383166000908152600160209081526040808320858452909152902080546105195760405162461bcd60e51b815260040161051090612928565b60405180910390fd5b60008061052786868661032e565b915091508260020154836001015461053f9190612c70565b6105498284612c70565b1115610734576006830154158061056857506001830154811081831114155b15610574574260068401555b604051634941d71d60e11b81526001600160a01b03871690639283ae3a906105c0907ffebbb03e97ef53899376960cd09b3fbbad1f7d9c073e58749220588b1281cd02906004016126b7565b60206040518083038186803b1580156105d857600080fd5b505afa1580156105ec573d6000803e3d6000fd5b505050506040513d601f19601f8201168201806040525081019061061091906120f8565b836005015461061f9190612c70565b4210806106d55750604051634941d71d60e11b81526001600160a01b03871690639283ae3a90610673907fd534dbfb18c72cd674e7a3c13823dda0673edb71a5a68845b8ef4a31d26c9d4d906004016126b7565b60206040518083038186803b15801561068b57600080fd5b505afa15801561069f573d6000803e3d6000fd5b505050506040513d601f19601f820116820180604052508101906106c391906120f8565b83600601546106d29190612c70565b42105b1561073457600183018290556002830181905560038301546040517f19580eaed30e836c36fa5e50f6838e4b3facb6a5e78e9b55580db2d350b66ac09161072b9189916001600160a01b0316908690869061266a565b60405180910390a15b505050505050565b6000610749858585611453565b8260405160200161075b9291906125e2565b604051602081830303815290604052805190602001209050949350505050565b60408051808201909152601381527f4261746368566f74696e67436f6e747261637400000000000000000000000000602082015290565b6000805482516040517fec6678b700000000000000000000000000000000000000000000000000000000815283926001600160a01b03169163ec6678b791610801918d918c919060040161283e565b60206040518083038186803b15801561081957600080fd5b505afa15801561082d573d6000803e3d6000fd5b505050506040513d601f19601f8201168201806040525081019061085191906120f8565b90506000610863828560400151611880565b905060008a6001600160a01b0316634a19d91e86602001518a6040518363ffffffff1660e01b8152600401610899929190612693565b60206040518083038186803b1580156108b157600080fd5b505afa1580156108c5573d6000803e3d6000fd5b505050506040513d601f19601f820116820180604052508101906108e99190612095565b9050856001600160a01b031685602001516001600160a01b0316116109205760405162461bcd60e51b8152600401610510906129d8565b806001600160a01b0316826001600160a01b0316146109515760405162461bcd60e51b815260040161051090612a88565b8451602090810151015187146109795760405162461bcd60e51b81526004016105109061295f565b60208501516040517ffaaf38b30000000000000000000000000000000000000000000000000000000081526001600160a01b038c169163faaf38b3916109c99190620ff1ce908d90600401612646565b60206040518083038186803b1580156109e157600080fd5b505afa1580156109f5573d6000803e3d6000fd5b505050506040513d601f19601f82011682018060405250810190610a1991906120f8565b9b9a5050505050505050505050565b826000816001600160a01b031663c19d93fb6040518163ffffffff1660e01b815260040160206040518083038186803b158015610a6457600080fd5b505afa158015610a78573d6000803e3d6000fd5b505050506040513d601f19601f82011682018060405250810190610a9c9190612464565b6001811115610abb57634e487b7160e01b600052602160045260246000fd5b148015610acc5750610acc816118a4565b80610b4e57506040516368c18beb60e01b81526001600160a01b038216906368c18beb90610afe903390600401612618565b60206040518083038186803b158015610b1657600080fd5b505afa158015610b2a573d6000803e3d6000fd5b505050506040513d601f19601f82011682018060405250810190610b4e91906120dc565b610b6a5760405162461bcd60e51b815260040161051090612b1c565b600082806020019051810190610b809190612483565b90506000856001600160a01b031663593e96b67fea0ca03c7adbe41dc655fec28a9209dc8e6e042f3d991a67765ba285b9cf73a06040518263ffffffff1660e01b8152600401610bd091906126b7565b60206040518083038186803b158015610be857600080fd5b505afa158015610bfc573d6000803e3d6000fd5b505050506040513d601f19601f82011682018060405250810190610c209190612095565b9050600080610c36846060015160a00151611a1c565b9150915081610c575760405162461bcd60e51b815260040161051090612b53565b60008054604051633084557f60e01b81526001600160a01b0390911690633084557f90610c8c908c9033908a90600401612720565b60206040518083038186803b158015610ca457600080fd5b505afa158015610cb8573d6000803e3d6000fd5b505050506040513d601f19601f82011682018060405250810190610cdc91906120f8565b90506000610cee828760800151611880565b905060008a6001600160a01b031663c89bb8ba836040518263ffffffff1660e01b8152600401610d1e9190612618565b60206040518083038186803b158015610d3657600080fd5b505afa158015610d4a573d6000803e3d6000fd5b505050506040513d601f19601f82011682018060405250810190610d6e9190612095565b90506000866001600160a01b031663f7888aec83620ff1ce6040518363ffffffff1660e01b8152600401610da392919061262c565b60206040518083038186803b158015610dbb57600080fd5b505afa158015610dcf573d6000803e3d6000fd5b505050506040513d601f19601f82011682018060405250810190610df39190612095565b6001600160a01b031611610e195760405162461bcd60e51b815260040161051090612b8a565b438410610e385760405162461bcd60e51b815260040161051090612abf565b60008411610e585760405162461bcd60e51b815260040161051090612a51565b50506001600160a01b03989098166000908152600160209081526040808320998352989052969096206003810180547fffffffffffffffffffffffff000000000000000000000000000000000000000016331790554260058201559586555050505060049091019190915550565b600160208181526000938452604080852090915291835291208054918101546002820154600383015460048401546005850154600690950154939492936001600160a01b0390921692909187565b6001600160a01b038216600090815260016020908152604080832084845290915281206005810154610f4a5760009150506104c9565b604051634941d71d60e11b81526001600160a01b03851690639283ae3a90610f96907ffebbb03e97ef53899376960cd09b3fbbad1f7d9c073e58749220588b1281cd02906004016126b7565b60206040518083038186803b158015610fae57600080fd5b505afa158015610fc2573d6000803e3d6000fd5b505050506040513d601f19601f82011682018060405250810190610fe691906120f8565b8160050154610ff59190612c70565b4210156110065760049150506104c9565b604051634941d71d60e11b81526001600160a01b03851690639283ae3a90611052907fd534dbfb18c72cd674e7a3c13823dda0673edb71a5a68845b8ef4a31d26c9d4d906004016126b7565b60206040518083038186803b15801561106a57600080fd5b505afa15801561107e573d6000803e3d6000fd5b505050506040513d601f19601f820116820180604052508101906110a291906120f8565b81600601546110b19190612c70565b4210156110c25760059150506104c9565b8060020154816001015411156110dc5760029150506104c9565b8060020154816001015410156110f65760039150506104c9565b5060019392505050565b6040518060400160405280601381526020017f4261746368566f74696e67436f6e74726163740000000000000000000000000081525081565b600080836001600160a01b031663fefbd8757fea0ca03c7adbe41dc655fec28a9209dc8e6e042f3d991a67765ba285b9cf73a06040518263ffffffff1660e01b815260040161118891906126b7565b60206040518083038186803b1580156111a057600080fd5b505afa1580156111b4573d6000803e3d6000fd5b505050506040513d601f19601f820116820180604052508101906111d89190612095565b90506001600160a01b03811615611319576040517fc89bb8ba0000000000000000000000000000000000000000000000000000000081526000906001600160a01b0386169063c89bb8ba90611231908790600401612618565b60206040518083038186803b15801561124957600080fd5b505afa15801561125d573d6000803e3d6000fd5b505050506040513d601f19601f820116820180604052508101906112819190612095565b90506000826001600160a01b031663f7888aec83620ff1ce6040518363ffffffff1660e01b81526004016112b692919061262c565b60206040518083038186803b1580156112ce57600080fd5b505afa1580156112e2573d6000803e3d6000fd5b505050506040513d601f19601f820116820180604052508101906113069190612095565b6001600160a01b031611925050506104c9565b60405163288c314960e21b81526001600160a01b0385169063a230c52490611345908690600401612618565b60206040518083038186803b15801561135d57600080fd5b505afa158015611371573d6000803e3d6000fd5b505050506040513d601f19601f8201168201806040525081019061139591906120dc565b949350505050565b600080838060200190518101906113b49190612483565b600054604051633084557f60e01b8152919250611449916001600160a01b0390911690633084557f906113ef908a908a908790600401612720565b60206040518083038186803b15801561140757600080fd5b505afa15801561141b573d6000803e3d6000fd5b505050506040513d601f19601f8201168201806040525081019061143f91906120f8565b8260800151611880565b9695505050505050565b60006040518060a0016040528060638152602001612ea26063913960405160200161147e91906125c6565b604051602081830303815290604052805190602001207fe2ffb2e2c8bf0b9b360ecefb7de0735865e605d6ba933b6c7e12cee0e178c8bf7f13600b294191fc92924bb3ce4b969c1e7e2bab8f4c93c3fc6d0a51733df3c0608587866040516020016114ee969594939291906126c0565b6040516020818303038152906040528051906020012090505b9392505050565b826000816001600160a01b031663c19d93fb6040518163ffffffff1660e01b815260040160206040518083038186803b15801561154a57600080fd5b505afa15801561155e573d6000803e3d6000fd5b505050506040513d601f19601f820116820180604052508101906115829190612464565b60018111156115a157634e487b7160e01b600052602160045260246000fd5b1480156115b257506115b2816118a4565b8061163457506040516368c18beb60e01b81526001600160a01b038216906368c18beb906115e4903390600401612618565b60206040518083038186803b1580156115fc57600080fd5b505afa158015611610573d6000803e3d6000fd5b505050506040513d601f19601f8201168201806040525081019061163491906120dc565b6116505760405162461bcd60e51b815260040161051090612b1c565b604051630da0f6c760e41b81526001600160a01b0385169063da0f6c709061169e907ffebbb03e97ef53899376960cd09b3fbbad1f7d9c073e58749220588b1281cd029087906004016126f4565b600060405180830381600087803b1580156116b857600080fd5b505af11580156116cc573d6000803e3d6000fd5b5050604051630da0f6c760e41b81526001600160a01b038716925063da0f6c70915061171e907fd534dbfb18c72cd674e7a3c13823dda0673edb71a5a68845b8ef4a31d26c9d4d9086906004016126f4565b600060405180830381600087803b15801561173857600080fd5b505af115801561174c573d6000803e3d6000fd5b5050505050505050565b60008115156117658585611863565b1515146117a857811561178e5761177d836002612cc5565b6117879085612c70565b9050611507565b611799836002612cc5565b6117879085612dad565b611507565b5082611507565b6040518060a0016040528060638152602001612ea2606391396040516020016117d891906125c6565b6040516020818303038152906040528051906020012081565b6001600160a01b03811615155b919050565b6040518060a0016040528060638152602001612ea26063913981565b60006001600160a01b03821661dead1480159061184757506001600160a01b03821661babe14155b80156104c957506001600160a01b038216614bec141592915050565b6000611876600260ff841685901c612e32565b6001149392505050565b600080600061188f8585611b0d565b9150915061189c81611b7d565b509392505050565b6000816001600160a01b031663c67143666040518163ffffffff1660e01b815260040160206040518083038186803b1580156118df57600080fd5b505afa1580156118f3573d6000803e3d6000fd5b505050506040513d601f19601f8201168201806040525081019061191791906120f8565b158061199a575060405163288c314960e21b81526001600160a01b0383169063a230c5249061194a903390600401612618565b60206040518083038186803b15801561196257600080fd5b505afa158015611976573d6000803e3d6000fd5b505050506040513d601f19601f8201168201806040525081019061199a91906120dc565b806104c957506040516368c18beb60e01b81526001600160a01b038316906368c18beb906119cc903390600401612618565b60206040518083038186803b1580156119e457600080fd5b505afa1580156119f8573d6000803e3d6000fd5b505050506040513d601f19601f820116820180604052508101906104c991906120dc565b60008082815b8151811015611b06576030828281518110611a4d57634e487b7160e01b600052603260045260246000fd5b016020015160f81c10801590611a8b57506039828281518110611a8057634e487b7160e01b600052603260045260246000fd5b016020015160f81c11155b15611ae7576030828281518110611ab257634e487b7160e01b600052603260045260246000fd5b0160200151611ac4919060f81c612dc4565b60ff16611ad284600a612d8e565b611adc9190612c70565b925060019350611af4565b6000925060009350611b06565b80611afe81612e17565b915050611a22565b5050915091565b600080825160411415611b445760208301516040840151606085015160001a611b3887828585611cad565b94509450505050611b76565b825160401415611b6e5760208301516040840151611b63868383611d8d565b935093505050611b76565b506000905060025b9250929050565b6000816004811115611b9f57634e487b7160e01b600052602160045260246000fd5b1415611baa57611caa565b6001816004811115611bcc57634e487b7160e01b600052602160045260246000fd5b1415611bea5760405162461bcd60e51b8152600401610510906128ba565b6002816004811115611c0c57634e487b7160e01b600052602160045260246000fd5b1415611c2a5760405162461bcd60e51b8152600401610510906128f1565b6003816004811115611c4c57634e487b7160e01b600052602160045260246000fd5b1415611c6a5760405162461bcd60e51b815260040161051090612996565b6004816004811115611c8c57634e487b7160e01b600052602160045260246000fd5b1415611caa5760405162461bcd60e51b815260040161051090612a0f565b50565b6000807f7fffffffffffffffffffffffffffffff5d576e7357a4501ddfe92f46681b20a0831115611ce45750600090506003611d84565b8460ff16601b14158015611cfc57508460ff16601c14155b15611d0d5750600090506004611d84565b600060018787878760405160008152602001604052604051611d329493929190612702565b6020604051602081039080840390855afa158015611d54573d6000803e3d6000fd5b5050604051601f1901519150506001600160a01b038116611d7d57600060019250925050611d84565b9150600090505b94509492505050565b6000807f7fffffffffffffffffffffffffffffffffffffffffffffffffffffffffffffff831660ff84901c601b01611dc787828885611cad565b935093505050935093915050565b80356117fe81612e7e565b80516117fe81612e7e565b600082601f830112611dfb578081fd5b81516020611e10611e0b83612c24565b612bfa565b82815281810190858301855b85811015611e4557611e33898684518b0101611e9e565b84529284019290840190600101611e1c565b5090979650505050505050565b600082601f830112611e62578081fd5b8135611e70611e0b82612c48565b818152846020838601011115611e84578283fd5b816020850160208301379081016020019190915292915050565b600082601f830112611eae578081fd5b8151611ebc611e0b82612c48565b818152846020838601011115611ed0578283fd5b611395826020830160208701612de7565b600060c08284031215611ef2578081fd5b611efc60c0612bfa565b90508151815260208201516020820152604082015167ffffffffffffffff80821115611f2757600080fd5b611f3385838601611deb565b6040840152606084015160608401526080840151608084015260a0840151915080821115611f6057600080fd5b50611f6d84828501611e9e565b60a08301525092915050565b600081830360a0811215611f8b578182fd5b604080516060810167ffffffffffffffff8282108183111715611fb057611fb0612e68565b8184528295506060851215611fc457600080fd5b60a083018281108282111715611fdc57611fdc612e68565b845286358252601f198501841315611ff357600080fd5b83519450838501858110828211171561200e5761200e612e68565b8452602087013563ffffffff8116811461202757600080fd5b85528684013560208601526080830185905281835261204860608801611dd5565b6020840152608087013594508085111561206157600080fd5b505061206f86848701611e52565b9101525092915050565b60006020828403121561208a578081fd5b813561150781612e7e565b6000602082840312156120a6578081fd5b815161150781612e7e565b600080604083850312156120c3578081fd5b82356120ce81612e7e565b946020939093013593505050565b6000602082840312156120ed578081fd5b815161150781612e93565b600060208284031215612109578081fd5b5051919050565b60008060408385031215612122578182fd5b82359150602083013567ffffffffffffffff81111561213f578182fd5b61214b85828601611e52565b9150509250929050565b60008060408385031215612167578182fd5b823561217281612e7e565b9150602083013561218281612e7e565b809150509250929050565b600080600080608085870312156121a2578182fd5b84356121ad81612e7e565b935060208501356121bd81612e7e565b9250604085013567ffffffffffffffff8111156121d8578283fd5b6121e487828801611e52565b92505060608501356121f581612e7e565b939692955090935050565b600080604083850312156120c3578182fd5b600080600060608486031215612226578081fd5b833561223181612e7e565b92506020848101359250604085013567ffffffffffffffff811115612254578283fd5b8501601f81018713612264578283fd5b8035612272611e0b82612c24565b81815283810190838501865b848110156122a7576122958c888435890101611f79565b8452928601929086019060010161227e565b505080955050505050509250925092565b6000806000606084860312156122cc578081fd5b83356122d781612e7e565b925060208401359150604084013567ffffffffffffffff8111156122f9578182fd5b61230586828701611e52565b9150509250925092565b600080600080600080600060e0888a031215612329578485fd5b873561233481612e7e565b9650602088013561234481612e7e565b9550604088013561235481612e7e565b9450606088013593506080880135925060a088013561237281612e7e565b915060c088013567ffffffffffffffff81111561238d578182fd5b6123998a828b01611f79565b91505092959891949750929550565b6000806000606084860312156123bc578081fd5b83356123c781612e7e565b92506020840135915060408401356123de81612e7e565b809150509250925092565b600080600080608085870312156123fe578182fd5b843561240981612e7e565b935060208501359250604085013561242081612e7e565b9396929550929360600135925050565b600080600060608486031215612444578081fd5b833561244f81612e7e565b95602085013595506040909401359392505050565b600060208284031215612475578081fd5b815160028110611507578182fd5b600060208284031215612494578081fd5b815167ffffffffffffffff808211156124ab578283fd5b9083019060a082860312156124be578283fd5b60405160a0810181811083821117156124d9576124d9612e68565b806040525082518152602083015160208201526124f860408401611de0565b604082015260608301518281111561250e578485fd5b61251a87828601611ee1565b606083015250608083015182811115612531578485fd5b61253d87828601611e9e565b60808301525095945050505050565b6000806040838503121561255e578182fd5b50508035926020909101359150565b600080600060608486031215612581578081fd5b833592506020840135915060408401356123de81612e93565b600081518084526125b2816020860160208601612de7565b601f01601f19169290920160200192915050565b600082516125d8818460208701612de7565b9190910192915050565b7f190100000000000000000000000000000000000000000000000000000000000081526002810192909252602282015260420190565b6001600160a01b0391909116815260200190565b6001600160a01b0392831681529116602082015260400190565b6001600160a01b039384168152919092166020820152604081019190915260600190565b6001600160a01b0394851681529290931660208301526040820152606081019190915260800190565b6001600160a01b03929092168252602082015260400190565b901515815260200190565b90815260200190565b9586526020860194909452604085019290925260608401526001600160a01b0390811660808401521660a082015260c00190565b918252602082015260400190565b93845260ff9290921660208401526040830152606082015260800190565b60006001600160a01b03808616835260208186168185015260606040850152845160608501528085015160808501528160408601511660a08501526060850151915060a060c08501526101c08401825161010086015281830151610120860152604083015160c06101408701528181518084526101e0935083880191508385820289010193508483019250865b818110156127dc576101df198986030183526127ca85855161259a565b945092850192918501916001016127ad565b505050506060830151610160860152608083015161018086015260a09092015184830360ff19016101a086015291612814818461259a565b925050506080840151605f198483030160e0850152612833828261259a565b979650505050505050565b6001600160a01b039384168152919092166020808301919091528251604083015291820151805163ffffffff16606083015290910151608082015260a00190565b60208101600683106128a157634e487b7160e01b600052602160045260246000fd5b91905290565b6000602082526104c6602083018461259a565b60208082526018908201527f45434453413a20696e76616c6964207369676e61747572650000000000000000604082015260600190565b6020808252601f908201527f45434453413a20696e76616c6964207369676e6174757265206c656e67746800604082015260600190565b60208082526010908201527f766f74653a6e6f74207374617274656400000000000000000000000000000000604082015260600190565b60208082526013908201527f77726f6e672070726f706f73616c20766f746500000000000000000000000000604082015260600190565b60208082526022908201527f45434453413a20696e76616c6964207369676e6174757265202773272076616c604082015261756560f01b606082015260800190565b60208082526010908201527f756e736f72746564206d656d6265727300000000000000000000000000000000604082015260600190565b60208082526022908201527f45434453413a20696e76616c6964207369676e6174757265202776272076616c604082015261756560f01b606082015260800190565b60208082526018908201527f626c6f636b206e756d6265722063616e6e6f7420626520300000000000000000604082015260600190565b60208082526014908201527f7369676e696e67206b6579206d69736d61746368000000000000000000000000604082015260600190565b60208082526031908201527f736e617073686f7420626c6f636b206e756d6265722073686f756c64206e6f7460408201527f20626520696e2074686520667574757265000000000000000000000000000000606082015260800190565b6020808252600b908201527f6f6e6c7941646170746572000000000000000000000000000000000000000000604082015260600190565b60208082526019908201527f736e617073686f7420636f6e76657273696f6e206572726f7200000000000000604082015260600190565b6020808252600e908201527f6e6f4163746976654d656d626572000000000000000000000000000000000000604082015260600190565b968752602087019590955260408601939093526001600160a01b03919091166060850152608084015260a083015260c082015260e00190565b60405181810167ffffffffffffffff81118282101715612c1c57612c1c612e68565b604052919050565b600067ffffffffffffffff821115612c3e57612c3e612e68565b5060209081020190565b600067ffffffffffffffff821115612c6257612c62612e68565b50601f01601f191660200190565b60008219821115612c8357612c83612e52565b500190565b80825b6001808611612c9a5750611d84565b818704821115612cac57612cac612e52565b80861615612cb957918102915b9490941c938002612c8b565b60006104c66000198484600082612cde57506001611507565b81612ceb57506000611507565b8160018114612d015760028114612d0b57612d38565b6001915050611507565b60ff841115612d1c57612d1c612e52565b6001841b915084821115612d3257612d32612e52565b50611507565b5060208310610133831016604e8410600b8410161715612d66575081810a838111156117a3576117a3612e52565b612d738484846001612c88565b808604821115612d8557612d85612e52565b02949350505050565b6000816000190483118215151615612da857612da8612e52565b500290565b600082821015612dbf57612dbf612e52565b500390565b600060ff821660ff841680821015612dde57612dde612e52565b90039392505050565b60005b83811015612e02578181015183820152602001612dea565b83811115612e11576000848401525b50505050565b6000600019821415612e2b57612e2b612e52565b5060010190565b600082612e4d57634e487b7160e01b81526012600452602481fd5b500690565b634e487b7160e01b600052601160045260246000fd5b634e487b7160e01b600052604160045260246000fd5b6001600160a01b0381168114611caa57600080fd5b8015158114611caa57600080fdfe454950373132446f6d61696e28737472696e67206e616d652c737472696e672076657273696f6e2c75696e7432353620636861696e49642c6164647265737320766572696679696e67436f6e74726163742c6164647265737320616374696f6e496429a26469706673582212206965171f8844bd2b2ae71a6bc24932304effdb5089e92e2b040bf5f28420496064736f6c63430008000033",
  "linkReferences": {},
  "deployedLinkReferences": {}
}