{
  "_format": "hh-sol-artifact-1",
  "contractName": "ConfigurationContract",
  "sourceName": "build/sources/adapters/Configuration.sol",
  "abi": [
    {
      "inputs": [
        {
          "internalType": "uint256",
          "name": "flags",
          "type": "uint256"
        },
        {
          "internalType": "uint256",
          "name": "flag",
          "type": "uint256"
        }
      ],
      "name": "getFlag",
      "outputs": [
        {
          "internalType": "bool",
          "name": "",
          "type": "bool"
        }
      ],
      "stateMutability": "pure",
      "type": "function"
    },
    {
      "inputs": [
        {
          "internalType": "contract DaoRegistry",
          "name": "dao",
          "type": "address"
        },
        {
          "internalType": "address",
          "name": "_addr",
          "type": "address"
        }
      ],
      "name": "isActiveMember",
      "outputs": [
        {
          "internalType": "bool",
          "name": "",
          "type": "bool"
        }
      ],
      "stateMutability": "view",
      "type": "function"
    },
    {
      "inputs": [
        {
          "internalType": "address",
          "name": "addr",
          "type": "address"
        }
      ],
      "name": "isNotReservedAddress",
      "outputs": [
        {
          "internalType": "bool",
          "name": "",
          "type": "bool"
        }
      ],
      "stateMutability": "pure",
      "type": "function"
    },
    {
      "inputs": [
        {
          "internalType": "address",
          "name": "addr",
          "type": "address"
        }
      ],
      "name": "isNotZeroAddress",
      "outputs": [
        {
          "internalType": "bool",
          "name": "",
          "type": "bool"
        }
      ],
      "stateMutability": "pure",
      "type": "function"
    },
    {
      "inputs": [
        {
          "internalType": "contract DaoRegistry",
          "name": "dao",
          "type": "address"
        },
        {
          "internalType": "bytes32",
          "name": "proposalId",
          "type": "bytes32"
        }
      ],
      "name": "processProposal",
      "outputs": [],
      "stateMutability": "nonpayable",
      "type": "function"
    },
    {
      "inputs": [
        {
          "internalType": "uint256",
          "name": "flags",
          "type": "uint256"
        },
        {
          "internalType": "uint256",
          "name": "flag",
          "type": "uint256"
        },
        {
          "internalType": "bool",
          "name": "value",
          "type": "bool"
        }
      ],
      "name": "setFlag",
      "outputs": [
        {
          "internalType": "uint256",
          "name": "",
          "type": "uint256"
        }
      ],
      "stateMutability": "pure",
      "type": "function"
    },
    {
      "inputs": [
        {
          "internalType": "contract DaoRegistry",
          "name": "dao",
          "type": "address"
        },
        {
          "internalType": "bytes32",
          "name": "proposalId",
          "type": "bytes32"
        },
        {
          "internalType": "bytes32[]",
          "name": "keys",
          "type": "bytes32[]"
        },
        {
          "internalType": "uint256[]",
          "name": "values",
          "type": "uint256[]"
        },
        {
          "internalType": "bytes",
          "name": "data",
          "type": "bytes"
        }
      ],
      "name": "submitProposal",
      "outputs": [],
      "stateMutability": "nonpayable",
      "type": "function"
    },
    {
      "stateMutability": "payable",
      "type": "receive"
    }
  ],
  "bytecode": "0x608060405234801561001057600080fd5b50611630806100206000396000f3fe6080604052600436106100745760003560e01c8063b244a41d1161004e578063b244a41d14610117578063ca0f463314610144578063ef6a249914610164578063fc258031146101845761009a565b8063429b1aea1461009f5780638ecf7720146100c15780639573167d146100f75761009a565b3661009a5760405162461bcd60e51b8152600401610091906113d7565b60405180910390fd5b600080fd5b3480156100ab57600080fd5b506100bf6100ba366004611043565b6101a4565b005b3480156100cd57600080fd5b506100e16100dc366004610fe0565b61068f565b6040516100ee9190611207565b60405180910390f35b34801561010357600080fd5b506100bf610112366004611018565b61090e565b34801561012357600080fd5b50610137610132366004611177565b610dee565b6040516100ee9190611212565b34801561015057600080fd5b506100e161015f366004610f8c565b610e4a565b34801561017057600080fd5b506100e161017f366004610f8c565b610e58565b34801561019057600080fd5b506100e161019f366004611156565b610e9c565b876101af8133610eb9565b8843816001600160a01b031663b21634826040518163ffffffff1660e01b815260040160206040518083038186803b1580156101ea57600080fd5b505afa1580156101fe573d6000803e3d6000fd5b505050506040513d601f19601f82011682018060405250810190610222919061113e565b14156102405760405162461bcd60e51b81526004016100919061130c565b806001600160a01b03166310fdb0a26040518163ffffffff1660e01b8152600401600060405180830381600087803b15801561027b57600080fd5b505af115801561028f573d6000803e3d6000fd5b50505087861490506102b35760405162461bcd60e51b81526004016100919061137a565b6040517fb73dc3890000000000000000000000000000000000000000000000000000000081526001600160a01b038b169063b73dc389906102f8908c90600401611212565b600060405180830381600087803b15801561031257600080fd5b505af1158015610326573d6000803e3d6000fd5b50505050604051806040016040528089898080602002602001604051908101604052809392919081815260200183836020028082843760009201919091525050509082525060408051602089810282810182019093528982529283019290918a918a91829185019084908082843760009201829052509390945250506001600160a01b038d168152602081815260408083208e84528252909120835180519193506103d5928492910190610ee3565b5060208281015180516103ee9260018501920190610ee3565b50506040517f17ba7d85000000000000000000000000000000000000000000000000000000008152600091506001600160a01b038c16906317ba7d8590610459907f0e49311626a26ba5be58a3b13d239908e80ce0dffdd5c50bf1d9c82ff35d1ab390600401611212565b60206040518083038186803b15801561047157600080fd5b505afa158015610485573d6000803e3d6000fd5b505050506040513d601f19601f820116820180604052508101906104a99190610fa8565b90506000816001600160a01b031663966917d08d308989336040518663ffffffff1660e01b81526004016104e1959493929190611248565b602060405180830381600087803b1580156104fb57600080fd5b505af115801561050f573d6000803e3d6000fd5b505050506040513d601f19601f820116820180604052508101906105339190610fa8565b6040517f896ae9ba0000000000000000000000000000000000000000000000000000000081529091506001600160a01b038d169063896ae9ba9061057f908e908590879060040161121b565b600060405180830381600087803b15801561059957600080fd5b505af11580156105ad573d6000803e3d6000fd5b50506040517f2b0974d00000000000000000000000000000000000000000000000000000000081526001600160a01b0385169250632b0974d091506105fc908f908f908b908b906004016112a2565b600060405180830381600087803b15801561061657600080fd5b505af115801561062a573d6000803e3d6000fd5b505050505050806001600160a01b031663d4f7af436040518163ffffffff1660e01b8152600401600060405180830381600087803b15801561066b57600080fd5b505af115801561067f573d6000803e3d6000fd5b5050505050505050505050505050565b600080836001600160a01b031663fefbd8757fea0ca03c7adbe41dc655fec28a9209dc8e6e042f3d991a67765ba285b9cf73a06040518263ffffffff1660e01b81526004016106de9190611212565b60206040518083038186803b1580156106f657600080fd5b505afa15801561070a573d6000803e3d6000fd5b505050506040513d601f19601f8201168201806040525081019061072e9190610fa8565b90506001600160a01b0381161561086f576040517fc89bb8ba0000000000000000000000000000000000000000000000000000000081526000906001600160a01b0386169063c89bb8ba906107879087906004016111d9565b60206040518083038186803b15801561079f57600080fd5b505afa1580156107b3573d6000803e3d6000fd5b505050506040513d601f19601f820116820180604052508101906107d79190610fa8565b90506000826001600160a01b031663f7888aec83620ff1ce6040518363ffffffff1660e01b815260040161080c9291906111ed565b60206040518083038186803b15801561082457600080fd5b505afa158015610838573d6000803e3d6000fd5b505050506040513d601f19601f8201168201806040525081019061085c9190610fa8565b6001600160a01b03161192505050610908565b6040517fa230c5240000000000000000000000000000000000000000000000000000000081526001600160a01b0385169063a230c524906108b49086906004016111d9565b60206040518083038186803b1580156108cc57600080fd5b505afa1580156108e0573d6000803e3d6000fd5b505050506040513d601f19601f820116820180604052508101906109049190610fc4565b9150505b92915050565b8143816001600160a01b031663b21634826040518163ffffffff1660e01b815260040160206040518083038186803b15801561094957600080fd5b505afa15801561095d573d6000803e3d6000fd5b505050506040513d601f19601f82011682018060405250810190610981919061113e565b141561099f5760405162461bcd60e51b81526004016100919061130c565b806001600160a01b03166310fdb0a26040518163ffffffff1660e01b8152600401600060405180830381600087803b1580156109da57600080fd5b505af11580156109ee573d6000803e3d6000fd5b50506040517f30490e910000000000000000000000000000000000000000000000000000000081526001600160a01b03861692506330490e919150610a37908590600401611212565b600060405180830381600087803b158015610a5157600080fd5b505af1158015610a65573d6000803e3d6000fd5b505050506001600160a01b03831660008181526020818152604080832086845290915280822090517f40de703e0000000000000000000000000000000000000000000000000000000081529092906340de703e90610ac7908790600401611212565b60206040518083038186803b158015610adf57600080fd5b505afa158015610af3573d6000803e3d6000fd5b505050506040513d601f19601f82011682018060405250810190610b179190610fa8565b90506001600160a01b038116610b3f5760405162461bcd60e51b81526004016100919061140e565b60026040517f76225e730000000000000000000000000000000000000000000000000000000081526001600160a01b038316906376225e7390610b889089908990600401611289565b602060405180830381600087803b158015610ba257600080fd5b505af1158015610bb6573d6000803e3d6000fd5b505050506040513d601f19601f82011682018060405250810190610bda919061111f565b6005811115610bf957634e487b7160e01b600052602160045260246000fd5b14610c165760405162461bcd60e51b8152600401610091906112d5565b600082600001805480602002602001604051908101604052809291908181526020018280548015610c6657602002820191906000526020600020905b815481526020019060010190808311610c52575b50505050509050600083600101805480602002602001604051908101604052809291908181526020018280548015610cbd57602002820191906000526020600020905b815481526020019060010190808311610ca9575b5050505050905060005b8251811015610d9157876001600160a01b031663da0f6c70848381518110610cff57634e487b7160e01b600052603260045260246000fd5b6020026020010151848481518110610d2757634e487b7160e01b600052603260045260246000fd5b60200260200101516040518363ffffffff1660e01b8152600401610d4c92919061123a565b600060405180830381600087803b158015610d6657600080fd5b505af1158015610d7a573d6000803e3d6000fd5b505050508080610d8990611583565b915050610cc7565b5050505050806001600160a01b031663d4f7af436040518163ffffffff1660e01b8152600401600060405180830381600087803b158015610dd157600080fd5b505af1158015610de5573d6000803e3d6000fd5b50505050505050565b6000811515610dfd8585610e9c565b151514610e40578115610e2657610e158360026114a3565b610e1f9085611445565b9050610e43565b610e318360026114a3565b610e1f908561156c565b610e43565b50825b9392505050565b6001600160a01b0316151590565b60006001600160a01b03821661dead14801590610e8057506001600160a01b03821661babe14155b801561090857506001600160a01b038216614bec141592915050565b6000610eaf600260ff841685901c61159e565b6001149392505050565b610ec3828261068f565b610edf5760405162461bcd60e51b815260040161009190611343565b5050565b828054828255906000526020600020908101928215610f1e579160200282015b82811115610f1e578251825591602001919060010190610f03565b50610f2a929150610f2e565b5090565b5b80821115610f2a5760008155600101610f2f565b60008083601f840112610f54578182fd5b50813567ffffffffffffffff811115610f6b578182fd5b6020830191508360208083028501011115610f8557600080fd5b9250929050565b600060208284031215610f9d578081fd5b8135610e43816115d4565b600060208284031215610fb9578081fd5b8151610e43816115d4565b600060208284031215610fd5578081fd5b8151610e43816115ec565b60008060408385031215610ff2578081fd5b8235610ffd816115d4565b9150602083013561100d816115d4565b809150509250929050565b6000806040838503121561102a578182fd5b8235611035816115d4565b946020939093013593505050565b60008060008060008060008060a0898b03121561105e578384fd5b8835611069816115d4565b975060208901359650604089013567ffffffffffffffff8082111561108c578586fd5b6110988c838d01610f43565b909850965060608b01359150808211156110b0578586fd5b6110bc8c838d01610f43565b909650945060808b01359150808211156110d4578384fd5b818b0191508b601f8301126110e7578384fd5b8135818111156110f5578485fd5b8c6020828501011115611106578485fd5b6020830194508093505050509295985092959890939650565b600060208284031215611130578081fd5b815160068110610e43578182fd5b60006020828403121561114f578081fd5b5051919050565b60008060408385031215611168578182fd5b50508035926020909101359150565b60008060006060848603121561118b578283fd5b833592506020840135915060408401356111a4816115ec565b809150509250925092565b60008284528282602086013780602084860101526020601f19601f85011685010190509392505050565b6001600160a01b0391909116815260200190565b6001600160a01b0392831681529116602082015260400190565b901515815260200190565b90815260200190565b9283526001600160a01b03918216602084015216604082015260600190565b918252602082015260400190565b60006001600160a01b0380881683528087166020840152608060408401526112746080840186886111af565b91508084166060840152509695505050505050565b6001600160a01b03929092168252602082015260400190565b60006001600160a01b0386168252846020830152606060408301526112cb6060830184866111af565b9695505050505050565b60208082526015908201527f70726f706f73616c20646964206e6f7420706173730000000000000000000000604082015260600190565b60208082526010908201527f7265656e7472616e637920677561726400000000000000000000000000000000604082015260600190565b6020808252600a908201527f6f6e6c794d656d62657200000000000000000000000000000000000000000000604082015260600190565b60208082526031908201527f6d75737420626520616e20657175616c206e756d626572206f6620636f6e666960408201527f67206b65797320616e642076616c756573000000000000000000000000000000606082015260800190565b6020808252600f908201527f66616c6c6261636b207265766572740000000000000000000000000000000000604082015260600190565b60208082526011908201527f61646170746572206e6f7420666f756e64000000000000000000000000000000604082015260600190565b60008219821115611458576114586115be565b500190565b80825b600180861161146f575061149a565b818704821115611481576114816115be565b8086161561148e57918102915b9490941c938002611460565b94509492505050565b6000610e4360001984846000826114bc57506001610e43565b816114c957506000610e43565b81600181146114df57600281146114e957611516565b6001915050610e43565b60ff8411156114fa576114fa6115be565b6001841b915084821115611510576115106115be565b50610e43565b5060208310610133831016604e8410600b8410161715611544575081810a83811115610e3b57610e3b6115be565b611551848484600161145d565b808604821115611563576115636115be565b02949350505050565b60008282101561157e5761157e6115be565b500390565b6000600019821415611597576115976115be565b5060010190565b6000826115b957634e487b7160e01b81526012600452602481fd5b500690565b634e487b7160e01b600052601160045260246000fd5b6001600160a01b03811681146115e957600080fd5b50565b80151581146115e957600080fdfea26469706673582212206ea7d5fad8df865c86ae08c1be1845201e96cd38cff67bd5a9f544a3c94cf69164736f6c63430008000033",
  "linkReferences": {},
  "deployedLinkReferences": {}
}