{
  "_format": "hh-sol-artifact-1",
  "contractName": "CouponOnboardingContract",
  "sourceName": "build/sources/adapters/CouponOnboarding.sol",
  "abi": [
    {
      "inputs": [
        {
          "internalType": "uint256",
          "name": "chainId",
          "type": "uint256"
        }
      ],
      "stateMutability": "nonpayable",
      "type": "constructor"
    },
    {
      "anonymous": false,
      "inputs": [
        {
          "indexed": false,
          "internalType": "address",
          "name": "daoAddress",
          "type": "address"
        },
        {
          "indexed": false,
          "internalType": "uint256",
          "name": "nonce",
          "type": "uint256"
        },
        {
          "indexed": false,
          "internalType": "address",
          "name": "authorizedMember",
          "type": "address"
        },
        {
          "indexed": false,
          "internalType": "uint256",
          "name": "amount",
          "type": "uint256"
        }
      ],
      "name": "CouponRedeemed",
      "type": "event"
    },
    {
      "inputs": [],
      "name": "COUPON_MESSAGE_TYPE",
      "outputs": [
        {
          "internalType": "string",
          "name": "",
          "type": "string"
        }
      ],
      "stateMutability": "view",
      "type": "function"
    },
    {
      "inputs": [],
      "name": "COUPON_MESSAGE_TYPEHASH",
      "outputs": [
        {
          "internalType": "bytes32",
          "name": "",
          "type": "bytes32"
        }
      ],
      "stateMutability": "view",
      "type": "function"
    },
    {
      "inputs": [],
      "name": "EIP712_DOMAIN",
      "outputs": [
        {
          "internalType": "string",
          "name": "",
          "type": "string"
        }
      ],
      "stateMutability": "view",
      "type": "function"
    },
    {
      "inputs": [],
      "name": "EIP712_DOMAIN_TYPEHASH",
      "outputs": [
        {
          "internalType": "bytes32",
          "name": "",
          "type": "bytes32"
        }
      ],
      "stateMutability": "view",
      "type": "function"
    },
    {
      "inputs": [
        {
          "internalType": "contract DaoRegistry",
          "name": "dao",
          "type": "address"
        },
        {
          "internalType": "address",
          "name": "signerAddress",
          "type": "address"
        },
        {
          "internalType": "address",
          "name": "tokenAddrToMint",
          "type": "address"
        }
      ],
      "name": "configureDao",
      "outputs": [],
      "stateMutability": "nonpayable",
      "type": "function"
    },
    {
      "inputs": [
        {
          "internalType": "contract DaoRegistry",
          "name": "dao",
          "type": "address"
        },
        {
          "internalType": "uint256",
          "name": "chainId",
          "type": "uint256"
        },
        {
          "internalType": "address",
          "name": "actionId",
          "type": "address"
        }
      ],
      "name": "domainSeparator",
      "outputs": [
        {
          "internalType": "bytes32",
          "name": "",
          "type": "bytes32"
        }
      ],
      "stateMutability": "pure",
      "type": "function"
    },
    {
      "inputs": [
        {
          "internalType": "uint256",
          "name": "flags",
          "type": "uint256"
        },
        {
          "internalType": "uint256",
          "name": "flag",
          "type": "uint256"
        }
      ],
      "name": "getFlag",
      "outputs": [
        {
          "internalType": "bool",
          "name": "",
          "type": "bool"
        }
      ],
      "stateMutability": "pure",
      "type": "function"
    },
    {
      "inputs": [
        {
          "internalType": "contract DaoRegistry",
          "name": "dao",
          "type": "address"
        },
        {
          "components": [
            {
              "internalType": "address",
              "name": "authorizedMember",
              "type": "address"
            },
            {
              "internalType": "uint256",
              "name": "amount",
              "type": "uint256"
            },
            {
              "internalType": "uint256",
              "name": "nonce",
              "type": "uint256"
            }
          ],
          "internalType": "struct CouponOnboardingContract.Coupon",
          "name": "coupon",
          "type": "tuple"
        }
      ],
      "name": "hashCouponMessage",
      "outputs": [
        {
          "internalType": "bytes32",
          "name": "",
          "type": "bytes32"
        }
      ],
      "stateMutability": "view",
      "type": "function"
    },
    {
      "inputs": [
        {
          "internalType": "contract DaoRegistry",
          "name": "dao",
          "type": "address"
        },
        {
          "internalType": "uint256",
          "name": "chainId",
          "type": "uint256"
        },
        {
          "internalType": "address",
          "name": "actionId",
          "type": "address"
        },
        {
          "internalType": "bytes32",
          "name": "message",
          "type": "bytes32"
        }
      ],
      "name": "hashMessage",
      "outputs": [
        {
          "internalType": "bytes32",
          "name": "",
          "type": "bytes32"
        }
      ],
      "stateMutability": "pure",
      "type": "function"
    },
    {
      "inputs": [
        {
          "internalType": "address",
          "name": "addr",
          "type": "address"
        }
      ],
      "name": "isNotReservedAddress",
      "outputs": [
        {
          "internalType": "bool",
          "name": "",
          "type": "bool"
        }
      ],
      "stateMutability": "pure",
      "type": "function"
    },
    {
      "inputs": [
        {
          "internalType": "address",
          "name": "addr",
          "type": "address"
        }
      ],
      "name": "isNotZeroAddress",
      "outputs": [
        {
          "internalType": "bool",
          "name": "",
          "type": "bool"
        }
      ],
      "stateMutability": "pure",
      "type": "function"
    },
    {
      "inputs": [
        {
          "internalType": "address",
          "name": "memberAddress",
          "type": "address"
        },
        {
          "internalType": "contract DaoRegistry",
          "name": "dao",
          "type": "address"
        },
        {
          "internalType": "contract BankExtension",
          "name": "bank",
          "type": "address"
        }
      ],
      "name": "potentialNewMember",
      "outputs": [],
      "stateMutability": "nonpayable",
      "type": "function"
    },
    {
      "inputs": [
        {
          "internalType": "bytes32",
          "name": "hash",
          "type": "bytes32"
        },
        {
          "internalType": "bytes",
          "name": "sig",
          "type": "bytes"
        }
      ],
      "name": "recover",
      "outputs": [
        {
          "internalType": "address",
          "name": "",
          "type": "address"
        }
      ],
      "stateMutability": "pure",
      "type": "function"
    },
    {
      "inputs": [
        {
          "internalType": "contract DaoRegistry",
          "name": "dao",
          "type": "address"
        },
        {
          "internalType": "address",
          "name": "authorizedMember",
          "type": "address"
        },
        {
          "internalType": "uint256",
          "name": "amount",
          "type": "uint256"
        },
        {
          "internalType": "uint256",
          "name": "nonce",
          "type": "uint256"
        },
        {
          "internalType": "bytes",
          "name": "signature",
          "type": "bytes"
        }
      ],
      "name": "redeemCoupon",
      "outputs": [],
      "stateMutability": "nonpayable",
      "type": "function"
    },
    {
      "inputs": [
        {
          "internalType": "uint256",
          "name": "flags",
          "type": "uint256"
        },
        {
          "internalType": "uint256",
          "name": "flag",
          "type": "uint256"
        },
        {
          "internalType": "bool",
          "name": "value",
          "type": "bool"
        }
      ],
      "name": "setFlag",
      "outputs": [
        {
          "internalType": "uint256",
          "name": "",
          "type": "uint256"
        }
      ],
      "stateMutability": "pure",
      "type": "function"
    },
    {
      "stateMutability": "payable",
      "type": "receive"
    }
  ],
  "bytecode": "0x608060405234801561001057600080fd5b50604051611f6c380380611f6c83398101604081905261002f91610037565b60005561004f565b600060208284031215610048578081fd5b5051919050565b611f0e8061005e6000396000f3fe6080604052600436106100ec5760003560e01c8063b244a41d1161008a578063e7975f2211610059578063e7975f2214610295578063ed53a963146102b5578063ef6a2499146102ca578063fc258031146102ea57610112565b8063b244a41d1461021e578063c7977be71461023e578063ca0f463314610253578063e1b11da41461028057610112565b806363a9fed7116100c657806363a9fed71461019c57806386c17fd5146101be578063942cb4bd146101de5780639cf2fa27146101fe57610112565b806319045a25146101175780631a25c9101461014d5780634f7fdcc41461017a57610112565b366101125760405162461bcd60e51b815260040161010990611bd7565b60405180910390fd5b600080fd5b34801561012357600080fd5b50610137610132366004611613565b61030a565b60405161014491906118bb565b60405180910390f35b34801561015957600080fd5b5061016d61016836600461179d565b61031d565b6040516101449190611942565b34801561018657600080fd5b5061019a610195366004611658565b61035c565b005b3480156101a857600080fd5b506101b16106d7565b60405161014491906119d8565b3480156101ca57600080fd5b5061019a6101d93660046115ad565b6106f3565b3480156101ea57600080fd5b5061019a6101f936600461166c565b6108cd565b34801561020a57600080fd5b5061016d610219366004611767565b610ddb565b34801561022a57600080fd5b5061016d61023936600461183c565b610e95565b34801561024a57600080fd5b5061016d610eee565b34801561025f57600080fd5b5061027361026e366004611575565b610f30565b6040516101449190611937565b34801561028c57600080fd5b506101b1610f3e565b3480156102a157600080fd5b5061016d6102b03660046116e0565b610f5a565b3480156102c157600080fd5b5061016d610fec565b3480156102d657600080fd5b506102736102e5366004611575565b611015565b3480156102f657600080fd5b5061027361030536600461181b565b61105a565b60006103168383611077565b9392505050565b600061032a858585610ddb565b8260405160200161033c929190611885565b604051602081830303815290604052805190602001209050949350505050565b826000816001600160a01b031663c19d93fb6040518163ffffffff1660e01b815260040160206040518083038186803b15801561039857600080fd5b505afa1580156103ac573d6000803e3d6000fd5b505050506040513d601f19601f820116820180604052508101906103d091906117e4565b60018111156103ef57634e487b7160e01b600052602160045260246000fd5b14801561040057506104008161109b565b8061048257506040516368c18beb60e01b81526001600160a01b038216906368c18beb906104329033906004016118bb565b60206040518083038186803b15801561044a57600080fd5b505afa15801561045e573d6000803e3d6000fd5b505050506040513d601f19601f8201168201806040525081019061048291906115f7565b61049e5760405162461bcd60e51b815260040161010990611c0e565b604051631da7c90d60e11b81526001600160a01b03851690633b4f921a906104ec907f2b2d04f280ad63526e525ab4a58c15135c57704db39b1bad89a9d025e200b01d90879060040161194b565b600060405180830381600087803b15801561050657600080fd5b505af115801561051a573d6000803e3d6000fd5b5050604051631da7c90d60e11b81526001600160a01b0387169250633b4f921a915061056c907f3b5ad57de63defb963621e54aa93d557db5ea5d33bdab9bb2d34c5b97311062990869060040161194b565b600060405180830381600087803b15801561058657600080fd5b505af115801561059a573d6000803e3d6000fd5b50506040517f593e96b6000000000000000000000000000000000000000000000000000000008152600092506001600160a01b038716915063593e96b690610606907fea0ca03c7adbe41dc655fec28a9209dc8e6e042f3d991a67765ba285b9cf73a090600401611942565b60206040518083038186803b15801561061e57600080fd5b505afa158015610632573d6000803e3d6000fd5b505050506040513d601f19601f820116820180604052508101906106569190611591565b6040517ff7e15acf0000000000000000000000000000000000000000000000000000000081529091506001600160a01b0382169063f7e15acf9061069e9086906004016118bb565b600060405180830381600087803b1580156106b857600080fd5b505af11580156106cc573d6000803e3d6000fd5b505050505050505050565b6040518060600160405280603e8152602001611e9b603e913981565b6040517fdc929f4a0000000000000000000000000000000000000000000000000000000081526001600160a01b0383169063dc929f4a906107389086906004016118bb565b600060405180830381600087803b15801561075257600080fd5b505af1158015610766573d6000803e3d6000fd5b505050506001600160a01b0383166107905760405162461bcd60e51b815260040161010990611b27565b6001600160a01b038116156108c8576040517ff7888aec0000000000000000000000000000000000000000000000000000000081526001600160a01b0382169063f7888aec906107ea90869063decafbad906004016118cf565b60206040518083038186803b15801561080257600080fd5b505afa158015610816573d6000803e3d6000fd5b505050506040513d601f19601f8201168201806040525081019061083a9190611591565b6001600160a01b03166108c8576040517fc57d5fe90000000000000000000000000000000000000000000000000000000081526001600160a01b0382169063c57d5fe99061089590869063decafbad906001906004016118e9565b600060405180830381600087803b1580156108af57600080fd5b505af11580156108c3573d6000803e3d6000fd5b505050505b505050565b8443816001600160a01b031663b21634826040518163ffffffff1660e01b815260040160206040518083038186803b15801561090857600080fd5b505afa15801561091c573d6000803e3d6000fd5b505050506040513d601f19601f820116820180604052508101906109409190611803565b141561095e5760405162461bcd60e51b815260040161010990611b5e565b806001600160a01b03166310fdb0a26040518163ffffffff1660e01b8152600401600060405180830381600087803b15801561099957600080fd5b505af11580156109ad573d6000803e3d6000fd5b505050506001600160a01b0386166000908152600160205260408120816109d661010087611c5d565b81526020019081526020016000205490506109f981610100866103059190611dbe565b15610a165760405162461bcd60e51b815260040161010990611a42565b6040517ffd310d290000000000000000000000000000000000000000000000000000000081526000906001600160a01b0389169063fd310d2990610a7e907f2b2d04f280ad63526e525ab4a58c15135c57704db39b1bad89a9d025e200b01d90600401611942565b60206040518083038186803b158015610a9657600080fd5b505afa158015610aaa573d6000803e3d6000fd5b505050506040513d601f19601f82011682018060405250810190610ace9190611591565b604080516060810182526001600160a01b038a168152602081018990529081018790529091506000610b008a83610f5a565b90506000610b0e8288611077565b9050836001600160a01b0316816001600160a01b031614610b415760405162461bcd60e51b815260040161010990611aae565b610b5885610b516101008b611dbe565b6001610e95565b6001600160a01b038c16600090815260016020526040812090610b7d6101008c611c5d565b81526020019081526020016000208190555060008b6001600160a01b031663fd310d297f3b5ad57de63defb963621e54aa93d557db5ea5d33bdab9bb2d34c5b9731106296040518263ffffffff1660e01b8152600401610bdd9190611942565b60206040518083038186803b158015610bf557600080fd5b505afa158015610c09573d6000803e3d6000fd5b505050506040513d601f19601f82011682018060405250810190610c2d9190611591565b905060008c6001600160a01b031663593e96b67fea0ca03c7adbe41dc655fec28a9209dc8e6e042f3d991a67765ba285b9cf73a06040518263ffffffff1660e01b8152600401610c7d9190611942565b60206040518083038186803b158015610c9557600080fd5b505afa158015610ca9573d6000803e3d6000fd5b505050506040513d601f19601f82011682018060405250810190610ccd9190611591565b9050806001600160a01b031663c57d5fe98d848e6040518463ffffffff1660e01b8152600401610cff939291906118e9565b600060405180830381600087803b158015610d1957600080fd5b505af1158015610d2d573d6000803e3d6000fd5b50505050610d3c8c8e836106f3565b7fc761c7e179107268c13117c13d4201d156d9e466dc50fd48486d025f00f280c48d8b8e8e604051610d71949392919061190d565b60405180910390a150505050505050806001600160a01b031663d4f7af436040518163ffffffff1660e01b8152600401600060405180830381600087803b158015610dbb57600080fd5b505af1158015610dcf573d6000803e3d6000fd5b50505050505050505050565b60006040518060a0016040528060638152602001611e3860639139604051602001610e069190611869565b604051602081830303815290604052805190602001207fe2ffb2e2c8bf0b9b360ecefb7de0735865e605d6ba933b6c7e12cee0e178c8bf7f13600b294191fc92924bb3ce4b969c1e7e2bab8f4c93c3fc6d0a51733df3c060858786604051602001610e7696959493929190611986565b6040516020818303038152906040528051906020012090509392505050565b6000811515610ea4858561105a565b151514610ee7578115610ecd57610ebc836002611cae565b610ec69085611c45565b9050610316565b610ed8836002611cae565b610ec69085611d77565b610316565b5082610316565b6040518060a0016040528060638152602001611e3860639139604051602001610f179190611869565b6040516020818303038152906040528051906020012081565b6001600160a01b0316151590565b6040518060a0016040528060638152602001611e386063913981565b6000806040518060600160405280603e8152602001611e9b603e9139604051602001610f869190611869565b60405160208183030381529060405280519060200120836000015184602001518560400151604051602001610fbe9493929190611962565b604051602081830303815290604052805190602001209050610fe484600054308461031d565b949350505050565b6040518060600160405280603e8152602001611e9b603e9139604051602001610f179190611869565b60006001600160a01b03821661dead1480159061103d57506001600160a01b03821661babe14155b801561105457506001600160a01b038216614bec14155b92915050565b600061106d600260ff841685901c611dbe565b6001149392505050565b6000806000611086858561122c565b915091506110938161129c565b509392505050565b6000816001600160a01b031663c67143666040518163ffffffff1660e01b815260040160206040518083038186803b1580156110d657600080fd5b505afa1580156110ea573d6000803e3d6000fd5b505050506040513d601f19601f8201168201806040525081019061110e9190611803565b15806111aa57506040517fa230c5240000000000000000000000000000000000000000000000000000000081526001600160a01b0383169063a230c5249061115a9033906004016118bb565b60206040518083038186803b15801561117257600080fd5b505afa158015611186573d6000803e3d6000fd5b505050506040513d601f19601f820116820180604052508101906111aa91906115f7565b8061105457506040516368c18beb60e01b81526001600160a01b038316906368c18beb906111dc9033906004016118bb565b60206040518083038186803b1580156111f457600080fd5b505afa158015611208573d6000803e3d6000fd5b505050506040513d601f19601f8201168201806040525081019061105491906115f7565b6000808251604114156112635760208301516040840151606085015160001a611257878285856113cc565b94509450505050611295565b82516040141561128d57602083015160408401516112828683836114ac565b935093505050611295565b506000905060025b9250929050565b60008160048111156112be57634e487b7160e01b600052602160045260246000fd5b14156112c9576113c9565b60018160048111156112eb57634e487b7160e01b600052602160045260246000fd5b14156113095760405162461bcd60e51b815260040161010990611a0b565b600281600481111561132b57634e487b7160e01b600052602160045260246000fd5b14156113495760405162461bcd60e51b815260040161010990611a77565b600381600481111561136b57634e487b7160e01b600052602160045260246000fd5b14156113895760405162461bcd60e51b815260040161010990611ae5565b60048160048111156113ab57634e487b7160e01b600052602160045260246000fd5b14156113c95760405162461bcd60e51b815260040161010990611b95565b50565b6000807f7fffffffffffffffffffffffffffffff5d576e7357a4501ddfe92f46681b20a083111561140357506000905060036114a3565b8460ff16601b1415801561141b57508460ff16601c14155b1561142c57506000905060046114a3565b60006001878787876040516000815260200160405260405161145194939291906119ba565b6020604051602081039080840390855afa158015611473573d6000803e3d6000fd5b5050604051601f1901519150506001600160a01b03811661149c576000600192509250506114a3565b9150600090505b94509492505050565b6000807f7fffffffffffffffffffffffffffffffffffffffffffffffffffffffffffffff831660ff84901c601b016114e6878288856113cc565b935093505050935093915050565b600082601f830112611504578081fd5b813567ffffffffffffffff8082111561151f5761151f611dfe565b604051601f8301601f19168101602001828111828210171561154357611543611dfe565b60405282815284830160200186101561155a578384fd5b82602086016020830137918201602001929092529392505050565b600060208284031215611586578081fd5b813561031681611e14565b6000602082840312156115a2578081fd5b815161031681611e14565b6000806000606084860312156115c1578182fd5b83356115cc81611e14565b925060208401356115dc81611e14565b915060408401356115ec81611e14565b809150509250925092565b600060208284031215611608578081fd5b815161031681611e29565b60008060408385031215611625578182fd5b82359150602083013567ffffffffffffffff811115611642578182fd5b61164e858286016114f4565b9150509250929050565b6000806000606084860312156115c1578283fd5b600080600080600060a08688031215611683578081fd5b853561168e81611e14565b9450602086013561169e81611e14565b93506040860135925060608601359150608086013567ffffffffffffffff8111156116c7578182fd5b6116d3888289016114f4565b9150509295509295909350565b60008082840360808112156116f3578283fd5b83356116fe81611e14565b92506060601f1982011215611711578182fd5b506040516060810181811067ffffffffffffffff8211171561173557611735611dfe565b604052602084013561174681611e14565b81526040848101356020830152606090940135938101939093525092909150565b60008060006060848603121561177b578283fd5b833561178681611e14565b92506020840135915060408401356115ec81611e14565b600080600080608085870312156117b2578081fd5b84356117bd81611e14565b93506020850135925060408501356117d481611e14565b9396929550929360600135925050565b6000602082840312156117f5578081fd5b815160028110610316578182fd5b600060208284031215611814578081fd5b5051919050565b6000806040838503121561182d578182fd5b50508035926020909101359150565b600080600060608486031215611850578081fd5b833592506020840135915060408401356115ec81611e29565b6000825161187b818460208701611d8e565b9190910192915050565b7f190100000000000000000000000000000000000000000000000000000000000081526002810192909252602282015260420190565b6001600160a01b0391909116815260200190565b6001600160a01b0392831681529116602082015260400190565b6001600160a01b039384168152919092166020820152604081019190915260600190565b6001600160a01b039485168152602081019390935292166040820152606081019190915260800190565b901515815260200190565b90815260200190565b9182526001600160a01b0316602082015260400190565b9384526001600160a01b039290921660208401526040830152606082015260800190565b9586526020860194909452604085019290925260608401526001600160a01b0390811660808401521660a082015260c00190565b93845260ff9290921660208401526040830152606082015260800190565b60006020825282518060208401526119f7816040850160208701611d8e565b601f01601f19169190910160400192915050565b60208082526018908201527f45434453413a20696e76616c6964207369676e61747572650000000000000000604082015260600190565b6020808252818101527f636f75706f6e2068617320616c7265616479206265656e2072656465656d6564604082015260600190565b6020808252601f908201527f45434453413a20696e76616c6964207369676e6174757265206c656e67746800604082015260600190565b6020808252600b908201527f696e76616c696420736967000000000000000000000000000000000000000000604082015260600190565b60208082526022908201527f45434453413a20696e76616c6964207369676e6174757265202773272076616c604082015261756560f01b606082015260800190565b60208082526016908201527f696e76616c6964206d656d626572206164647265737300000000000000000000604082015260600190565b60208082526010908201527f7265656e7472616e637920677561726400000000000000000000000000000000604082015260600190565b60208082526022908201527f45434453413a20696e76616c6964207369676e6174757265202776272076616c604082015261756560f01b606082015260800190565b6020808252600f908201527f66616c6c6261636b207265766572740000000000000000000000000000000000604082015260600190565b6020808252600b908201527f6f6e6c7941646170746572000000000000000000000000000000000000000000604082015260600190565b60008219821115611c5857611c58611dd2565b500190565b600082611c6c57611c6c611de8565b500490565b80825b6001808611611c8357506114a3565b818704821115611c9557611c95611dd2565b80861615611ca257918102915b9490941c938002611c74565b60006103166000198484600082611cc757506001610316565b81611cd457506000610316565b8160018114611cea5760028114611cf457611d21565b6001915050610316565b60ff841115611d0557611d05611dd2565b6001841b915084821115611d1b57611d1b611dd2565b50610316565b5060208310610133831016604e8410600b8410161715611d4f575081810a83811115610ee257610ee2611dd2565b611d5c8484846001611c71565b808604821115611d6e57611d6e611dd2565b02949350505050565b600082821015611d8957611d89611dd2565b500390565b60005b83811015611da9578181015183820152602001611d91565b83811115611db8576000848401525b50505050565b600082611dcd57611dcd611de8565b500690565b634e487b7160e01b600052601160045260246000fd5b634e487b7160e01b600052601260045260246000fd5b634e487b7160e01b600052604160045260246000fd5b6001600160a01b03811681146113c957600080fd5b80151581146113c957600080fdfe454950373132446f6d61696e28737472696e67206e616d652c737472696e672076657273696f6e2c75696e7432353620636861696e49642c6164647265737320766572696679696e67436f6e74726163742c6164647265737320616374696f6e4964294d657373616765286164647265737320617574686f72697a65644d656d6265722c75696e7432353620616d6f756e742c75696e74323536206e6f6e636529a2646970667358221220f87c2b5b633c756e967d1ca35a51c20988cbf674058de5849d562e3bd01e32ec64736f6c63430008000033",
  "linkReferences": {},
  "deployedLinkReferences": {}
}