{
  "_format": "hh-sol-artifact-1",
  "contractName": "DaoArtifacts",
  "sourceName": "build/sources/utils/DaoArtifacts.sol",
  "abi": [
    {
      "anonymous": false,
      "inputs": [
        {
          "indexed": false,
          "internalType": "bytes32",
          "name": "_id",
          "type": "bytes32"
        },
        {
          "indexed": false,
          "internalType": "address",
          "name": "_owner",
          "type": "address"
        },
        {
          "indexed": false,
          "internalType": "bytes32",
          "name": "_version",
          "type": "bytes32"
        },
        {
          "indexed": false,
          "internalType": "address",
          "name": "_address",
          "type": "address"
        },
        {
          "indexed": false,
          "internalType": "enum DaoArtifacts.ArtifactType",
          "name": "_type",
          "type": "uint8"
        }
      ],
      "name": "NewArtifact",
      "type": "event"
    },
    {
      "anonymous": false,
      "inputs": [
        {
          "indexed": true,
          "internalType": "address",
          "name": "previousOwner",
          "type": "address"
        },
        {
          "indexed": true,
          "internalType": "address",
          "name": "newOwner",
          "type": "address"
        }
      ],
      "name": "OwnershipTransferred",
      "type": "event"
    },
    {
      "inputs": [
        {
          "internalType": "bytes32",
          "name": "_id",
          "type": "bytes32"
        },
        {
          "internalType": "bytes32",
          "name": "_version",
          "type": "bytes32"
        },
        {
          "internalType": "address",
          "name": "_address",
          "type": "address"
        },
        {
          "internalType": "enum DaoArtifacts.ArtifactType",
          "name": "_type",
          "type": "uint8"
        }
      ],
      "name": "addArtifact",
      "outputs": [],
      "stateMutability": "nonpayable",
      "type": "function"
    },
    {
      "inputs": [
        {
          "internalType": "bytes32",
          "name": "",
          "type": "bytes32"
        },
        {
          "internalType": "address",
          "name": "",
          "type": "address"
        },
        {
          "internalType": "enum DaoArtifacts.ArtifactType",
          "name": "",
          "type": "uint8"
        },
        {
          "internalType": "bytes32",
          "name": "",
          "type": "bytes32"
        }
      ],
      "name": "artifacts",
      "outputs": [
        {
          "internalType": "address",
          "name": "",
          "type": "address"
        }
      ],
      "stateMutability": "view",
      "type": "function"
    },
    {
      "inputs": [
        {
          "internalType": "bytes32",
          "name": "_id",
          "type": "bytes32"
        },
        {
          "internalType": "address",
          "name": "_owner",
          "type": "address"
        },
        {
          "internalType": "bytes32",
          "name": "_version",
          "type": "bytes32"
        },
        {
          "internalType": "enum DaoArtifacts.ArtifactType",
          "name": "_type",
          "type": "uint8"
        }
      ],
      "name": "getArtifactAddress",
      "outputs": [
        {
          "internalType": "address",
          "name": "",
          "type": "address"
        }
      ],
      "stateMutability": "view",
      "type": "function"
    },
    {
      "inputs": [],
      "name": "owner",
      "outputs": [
        {
          "internalType": "address",
          "name": "",
          "type": "address"
        }
      ],
      "stateMutability": "view",
      "type": "function"
    },
    {
      "inputs": [],
      "name": "renounceOwnership",
      "outputs": [],
      "stateMutability": "nonpayable",
      "type": "function"
    },
    {
      "inputs": [
        {
          "internalType": "address",
          "name": "newOwner",
          "type": "address"
        }
      ],
      "name": "transferOwnership",
      "outputs": [],
      "stateMutability": "nonpayable",
      "type": "function"
    },
    {
      "inputs": [
        {
          "components": [
            {
              "internalType": "bytes32",
              "name": "_id",
              "type": "bytes32"
            },
            {
              "internalType": "address",
              "name": "_owner",
              "type": "address"
            },
            {
              "internalType": "bytes32",
              "name": "_version",
              "type": "bytes32"
            },
            {
              "internalType": "address",
              "name": "_address",
              "type": "address"
            },
            {
              "internalType": "enum DaoArtifacts.ArtifactType",
              "name": "_type",
              "type": "uint8"
            }
          ],
          "internalType": "struct DaoArtifacts.Artifact[]",
          "name": "_artifacts",
          "type": "tuple[]"
        }
      ],
      "name": "updateArtifacts",
      "outputs": [],
      "stateMutability": "nonpayable",
      "type": "function"
    }
  ],
  "bytecode": "0x608060405234801561001057600080fd5b5061002161001c610026565b61002a565b61007a565b3390565b600080546001600160a01b038381166001600160a01b0319831681178455604051919092169283917f8be0079c531659141344cd1fd0a4f28419497f9722a3daafe3b4186f6b6457e09190a35050565b610957806100896000396000f3fe608060405234801561001057600080fd5b506004361061007d5760003560e01c806378a570151161005b57806378a57015146100c85780638da5cb5b146100db578063a9af2d5d146100e3578063f2fde38b146100f65761007d565b8063069d076d146100825780633b43b0a1146100ab578063715018a6146100c0575b600080fd5b6100956100903660046106ca565b610109565b6040516100a2919061078c565b60405180910390f35b6100be6100b93660046105b1565b61019c565b005b6100be610313565b6100956100d636600461070f565b61035e565b610095610393565b6100be6100f1366004610752565b6103a2565b6100be610104366004610590565b610488565b60008481526001602090815260408083206001600160a01b038716845290915281208183600481111561014c57634e487b7160e01b600052602160045260246000fd5b600481111561016b57634e487b7160e01b600052602160045260246000fd5b8152602080820192909252604090810160009081208682529092529020546001600160a01b03169050949350505050565b6101a46104f9565b6001600160a01b03166101b5610393565b6001600160a01b0316146101e45760405162461bcd60e51b81526004016101db90610885565b60405180910390fd5b6014815111156102065760405162461bcd60e51b81526004016101db90610850565b60005b815181101561030f57600082828151811061023457634e487b7160e01b600052603260045260246000fd5b602090810291909101810151606081015181516000908152600184526040808220848601516001600160a01b03168352909452928320608083015192945090929091600481111561029557634e487b7160e01b600052602160045260246000fd5b60048111156102b457634e487b7160e01b600052602160045260246000fd5b815260200190815260200160002060008360400151815260200190815260200160002060006101000a8154816001600160a01b0302191690836001600160a01b03160217905550508080610307906108e4565b915050610209565b5050565b61031b6104f9565b6001600160a01b031661032c610393565b6001600160a01b0316146103525760405162461bcd60e51b81526004016101db90610885565b61035c60006104fd565b565b60016020908152600094855260408086208252938552838520815291845282842090915282529020546001600160a01b031681565b6000546001600160a01b031690565b6000848152600160209081526040808320338085529252822090918491908460048111156103e057634e487b7160e01b600052602160045260246000fd5b60048111156103ff57634e487b7160e01b600052602160045260246000fd5b8152602001908152602001600020600086815260200190815260200160002060006101000a8154816001600160a01b0302191690836001600160a01b031602179055507f712ce68c4c2ebbf9294252fb3159c132e55f4df39a756a2c862a7ef6baa643a785828686866040516104799594939291906107a0565b60405180910390a15050505050565b6104906104f9565b6001600160a01b03166104a1610393565b6001600160a01b0316146104c75760405162461bcd60e51b81526004016101db90610885565b6001600160a01b0381166104ed5760405162461bcd60e51b81526004016101db906107f3565b6104f6816104fd565b50565b3390565b600080546001600160a01b038381167fffffffffffffffffffffffff0000000000000000000000000000000000000000831681178455604051919092169283917f8be0079c531659141344cd1fd0a4f28419497f9722a3daafe3b4186f6b6457e09190a35050565b80356001600160a01b038116811461057c57600080fd5b919050565b80356005811061057c57600080fd5b6000602082840312156105a1578081fd5b6105aa82610565565b9392505050565b600060208083850312156105c3578182fd5b823567ffffffffffffffff808211156105da578384fd5b818501915085601f8301126105ed578384fd5b8135818111156105ff576105ff61090b565b61060c84858302016108ba565b8181528481019084860160a0808502870188018b101561062a578889fd5b8896505b848710156106bb5780828c031215610644578889fd5b60408051828101818110898211171561065f5761065f61090b565b8252833581526106708a8501610565565b8a82015281840135828201526060915061068b828501610565565b828201526080915061069e828501610581565b91810191909152845260019690960195928701929081019061062e565b50909998505050505050505050565b600080600080608085870312156106df578283fd5b843593506106ef60208601610565565b92506040850135915061070460608601610581565b905092959194509250565b60008060008060808587031215610724578384fd5b8435935061073460208601610565565b925061074260408601610581565b9396929550929360600135925050565b60008060008060808587031215610767578384fd5b843593506020850135925061077e60408601610565565b915061070460608601610581565b6001600160a01b0391909116815260200190565b8581526001600160a01b038581166020830152604082018590528316606082015260a08101600583106107e357634e487b7160e01b600052602160045260246000fd5b8260808301529695505050505050565b60208082526026908201527f4f776e61626c653a206e6577206f776e657220697320746865207a65726f206160408201527f6464726573730000000000000000000000000000000000000000000000000000606082015260800190565b6020808252818101527f4d6178696d756d20617274696661637473206c696d6974206578636565646564604082015260600190565b6020808252818101527f4f776e61626c653a2063616c6c6572206973206e6f7420746865206f776e6572604082015260600190565b60405181810167ffffffffffffffff811182821017156108dc576108dc61090b565b604052919050565b600060001982141561090457634e487b7160e01b81526011600452602481fd5b5060010190565b634e487b7160e01b600052604160045260246000fdfea2646970667358221220adbe56b1ef779c8ab7e08da605f62264249d1ef19c7c4e6f21287158a7f1dc5364736f6c63430008000033",
  "linkReferences": {},
  "deployedLinkReferences": {}
}