{
  "_format": "hh-sol-artifact-1",
  "contractName": "DaoFactory",
  "sourceName": "build/sources/core/DaoFactory.sol",
  "abi": [
    {
      "inputs": [
        {
          "internalType": "address",
          "name": "_identityAddress",
          "type": "address"
        }
      ],
      "stateMutability": "nonpayable",
      "type": "constructor"
    },
    {
      "anonymous": false,
      "inputs": [
        {
          "indexed": false,
          "internalType": "address",
          "name": "_address",
          "type": "address"
        },
        {
          "indexed": false,
          "internalType": "string",
          "name": "_name",
          "type": "string"
        }
      ],
      "name": "DAOCreated",
      "type": "event"
    },
    {
      "inputs": [
        {
          "internalType": "contract DaoRegistry",
          "name": "dao",
          "type": "address"
        },
        {
          "components": [
            {
              "internalType": "bytes32",
              "name": "id",
              "type": "bytes32"
            },
            {
              "internalType": "address",
              "name": "addr",
              "type": "address"
            },
            {
              "internalType": "uint128",
              "name": "flags",
              "type": "uint128"
            }
          ],
          "internalType": "struct DaoFactory.Adapter[]",
          "name": "adapters",
          "type": "tuple[]"
        }
      ],
      "name": "addAdapters",
      "outputs": [],
      "stateMutability": "nonpayable",
      "type": "function"
    },
    {
      "inputs": [
        {
          "internalType": "bytes32",
          "name": "",
          "type": "bytes32"
        }
      ],
      "name": "addresses",
      "outputs": [
        {
          "internalType": "address",
          "name": "",
          "type": "address"
        }
      ],
      "stateMutability": "view",
      "type": "function"
    },
    {
      "inputs": [
        {
          "internalType": "contract DaoRegistry",
          "name": "dao",
          "type": "address"
        },
        {
          "internalType": "address",
          "name": "extension",
          "type": "address"
        },
        {
          "components": [
            {
              "internalType": "bytes32",
              "name": "id",
              "type": "bytes32"
            },
            {
              "internalType": "address",
              "name": "addr",
              "type": "address"
            },
            {
              "internalType": "uint128",
              "name": "flags",
              "type": "uint128"
            }
          ],
          "internalType": "struct DaoFactory.Adapter[]",
          "name": "adapters",
          "type": "tuple[]"
        }
      ],
      "name": "configureExtension",
      "outputs": [],
      "stateMutability": "nonpayable",
      "type": "function"
    },
    {
      "inputs": [
        {
          "internalType": "string",
          "name": "daoName",
          "type": "string"
        },
        {
          "internalType": "address",
          "name": "creator",
          "type": "address"
        }
      ],
      "name": "createDao",
      "outputs": [],
      "stateMutability": "nonpayable",
      "type": "function"
    },
    {
      "inputs": [
        {
          "internalType": "address",
          "name": "",
          "type": "address"
        }
      ],
      "name": "daos",
      "outputs": [
        {
          "internalType": "bytes32",
          "name": "",
          "type": "bytes32"
        }
      ],
      "stateMutability": "view",
      "type": "function"
    },
    {
      "inputs": [
        {
          "internalType": "string",
          "name": "daoName",
          "type": "string"
        }
      ],
      "name": "getDaoAddress",
      "outputs": [
        {
          "internalType": "address",
          "name": "",
          "type": "address"
        }
      ],
      "stateMutability": "view",
      "type": "function"
    },
    {
      "inputs": [
        {
          "internalType": "uint256",
          "name": "flags",
          "type": "uint256"
        },
        {
          "internalType": "uint256",
          "name": "flag",
          "type": "uint256"
        }
      ],
      "name": "getFlag",
      "outputs": [
        {
          "internalType": "bool",
          "name": "",
          "type": "bool"
        }
      ],
      "stateMutability": "pure",
      "type": "function"
    },
    {
      "inputs": [],
      "name": "identityAddress",
      "outputs": [
        {
          "internalType": "address",
          "name": "",
          "type": "address"
        }
      ],
      "stateMutability": "view",
      "type": "function"
    },
    {
      "inputs": [
        {
          "internalType": "address",
          "name": "addr",
          "type": "address"
        }
      ],
      "name": "isNotReservedAddress",
      "outputs": [
        {
          "internalType": "bool",
          "name": "",
          "type": "bool"
        }
      ],
      "stateMutability": "pure",
      "type": "function"
    },
    {
      "inputs": [
        {
          "internalType": "address",
          "name": "addr",
          "type": "address"
        }
      ],
      "name": "isNotZeroAddress",
      "outputs": [
        {
          "internalType": "bool",
          "name": "",
          "type": "bool"
        }
      ],
      "stateMutability": "pure",
      "type": "function"
    },
    {
      "inputs": [
        {
          "internalType": "uint256",
          "name": "flags",
          "type": "uint256"
        },
        {
          "internalType": "uint256",
          "name": "flag",
          "type": "uint256"
        },
        {
          "internalType": "bool",
          "name": "value",
          "type": "bool"
        }
      ],
      "name": "setFlag",
      "outputs": [
        {
          "internalType": "uint256",
          "name": "",
          "type": "uint256"
        }
      ],
      "stateMutability": "pure",
      "type": "function"
    },
    {
      "inputs": [
        {
          "internalType": "contract DaoRegistry",
          "name": "dao",
          "type": "address"
        },
        {
          "components": [
            {
              "internalType": "bytes32",
              "name": "id",
              "type": "bytes32"
            },
            {
              "internalType": "address",
              "name": "addr",
              "type": "address"
            },
            {
              "internalType": "uint128",
              "name": "flags",
              "type": "uint128"
            }
          ],
          "internalType": "struct DaoFactory.Adapter",
          "name": "adapter",
          "type": "tuple"
        }
      ],
      "name": "updateAdapter",
      "outputs": [],
      "stateMutability": "nonpayable",
      "type": "function"
    }
  ],
  "bytecode": "0x608060405234801561001057600080fd5b5060405161146338038061146383398101604081905261002f91610054565b600280546001600160a01b0319166001600160a01b0392909216919091179055610082565b600060208284031215610065578081fd5b81516001600160a01b038116811461007b578182fd5b9392505050565b6113d2806100916000396000f3fe608060405234801561001057600080fd5b50600436106100d45760003560e01c8063b244a41d11610081578063ca0f46331161005b578063ca0f46331461019e578063ef6a2499146101be578063fc258031146101d1576100d4565b8063b244a41d14610163578063bf45767a14610183578063c25f3cf61461018b576100d4565b8063699f200f116100b2578063699f200f1461012a5780639bb200841461013d578063ac704cbe14610150576100d4565b80631d1f0a27146100d957806329ca12ed146101025780633baeff3f14610117575b600080fd5b6100ec6100e7366004610e1d565b6101e4565b6040516100f99190610fba565b60405180910390f35b610115610110366004610d09565b610233565b005b610115610125366004610e5d565b610478565b6100ec610138366004610cf1565b610628565b61011561014b366004610d6c565b610643565b61011561015e366004610dbf565b6108da565b610176610171366004610f03565b610ad9565b6040516100f99190611054565b6100ec610b35565b610176610199366004610cb9565b610b44565b6101b16101ac366004610cb9565b610b56565b6040516100f99190611049565b6101b16101cc366004610cb9565b610b64565b6101b16101df366004610ee2565b610ba9565b60006001600084846040516020016101fd92919061110a565b60408051808303601f19018152918152815160209283012083529082019290925201600020546001600160a01b03169392505050565b60405163288c314960e21b81526001600160a01b0385169063a230c5249061025f903390600401610fba565b60206040518083038186803b15801561027757600080fd5b505afa15801561028b573d6000803e3d6000fd5b505050506040513d601f19601f820116820180604052508101906102af9190610cd5565b6102d45760405162461bcd60e51b81526004016102cb90611179565b60405180910390fd5b6000846001600160a01b031663c19d93fb6040518163ffffffff1660e01b815260040160206040518083038186803b15801561030f57600080fd5b505afa158015610323573d6000803e3d6000fd5b505050506040513d601f19601f820116820180604052508101906103479190610dfe565b600181111561036657634e487b7160e01b600052602160045260246000fd5b146103835760405162461bcd60e51b81526004016102cb906111b0565b60005b8181101561047157846001600160a01b031663179986f8858585858181106103be57634e487b7160e01b600052603260045260246000fd5b90506060020160200160208101906103d69190610cb9565b8686868181106103f657634e487b7160e01b600052603260045260246000fd5b905060600201604001602081019061040e9190610eb2565b6040518463ffffffff1660e01b815260040161042c93929190610fe8565b600060405180830381600087803b15801561044657600080fd5b505af115801561045a573d6000803e3d6000fd5b50505050808061046990611325565b915050610386565b5050505050565b6000838360405160200161048d92919061110a565b60408051808303601f19018152828252805160209182012060008181526001835292909220549193506001600160a01b0390911615916104d1918791879101610f5a565b604051602081830303815290604052906104fe5760405162461bcd60e51b81526004016102cb9190611126565b50600254600090610517906001600160a01b0316610bc6565b6040517f485cc95500000000000000000000000000000000000000000000000000000000815290915081906001600160a01b0382169063485cc955906105639087903390600401610fce565b600060405180830381600087803b15801561057d57600080fd5b505af1158015610591573d6000803e3d6000fd5b505050600084815260016020908152604080832080547fffffffffffffffffffffffff0000000000000000000000000000000000000000166001600160a01b03871690811790915583529082905290819020859055517e1d639484c46792ffbaa78827c6f9e6563478dac823f4e2a8ece68cf4d4867391506106189083908990899061101d565b60405180910390a1505050505050565b6001602052600090815260409020546001600160a01b031681565b60405163288c314960e21b81526001600160a01b0384169063a230c5249061066f903390600401610fba565b60206040518083038186803b15801561068757600080fd5b505afa15801561069b573d6000803e3d6000fd5b505050506040513d601f19601f820116820180604052508101906106bf9190610cd5565b6106db5760405162461bcd60e51b81526004016102cb90611179565b6000836001600160a01b031663c19d93fb6040518163ffffffff1660e01b815260040160206040518083038186803b15801561071657600080fd5b505afa15801561072a573d6000803e3d6000fd5b505050506040513d601f19601f8201168201806040525081019061074e9190610dfe565b600181111561076d57634e487b7160e01b600052602160045260246000fd5b1461078a5760405162461bcd60e51b81526004016102cb906111b0565b60005b818110156108d457836001600160a01b031663a37ff5e48484848181106107c457634e487b7160e01b600052603260045260246000fd5b905060600201600001358585858181106107ee57634e487b7160e01b600052603260045260246000fd5b90506060020160200160208101906108069190610cb9565b86868681811061082657634e487b7160e01b600052603260045260246000fd5b905060600201604001602081019061083e9190610eb2565b60408051600080825260208201908152818301928390527fffffffff0000000000000000000000000000000000000000000000000000000060e088901b1690925261088f949392916044820161105d565b600060405180830381600087803b1580156108a957600080fd5b505af11580156108bd573d6000803e3d6000fd5b5050505080806108cc90611325565b91505061078d565b50505050565b60405163288c314960e21b81526001600160a01b0383169063a230c52490610906903390600401610fba565b60206040518083038186803b15801561091e57600080fd5b505afa158015610932573d6000803e3d6000fd5b505050506040513d601f19601f820116820180604052508101906109569190610cd5565b6109725760405162461bcd60e51b81526004016102cb90611179565b6000826001600160a01b031663c19d93fb6040518163ffffffff1660e01b815260040160206040518083038186803b1580156109ad57600080fd5b505afa1580156109c1573d6000803e3d6000fd5b505050506040513d601f19601f820116820180604052508101906109e59190610dfe565b6001811115610a0457634e487b7160e01b600052602160045260246000fd5b14610a215760405162461bcd60e51b81526004016102cb906111b0565b6001600160a01b03821663a37ff5e48235610a426040850160208601610cb9565b610a526060860160408701610eb2565b60408051600080825260208201908152818301928390527fffffffff0000000000000000000000000000000000000000000000000000000060e088901b16909252610aa3949392916044820161105d565b600060405180830381600087803b158015610abd57600080fd5b505af1158015610ad1573d6000803e3d6000fd5b505050505050565b6000811515610ae88585610ba9565b151514610b2b578115610b1157610b00836002611245565b610b0a90856111e7565b9050610b2e565b610b1c836002611245565b610b0a908561130e565b610b2e565b50825b9392505050565b6002546001600160a01b031681565b60006020819052908152604090205481565b6001600160a01b0316151590565b60006001600160a01b03821661dead14801590610b8c57506001600160a01b03821661babe14155b8015610ba357506001600160a01b038216614bec14155b92915050565b6000610bbc600260ff841685901c611340565b6001149392505050565b6000808260601b90506040517f3d602d80600a3d3981f3363d3d373d3d3d363d7300000000000000000000000081528160148201527f5af43d82803e903d91602b57fd5bf3000000000000000000000000000000000060288201526037816000f0949350505050565b60008083601f840112610c40578182fd5b50813567ffffffffffffffff811115610c57578182fd5b602083019150836020606083028501011115610c7257600080fd5b9250929050565b60008083601f840112610c8a578182fd5b50813567ffffffffffffffff811115610ca1578182fd5b602083019150836020828501011115610c7257600080fd5b600060208284031215610cca578081fd5b8135610b2e81611376565b600060208284031215610ce6578081fd5b8151610b2e8161138e565b600060208284031215610d02578081fd5b5035919050565b60008060008060608587031215610d1e578283fd5b8435610d2981611376565b93506020850135610d3981611376565b9250604085013567ffffffffffffffff811115610d54578283fd5b610d6087828801610c2f565b95989497509550505050565b600080600060408486031215610d80578283fd5b8335610d8b81611376565b9250602084013567ffffffffffffffff811115610da6578283fd5b610db286828701610c2f565b9497909650939450505050565b6000808284036080811215610dd2578283fd5b8335610ddd81611376565b92506060601f1982011215610df0578182fd5b506020830190509250929050565b600060208284031215610e0f578081fd5b815160028110610b2e578182fd5b60008060208385031215610e2f578182fd5b823567ffffffffffffffff811115610e45578283fd5b610e5185828601610c79565b90969095509350505050565b600080600060408486031215610e71578283fd5b833567ffffffffffffffff811115610e87578384fd5b610e9386828701610c79565b9094509250506020840135610ea781611376565b809150509250925092565b600060208284031215610ec3578081fd5b81356fffffffffffffffffffffffffffffffff81168114610b2e578182fd5b60008060408385031215610ef4578182fd5b50508035926020909101359150565b600080600060608486031215610f17578283fd5b83359250602084013591506040840135610ea78161138e565b60008284528282602086013780602084860101526020601f19601f85011685010190509392505050565b60007f6e616d6520000000000000000000000000000000000000000000000000000000825282846005840137507f20616c72656164792074616b656e00000000000000000000000000000000000091016005810191909152601301919050565b6001600160a01b0391909116815260200190565b6001600160a01b0392831681529116602082015260400190565b6001600160a01b0393841681529190921660208201526fffffffffffffffffffffffffffffffff909116604082015260600190565b60006001600160a01b038516825260406020830152611040604083018486610f30565b95945050505050565b901515815260200190565b90815260200190565b600060a0820187835260206001600160a01b038816818501526fffffffffffffffffffffffffffffffff8716604085015260a0606085015281865180845260c0860191508288019350845b818110156110c4578451835293830193918301916001016110a8565b505084810360808601528551808252908201925081860190845b818110156110fa578251855293830193918301916001016110de565b50929a9950505050505050505050565b60006020825261111e602083018486610f30565b949350505050565b6000602080835283518082850152825b8181101561115257858101830151858201604001528201611136565b818111156111635783604083870101525b50601f01601f1916929092016040019392505050565b6020808252600a908201527f6e6f74206d656d62657200000000000000000000000000000000000000000000604082015260600190565b6020808252601f908201527f746869732044414f2068617320616c7265616479206265656e20736574757000604082015260600190565b600082198211156111fa576111fa611360565b500190565b80825b6001808611611211575061123c565b81870482111561122357611223611360565b8086161561123057918102915b9490941c938002611202565b94509492505050565b6000610b2e600019848460008261125e57506001610b2e565b8161126b57506000610b2e565b8160018114611281576002811461128b576112b8565b6001915050610b2e565b60ff84111561129c5761129c611360565b6001841b9150848211156112b2576112b2611360565b50610b2e565b5060208310610133831016604e8410600b84101617156112e6575081810a83811115610b2657610b26611360565b6112f384848460016111ff565b80860482111561130557611305611360565b02949350505050565b60008282101561132057611320611360565b500390565b600060001982141561133957611339611360565b5060010190565b60008261135b57634e487b7160e01b81526012600452602481fd5b500690565b634e487b7160e01b600052601160045260246000fd5b6001600160a01b038116811461138b57600080fd5b50565b801515811461138b57600080fdfea26469706673582212205418fd62b82c4fb98bee0f5a8347e40424d92f6ac5d9f969c7b8c1d77b544e7c64736f6c63430008000033",
  "linkReferences": {},
  "deployedLinkReferences": {}
}