{
  "_format": "hh-sol-artifact-1",
  "contractName": "DaoRegistryAdapterContract",
  "sourceName": "build/sources/adapters/DaoRegistryAdapter.sol",
  "abi": [
    {
      "inputs": [
        {
          "internalType": "uint256",
          "name": "flags",
          "type": "uint256"
        },
        {
          "internalType": "uint256",
          "name": "flag",
          "type": "uint256"
        }
      ],
      "name": "getFlag",
      "outputs": [
        {
          "internalType": "bool",
          "name": "",
          "type": "bool"
        }
      ],
      "stateMutability": "pure",
      "type": "function"
    },
    {
      "inputs": [
        {
          "internalType": "contract DaoRegistry",
          "name": "dao",
          "type": "address"
        },
        {
          "internalType": "address",
          "name": "_addr",
          "type": "address"
        }
      ],
      "name": "isActiveMember",
      "outputs": [
        {
          "internalType": "bool",
          "name": "",
          "type": "bool"
        }
      ],
      "stateMutability": "view",
      "type": "function"
    },
    {
      "inputs": [
        {
          "internalType": "address",
          "name": "addr",
          "type": "address"
        }
      ],
      "name": "isNotReservedAddress",
      "outputs": [
        {
          "internalType": "bool",
          "name": "",
          "type": "bool"
        }
      ],
      "stateMutability": "pure",
      "type": "function"
    },
    {
      "inputs": [
        {
          "internalType": "address",
          "name": "addr",
          "type": "address"
        }
      ],
      "name": "isNotZeroAddress",
      "outputs": [
        {
          "internalType": "bool",
          "name": "",
          "type": "bool"
        }
      ],
      "stateMutability": "pure",
      "type": "function"
    },
    {
      "inputs": [
        {
          "internalType": "uint256",
          "name": "flags",
          "type": "uint256"
        },
        {
          "internalType": "uint256",
          "name": "flag",
          "type": "uint256"
        },
        {
          "internalType": "bool",
          "name": "value",
          "type": "bool"
        }
      ],
      "name": "setFlag",
      "outputs": [
        {
          "internalType": "uint256",
          "name": "",
          "type": "uint256"
        }
      ],
      "stateMutability": "pure",
      "type": "function"
    },
    {
      "inputs": [
        {
          "internalType": "contract DaoRegistry",
          "name": "dao",
          "type": "address"
        },
        {
          "internalType": "address",
          "name": "delegateKey",
          "type": "address"
        }
      ],
      "name": "updateDelegateKey",
      "outputs": [],
      "stateMutability": "nonpayable",
      "type": "function"
    },
    {
      "stateMutability": "payable",
      "type": "receive"
    }
  ],
  "bytecode": "0x608060405234801561001057600080fd5b50610a62806100206000396000f3fe6080604052600436106100695760003560e01c8063ca0f463311610043578063ca0f463314610119578063ef6a249914610139578063fc258031146101595761008f565b80638ecf772014610094578063ac8359b8146100ca578063b244a41d146100ec5761008f565b3661008f5760405162461bcd60e51b81526004016100869061085b565b60405180910390fd5b600080fd5b3480156100a057600080fd5b506100b46100af366004610702565b610179565b6040516100c191906107d9565b60405180910390f35b3480156100d657600080fd5b506100ea6100e5366004610702565b6103f8565b005b3480156100f857600080fd5b5061010c610107366004610773565b6105b9565b6040516100c191906107e4565b34801561012557600080fd5b506100b46101343660046106ae565b610615565b34801561014557600080fd5b506100b46101543660046106ae565b610623565b34801561016557600080fd5b506100b4610174366004610752565b610667565b600080836001600160a01b031663fefbd8757fea0ca03c7adbe41dc655fec28a9209dc8e6e042f3d991a67765ba285b9cf73a06040518263ffffffff1660e01b81526004016101c891906107e4565b60206040518083038186803b1580156101e057600080fd5b505afa1580156101f4573d6000803e3d6000fd5b505050506040513d601f19601f8201168201806040525081019061021891906106ca565b90506001600160a01b03811615610359576040517fc89bb8ba0000000000000000000000000000000000000000000000000000000081526000906001600160a01b0386169063c89bb8ba906102719087906004016107ab565b60206040518083038186803b15801561028957600080fd5b505afa15801561029d573d6000803e3d6000fd5b505050506040513d601f19601f820116820180604052508101906102c191906106ca565b90506000826001600160a01b031663f7888aec83620ff1ce6040518363ffffffff1660e01b81526004016102f69291906107bf565b60206040518083038186803b15801561030e57600080fd5b505afa158015610322573d6000803e3d6000fd5b505050506040513d601f19601f8201168201806040525081019061034691906106ca565b6001600160a01b031611925050506103f2565b6040517fa230c5240000000000000000000000000000000000000000000000000000000081526001600160a01b0385169063a230c5249061039e9086906004016107ab565b60206040518083038186803b1580156103b657600080fd5b505afa1580156103ca573d6000803e3d6000fd5b505050506040513d601f19601f820116820180604052508101906103ee91906106e6565b9150505b92915050565b8143816001600160a01b031663b21634826040518163ffffffff1660e01b815260040160206040518083038186803b15801561043357600080fd5b505afa158015610447573d6000803e3d6000fd5b505050506040513d601f19601f8201168201806040525081019061046b919061073a565b14156104895760405162461bcd60e51b8152600401610086906107ed565b806001600160a01b03166310fdb0a26040518163ffffffff1660e01b8152600401600060405180830381600087803b1580156104c457600080fd5b505af11580156104d8573d6000803e3d6000fd5b50505050826104e78133610684565b6040517fac8359b80000000000000000000000000000000000000000000000000000000081526001600160a01b0385169063ac8359b89061052e90339087906004016107bf565b600060405180830381600087803b15801561054857600080fd5b505af115801561055c573d6000803e3d6000fd5b5050505050806001600160a01b031663d4f7af436040518163ffffffff1660e01b8152600401600060405180830381600087803b15801561059c57600080fd5b505af11580156105b0573d6000803e3d6000fd5b50505050505050565b60008115156105c88585610667565b15151461060b5781156105f1576105e08360026108f0565b6105ea9085610892565b905061060e565b6105fc8360026108f0565b6105ea90856109b9565b61060e565b50825b9392505050565b6001600160a01b0316151590565b60006001600160a01b03821661dead1480159061064b57506001600160a01b03821661babe14155b80156103f257506001600160a01b038216614bec141592915050565b600061067a600260ff841685901c6109d0565b6001149392505050565b61068e8282610179565b6106aa5760405162461bcd60e51b815260040161008690610824565b5050565b6000602082840312156106bf578081fd5b813561060e81610a06565b6000602082840312156106db578081fd5b815161060e81610a06565b6000602082840312156106f7578081fd5b815161060e81610a1e565b60008060408385031215610714578081fd5b823561071f81610a06565b9150602083013561072f81610a06565b809150509250929050565b60006020828403121561074b578081fd5b5051919050565b60008060408385031215610764578182fd5b50508035926020909101359150565b600080600060608486031215610787578081fd5b833592506020840135915060408401356107a081610a1e565b809150509250925092565b6001600160a01b0391909116815260200190565b6001600160a01b0392831681529116602082015260400190565b901515815260200190565b90815260200190565b60208082526010908201527f7265656e7472616e637920677561726400000000000000000000000000000000604082015260600190565b6020808252600a908201527f6f6e6c794d656d62657200000000000000000000000000000000000000000000604082015260600190565b6020808252600f908201527f66616c6c6261636b207265766572740000000000000000000000000000000000604082015260600190565b600082198211156108a5576108a56109f0565b500190565b80825b60018086116108bc57506108e7565b8187048211156108ce576108ce6109f0565b808616156108db57918102915b9490941c9380026108ad565b94509492505050565b600061060e60001984846000826109095750600161060e565b816109165750600061060e565b816001811461092c576002811461093657610963565b600191505061060e565b60ff841115610947576109476109f0565b6001841b91508482111561095d5761095d6109f0565b5061060e565b5060208310610133831016604e8410600b8410161715610991575081810a83811115610606576106066109f0565b61099e84848460016108aa565b8086048211156109b0576109b06109f0565b02949350505050565b6000828210156109cb576109cb6109f0565b500390565b6000826109eb57634e487b7160e01b81526012600452602481fd5b500690565b634e487b7160e01b600052601160045260246000fd5b6001600160a01b0381168114610a1b57600080fd5b50565b8015158114610a1b57600080fdfea2646970667358221220bf33c30dbe3cb353f632b2d3fe30ce2ea711d9e331a59ec99bb30bcd83a92c9664736f6c63430008000033",
  "linkReferences": {},
  "deployedLinkReferences": {}
}