{
  "_format": "hh-sol-artifact-1",
  "contractName": "DistributeContract",
  "sourceName": "build/sources/adapters/Distribute.sol",
  "abi": [
    {
      "anonymous": false,
      "inputs": [
        {
          "indexed": false,
          "internalType": "address",
          "name": "token",
          "type": "address"
        },
        {
          "indexed": false,
          "internalType": "uint256",
          "name": "amount",
          "type": "uint256"
        },
        {
          "indexed": false,
          "internalType": "address",
          "name": "unitHolder",
          "type": "address"
        }
      ],
      "name": "Distributed",
      "type": "event"
    },
    {
      "inputs": [
        {
          "internalType": "contract DaoRegistry",
          "name": "dao",
          "type": "address"
        },
        {
          "internalType": "uint256",
          "name": "toIndex",
          "type": "uint256"
        }
      ],
      "name": "distribute",
      "outputs": [],
      "stateMutability": "nonpayable",
      "type": "function"
    },
    {
      "inputs": [
        {
          "internalType": "address",
          "name": "",
          "type": "address"
        },
        {
          "internalType": "bytes32",
          "name": "",
          "type": "bytes32"
        }
      ],
      "name": "distributions",
      "outputs": [
        {
          "internalType": "address",
          "name": "token",
          "type": "address"
        },
        {
          "internalType": "uint256",
          "name": "amount",
          "type": "uint256"
        },
        {
          "internalType": "address",
          "name": "unitHolderAddr",
          "type": "address"
        },
        {
          "internalType": "enum DistributeContract.DistributionStatus",
          "name": "status",
          "type": "uint8"
        },
        {
          "internalType": "uint256",
          "name": "currentIndex",
          "type": "uint256"
        },
        {
          "internalType": "uint256",
          "name": "blockNumber",
          "type": "uint256"
        }
      ],
      "stateMutability": "view",
      "type": "function"
    },
    {
      "inputs": [
        {
          "internalType": "uint256",
          "name": "flags",
          "type": "uint256"
        },
        {
          "internalType": "uint256",
          "name": "flag",
          "type": "uint256"
        }
      ],
      "name": "getFlag",
      "outputs": [
        {
          "internalType": "bool",
          "name": "",
          "type": "bool"
        }
      ],
      "stateMutability": "pure",
      "type": "function"
    },
    {
      "inputs": [
        {
          "internalType": "contract DaoRegistry",
          "name": "dao",
          "type": "address"
        },
        {
          "internalType": "address",
          "name": "_addr",
          "type": "address"
        }
      ],
      "name": "isActiveMember",
      "outputs": [
        {
          "internalType": "bool",
          "name": "",
          "type": "bool"
        }
      ],
      "stateMutability": "view",
      "type": "function"
    },
    {
      "inputs": [
        {
          "internalType": "address",
          "name": "addr",
          "type": "address"
        }
      ],
      "name": "isNotReservedAddress",
      "outputs": [
        {
          "internalType": "bool",
          "name": "",
          "type": "bool"
        }
      ],
      "stateMutability": "pure",
      "type": "function"
    },
    {
      "inputs": [
        {
          "internalType": "address",
          "name": "addr",
          "type": "address"
        }
      ],
      "name": "isNotZeroAddress",
      "outputs": [
        {
          "internalType": "bool",
          "name": "",
          "type": "bool"
        }
      ],
      "stateMutability": "pure",
      "type": "function"
    },
    {
      "inputs": [
        {
          "internalType": "address",
          "name": "",
          "type": "address"
        }
      ],
      "name": "ongoingDistributions",
      "outputs": [
        {
          "internalType": "bytes32",
          "name": "",
          "type": "bytes32"
        }
      ],
      "stateMutability": "view",
      "type": "function"
    },
    {
      "inputs": [
        {
          "internalType": "contract DaoRegistry",
          "name": "dao",
          "type": "address"
        },
        {
          "internalType": "bytes32",
          "name": "proposalId",
          "type": "bytes32"
        }
      ],
      "name": "processProposal",
      "outputs": [],
      "stateMutability": "nonpayable",
      "type": "function"
    },
    {
      "inputs": [
        {
          "internalType": "uint256",
          "name": "flags",
          "type": "uint256"
        },
        {
          "internalType": "uint256",
          "name": "flag",
          "type": "uint256"
        },
        {
          "internalType": "bool",
          "name": "value",
          "type": "bool"
        }
      ],
      "name": "setFlag",
      "outputs": [
        {
          "internalType": "uint256",
          "name": "",
          "type": "uint256"
        }
      ],
      "stateMutability": "pure",
      "type": "function"
    },
    {
      "inputs": [
        {
          "internalType": "contract DaoRegistry",
          "name": "dao",
          "type": "address"
        },
        {
          "internalType": "bytes32",
          "name": "proposalId",
          "type": "bytes32"
        },
        {
          "internalType": "address",
          "name": "unitHolderAddr",
          "type": "address"
        },
        {
          "internalType": "address",
          "name": "token",
          "type": "address"
        },
        {
          "internalType": "uint256",
          "name": "amount",
          "type": "uint256"
        },
        {
          "internalType": "bytes",
          "name": "data",
          "type": "bytes"
        }
      ],
      "name": "submitProposal",
      "outputs": [],
      "stateMutability": "nonpayable",
      "type": "function"
    },
    {
      "stateMutability": "payable",
      "type": "receive"
    }
  ],
  "bytecode": "0x608060405234801561001057600080fd5b50612929806100206000396000f3fe6080604052600436106100b55760003560e01c8063b244a41d11610069578063ef6a24991161004e578063ef6a2499146101f7578063fb93210814610217578063fc25803114610237576100db565b8063b244a41d146101b7578063ca0f4633146101d7576100db565b80634e83cbce1161009a5780634e83cbce146101385780638ecf77201461016a5780639573167d14610197576100db565b80630fcb03d6146100e05780631e6f767214610116576100db565b366100db5760405162461bcd60e51b81526004016100d290612693565b60405180910390fd5b600080fd5b3480156100ec57600080fd5b506101006100fb366004611eb8565b610257565b60405161010d91906121f8565b60405180910390f35b34801561012257600080fd5b50610136610131366004611f81565b610269565b005b34801561014457600080fd5b50610158610153366004611ef0565b610507565b60405161010d96959493929190612193565b34801561017657600080fd5b5061018a610185366004611f37565b610555565b60405161010d91906121ed565b3480156101a357600080fd5b506101366101b2366004611f6f565b6107d4565b3480156101c357600080fd5b506101006101d2366004612092565b610ea7565b3480156101e357600080fd5b5061018a6101f2366004611eb8565b610f03565b34801561020357600080fd5b5061018a610212366004611eb8565b610f11565b34801561022357600080fd5b50610136610232366004611f6f565b610f55565b34801561024357600080fd5b5061018a610252366004612071565b611337565b60016020526000908152604090205481565b8643816001600160a01b031663b21634826040518163ffffffff1660e01b815260040160206040518083038186803b1580156102a457600080fd5b505afa1580156102b8573d6000803e3d6000fd5b505050506040513d601f19601f820116820180604052508101906102dc9190612059565b14156102fa5760405162461bcd60e51b81526004016100d2906124fd565b806001600160a01b03166310fdb0a26040518163ffffffff1660e01b8152600401600060405180830381600087803b15801561033557600080fd5b505af1158015610349573d6000803e3d6000fd5b50506040516317ba7d8560e01b8152600092506001600160a01b038b1691506317ba7d859061039c907f0e49311626a26ba5be58a3b13d239908e80ce0dffdd5c50bf1d9c82ff35d1ab3906004016121f8565b60206040518083038186803b1580156103b457600080fd5b505afa1580156103c8573d6000803e3d6000fd5b505050506040513d601f19601f820116820180604052508101906103ec9190611ed4565b90506000816001600160a01b031663966917d08b308888336040518663ffffffff1660e01b8152600401610424959493929190612220565b602060405180830381600087803b15801561043e57600080fd5b505af1158015610452573d6000803e3d6000fd5b505050506040513d601f19601f820116820180604052508101906104769190611ed4565b9050600086116104985760405162461bcd60e51b81526004016100d29061240c565b6104a88a8a8a8a8a8a8a88611354565b5050806001600160a01b031663d4f7af436040518163ffffffff1660e01b8152600401600060405180830381600087803b1580156104e557600080fd5b505af11580156104f9573d6000803e3d6000fd5b505050505050505050505050565b6000602081815292815260408082209093529081522080546001820154600283015460038401546004909401546001600160a01b03938416949293821692600160a01b90920460ff16919086565b600080836001600160a01b031663fefbd8757fea0ca03c7adbe41dc655fec28a9209dc8e6e042f3d991a67765ba285b9cf73a06040518263ffffffff1660e01b81526004016105a491906121f8565b60206040518083038186803b1580156105bc57600080fd5b505afa1580156105d0573d6000803e3d6000fd5b505050506040513d601f19601f820116820180604052508101906105f49190611ed4565b90506001600160a01b03811615610735576040517fc89bb8ba0000000000000000000000000000000000000000000000000000000081526000906001600160a01b0386169063c89bb8ba9061064d9087906004016120f4565b60206040518083038186803b15801561066557600080fd5b505afa158015610679573d6000803e3d6000fd5b505050506040513d601f19601f8201168201806040525081019061069d9190611ed4565b90506000826001600160a01b031663f7888aec83620ff1ce6040518363ffffffff1660e01b81526004016106d2929190612108565b60206040518083038186803b1580156106ea57600080fd5b505afa1580156106fe573d6000803e3d6000fd5b505050506040513d601f19601f820116820180604052508101906107229190611ed4565b6001600160a01b031611925050506107ce565b6040517fa230c5240000000000000000000000000000000000000000000000000000000081526001600160a01b0385169063a230c5249061077a9086906004016120f4565b60206040518083038186803b15801561079257600080fd5b505afa1580156107a6573d6000803e3d6000fd5b505050506040513d601f19601f820116820180604052508101906107ca9190611f1b565b9150505b92915050565b8143816001600160a01b031663b21634826040518163ffffffff1660e01b815260040160206040518083038186803b15801561080f57600080fd5b505afa158015610823573d6000803e3d6000fd5b505050506040513d601f19601f820116820180604052508101906108479190612059565b14156108655760405162461bcd60e51b81526004016100d2906124fd565b806001600160a01b03166310fdb0a26040518163ffffffff1660e01b8152600401600060405180830381600087803b1580156108a057600080fd5b505af11580156108b4573d6000803e3d6000fd5b50506040517f30490e910000000000000000000000000000000000000000000000000000000081526001600160a01b03861692506330490e9191506108fd9085906004016121f8565b600060405180830381600087803b15801561091757600080fd5b505af115801561092b573d6000803e3d6000fd5b5050506001600160a01b038416600090815260208181526040808320868452909152812091506002820154600160a01b900460ff16600381111561097f57634e487b7160e01b600052602160045260246000fd5b1461099c5760405162461bcd60e51b81526004016100d2906122e4565b6001600160a01b038416600090815260016020526040902054801580610a10575060016001600160a01b038616600090815260208181526040808320858452909152902060020154600160a01b900460ff166003811115610a0d57634e487b7160e01b600052602160045260246000fd5b14155b610a2c5760405162461bcd60e51b81526004016100d2906124a0565b6040517f40de703e0000000000000000000000000000000000000000000000000000000081526000906001600160a01b038716906340de703e90610a749088906004016121f8565b60206040518083038186803b158015610a8c57600080fd5b505afa158015610aa0573d6000803e3d6000fd5b505050506040513d601f19601f82011682018060405250810190610ac49190611ed4565b90506001600160a01b038116610aec5760405162461bcd60e51b81526004016100d2906126ca565b6040517f76225e730000000000000000000000000000000000000000000000000000000081526000906001600160a01b038316906376225e7390610b36908a908a90600401612261565b602060405180830381600087803b158015610b5057600080fd5b505af1158015610b64573d6000803e3d6000fd5b505050506040513d601f19601f82011682018060405250810190610b88919061203a565b90506002816005811115610bac57634e487b7160e01b600052602160045260246000fd5b1415610db65760028401805460ff60a01b1916600160a01b179055436004808601919091556001600160a01b0388166000818152600160205260408082208a905551632c9f4b5b60e11b8152909263593e96b691610c2c917fea0ca03c7adbe41dc655fec28a9209dc8e6e042f3d991a67765ba285b9cf73a091016121f8565b60206040518083038186803b158015610c4457600080fd5b505afa158015610c58573d6000803e3d6000fd5b505050506040513d601f19601f82011682018060405250810190610c7c9190611ed4565b8554604051633de222bb60e21b81529192506000916001600160a01b038085169263f7888aec92610cb59261dead921690600401612108565b60206040518083038186803b158015610ccd57600080fd5b505afa158015610ce1573d6000803e3d6000fd5b505050506040513d601f19601f82011682018060405250810190610d059190611ed4565b6001600160a01b031690506000866001015482610d22919061285b565b1015610d405760405162461bcd60e51b81526004016100d290612378565b855460018701546040516322514f1560e11b81526001600160a01b03808616936344a29e2a93610d7d9361dead93614bec93169190600401612122565b600060405180830381600087803b158015610d9757600080fd5b505af1158015610dab573d6000803e3d6000fd5b505050505050610e4b565b6003816005811115610dd857634e487b7160e01b600052602160045260246000fd5b1480610e0357506001816005811115610e0157634e487b7160e01b600052602160045260246000fd5b145b15610e335760028401805460ff60a01b191674030000000000000000000000000000000000000000179055610e4b565b60405162461bcd60e51b81526004016100d29061265c565b50505050806001600160a01b031663d4f7af436040518163ffffffff1660e01b8152600401600060405180830381600087803b158015610e8a57600080fd5b505af1158015610e9e573d6000803e3d6000fd5b50505050505050565b6000811515610eb68585611337565b151514610ef9578115610edf57610ece836002612773565b610ed89085612701565b9050610efc565b610eea836002612773565b610ed8908561285b565b610efc565b50825b9392505050565b6001600160a01b0316151590565b60006001600160a01b03821661dead14801590610f3957506001600160a01b03821661babe14155b80156107ce57506001600160a01b038216614bec141592915050565b8143816001600160a01b031663b21634826040518163ffffffff1660e01b815260040160206040518083038186803b158015610f9057600080fd5b505afa158015610fa4573d6000803e3d6000fd5b505050506040513d601f19601f82011682018060405250810190610fc89190612059565b1415610fe65760405162461bcd60e51b81526004016100d2906124fd565b806001600160a01b03166310fdb0a26040518163ffffffff1660e01b8152600401600060405180830381600087803b15801561102157600080fd5b505af1158015611035573d6000803e3d6000fd5b505050506001600160a01b038316600090815260016020818152604080842054848352818520818652909252909220600481015490916002830154600160a01b900460ff16600381111561109957634e487b7160e01b600052602160045260246000fd5b146110b65760405162461bcd60e51b81526004016100d29061256b565b6003820154858111156110db5760405162461bcd60e51b81526004016100d2906122ad565b82546001840154604051632c9f4b5b60e11b81526001600160a01b0392831692600091908b169063593e96b690611136907fea0ca03c7adbe41dc655fec28a9209dc8e6e042f3d991a67765ba285b9cf73a0906004016121f8565b60206040518083038186803b15801561114e57600080fd5b505afa158015611162573d6000803e3d6000fd5b505050506040513d601f19601f820116820180604052508101906111869190611ed4565b60028701549091506001600160a01b03168015611200576111aa82828887876118dc565b60028701805460ff60a01b1916600160a11b1790556040517fb15bce4c8ca0c8f2dad19b61993ca1d48a1c1ff9e02155ed33793141d0a9bf35906111f390869086908590612170565b60405180910390a16112f4565b60008b6001600160a01b031663c67143666040518163ffffffff1660e01b815260040160206040518083038186803b15801561123b57600080fd5b505afa15801561124f573d6000803e3d6000fd5b505050506040513d601f19601f820116820180604052508101906112739190612059565b90508a818111156112815750805b6112908d8589848c8b8b6119fb565b60038901819055818114156112f15760028901805460ff60a01b1916600160a11b1790556040517fb15bce4c8ca0c8f2dad19b61993ca1d48a1c1ff9e02155ed33793141d0a9bf35906112e890889088908790612170565b60405180910390a15b50505b5050505050505050806001600160a01b031663d4f7af436040518163ffffffff1660e01b8152600401600060405180830381600087803b158015610e8a57600080fd5b600061134a600260ff841685901c61288d565b6001149392505050565b87816113608282611bd8565b6040517fb73dc3890000000000000000000000000000000000000000000000000000000081526001600160a01b038b169063b73dc389906113a5908c906004016121f8565b600060405180830381600087803b1580156113bf57600080fd5b505af11580156113d3573d6000803e3d6000fd5b5050604051632c9f4b5b60e11b8152600092506001600160a01b038d16915063593e96b690611426907fea0ca03c7adbe41dc655fec28a9209dc8e6e042f3d991a67765ba285b9cf73a0906004016121f8565b60206040518083038186803b15801561143e57600080fd5b505afa158015611452573d6000803e3d6000fd5b505050506040513d601f19601f820116820180604052508101906114769190611ed4565b6040517ff9eaee0d0000000000000000000000000000000000000000000000000000000081529091506001600160a01b0382169063f9eaee0d906114be908b906004016120f4565b60206040518083038186803b1580156114d657600080fd5b505afa1580156114ea573d6000803e3d6000fd5b505050506040513d601f19601f8201168201806040525081019061150e9190611f1b565b61152a5760405162461bcd60e51b81526004016100d2906123d5565b6001600160a01b038916156115ea57604051633de222bb60e21b81526000906001600160a01b0383169063f7888aec9061156d908d90620ff1ce90600401612108565b60206040518083038186803b15801561158557600080fd5b505afa158015611599573d6000803e3d6000fd5b505050506040513d601f19601f820116820180604052508101906115bd9190611ed4565b6001600160a01b03169050600081116115e85760405162461bcd60e51b81526004016100d290612341565b505b6040518060c00160405280896001600160a01b031681526020018881526020018a6001600160a01b031681526020016000600381111561163a57634e487b7160e01b600052602160045260246000fd5b815260200160008152602001438152506000808d6001600160a01b03166001600160a01b0316815260200190815260200160002060008c815260200190815260200160002060008201518160000160006101000a8154816001600160a01b0302191690836001600160a01b031602179055506020820151816001015560408201518160020160006101000a8154816001600160a01b0302191690836001600160a01b0316021790555060608201518160020160146101000a81548160ff0219169083600381111561171b57634e487b7160e01b600052602160045260246000fd5b02179055506080820151600382015560a0909101516004918201556040516317ba7d8560e01b81526000916001600160a01b038e16916317ba7d8591611783917f0e49311626a26ba5be58a3b13d239908e80ce0dffdd5c50bf1d9c82ff35d1ab391016121f8565b60206040518083038186803b15801561179b57600080fd5b505afa1580156117af573d6000803e3d6000fd5b505050506040513d601f19601f820116820180604052508101906117d39190611ed4565b6040517f2b0974d00000000000000000000000000000000000000000000000000000000081529091506001600160a01b03821690632b0974d090611821908f908f908c908c9060040161227a565b600060405180830381600087803b15801561183b57600080fd5b505af115801561184f573d6000803e3d6000fd5b50506040517f896ae9ba0000000000000000000000000000000000000000000000000000000081526001600160a01b038f16925063896ae9ba915061189c908e9089908690600401612201565b600060405180830381600087803b1580156118b657600080fd5b505af11580156118ca573d6000803e3d6000fd5b50505050505050505050505050505050565b60006118e9868686611c02565b60405163faaf38b360e01b81529091506001600160a01b0387169063faaf38b39061191f908890620ff1ce90899060040161214c565b60206040518083038186803b15801561193757600080fd5b505afa15801561194b573d6000803e3d6000fd5b505050506040513d601f19601f8201168201806040525081019061196f9190612059565b508061198d5760405162461bcd60e51b81526004016100d290612534565b6040516322514f1560e11b81526001600160a01b038716906344a29e2a906119c190614bec90899088908890600401612122565b600060405180830381600087803b1580156119db57600080fd5b505af11580156119ef573d6000803e3d6000fd5b50505050505050505050565b6000611a078785611e3a565b9050855b85811015611bcd576040517f9029444a0000000000000000000000000000000000000000000000000000000081526000906001600160a01b038b1690639029444a90611a5b9085906004016121f8565b60206040518083038186803b158015611a7357600080fd5b505afa158015611a87573d6000803e3d6000fd5b505050506040513d601f19601f82011682018060405250810190611aab9190611ed4565b90506000896001600160a01b031663faaf38b383620ff1ce8a6040518463ffffffff1660e01b8152600401611ae29392919061214c565b60206040518083038186803b158015611afa57600080fd5b505afa158015611b0e573d6000803e3d6000fd5b505050506040513d601f19601f82011682018060405250810190611b329190612059565b90508015611bb8576000611b47868387611e49565b90508015611bb6576040516322514f1560e11b81526001600160a01b038c16906344a29e2a90611b8390614bec9087908c908790600401612122565b600060405180830381600087803b158015611b9d57600080fd5b505af1158015611bb1573d6000803e3d6000fd5b505050505b505b50508080611bc590612872565b915050611a0b565b505050505050505050565b611be28282610555565b611bfe5760405162461bcd60e51b81526004016100d290612625565b5050565b60405163faaf38b360e01b81526000906001600160a01b0385169063faaf38b390611c3a908690640bb105f00d90879060040161214c565b60206040518083038186803b158015611c5257600080fd5b505afa158015611c66573d6000803e3d6000fd5b505050506040513d601f19601f82011682018060405250810190611c8a9190612059565b60405163faaf38b360e01b81526001600160a01b0386169063faaf38b390611cbe90879063b105f00d90889060040161214c565b60206040518083038186803b158015611cd657600080fd5b505afa158015611cea573d6000803e3d6000fd5b505050506040513d601f19601f82011682018060405250810190611d0e9190612059565b60405163faaf38b360e01b81526001600160a01b0387169063faaf38b390611d4190889062fff1ce90899060040161214c565b60206040518083038186803b158015611d5957600080fd5b505afa158015611d6d573d6000803e3d6000fd5b505050506040513d601f19601f82011682018060405250810190611d919190612059565b60405163faaf38b360e01b81526001600160a01b0388169063faaf38b390611dc4908990620ff1ce908a9060040161214c565b60206040518083038186803b158015611ddc57600080fd5b505afa158015611df0573d6000803e3d6000fd5b505050506040513d601f19601f82011682018060405250810190611e149190612059565b611e1e9190612701565b611e289190612701565b611e329190612701565b949350505050565b6000610efc8361babe84611c02565b6000808211611e6a5760405162461bcd60e51b81526004016100d290612443565b81831115611e8a5760405162461bcd60e51b81526004016100d2906125c8565b83611e9757506000610efc565b6000611ea3848661283c565b9050611eaf8382612719565b95945050505050565b600060208284031215611ec9578081fd5b8135610efc816128cd565b600060208284031215611ee5578081fd5b8151610efc816128cd565b60008060408385031215611f02578081fd5b8235611f0d816128cd565b946020939093013593505050565b600060208284031215611f2c578081fd5b8151610efc816128e5565b60008060408385031215611f49578182fd5b8235611f54816128cd565b91506020830135611f64816128cd565b809150509250929050565b60008060408385031215611f02578182fd5b600080600080600080600060c0888a031215611f9b578283fd5b8735611fa6816128cd565b9650602088013595506040880135611fbd816128cd565b94506060880135611fcd816128cd565b93506080880135925060a088013567ffffffffffffffff80821115611ff0578384fd5b818a0191508a601f830112612003578384fd5b813581811115612011578485fd5b8b6020828501011115612022578485fd5b60208301945080935050505092959891949750929550565b60006020828403121561204b578081fd5b815160068110610efc578182fd5b60006020828403121561206a578081fd5b5051919050565b60008060408385031215612083578182fd5b50508035926020909101359150565b6000806000606084860312156120a6578283fd5b833592506020840135915060408401356120bf816128e5565b809150509250925092565b60008284528282602086013780602084860101526020601f19601f85011685010190509392505050565b6001600160a01b0391909116815260200190565b6001600160a01b0392831681529116602082015260400190565b6001600160a01b039485168152928416602084015292166040820152606081019190915260800190565b6001600160a01b039384168152919092166020820152604081019190915260600190565b6001600160a01b0393841681526020810192909252909116604082015260600190565b6001600160a01b038781168252602082018790528516604082015260c08101600485106121d057634e487b7160e01b600052602160045260246000fd5b8460608301528360808301528260a0830152979650505050505050565b901515815260200190565b90815260200190565b9283526001600160a01b03918216602084015216604082015260600190565b60006001600160a01b03808816835280871660208401526080604084015261224c6080840186886120ca565b91508084166060840152509695505050505050565b6001600160a01b03929092168252602082015260400190565b60006001600160a01b0386168252846020830152606060408301526122a36060830184866120ca565b9695505050505050565b6020808252600f908201527f746f496e64657820746f6f206c6f770000000000000000000000000000000000604082015260600190565b60208082526029908201527f70726f706f73616c20616c726561647920636f6d706c65746564206f7220696e60408201527f2070726f67726573730000000000000000000000000000000000000000000000606082015260800190565b60208082526010908201527f6e6f7420656e6f75676820756e69747300000000000000000000000000000000604082015260600190565b60208082526024908201527f6e6f7420656e6f7567682066756e647320666f722074686520676976656e207460408201527f6f6b656e00000000000000000000000000000000000000000000000000000000606082015260800190565b60208082526011908201527f746f6b656e206e6f7420616c6c6f776564000000000000000000000000000000604082015260600190565b6020808252600e908201527f696e76616c696420616d6f756e74000000000000000000000000000000000000604082015260600190565b60208082526021908201527f746f74616c556e697473206d7573742062652067726561746572207468616e2060408201527f3000000000000000000000000000000000000000000000000000000000000000606082015260800190565b60208082526024908201527f616e6f746865722070726f706f73616c20616c726561647920696e2070726f6760408201527f7265737300000000000000000000000000000000000000000000000000000000606082015260800190565b60208082526010908201527f7265656e7472616e637920677561726400000000000000000000000000000000604082015260600190565b60208082526011908201527f6e6f7420656e6f75676820746f6b656e73000000000000000000000000000000604082015260600190565b60208082526028908201527f646973747269627574696f6e20636f6d706c65746564206f7220646f6573206e60408201527f6f74206578697374000000000000000000000000000000000000000000000000606082015260800190565b6020808252602e908201527f756e697473206d757374206265206c657373207468616e206f7220657175616c60408201527f20746f20746f74616c556e697473000000000000000000000000000000000000606082015260800190565b6020808252600a908201527f6f6e6c794d656d62657200000000000000000000000000000000000000000000604082015260600190565b6020808252601e908201527f70726f706f73616c20686173206e6f74206265656e20766f746564206f6e0000604082015260600190565b6020808252600f908201527f66616c6c6261636b207265766572740000000000000000000000000000000000604082015260600190565b60208082526011908201527f61646170746572206e6f7420666f756e64000000000000000000000000000000604082015260600190565b60008219821115612714576127146128a1565b500190565b600082612728576127286128b7565b500490565b80825b600180861161273f575061276a565b818704821115612751576127516128a1565b8086161561275e57918102915b9490941c938002612730565b94509492505050565b6000610efc600019848460008261278c57506001610efc565b8161279957506000610efc565b81600181146127af57600281146127b9576127e6565b6001915050610efc565b60ff8411156127ca576127ca6128a1565b6001841b9150848211156127e0576127e06128a1565b50610efc565b5060208310610133831016604e8410600b8410161715612814575081810a83811115610ef457610ef46128a1565b612821848484600161272d565b808604821115612833576128336128a1565b02949350505050565b6000816000190483118215151615612856576128566128a1565b500290565b60008282101561286d5761286d6128a1565b500390565b6000600019821415612886576128866128a1565b5060010190565b60008261289c5761289c6128b7565b500690565b634e487b7160e01b600052601160045260246000fd5b634e487b7160e01b600052601260045260246000fd5b6001600160a01b03811681146128e257600080fd5b50565b80151581146128e257600080fdfea264697066735822122001be9c79da674e22c2aed7b0ed25275c62e8c8ddacddfb40627fb3517beda46164736f6c63430008000033",
  "linkReferences": {},
  "deployedLinkReferences": {}
}