{
  "_format": "hh-sol-artifact-1",
  "contractName": "ERC1155TestToken",
  "sourceName": "build/sources/test/ERC1155TestToken.sol",
  "abi": [
    {
      "inputs": [
        {
          "internalType": "string",
          "name": "uri",
          "type": "string"
        }
      ],
      "stateMutability": "nonpayable",
      "type": "constructor"
    },
    {
      "anonymous": false,
      "inputs": [
        {
          "indexed": true,
          "internalType": "address",
          "name": "account",
          "type": "address"
        },
        {
          "indexed": true,
          "internalType": "address",
          "name": "operator",
          "type": "address"
        },
        {
          "indexed": false,
          "internalType": "bool",
          "name": "approved",
          "type": "bool"
        }
      ],
      "name": "ApprovalForAll",
      "type": "event"
    },
    {
      "anonymous": false,
      "inputs": [
        {
          "indexed": true,
          "internalType": "bytes32",
          "name": "role",
          "type": "bytes32"
        },
        {
          "indexed": true,
          "internalType": "bytes32",
          "name": "previousAdminRole",
          "type": "bytes32"
        },
        {
          "indexed": true,
          "internalType": "bytes32",
          "name": "newAdminRole",
          "type": "bytes32"
        }
      ],
      "name": "RoleAdminChanged",
      "type": "event"
    },
    {
      "anonymous": false,
      "inputs": [
        {
          "indexed": true,
          "internalType": "bytes32",
          "name": "role",
          "type": "bytes32"
        },
        {
          "indexed": true,
          "internalType": "address",
          "name": "account",
          "type": "address"
        },
        {
          "indexed": true,
          "internalType": "address",
          "name": "sender",
          "type": "address"
        }
      ],
      "name": "RoleGranted",
      "type": "event"
    },
    {
      "anonymous": false,
      "inputs": [
        {
          "indexed": true,
          "internalType": "bytes32",
          "name": "role",
          "type": "bytes32"
        },
        {
          "indexed": true,
          "internalType": "address",
          "name": "account",
          "type": "address"
        },
        {
          "indexed": true,
          "internalType": "address",
          "name": "sender",
          "type": "address"
        }
      ],
      "name": "RoleRevoked",
      "type": "event"
    },
    {
      "anonymous": false,
      "inputs": [
        {
          "indexed": true,
          "internalType": "address",
          "name": "operator",
          "type": "address"
        },
        {
          "indexed": true,
          "internalType": "address",
          "name": "from",
          "type": "address"
        },
        {
          "indexed": true,
          "internalType": "address",
          "name": "to",
          "type": "address"
        },
        {
          "indexed": false,
          "internalType": "uint256[]",
          "name": "ids",
          "type": "uint256[]"
        },
        {
          "indexed": false,
          "internalType": "uint256[]",
          "name": "values",
          "type": "uint256[]"
        }
      ],
      "name": "TransferBatch",
      "type": "event"
    },
    {
      "anonymous": false,
      "inputs": [
        {
          "indexed": true,
          "internalType": "address",
          "name": "operator",
          "type": "address"
        },
        {
          "indexed": true,
          "internalType": "address",
          "name": "from",
          "type": "address"
        },
        {
          "indexed": true,
          "internalType": "address",
          "name": "to",
          "type": "address"
        },
        {
          "indexed": false,
          "internalType": "uint256",
          "name": "id",
          "type": "uint256"
        },
        {
          "indexed": false,
          "internalType": "uint256",
          "name": "value",
          "type": "uint256"
        }
      ],
      "name": "TransferSingle",
      "type": "event"
    },
    {
      "anonymous": false,
      "inputs": [
        {
          "indexed": false,
          "internalType": "string",
          "name": "value",
          "type": "string"
        },
        {
          "indexed": true,
          "internalType": "uint256",
          "name": "id",
          "type": "uint256"
        }
      ],
      "name": "URI",
      "type": "event"
    },
    {
      "inputs": [],
      "name": "DEFAULT_ADMIN_ROLE",
      "outputs": [
        {
          "internalType": "bytes32",
          "name": "",
          "type": "bytes32"
        }
      ],
      "stateMutability": "view",
      "type": "function"
    },
    {
      "inputs": [],
      "name": "MINTER_ROLE",
      "outputs": [
        {
          "internalType": "bytes32",
          "name": "",
          "type": "bytes32"
        }
      ],
      "stateMutability": "view",
      "type": "function"
    },
    {
      "inputs": [
        {
          "internalType": "address",
          "name": "account",
          "type": "address"
        },
        {
          "internalType": "uint256",
          "name": "id",
          "type": "uint256"
        }
      ],
      "name": "balanceOf",
      "outputs": [
        {
          "internalType": "uint256",
          "name": "",
          "type": "uint256"
        }
      ],
      "stateMutability": "view",
      "type": "function"
    },
    {
      "inputs": [
        {
          "internalType": "address[]",
          "name": "accounts",
          "type": "address[]"
        },
        {
          "internalType": "uint256[]",
          "name": "ids",
          "type": "uint256[]"
        }
      ],
      "name": "balanceOfBatch",
      "outputs": [
        {
          "internalType": "uint256[]",
          "name": "",
          "type": "uint256[]"
        }
      ],
      "stateMutability": "view",
      "type": "function"
    },
    {
      "inputs": [
        {
          "internalType": "bytes32",
          "name": "role",
          "type": "bytes32"
        }
      ],
      "name": "getRoleAdmin",
      "outputs": [
        {
          "internalType": "bytes32",
          "name": "",
          "type": "bytes32"
        }
      ],
      "stateMutability": "view",
      "type": "function"
    },
    {
      "inputs": [
        {
          "internalType": "bytes32",
          "name": "role",
          "type": "bytes32"
        },
        {
          "internalType": "uint256",
          "name": "index",
          "type": "uint256"
        }
      ],
      "name": "getRoleMember",
      "outputs": [
        {
          "internalType": "address",
          "name": "",
          "type": "address"
        }
      ],
      "stateMutability": "view",
      "type": "function"
    },
    {
      "inputs": [
        {
          "internalType": "bytes32",
          "name": "role",
          "type": "bytes32"
        }
      ],
      "name": "getRoleMemberCount",
      "outputs": [
        {
          "internalType": "uint256",
          "name": "",
          "type": "uint256"
        }
      ],
      "stateMutability": "view",
      "type": "function"
    },
    {
      "inputs": [
        {
          "internalType": "bytes32",
          "name": "role",
          "type": "bytes32"
        },
        {
          "internalType": "address",
          "name": "account",
          "type": "address"
        }
      ],
      "name": "grantRole",
      "outputs": [],
      "stateMutability": "nonpayable",
      "type": "function"
    },
    {
      "inputs": [
        {
          "internalType": "bytes32",
          "name": "role",
          "type": "bytes32"
        },
        {
          "internalType": "address",
          "name": "account",
          "type": "address"
        }
      ],
      "name": "hasRole",
      "outputs": [
        {
          "internalType": "bool",
          "name": "",
          "type": "bool"
        }
      ],
      "stateMutability": "view",
      "type": "function"
    },
    {
      "inputs": [
        {
          "internalType": "address",
          "name": "account",
          "type": "address"
        },
        {
          "internalType": "address",
          "name": "operator",
          "type": "address"
        }
      ],
      "name": "isApprovedForAll",
      "outputs": [
        {
          "internalType": "bool",
          "name": "",
          "type": "bool"
        }
      ],
      "stateMutability": "view",
      "type": "function"
    },
    {
      "inputs": [
        {
          "internalType": "address",
          "name": "to",
          "type": "address"
        },
        {
          "internalType": "uint256",
          "name": "id",
          "type": "uint256"
        },
        {
          "internalType": "uint256",
          "name": "amount",
          "type": "uint256"
        },
        {
          "internalType": "bytes",
          "name": "data",
          "type": "bytes"
        }
      ],
      "name": "mint",
      "outputs": [],
      "stateMutability": "nonpayable",
      "type": "function"
    },
    {
      "inputs": [
        {
          "internalType": "address",
          "name": "to",
          "type": "address"
        },
        {
          "internalType": "uint256[]",
          "name": "ids",
          "type": "uint256[]"
        },
        {
          "internalType": "uint256[]",
          "name": "amounts",
          "type": "uint256[]"
        },
        {
          "internalType": "bytes",
          "name": "data",
          "type": "bytes"
        }
      ],
      "name": "mintBatch",
      "outputs": [],
      "stateMutability": "nonpayable",
      "type": "function"
    },
    {
      "inputs": [
        {
          "internalType": "bytes32",
          "name": "role",
          "type": "bytes32"
        },
        {
          "internalType": "address",
          "name": "account",
          "type": "address"
        }
      ],
      "name": "renounceRole",
      "outputs": [],
      "stateMutability": "nonpayable",
      "type": "function"
    },
    {
      "inputs": [
        {
          "internalType": "bytes32",
          "name": "role",
          "type": "bytes32"
        },
        {
          "internalType": "address",
          "name": "account",
          "type": "address"
        }
      ],
      "name": "revokeRole",
      "outputs": [],
      "stateMutability": "nonpayable",
      "type": "function"
    },
    {
      "inputs": [
        {
          "internalType": "address",
          "name": "from",
          "type": "address"
        },
        {
          "internalType": "address",
          "name": "to",
          "type": "address"
        },
        {
          "internalType": "uint256[]",
          "name": "ids",
          "type": "uint256[]"
        },
        {
          "internalType": "uint256[]",
          "name": "amounts",
          "type": "uint256[]"
        },
        {
          "internalType": "bytes",
          "name": "data",
          "type": "bytes"
        }
      ],
      "name": "safeBatchTransferFrom",
      "outputs": [],
      "stateMutability": "nonpayable",
      "type": "function"
    },
    {
      "inputs": [
        {
          "internalType": "address",
          "name": "from",
          "type": "address"
        },
        {
          "internalType": "address",
          "name": "to",
          "type": "address"
        },
        {
          "internalType": "uint256",
          "name": "id",
          "type": "uint256"
        },
        {
          "internalType": "uint256",
          "name": "amount",
          "type": "uint256"
        },
        {
          "internalType": "bytes",
          "name": "data",
          "type": "bytes"
        }
      ],
      "name": "safeTransferFrom",
      "outputs": [],
      "stateMutability": "nonpayable",
      "type": "function"
    },
    {
      "inputs": [
        {
          "internalType": "address",
          "name": "operator",
          "type": "address"
        },
        {
          "internalType": "bool",
          "name": "approved",
          "type": "bool"
        }
      ],
      "name": "setApprovalForAll",
      "outputs": [],
      "stateMutability": "nonpayable",
      "type": "function"
    },
    {
      "inputs": [
        {
          "internalType": "bytes4",
          "name": "interfaceId",
          "type": "bytes4"
        }
      ],
      "name": "supportsInterface",
      "outputs": [
        {
          "internalType": "bool",
          "name": "",
          "type": "bool"
        }
      ],
      "stateMutability": "view",
      "type": "function"
    },
    {
      "inputs": [
        {
          "internalType": "uint256",
          "name": "",
          "type": "uint256"
        }
      ],
      "name": "uri",
      "outputs": [
        {
          "internalType": "string",
          "name": "",
          "type": "string"
        }
      ],
      "stateMutability": "view",
      "type": "function"
    }
  ],
  "bytecode": "0x60806040523480156200001157600080fd5b5060405162002973380380620029738339810160408190526200003491620002d9565b8062000040816200008d565b5062000057600062000051620000a6565b620000aa565b620000867f9f2df0fed2c77648de5860a4cc508cd0818c85b8b8a1ab4ceeef8d981c8956a662000051620000a6565b50620003fb565b8051620000a290600490602084019062000233565b5050565b3390565b620000c18282620000ed60201b620008661760201c565b6000828152600160209081526040909120620000e891839062000874620000f9821b17901c565b505050565b620000a2828262000119565b600062000110836001600160a01b038416620001a3565b90505b92915050565b620001258282620001f2565b620000a2576000828152602081815260408083206001600160a01b03851684529091529020805460ff191660011790556200015f620000a6565b6001600160a01b0316816001600160a01b0316837f2f8788117e7eff1d82e926ec794901d17c78024a50270940304540a733656f0d60405160405180910390a45050565b6000620001b183836200021b565b620001e95750815460018181018455600084815260208082209093018490558454848252828601909352604090209190915562000113565b50600062000113565b6000918252602082815260408084206001600160a01b0393909316845291905290205460ff1690565b60009081526001919091016020526040902054151590565b8280546200024190620003a8565b90600052602060002090601f016020900481019282620002655760008555620002b0565b82601f106200028057805160ff1916838001178555620002b0565b82800160010185558215620002b0579182015b82811115620002b057825182559160200191906001019062000293565b50620002be929150620002c2565b5090565b5b80821115620002be5760008155600101620002c3565b60006020808385031215620002ec578182fd5b82516001600160401b038082111562000303578384fd5b818501915085601f83011262000317578384fd5b8151818111156200032c576200032c620003e5565b604051601f8201601f1916810185018381118282101715620003525762000352620003e5565b604052818152838201850188101562000369578586fd5b8592505b818310156200038c57838301850151818401860152918401916200036d565b818311156200039d57858583830101525b979650505050505050565b600281046001821680620003bd57607f821691505b60208210811415620003df57634e487b7160e01b600052602260045260246000fd5b50919050565b634e487b7160e01b600052604160045260246000fd5b612568806200040b6000396000f3fe608060405234801561001057600080fd5b50600436106101505760003560e01c8063731133e9116100cd578063ca15c87311610081578063d547741f11610066578063d547741f146102bb578063e985e9c5146102ce578063f242432a146102e157610150565b8063ca15c873146102a0578063d5391393146102b357610150565b806391d14854116100b257806391d1485414610272578063a217fddf14610285578063a22cb4651461028d57610150565b8063731133e91461023f5780639010d07c1461025257610150565b8063248a9ca3116101245780632f2ff15d116101095780632f2ff15d146101f957806336568abe1461020c5780634e1273f41461021f57610150565b8063248a9ca3146101d35780632eb2c2d6146101e657610150565b8062fdd58e1461015557806301ffc9a71461017e5780630e89341c1461019e5780631f7fdffa146101be575b600080fd5b610168610163366004611a40565b6102f4565b6040516101759190611df5565b60405180910390f35b61019161018c366004611bd5565b610350565b6040516101759190611dea565b6101b16101ac366004611b7a565b610363565b6040516101759190611dfe565b6101d16101cc366004611971565b6103f7565b005b6101686101e1366004611b7a565b610451565b6101d16101f4366004611868565b610466565b6101d1610207366004611b92565b6104c4565b6101d161021a366004611b92565b6104eb565b61023261022d366004611abc565b61050d565b6040516101759190611da9565b6101d161024d366004611a69565b61062d565b610265610260366004611bb4565b610681565b6040516101759190611cf4565b610191610280366004611b92565b6106a0565b6101686106c9565b6101d161029b366004611a06565b6106ce565b6101686102ae366004611b7a565b61079c565b6101686107b3565b6101d16102c9366004611b92565b6107d7565b6101916102dc366004611836565b6107e1565b6101d16102ef36600461190e565b61080f565b60006001600160a01b0383166103255760405162461bcd60e51b815260040161031c90611f00565b60405180910390fd5b5060008181526002602090815260408083206001600160a01b03861684529091529020545b92915050565b600061035b82610889565b90505b919050565b606060048054610372906123ec565b80601f016020809104026020016040519081016040528092919081815260200182805461039e906123ec565b80156103eb5780601f106103c0576101008083540402835291602001916103eb565b820191906000526020600020905b8154815290600101906020018083116103ce57829003601f168201915b50505050509050919050565b6104237f9f2df0fed2c77648de5860a4cc508cd0818c85b8b8a1ab4ceeef8d981c8956a66102806108fb565b61043f5760405162461bcd60e51b815260040161031c90611fba565b61044b84848484610900565b50505050565b60009081526020819052604090206001015490565b61046e6108fb565b6001600160a01b0316856001600160a01b031614806104945750610494856102dc6108fb565b6104b05760405162461bcd60e51b815260040161031c90612074565b6104bd8585858585610a82565b5050505050565b6104ce8282610c56565b60008281526001602052604090206104e69082610874565b505050565b6104f58282610c7a565b60008281526001602052604090206104e69082610cbc565b606081518351146105305760405162461bcd60e51b815260040161031c9061218b565b6000835167ffffffffffffffff81111561055a57634e487b7160e01b600052604160045260246000fd5b604051908082528060200260200182016040528015610583578160200160208202803683370190505b50905060005b8451811015610625576105ea8582815181106105b557634e487b7160e01b600052603260045260246000fd5b60200260200101518583815181106105dd57634e487b7160e01b600052603260045260246000fd5b60200260200101516102f4565b82828151811061060a57634e487b7160e01b600052603260045260246000fd5b602090810291909101015261061e81612427565b9050610589565b509392505050565b6106597f9f2df0fed2c77648de5860a4cc508cd0818c85b8b8a1ab4ceeef8d981c8956a66102806108fb565b6106755760405162461bcd60e51b815260040161031c90611fba565b61044b84848484610cd1565b60008281526001602052604081206106999083610dc2565b9392505050565b6000918252602082815260408084206001600160a01b0393909316845291905290205460ff1690565b600081565b816001600160a01b03166106e06108fb565b6001600160a01b031614156107075760405162461bcd60e51b815260040161031c9061212e565b80600360006107146108fb565b6001600160a01b03908116825260208083019390935260409182016000908120918716808252919093529120805460ff1916921515929092179091556107586108fb565b6001600160a01b03167f17307eab39ab6107e8899845ad3d59bd9653f200f220920489ca2b5937696c31836040516107909190611dea565b60405180910390a35050565b600081815260016020526040812061035b90610dce565b7f9f2df0fed2c77648de5860a4cc508cd0818c85b8b8a1ab4ceeef8d981c8956a681565b6104f58282610dd9565b6001600160a01b03918216600090815260036020908152604080832093909416825291909152205460ff1690565b6108176108fb565b6001600160a01b0316856001600160a01b0316148061083d575061083d856102dc6108fb565b6108595760405162461bcd60e51b815260040161031c90611f5d565b6104bd8585858585610df8565b6108708282610f30565b5050565b6000610699836001600160a01b038416610fb5565b60006001600160e01b031982167fd9b67a260000000000000000000000000000000000000000000000000000000014806108ec57506001600160e01b031982167f0e89341c00000000000000000000000000000000000000000000000000000000145b8061035b575061035b82610fff565b335b90565b6001600160a01b0384166109265760405162461bcd60e51b815260040161031c90612245565b81518351146109475760405162461bcd60e51b815260040161031c906121e8565b60006109516108fb565b90506109628160008787878761103d565b60005b8451811015610a1a5783818151811061098e57634e487b7160e01b600052603260045260246000fd5b6020026020010151600260008784815181106109ba57634e487b7160e01b600052603260045260246000fd5b602002602001015181526020019081526020016000206000886001600160a01b03166001600160a01b031681526020019081526020016000206000828254610a02919061235b565b90915550819050610a1281612427565b915050610965565b50846001600160a01b031660006001600160a01b0316826001600160a01b03167f4a39dc06d4c0dbc64b70af90fd698a233a518aa5d07e595d983b8c0526c8f7fb8787604051610a6b929190611dbc565b60405180910390a46104bd8160008787878761104b565b8151835114610aa35760405162461bcd60e51b815260040161031c906121e8565b6001600160a01b038416610ac95760405162461bcd60e51b815260040161031c90612017565b6000610ad36108fb565b9050610ae381878787878761103d565b60005b8451811015610be8576000858281518110610b1157634e487b7160e01b600052603260045260246000fd5b602002602001015190506000858381518110610b3d57634e487b7160e01b600052603260045260246000fd5b60209081029190910181015160008481526002835260408082206001600160a01b038e168352909352919091205490915081811015610b8e5760405162461bcd60e51b815260040161031c906120d1565b60008381526002602090815260408083206001600160a01b038e8116855292528083208585039055908b16825281208054849290610bcd90849061235b565b9250508190555050505080610be190612427565b9050610ae6565b50846001600160a01b0316866001600160a01b0316826001600160a01b03167f4a39dc06d4c0dbc64b70af90fd698a233a518aa5d07e595d983b8c0526c8f7fb8787604051610c38929190611dbc565b60405180910390a4610c4e81878787878761104b565b505050505050565b610c5f82610451565b610c7081610c6b6108fb565b611159565b6104e68383610f30565b610c826108fb565b6001600160a01b0316816001600160a01b031614610cb25760405162461bcd60e51b815260040161031c906122a2565b61087082826111bd565b6000610699836001600160a01b038416611240565b6001600160a01b038416610cf75760405162461bcd60e51b815260040161031c90612245565b6000610d016108fb565b9050610d2281600087610d138861135d565b610d1c8861135d565b8761103d565b60008481526002602090815260408083206001600160a01b038916845290915281208054859290610d5490849061235b565b92505081905550846001600160a01b031660006001600160a01b0316826001600160a01b03167fc3d58168c5ae7397731d063d5bbf3d657854427343f4c083240f7aacaa2d0f628787604051610dab9291906122ff565b60405180910390a46104bd816000878787876113b6565b60006106998383611487565b600061035b826114bf565b610de282610451565b610dee81610c6b6108fb565b6104e683836111bd565b6001600160a01b038416610e1e5760405162461bcd60e51b815260040161031c90612017565b6000610e286108fb565b9050610e39818787610d138861135d565b60008481526002602090815260408083206001600160a01b038a16845290915290205483811015610e7c5760405162461bcd60e51b815260040161031c906120d1565b60008581526002602090815260408083206001600160a01b038b8116855292528083208785039055908816825281208054869290610ebb90849061235b565b92505081905550856001600160a01b0316876001600160a01b0316836001600160a01b03167fc3d58168c5ae7397731d063d5bbf3d657854427343f4c083240f7aacaa2d0f628888604051610f119291906122ff565b60405180910390a4610f278288888888886113b6565b50505050505050565b610f3a82826106a0565b610870576000828152602081815260408083206001600160a01b03851684529091529020805460ff19166001179055610f716108fb565b6001600160a01b0316816001600160a01b0316837f2f8788117e7eff1d82e926ec794901d17c78024a50270940304540a733656f0d60405160405180910390a45050565b6000610fc183836114c3565b610ff75750815460018181018455600084815260208082209093018490558454848252828601909352604090209190915561034a565b50600061034a565b60006001600160e01b031982167f5a05180f00000000000000000000000000000000000000000000000000000000148061035b575061035b826114db565b610c4e868686868686610c4e565b61105d846001600160a01b0316611519565b15610c4e5760405163bc197c8160e01b81526001600160a01b0385169063bc197c81906110969089908990889088908890600401611d08565b602060405180830381600087803b1580156110b057600080fd5b505af19250505080156110e0575060408051601f3d908101601f191682019092526110dd91810190611bf1565b60015b611129576110ec612474565b806110f75750611111565b8060405162461bcd60e51b815260040161031c9190611dfe565b60405162461bcd60e51b815260040161031c90611e11565b6001600160e01b0319811663bc197c8160e01b14610f275760405162461bcd60e51b815260040161031c90611ea3565b61116382826106a0565b6108705761117b816001600160a01b0316601461151f565b61118683602061151f565b604051602001611197929190611c73565b60408051601f198184030181529082905262461bcd60e51b825261031c91600401611dfe565b6111c782826106a0565b15610870576000828152602081815260408083206001600160a01b03851684529091529020805460ff191690556111fc6108fb565b6001600160a01b0316816001600160a01b0316837ff6391f5c32d9c69d2a47ea670b442974b53935d1edc7fd64eb21e047a839171b60405160405180910390a45050565b60008181526001830160205260408120548015611353576000611264600183612392565b855490915060009061127890600190612392565b90508181146112f95760008660000182815481106112a657634e487b7160e01b600052603260045260246000fd5b90600052602060002001549050808760000184815481106112d757634e487b7160e01b600052603260045260246000fd5b6000918252602080832090910192909255918252600188019052604090208390555b855486908061131857634e487b7160e01b600052603160045260246000fd5b60019003818190600052602060002001600090559055856001016000868152602001908152602001600020600090556001935050505061034a565b600091505061034a565b604080516001808252818301909252606091600091906020808301908036833701905050905082816000815181106113a557634e487b7160e01b600052603260045260246000fd5b602090810291909101015292915050565b6113c8846001600160a01b0316611519565b15610c4e5760405163f23a6e6160e01b81526001600160a01b0385169063f23a6e61906114019089908990889088908890600401611d66565b602060405180830381600087803b15801561141b57600080fd5b505af192505050801561144b575060408051601f3d908101601f1916820190925261144891810190611bf1565b60015b611457576110ec612474565b6001600160e01b0319811663f23a6e6160e01b14610f275760405162461bcd60e51b815260040161031c90611ea3565b60008260000182815481106114ac57634e487b7160e01b600052603260045260246000fd5b9060005260206000200154905092915050565b5490565b60009081526001919091016020526040902054151590565b60006001600160e01b031982167f7965db0b00000000000000000000000000000000000000000000000000000000148061035b575061035b82611716565b3b151590565b6060600061152e836002612373565b61153990600261235b565b67ffffffffffffffff81111561155f57634e487b7160e01b600052604160045260246000fd5b6040519080825280601f01601f191660200182016040528015611589576020820181803683370190505b5090507f3000000000000000000000000000000000000000000000000000000000000000816000815181106115ce57634e487b7160e01b600052603260045260246000fd5b60200101906001600160f81b031916908160001a9053507f78000000000000000000000000000000000000000000000000000000000000008160018151811061162757634e487b7160e01b600052603260045260246000fd5b60200101906001600160f81b031916908160001a905350600061164b846002612373565b61165690600161235b565b90505b60018111156116f7577f303132333435363738396162636465660000000000000000000000000000000085600f16601081106116a557634e487b7160e01b600052603260045260246000fd5b1a60f81b8282815181106116c957634e487b7160e01b600052603260045260246000fd5b60200101906001600160f81b031916908160001a90535060049490941c936116f0816123d5565b9050611659565b5083156106995760405162461bcd60e51b815260040161031c90611e6e565b6001600160e01b031981167f01ffc9a70000000000000000000000000000000000000000000000000000000014919050565b80356001600160a01b038116811461035e57600080fd5b600082601f83011261176f578081fd5b8135602061178461177f83612337565b61230d565b82815281810190858301838502870184018810156117a0578586fd5b855b858110156117be578135845292840192908401906001016117a2565b5090979650505050505050565b600082601f8301126117db578081fd5b813567ffffffffffffffff8111156117f5576117f5612458565b611808601f8201601f191660200161230d565b81815284602083860101111561181c578283fd5b816020850160208301379081016020019190915292915050565b60008060408385031215611848578182fd5b61185183611748565b915061185f60208401611748565b90509250929050565b600080600080600060a0868803121561187f578081fd5b61188886611748565b945061189660208701611748565b9350604086013567ffffffffffffffff808211156118b2578283fd5b6118be89838a0161175f565b945060608801359150808211156118d3578283fd5b6118df89838a0161175f565b935060808801359150808211156118f4578283fd5b50611901888289016117cb565b9150509295509295909350565b600080600080600060a08688031215611925578081fd5b61192e86611748565b945061193c60208701611748565b93506040860135925060608601359150608086013567ffffffffffffffff811115611965578182fd5b611901888289016117cb565b60008060008060808587031215611986578384fd5b61198f85611748565b9350602085013567ffffffffffffffff808211156119ab578485fd5b6119b78883890161175f565b945060408701359150808211156119cc578384fd5b6119d88883890161175f565b935060608701359150808211156119ed578283fd5b506119fa878288016117cb565b91505092959194509250565b60008060408385031215611a18578182fd5b611a2183611748565b915060208301358015158114611a35578182fd5b809150509250929050565b60008060408385031215611a52578182fd5b611a5b83611748565b946020939093013593505050565b60008060008060808587031215611a7e578384fd5b611a8785611748565b93506020850135925060408501359150606085013567ffffffffffffffff811115611ab0578182fd5b6119fa878288016117cb565b60008060408385031215611ace578182fd5b823567ffffffffffffffff80821115611ae5578384fd5b818501915085601f830112611af8578384fd5b81356020611b0861177f83612337565b82815281810190858301838502870184018b1015611b24578889fd5b8896505b84871015611b4d57611b3981611748565b835260019690960195918301918301611b28565b5096505086013592505080821115611b63578283fd5b50611b708582860161175f565b9150509250929050565b600060208284031215611b8b578081fd5b5035919050565b60008060408385031215611ba4578182fd5b8235915061185f60208401611748565b60008060408385031215611bc6578182fd5b50508035926020909101359150565b600060208284031215611be6578081fd5b813561069981612519565b600060208284031215611c02578081fd5b815161069981612519565b6000815180845260208085019450808401835b83811015611c3c57815187529582019590820190600101611c20565b509495945050505050565b60008151808452611c5f8160208601602086016123a9565b601f01601f19169290920160200192915050565b60007f416363657373436f6e74726f6c3a206163636f756e742000000000000000000082528351611cab8160178501602088016123a9565b7f206973206d697373696e6720726f6c65200000000000000000000000000000006017918401918201528351611ce88160288401602088016123a9565b01602801949350505050565b6001600160a01b0391909116815260200190565b60006001600160a01b03808816835280871660208401525060a06040830152611d3460a0830186611c0d565b8281036060840152611d468186611c0d565b90508281036080840152611d5a8185611c47565b98975050505050505050565b60006001600160a01b03808816835280871660208401525084604083015283606083015260a06080830152611d9e60a0830184611c47565b979650505050505050565b6000602082526106996020830184611c0d565b600060408252611dcf6040830185611c0d565b8281036020840152611de18185611c0d565b95945050505050565b901515815260200190565b90815260200190565b6000602082526106996020830184611c47565b60208082526034908201527f455243313135353a207472616e7366657220746f206e6f6e204552433131353560408201527f526563656976657220696d706c656d656e746572000000000000000000000000606082015260800190565b6020808252818101527f537472696e67733a20686578206c656e67746820696e73756666696369656e74604082015260600190565b60208082526028908201527f455243313135353a204552433131353552656365697665722072656a6563746560408201527f6420746f6b656e73000000000000000000000000000000000000000000000000606082015260800190565b6020808252602b908201527f455243313135353a2062616c616e636520717565727920666f7220746865207a60408201527f65726f2061646472657373000000000000000000000000000000000000000000606082015260800190565b60208082526029908201527f455243313135353a2063616c6c6572206973206e6f74206f776e6572206e6f7260408201527f20617070726f7665640000000000000000000000000000000000000000000000606082015260800190565b6020808252602d908201527f455243313135354c6963656e73653a206d7573742068617665206d696e74657260408201527f20726f6c6520746f206d696e7400000000000000000000000000000000000000606082015260800190565b60208082526025908201527f455243313135353a207472616e7366657220746f20746865207a65726f20616460408201527f6472657373000000000000000000000000000000000000000000000000000000606082015260800190565b60208082526032908201527f455243313135353a207472616e736665722063616c6c6572206973206e6f742060408201527f6f776e6572206e6f7220617070726f7665640000000000000000000000000000606082015260800190565b6020808252602a908201527f455243313135353a20696e73756666696369656e742062616c616e636520666f60408201527f72207472616e7366657200000000000000000000000000000000000000000000606082015260800190565b60208082526029908201527f455243313135353a2073657474696e6720617070726f76616c2073746174757360408201527f20666f722073656c660000000000000000000000000000000000000000000000606082015260800190565b60208082526029908201527f455243313135353a206163636f756e747320616e6420696473206c656e67746860408201527f206d69736d617463680000000000000000000000000000000000000000000000606082015260800190565b60208082526028908201527f455243313135353a2069647320616e6420616d6f756e7473206c656e6774682060408201527f6d69736d61746368000000000000000000000000000000000000000000000000606082015260800190565b60208082526021908201527f455243313135353a206d696e7420746f20746865207a65726f2061646472657360408201527f7300000000000000000000000000000000000000000000000000000000000000606082015260800190565b6020808252602f908201527f416363657373436f6e74726f6c3a2063616e206f6e6c792072656e6f756e636560408201527f20726f6c657320666f722073656c660000000000000000000000000000000000606082015260800190565b918252602082015260400190565b60405181810167ffffffffffffffff8111828210171561232f5761232f612458565b604052919050565b600067ffffffffffffffff82111561235157612351612458565b5060209081020190565b6000821982111561236e5761236e612442565b500190565b600081600019048311821515161561238d5761238d612442565b500290565b6000828210156123a4576123a4612442565b500390565b60005b838110156123c45781810151838201526020016123ac565b8381111561044b5750506000910152565b6000816123e4576123e4612442565b506000190190565b60028104600182168061240057607f821691505b6020821081141561242157634e487b7160e01b600052602260045260246000fd5b50919050565b600060001982141561243b5761243b612442565b5060010190565b634e487b7160e01b600052601160045260246000fd5b634e487b7160e01b600052604160045260246000fd5b60e01c90565b600060443d1015612484576108fd565b600481823e6308c379a0612498825161246e565b146124a2576108fd565b6040513d600319016004823e80513d67ffffffffffffffff81602484011181841117156124d257505050506108fd565b828401925082519150808211156124ec57505050506108fd565b503d83016020828401011115612504575050506108fd565b601f01601f1916810160200160405291505090565b6001600160e01b03198116811461252f57600080fd5b5056fea2646970667358221220e26752fec485ee4cb4a9b0ec1e88c1364738db409af22deada2fb8103b34924864736f6c63430008000033",
  "linkReferences": {},
  "deployedLinkReferences": {}
}