{
  "_format": "hh-sol-artifact-1",
  "contractName": "ERC1155AdapterContract",
  "sourceName": "build/sources/adapters/ERC1155Adapter.sol",
  "abi": [
    {
      "inputs": [
        {
          "internalType": "uint256",
          "name": "flags",
          "type": "uint256"
        },
        {
          "internalType": "uint256",
          "name": "flag",
          "type": "uint256"
        }
      ],
      "name": "getFlag",
      "outputs": [
        {
          "internalType": "bool",
          "name": "",
          "type": "bool"
        }
      ],
      "stateMutability": "pure",
      "type": "function"
    },
    {
      "inputs": [
        {
          "internalType": "contract DaoRegistry",
          "name": "dao",
          "type": "address"
        },
        {
          "internalType": "address",
          "name": "toOwner",
          "type": "address"
        },
        {
          "internalType": "address",
          "name": "nftAddr",
          "type": "address"
        },
        {
          "internalType": "uint256",
          "name": "nftTokenId",
          "type": "uint256"
        },
        {
          "internalType": "uint256",
          "name": "amount",
          "type": "uint256"
        }
      ],
      "name": "internalTransfer",
      "outputs": [],
      "stateMutability": "nonpayable",
      "type": "function"
    },
    {
      "inputs": [
        {
          "internalType": "address",
          "name": "addr",
          "type": "address"
        }
      ],
      "name": "isNotReservedAddress",
      "outputs": [
        {
          "internalType": "bool",
          "name": "",
          "type": "bool"
        }
      ],
      "stateMutability": "pure",
      "type": "function"
    },
    {
      "inputs": [
        {
          "internalType": "address",
          "name": "addr",
          "type": "address"
        }
      ],
      "name": "isNotZeroAddress",
      "outputs": [
        {
          "internalType": "bool",
          "name": "",
          "type": "bool"
        }
      ],
      "stateMutability": "pure",
      "type": "function"
    },
    {
      "inputs": [
        {
          "internalType": "uint256",
          "name": "flags",
          "type": "uint256"
        },
        {
          "internalType": "uint256",
          "name": "flag",
          "type": "uint256"
        },
        {
          "internalType": "bool",
          "name": "value",
          "type": "bool"
        }
      ],
      "name": "setFlag",
      "outputs": [
        {
          "internalType": "uint256",
          "name": "",
          "type": "uint256"
        }
      ],
      "stateMutability": "pure",
      "type": "function"
    },
    {
      "stateMutability": "payable",
      "type": "receive"
    }
  ],
  "bytecode": "0x608060405234801561001057600080fd5b50610813806100206000396000f3fe60806040526004361061005e5760003560e01c8063ef6a249911610043578063ef6a2499146100ec578063f3d0e9291461010c578063fc2580311461012e57610084565b8063b244a41d14610089578063ca0f4633146100bf57610084565b366100845760405162461bcd60e51b815260040161007b9061061a565b60405180910390fd5b600080fd5b34801561009557600080fd5b506100a96100a436600461055f565b61014e565b6040516100b691906105da565b60405180910390f35b3480156100cb57600080fd5b506100df6100da366004610494565b6101aa565b6040516100b691906105cf565b3480156100f857600080fd5b506100df610107366004610494565b6101b8565b34801561011857600080fd5b5061012c6101273660046104cc565b6101fd565b005b34801561013a57600080fd5b506100df61014936600461053e565b610477565b600081151561015d8585610477565b1515146101a0578115610186576101758360026106af565b61017f9085610651565b90506101a3565b6101918360026106af565b61017f9085610778565b6101a3565b50825b9392505050565b6001600160a01b0316151590565b60006001600160a01b03821661dead148015906101e057506001600160a01b03821661babe14155b80156101f757506001600160a01b038216614bec14155b92915050565b8443816001600160a01b031663b21634826040518163ffffffff1660e01b815260040160206040518083038186803b15801561023857600080fd5b505afa15801561024c573d6000803e3d6000fd5b505050506040513d601f19601f820116820180604052508101906102709190610526565b141561028e5760405162461bcd60e51b815260040161007b906105e3565b806001600160a01b03166310fdb0a26040518163ffffffff1660e01b8152600401600060405180830381600087803b1580156102c957600080fd5b505af11580156102dd573d6000803e3d6000fd5b50506040517f593e96b6000000000000000000000000000000000000000000000000000000008152600092506001600160a01b038916915063593e96b690610349907f38a57c12f369d37609a339de2f7bfc1ada61e073ae7c75a85c930af9dbe7202b906004016105da565b60206040518083038186803b15801561036157600080fd5b505afa158015610375573d6000803e3d6000fd5b505050506040513d601f19601f8201168201806040525081019061039991906104b0565b6040517ff3d0e9290000000000000000000000000000000000000000000000000000000081529091506001600160a01b0382169063f3d0e929906103e99033908a908a908a908a9060040161059b565b600060405180830381600087803b15801561040357600080fd5b505af1158015610417573d6000803e3d6000fd5b5050505050806001600160a01b031663d4f7af436040518163ffffffff1660e01b8152600401600060405180830381600087803b15801561045757600080fd5b505af115801561046b573d6000803e3d6000fd5b50505050505050505050565b600061048a600260ff841685901c61078f565b6001149392505050565b6000602082840312156104a5578081fd5b81356101a3816107c5565b6000602082840312156104c1578081fd5b81516101a3816107c5565b600080600080600060a086880312156104e3578081fd5b85356104ee816107c5565b945060208601356104fe816107c5565b9350604086013561050e816107c5565b94979396509394606081013594506080013592915050565b600060208284031215610537578081fd5b5051919050565b60008060408385031215610550578182fd5b50508035926020909101359150565b600080600060608486031215610573578283fd5b833592506020840135915060408401358015158114610590578182fd5b809150509250925092565b6001600160a01b03958616815293851660208501529190931660408301526060820192909252608081019190915260a00190565b901515815260200190565b90815260200190565b60208082526010908201527f7265656e7472616e637920677561726400000000000000000000000000000000604082015260600190565b6020808252600f908201527f66616c6c6261636b207265766572740000000000000000000000000000000000604082015260600190565b60008219821115610664576106646107af565b500190565b80825b600180861161067b57506106a6565b81870482111561068d5761068d6107af565b8086161561069a57918102915b9490941c93800261066c565b94509492505050565b60006101a360001984846000826106c8575060016101a3565b816106d5575060006101a3565b81600181146106eb57600281146106f557610722565b60019150506101a3565b60ff841115610706576107066107af565b6001841b91508482111561071c5761071c6107af565b506101a3565b5060208310610133831016604e8410600b8410161715610750575081810a8381111561019b5761019b6107af565b61075d8484846001610669565b80860482111561076f5761076f6107af565b02949350505050565b60008282101561078a5761078a6107af565b500390565b6000826107aa57634e487b7160e01b81526012600452602481fd5b500690565b634e487b7160e01b600052601160045260246000fd5b6001600160a01b03811681146107da57600080fd5b5056fea2646970667358221220c568572f366d8b09b4452984e2962c24d92cb22dc3c3f0e4e635004b3bfb305e64736f6c63430008000033",
  "linkReferences": {},
  "deployedLinkReferences": {}
}