{
  "_format": "hh-sol-artifact-1",
  "contractName": "ERC1155TokenExtensionFactory",
  "sourceName": "build/sources/extensions/erc1155/ERC1155TokenExtensionFactory.sol",
  "abi": [
    {
      "inputs": [
        {
          "internalType": "address",
          "name": "_identityAddress",
          "type": "address"
        }
      ],
      "stateMutability": "nonpayable",
      "type": "constructor"
    },
    {
      "anonymous": false,
      "inputs": [
        {
          "indexed": false,
          "internalType": "address",
          "name": "nftCollAddress",
          "type": "address"
        }
      ],
      "name": "ERC1155CollectionCreated",
      "type": "event"
    },
    {
      "inputs": [],
      "name": "createERC1155Collection",
      "outputs": [],
      "stateMutability": "nonpayable",
      "type": "function"
    },
    {
      "inputs": [
        {
          "internalType": "uint256",
          "name": "flags",
          "type": "uint256"
        },
        {
          "internalType": "uint256",
          "name": "flag",
          "type": "uint256"
        }
      ],
      "name": "getFlag",
      "outputs": [
        {
          "internalType": "bool",
          "name": "",
          "type": "bool"
        }
      ],
      "stateMutability": "pure",
      "type": "function"
    },
    {
      "inputs": [],
      "name": "identityAddress",
      "outputs": [
        {
          "internalType": "address",
          "name": "",
          "type": "address"
        }
      ],
      "stateMutability": "view",
      "type": "function"
    },
    {
      "inputs": [
        {
          "internalType": "address",
          "name": "addr",
          "type": "address"
        }
      ],
      "name": "isNotReservedAddress",
      "outputs": [
        {
          "internalType": "bool",
          "name": "",
          "type": "bool"
        }
      ],
      "stateMutability": "pure",
      "type": "function"
    },
    {
      "inputs": [
        {
          "internalType": "address",
          "name": "addr",
          "type": "address"
        }
      ],
      "name": "isNotZeroAddress",
      "outputs": [
        {
          "internalType": "bool",
          "name": "",
          "type": "bool"
        }
      ],
      "stateMutability": "pure",
      "type": "function"
    },
    {
      "inputs": [
        {
          "internalType": "uint256",
          "name": "flags",
          "type": "uint256"
        },
        {
          "internalType": "uint256",
          "name": "flag",
          "type": "uint256"
        },
        {
          "internalType": "bool",
          "name": "value",
          "type": "bool"
        }
      ],
      "name": "setFlag",
      "outputs": [
        {
          "internalType": "uint256",
          "name": "",
          "type": "uint256"
        }
      ],
      "stateMutability": "pure",
      "type": "function"
    }
  ],
  "bytecode": "0x608060405234801561001057600080fd5b5060405161058238038061058283398101604081905261002f91610054565b600080546001600160a01b0319166001600160a01b0392909216919091179055610082565b600060208284031215610065578081fd5b81516001600160a01b038116811461007b578182fd5b9392505050565b6104f1806100916000396000f3fe608060405234801561001057600080fd5b50600436106100725760003560e01c8063ca0f463311610050578063ca0f4633146100bf578063ef6a2499146100df578063fc258031146100f257610072565b80633ab174f314610077578063b244a41d14610081578063bf45767a146100aa575b600080fd5b61007f610105565b005b61009461008f3660046102e3565b610157565b6040516100a1919061033e565b60405180910390f35b6100b26101b3565b6040516100a1919061031f565b6100d26100cd36600461029b565b6101c2565b6040516100a19190610333565b6100d26100ed36600461029b565b6101d0565b6100d26101003660046102c2565b610215565b6000805461011b906001600160a01b0316610232565b90507fb6f7ee859827e601aff3f3ff5a920713d7781b3edd7724a59eb4754992bb43388160405161014c919061031f565b60405180910390a150565b60008115156101668585610215565b1515146101a957811561018f5761017e8360026103a5565b6101889085610347565b90506101ac565b61019a8360026103a5565b610188908561046e565b6101ac565b50825b9392505050565b6000546001600160a01b031681565b6001600160a01b0316151590565b60006001600160a01b03821661dead148015906101f857506001600160a01b03821661babe14155b801561020f57506001600160a01b038216614bec14155b92915050565b6000610228600260ff841685901c610485565b6001149392505050565b6000808260601b90506040517f3d602d80600a3d3981f3363d3d373d3d3d363d7300000000000000000000000081528160148201527f5af43d82803e903d91602b57fd5bf3000000000000000000000000000000000060288201526037816000f0949350505050565b6000602082840312156102ac578081fd5b81356001600160a01b03811681146101ac578182fd5b600080604083850312156102d4578081fd5b50508035926020909101359150565b6000806000606084860312156102f7578081fd5b833592506020840135915060408401358015158114610314578182fd5b809150509250925092565b6001600160a01b0391909116815260200190565b901515815260200190565b90815260200190565b6000821982111561035a5761035a6104a5565b500190565b80825b6001808611610371575061039c565b818704821115610383576103836104a5565b8086161561039057918102915b9490941c938002610362565b94509492505050565b60006101ac60001984846000826103be575060016101ac565b816103cb575060006101ac565b81600181146103e157600281146103eb57610418565b60019150506101ac565b60ff8411156103fc576103fc6104a5565b6001841b915084821115610412576104126104a5565b506101ac565b5060208310610133831016604e8410600b8410161715610446575081810a838111156101a4576101a46104a5565b610453848484600161035f565b808604821115610465576104656104a5565b02949350505050565b600082821015610480576104806104a5565b500390565b6000826104a057634e487b7160e01b81526012600452602481fd5b500690565b634e487b7160e01b600052601160045260246000fdfea26469706673582212200a555c10c0b61a23da436b7a64ab1d6cf126fd5c9019479c2975e3a0d6a483ec64736f6c63430008000033",
  "linkReferences": {},
  "deployedLinkReferences": {}
}