{
  "_format": "hh-sol-artifact-1",
  "contractName": "ERC1155TokenExtension",
  "sourceName": "build/sources/extensions/erc1155/ERC1155TokenExtension.sol",
  "abi": [
    {
      "inputs": [],
      "stateMutability": "nonpayable",
      "type": "constructor"
    },
    {
      "anonymous": false,
      "inputs": [
        {
          "indexed": false,
          "internalType": "address",
          "name": "oldOwner",
          "type": "address"
        },
        {
          "indexed": false,
          "internalType": "address",
          "name": "newOwner",
          "type": "address"
        },
        {
          "indexed": false,
          "internalType": "address",
          "name": "nftAddr",
          "type": "address"
        },
        {
          "indexed": false,
          "internalType": "uint256",
          "name": "nftTokenId",
          "type": "uint256"
        },
        {
          "indexed": false,
          "internalType": "uint256",
          "name": "amount",
          "type": "uint256"
        }
      ],
      "name": "TransferredNFT",
      "type": "event"
    },
    {
      "anonymous": false,
      "inputs": [
        {
          "indexed": false,
          "internalType": "address",
          "name": "nftAddr",
          "type": "address"
        },
        {
          "indexed": false,
          "internalType": "uint256",
          "name": "nftTokenId",
          "type": "uint256"
        },
        {
          "indexed": false,
          "internalType": "uint256",
          "name": "amount",
          "type": "uint256"
        },
        {
          "indexed": false,
          "internalType": "address",
          "name": "toAddress",
          "type": "address"
        }
      ],
      "name": "WithdrawnNFT",
      "type": "event"
    },
    {
      "inputs": [],
      "name": "dao",
      "outputs": [
        {
          "internalType": "contract DaoRegistry",
          "name": "",
          "type": "address"
        }
      ],
      "stateMutability": "view",
      "type": "function"
    },
    {
      "inputs": [
        {
          "internalType": "uint256",
          "name": "flags",
          "type": "uint256"
        },
        {
          "internalType": "uint256",
          "name": "flag",
          "type": "uint256"
        }
      ],
      "name": "getFlag",
      "outputs": [
        {
          "internalType": "bool",
          "name": "",
          "type": "bool"
        }
      ],
      "stateMutability": "pure",
      "type": "function"
    },
    {
      "inputs": [
        {
          "internalType": "address",
          "name": "tokenAddr",
          "type": "address"
        },
        {
          "internalType": "uint256",
          "name": "index",
          "type": "uint256"
        }
      ],
      "name": "getNFT",
      "outputs": [
        {
          "internalType": "uint256",
          "name": "",
          "type": "uint256"
        }
      ],
      "stateMutability": "view",
      "type": "function"
    },
    {
      "inputs": [
        {
          "internalType": "uint256",
          "name": "index",
          "type": "uint256"
        }
      ],
      "name": "getNFTAddress",
      "outputs": [
        {
          "internalType": "address",
          "name": "",
          "type": "address"
        }
      ],
      "stateMutability": "view",
      "type": "function"
    },
    {
      "inputs": [
        {
          "internalType": "address",
          "name": "nftAddress",
          "type": "address"
        },
        {
          "internalType": "uint256",
          "name": "tokenId",
          "type": "uint256"
        }
      ],
      "name": "getNFTId",
      "outputs": [
        {
          "internalType": "bytes32",
          "name": "",
          "type": "bytes32"
        }
      ],
      "stateMutability": "pure",
      "type": "function"
    },
    {
      "inputs": [
        {
          "internalType": "address",
          "name": "owner",
          "type": "address"
        },
        {
          "internalType": "address",
          "name": "tokenAddr",
          "type": "address"
        },
        {
          "internalType": "uint256",
          "name": "tokenId",
          "type": "uint256"
        }
      ],
      "name": "getNFTIdAmount",
      "outputs": [
        {
          "internalType": "uint256",
          "name": "",
          "type": "uint256"
        }
      ],
      "stateMutability": "view",
      "type": "function"
    },
    {
      "inputs": [
        {
          "internalType": "address",
          "name": "nftAddress",
          "type": "address"
        },
        {
          "internalType": "uint256",
          "name": "tokenId",
          "type": "uint256"
        },
        {
          "internalType": "uint256",
          "name": "index",
          "type": "uint256"
        }
      ],
      "name": "getNFTOwner",
      "outputs": [
        {
          "internalType": "address",
          "name": "",
          "type": "address"
        }
      ],
      "stateMutability": "view",
      "type": "function"
    },
    {
      "inputs": [
        {
          "internalType": "contract DaoRegistry",
          "name": "_dao",
          "type": "address"
        },
        {
          "internalType": "address",
          "name": "creator",
          "type": "address"
        }
      ],
      "name": "initialize",
      "outputs": [],
      "stateMutability": "nonpayable",
      "type": "function"
    },
    {
      "inputs": [],
      "name": "initialized",
      "outputs": [
        {
          "internalType": "bool",
          "name": "",
          "type": "bool"
        }
      ],
      "stateMutability": "view",
      "type": "function"
    },
    {
      "inputs": [
        {
          "internalType": "address",
          "name": "fromOwner",
          "type": "address"
        },
        {
          "internalType": "address",
          "name": "toOwner",
          "type": "address"
        },
        {
          "internalType": "address",
          "name": "nftAddr",
          "type": "address"
        },
        {
          "internalType": "uint256",
          "name": "nftTokenId",
          "type": "uint256"
        },
        {
          "internalType": "uint256",
          "name": "amount",
          "type": "uint256"
        }
      ],
      "name": "internalTransfer",
      "outputs": [],
      "stateMutability": "nonpayable",
      "type": "function"
    },
    {
      "inputs": [
        {
          "internalType": "contract DaoRegistry",
          "name": "dao",
          "type": "address"
        },
        {
          "internalType": "address",
          "name": "_addr",
          "type": "address"
        }
      ],
      "name": "isActiveMember",
      "outputs": [
        {
          "internalType": "bool",
          "name": "",
          "type": "bool"
        }
      ],
      "stateMutability": "view",
      "type": "function"
    },
    {
      "inputs": [
        {
          "internalType": "address",
          "name": "addr",
          "type": "address"
        }
      ],
      "name": "isNotReservedAddress",
      "outputs": [
        {
          "internalType": "bool",
          "name": "",
          "type": "bool"
        }
      ],
      "stateMutability": "pure",
      "type": "function"
    },
    {
      "inputs": [
        {
          "internalType": "address",
          "name": "addr",
          "type": "address"
        }
      ],
      "name": "isNotZeroAddress",
      "outputs": [
        {
          "internalType": "bool",
          "name": "",
          "type": "bool"
        }
      ],
      "stateMutability": "pure",
      "type": "function"
    },
    {
      "inputs": [],
      "name": "nbNFTAddresses",
      "outputs": [
        {
          "internalType": "uint256",
          "name": "",
          "type": "uint256"
        }
      ],
      "stateMutability": "view",
      "type": "function"
    },
    {
      "inputs": [
        {
          "internalType": "address",
          "name": "nftAddress",
          "type": "address"
        },
        {
          "internalType": "uint256",
          "name": "tokenId",
          "type": "uint256"
        }
      ],
      "name": "nbNFTOwners",
      "outputs": [
        {
          "internalType": "uint256",
          "name": "",
          "type": "uint256"
        }
      ],
      "stateMutability": "view",
      "type": "function"
    },
    {
      "inputs": [
        {
          "internalType": "address",
          "name": "tokenAddr",
          "type": "address"
        }
      ],
      "name": "nbNFTs",
      "outputs": [
        {
          "internalType": "uint256",
          "name": "",
          "type": "uint256"
        }
      ],
      "stateMutability": "view",
      "type": "function"
    },
    {
      "inputs": [
        {
          "internalType": "address",
          "name": "",
          "type": "address"
        },
        {
          "internalType": "address",
          "name": "",
          "type": "address"
        },
        {
          "internalType": "uint256[]",
          "name": "ids",
          "type": "uint256[]"
        },
        {
          "internalType": "uint256[]",
          "name": "values",
          "type": "uint256[]"
        },
        {
          "internalType": "bytes",
          "name": "",
          "type": "bytes"
        }
      ],
      "name": "onERC1155BatchReceived",
      "outputs": [
        {
          "internalType": "bytes4",
          "name": "",
          "type": "bytes4"
        }
      ],
      "stateMutability": "nonpayable",
      "type": "function"
    },
    {
      "inputs": [
        {
          "internalType": "address",
          "name": "",
          "type": "address"
        },
        {
          "internalType": "address",
          "name": "",
          "type": "address"
        },
        {
          "internalType": "uint256",
          "name": "id",
          "type": "uint256"
        },
        {
          "internalType": "uint256",
          "name": "value",
          "type": "uint256"
        },
        {
          "internalType": "bytes",
          "name": "",
          "type": "bytes"
        }
      ],
      "name": "onERC1155Received",
      "outputs": [
        {
          "internalType": "bytes4",
          "name": "",
          "type": "bytes4"
        }
      ],
      "stateMutability": "nonpayable",
      "type": "function"
    },
    {
      "inputs": [
        {
          "internalType": "uint256",
          "name": "flags",
          "type": "uint256"
        },
        {
          "internalType": "uint256",
          "name": "flag",
          "type": "uint256"
        },
        {
          "internalType": "bool",
          "name": "value",
          "type": "bool"
        }
      ],
      "name": "setFlag",
      "outputs": [
        {
          "internalType": "uint256",
          "name": "",
          "type": "uint256"
        }
      ],
      "stateMutability": "pure",
      "type": "function"
    },
    {
      "inputs": [
        {
          "internalType": "bytes4",
          "name": "interfaceID",
          "type": "bytes4"
        }
      ],
      "name": "supportsInterface",
      "outputs": [
        {
          "internalType": "bool",
          "name": "",
          "type": "bool"
        }
      ],
      "stateMutability": "pure",
      "type": "function"
    },
    {
      "inputs": [
        {
          "internalType": "address",
          "name": "from",
          "type": "address"
        },
        {
          "internalType": "address",
          "name": "newOwner",
          "type": "address"
        },
        {
          "internalType": "address",
          "name": "nftAddr",
          "type": "address"
        },
        {
          "internalType": "uint256",
          "name": "nftTokenId",
          "type": "uint256"
        },
        {
          "internalType": "uint256",
          "name": "amount",
          "type": "uint256"
        }
      ],
      "name": "withdrawNFT",
      "outputs": [],
      "stateMutability": "nonpayable",
      "type": "function"
    }
  ],
  "bytecode": "0x60806040526000805460ff1916905534801561001a57600080fd5b50611e708061002a6000396000f3fe608060405234801561001057600080fd5b50600436106101775760003560e01c80639d18f773116100d8578063c33077d51161008c578063f23a6e6111610066578063f23a6e61146102f0578063f3d0e92914610303578063fc2580311461031657610177565b8063c33077d5146102b7578063ca0f4633146102ca578063ef6a2499146102dd57610177565b8063b244a41d116100bd578063b244a41d14610271578063bc197c8114610284578063c14468a8146102a457610177565b80639d18f7731461024b578063afae71e51461025e57610177565b806327b5daf21161012f578063485cc95511610114578063485cc955146102105780637a5ab16b146102255780638ecf77201461023857610177565b806327b5daf2146101e85780634162169f1461020857610177565b80632148c71f116101605780632148c71f146101ad5780632207bdcf146101cd57806326e3cdc9146101e057610177565b806301ffc9a71461017c578063158ef93e146101a5575b600080fd5b61018f61018a3660046117bf565b610329565b60405161019c91906119ed565b60405180910390f35b61018f610392565b6101c06101bb36600461153d565b61039b565b60405161019c91906119f8565b6101c06101db366004611744565b6103bc565b6101c06103e5565b6101fb6101f636600461176f565b6103f6565b60405161019c91906118e9565b6101fb61042e565b61022361021e3660046117e7565b610442565b005b6101c061023336600461168a565b610550565b61018f6102463660046117e7565b610582565b6101fb61025936600461183e565b6107de565b6101c061026c366004611744565b6107eb565b6101c061027f36600461188f565b610811565b6102976102923660046115cf565b61086a565b60405161019c9190611a01565b6102236102b2366004611575565b610918565b6101c06102c5366004611744565b610db0565b61018f6102d836600461153d565b610de3565b61018f6102eb36600461153d565b610df1565b6102976102fe3660046116ca565b610e32565b610223610311366004611575565b610e55565b61018f61032436600461186e565b61113b565b60007f01ffc9a7000000000000000000000000000000000000000000000000000000006001600160e01b03198316148061038c57507f4e2312e0000000000000000000000000000000000000000000000000000000006001600160e01b03198316145b92915050565b60005460ff1681565b6001600160a01b038116600090815260016020526040812061038c90611158565b6001600160a01b03821660009081526001602052604081206103de9083611163565b9392505050565b60006103f16004611158565b905090565b6000610426826003600061040a8888610db0565b815260200190815260200160002061116390919063ffffffff16565b949350505050565b60005461010090046001600160a01b031681565b60005460ff161561046e5760405162461bcd60e51b815260040161046590611aaa565b60405180910390fd5b60405163288c314960e21b81526001600160a01b0383169063a230c5249061049a9084906004016118e9565b60206040518083038186803b1580156104b257600080fd5b505afa1580156104c6573d6000803e3d6000fd5b505050506040513d601f19601f820116820180604052508101906104ea91906117a3565b6105065760405162461bcd60e51b815260040161046590611ae1565b50600080546001600160a01b03909216610100027fffffffffffffffffffffff0000000000000000000000000000000000000000ff60ff1990931660011792909216919091179055565b6001600160a01b0392831660009081526002602090815260408083209490951682529283528381209181529152205490565b600080836001600160a01b031663fefbd8757fea0ca03c7adbe41dc655fec28a9209dc8e6e042f3d991a67765ba285b9cf73a06040518263ffffffff1660e01b81526004016105d191906119f8565b60206040518083038186803b1580156105e957600080fd5b505afa1580156105fd573d6000803e3d6000fd5b505050506040513d601f19601f820116820180604052508101906106219190611559565b90506001600160a01b03811615610762576040517fc89bb8ba0000000000000000000000000000000000000000000000000000000081526000906001600160a01b0386169063c89bb8ba9061067a9087906004016118e9565b60206040518083038186803b15801561069257600080fd5b505afa1580156106a6573d6000803e3d6000fd5b505050506040513d601f19601f820116820180604052508101906106ca9190611559565b90506000826001600160a01b031663f7888aec83620ff1ce6040518363ffffffff1660e01b81526004016106ff9291906118fd565b60206040518083038186803b15801561071757600080fd5b505afa15801561072b573d6000803e3d6000fd5b505050506040513d601f19601f8201168201806040525081019061074f9190611559565b6001600160a01b0316119250505061038c565b60405163288c314960e21b81526001600160a01b0385169063a230c5249061078e9086906004016118e9565b60206040518083038186803b1580156107a657600080fd5b505afa1580156107ba573d6000803e3d6000fd5b505050506040513d601f19601f8201168201806040525081019061042691906117a3565b600061038c600483611163565b60006103de600360006107fe8686610db0565b8152602001908152602001600020611158565b6000811515610820858561113b565b15151461086357811561084957610838836002611ce6565b6108429085611c88565b90506103de565b610854836002611ce6565b6108429085611daf565b6103de565b50826103de565b600085841461088b5760405162461bcd60e51b815260040161046590611bbd565b60005b86811015610902576108f0338989848181106108ba57634e487b7160e01b600052603260045260246000fd5b9050602002013561dead8989868181106108e457634e487b7160e01b600052603260045260246000fd5b9050602002013561116f565b806108fa81611dc6565b91505061088e565b5063f23a6e6160e01b9998505050505050505050565b30600080600060019054906101000a90046001600160a01b03166001600160a01b031663c19d93fb6040518163ffffffff1660e01b815260040160206040518083038186803b15801561096a57600080fd5b505afa15801561097e573d6000803e3d6000fd5b505050506040513d601f19601f820116820180604052508101906109a2919061181f565b60018111156109c157634e487b7160e01b600052602160045260246000fd5b1480610a6e575060005461010090046001600160a01b0316636cfdc32e3384846002811115610a0057634e487b7160e01b600052602160045260246000fd5b6040518463ffffffff1660e01b8152600401610a1e93929190611983565b60206040518083038186803b158015610a3657600080fd5b505afa158015610a4a573d6000803e3d6000fd5b505050506040513d601f19601f82011682018060405250810190610a6e91906117a3565b610a8a5760405162461bcd60e51b815260040161046590611c51565b604051627eeac760e11b815285906000906001600160a01b0383169062fdd58e90610abb9030908a906004016119a9565b60206040518083038186803b158015610ad357600080fd5b505afa158015610ae7573d6000803e3d6000fd5b505050506040513d601f19601f82011682018060405250810190610b0b9190611856565b9050600081118015610b1d5750600085115b610b395760405162461bcd60e51b815260040161046590611a16565b6000610b468a8989610550565b905085811015610b685760405162461bcd60e51b815260040161046590611b86565b6000610b748783611daf565b9050610b828b8a8a8461123b565b6040517ff242432a0000000000000000000000000000000000000000000000000000000081526001600160a01b0385169063f242432a90610bcd9030908e908d908d9060040161194b565b600060405180830381600087803b158015610be757600080fd5b505af1158015610bfb573d6000803e3d6000fd5b5050604051627eeac760e11b8152600092506001600160a01b038716915062fdd58e90610c2e9030908d906004016119a9565b60206040518083038186803b158015610c4657600080fd5b505afa158015610c5a573d6000803e3d6000fd5b505050506040513d601f19601f82011682018060405250810190610c7e9190611856565b905080610d65576001600160a01b03808c166000908152600260209081526040808320938e1683529281528282208c83529052908120819055610ce6908c90600390610cca8e8e610db0565b815260200190815260200160002061127190919063ffffffff16565b506001600160a01b038a166000908152600160205260409020610d09908a611286565b506001600160a01b038a166000908152600160205260409020610d2b90611158565b610d6557610d3a60048b611271565b506001600160a01b038a166000908152600160205260408120908181610d60828261147a565b505050505b7fff930e5e260d7cc3cfae9de156d8e2a9d4034170aaecec3e27ce1c2e399d21568a8a8a8e604051610d9a94939291906119c2565b60405180910390a1505050505050505050505050565b60008282604051602001610dc59291906118c7565b60405160208183030381529060405280519060200120905092915050565b6001600160a01b0316151590565b60006001600160a01b03821661dead14801590610e1957506001600160a01b03821661babe14155b801561038c5750506001600160a01b0316614bec141590565b6000610e42338661dead8761116f565b5063f23a6e6160e01b9695505050505050565b30600260008060019054906101000a90046001600160a01b03166001600160a01b031663c19d93fb6040518163ffffffff1660e01b815260040160206040518083038186803b158015610ea757600080fd5b505afa158015610ebb573d6000803e3d6000fd5b505050506040513d601f19601f82011682018060405250810190610edf919061181f565b6001811115610efe57634e487b7160e01b600052602160045260246000fd5b1480610fab575060005461010090046001600160a01b0316636cfdc32e3384846002811115610f3d57634e487b7160e01b600052602160045260246000fd5b6040518463ffffffff1660e01b8152600401610f5b93929190611983565b60206040518083038186803b158015610f7357600080fd5b505afa158015610f87573d6000803e3d6000fd5b505050506040513d601f19601f82011682018060405250810190610fab91906117a3565b610fc75760405162461bcd60e51b815260040161046590611c51565b600054610fe29061010090046001600160a01b031688610582565b610ffe5760405162461bcd60e51b815260040161046590611b4f565b6000546110199061010090046001600160a01b031687610582565b6110355760405162461bcd60e51b815260040161046590611b18565b6001600160a01b03851660009081526001602052604081206110579086611292565b9050806110765760405162461bcd60e51b815260040161046590611a73565b6000611083898888610550565b905060006110918683611daf565b90506000861180156110a1575060015b6110bd5760405162461bcd60e51b815260040161046590611bf4565b6000866110cb8b8b8b610550565b6110d59190611c88565b90506110e38a8a8a8461123b565b6110ef8b8a8a8561123b565b7fb72633916975884c6bb16b62f6dc9b5bf05f17174159b7c9036b95d91fd88fa68b8b8b8b8b604051611126959493929190611917565b60405180910390a15050505050505050505050565b600061114e600260ff841685901c611de1565b6001149392505050565b600061038c8261129e565b60006103de83836112a2565b6001600160a01b038416600090815260016020526040902061119190846112da565b506111c082600360006111a48888610db0565b81526020019081526020016000206112e690919063ffffffff16565b506111cc6004856112e6565b506001600160a01b0380831660009081526002602090815260408083209388168352928152828220868352905220546112058282611c88565b6001600160a01b039384166000908152600260209081526040808320989096168252968752848120958152949095525050902055565b6001600160a01b039384166000908152600260209081526040808320959096168252938452848120928152919092529190912055565b60006103de836001600160a01b0384166112fb565b60006103de83836112fb565b60006103de8383611418565b5490565b60008260000182815481106112c757634e487b7160e01b600052603260045260246000fd5b9060005260206000200154905092915050565b60006103de8383611430565b60006103de836001600160a01b038416611430565b6000818152600183016020526040812054801561140e57600061131f600183611daf565b855490915060009061133390600190611daf565b90508181146113b457600086600001828154811061136157634e487b7160e01b600052603260045260246000fd5b906000526020600020015490508087600001848154811061139257634e487b7160e01b600052603260045260246000fd5b6000918252602080832090910192909255918252600188019052604090208390555b85548690806113d357634e487b7160e01b600052603160045260246000fd5b60019003818190600052602060002001600090559055856001016000868152602001908152602001600020600090556001935050505061038c565b600091505061038c565b60009081526001919091016020526040902054151590565b600061143c8383611418565b6114725750815460018181018455600084815260208082209093018490558454848252828601909352604090209190915561038c565b50600061038c565b5080546000825590600052602060002090810190611498919061149b565b50565b5b808211156114b0576000815560010161149c565b5090565b60008083601f8401126114c5578182fd5b50813567ffffffffffffffff8111156114dc578182fd5b60208301915083602080830285010111156114f657600080fd5b9250929050565b60008083601f84011261150e578182fd5b50813567ffffffffffffffff811115611525578182fd5b6020830191508360208285010111156114f657600080fd5b60006020828403121561154e578081fd5b81356103de81611e17565b60006020828403121561156a578081fd5b81516103de81611e17565b600080600080600060a0868803121561158c578081fd5b853561159781611e17565b945060208601356115a781611e17565b935060408601356115b781611e17565b94979396509394606081013594506080013592915050565b60008060008060008060008060a0898b0312156115ea578283fd5b88356115f581611e17565b9750602089013561160581611e17565b9650604089013567ffffffffffffffff80821115611621578485fd5b61162d8c838d016114b4565b909850965060608b0135915080821115611645578485fd5b6116518c838d016114b4565b909650945060808b0135915080821115611669578384fd5b506116768b828c016114fd565b999c989b5096995094979396929594505050565b60008060006060848603121561169e578283fd5b83356116a981611e17565b925060208401356116b981611e17565b929592945050506040919091013590565b60008060008060008060a087890312156116e2578182fd5b86356116ed81611e17565b955060208701356116fd81611e17565b94506040870135935060608701359250608087013567ffffffffffffffff811115611726578283fd5b61173289828a016114fd565b979a9699509497509295939492505050565b60008060408385031215611756578182fd5b823561176181611e17565b946020939093013593505050565b600080600060608486031215611783578283fd5b833561178e81611e17565b95602085013595506040909401359392505050565b6000602082840312156117b4578081fd5b81516103de81611e2c565b6000602082840312156117d0578081fd5b81356001600160e01b0319811681146103de578182fd5b600080604083850312156117f9578182fd5b823561180481611e17565b9150602083013561181481611e17565b809150509250929050565b600060208284031215611830578081fd5b8151600281106103de578182fd5b60006020828403121561184f578081fd5b5035919050565b600060208284031215611867578081fd5b5051919050565b60008060408385031215611880578182fd5b50508035926020909101359150565b6000806000606084860312156118a3578081fd5b833592506020840135915060408401356118bc81611e2c565b809150509250925092565b60609290921b6bffffffffffffffffffffffff19168252601482015260340190565b6001600160a01b0391909116815260200190565b6001600160a01b0392831681529116602082015260400190565b6001600160a01b03958616815293851660208501529190931660408301526060820192909252608081019190915260a00190565b6001600160a01b0394851681529290931660208301526040820152606081019190915260a06080820181905260009082015260c00190565b6001600160a01b03938416815291909216602082015260ff909116604082015260600190565b6001600160a01b03929092168252602082015260400190565b6001600160a01b03948516815260208101939093526040830191909152909116606082015260800190565b901515815260200190565b90815260200190565b6001600160e01b031991909116815260200190565b60208082526022908201527f6e6f7420656e6f7567682066756e6473206f7220696e76616c696420616d6f7560408201527f6e74000000000000000000000000000000000000000000000000000000000000606082015260800190565b6020808252600d908201527f6e6674206e6f7420666f756e6400000000000000000000000000000000000000604082015260600190565b60208082526013908201527f616c726561647920696e697469616c697a656400000000000000000000000000604082015260600190565b6020808252600c908201527f6e6f742061206d656d6265720000000000000000000000000000000000000000604082015260600190565b60208082526017908201527f746f4f776e6572206973206e6f742061206d656d626572000000000000000000604082015260600190565b60208082526019908201527f66726f6d4f776e6572206973206e6f742061206d656d62657200000000000000604082015260600190565b60208082526012908201527f696e73756666696369656e742066756e64730000000000000000000000000000604082015260600190565b6020808252601a908201527f6964732076616c756573206c656e677468206d69736d61746368000000000000604082015260600190565b60208082526024908201527f696e73756666696369656e742066756e6473206f7220696e76616c696420616d60408201527f6f756e7400000000000000000000000000000000000000000000000000000000606082015260800190565b60208082526018908201527f657263313135354578743a3a61636365737344656e6965640000000000000000604082015260600190565b60008219821115611c9b57611c9b611e01565b500190565b80825b6001808611611cb25750611cdd565b818704821115611cc457611cc4611e01565b80861615611cd157918102915b9490941c938002611ca3565b94509492505050565b60006103de6000198484600082611cff575060016103de565b81611d0c575060006103de565b8160018114611d225760028114611d2c57611d59565b60019150506103de565b60ff841115611d3d57611d3d611e01565b6001841b915084821115611d5357611d53611e01565b506103de565b5060208310610133831016604e8410600b8410161715611d87575081810a8381111561085e5761085e611e01565b611d948484846001611ca0565b808604821115611da657611da6611e01565b02949350505050565b600082821015611dc157611dc1611e01565b500390565b6000600019821415611dda57611dda611e01565b5060010190565b600082611dfc57634e487b7160e01b81526012600452602481fd5b500690565b634e487b7160e01b600052601160045260246000fd5b6001600160a01b038116811461149857600080fd5b801515811461149857600080fdfea26469706673582212208e6a84d2e85fdd2d02dc179a546cff232ed884eb77f90df9dea1930b4219373364736f6c63430008000033",
  "linkReferences": {},
  "deployedLinkReferences": {}
}