{
  "_format": "hh-sol-artifact-1",
  "contractName": "ERC1271Extension",
  "sourceName": "build/sources/extensions/erc1271/ERC1271.sol",
  "abi": [
    {
      "inputs": [],
      "stateMutability": "nonpayable",
      "type": "constructor"
    },
    {
      "inputs": [],
      "name": "dao",
      "outputs": [
        {
          "internalType": "contract DaoRegistry",
          "name": "",
          "type": "address"
        }
      ],
      "stateMutability": "view",
      "type": "function"
    },
    {
      "inputs": [
        {
          "internalType": "uint256",
          "name": "flags",
          "type": "uint256"
        },
        {
          "internalType": "uint256",
          "name": "flag",
          "type": "uint256"
        }
      ],
      "name": "getFlag",
      "outputs": [
        {
          "internalType": "bool",
          "name": "",
          "type": "bool"
        }
      ],
      "stateMutability": "pure",
      "type": "function"
    },
    {
      "inputs": [
        {
          "internalType": "contract DaoRegistry",
          "name": "_dao",
          "type": "address"
        },
        {
          "internalType": "address",
          "name": "creator",
          "type": "address"
        }
      ],
      "name": "initialize",
      "outputs": [],
      "stateMutability": "nonpayable",
      "type": "function"
    },
    {
      "inputs": [],
      "name": "initialized",
      "outputs": [
        {
          "internalType": "bool",
          "name": "",
          "type": "bool"
        }
      ],
      "stateMutability": "view",
      "type": "function"
    },
    {
      "inputs": [
        {
          "internalType": "address",
          "name": "addr",
          "type": "address"
        }
      ],
      "name": "isNotReservedAddress",
      "outputs": [
        {
          "internalType": "bool",
          "name": "",
          "type": "bool"
        }
      ],
      "stateMutability": "pure",
      "type": "function"
    },
    {
      "inputs": [
        {
          "internalType": "address",
          "name": "addr",
          "type": "address"
        }
      ],
      "name": "isNotZeroAddress",
      "outputs": [
        {
          "internalType": "bool",
          "name": "",
          "type": "bool"
        }
      ],
      "stateMutability": "pure",
      "type": "function"
    },
    {
      "inputs": [
        {
          "internalType": "bytes32",
          "name": "permissionHash",
          "type": "bytes32"
        },
        {
          "internalType": "bytes",
          "name": "signature",
          "type": "bytes"
        }
      ],
      "name": "isValidSignature",
      "outputs": [
        {
          "internalType": "bytes4",
          "name": "",
          "type": "bytes4"
        }
      ],
      "stateMutability": "view",
      "type": "function"
    },
    {
      "inputs": [
        {
          "internalType": "uint256",
          "name": "flags",
          "type": "uint256"
        },
        {
          "internalType": "uint256",
          "name": "flag",
          "type": "uint256"
        },
        {
          "internalType": "bool",
          "name": "value",
          "type": "bool"
        }
      ],
      "name": "setFlag",
      "outputs": [
        {
          "internalType": "uint256",
          "name": "",
          "type": "uint256"
        }
      ],
      "stateMutability": "pure",
      "type": "function"
    },
    {
      "inputs": [
        {
          "internalType": "bytes32",
          "name": "permissionHash",
          "type": "bytes32"
        },
        {
          "internalType": "bytes32",
          "name": "signatureHash",
          "type": "bytes32"
        },
        {
          "internalType": "bytes4",
          "name": "magicValue",
          "type": "bytes4"
        }
      ],
      "name": "sign",
      "outputs": [],
      "stateMutability": "nonpayable",
      "type": "function"
    },
    {
      "inputs": [
        {
          "internalType": "bytes32",
          "name": "",
          "type": "bytes32"
        }
      ],
      "name": "signatures",
      "outputs": [
        {
          "internalType": "bytes32",
          "name": "signatureHash",
          "type": "bytes32"
        },
        {
          "internalType": "bytes4",
          "name": "magicValue",
          "type": "bytes4"
        }
      ],
      "stateMutability": "view",
      "type": "function"
    }
  ],
  "bytecode": "0x60806040526000805460ff1916905534801561001a57600080fd5b50610bfa8061002a6000396000f3fe608060405234801561001057600080fd5b50600436106100be5760003560e01c8063b244a41d11610076578063ca0f46331161005b578063ca0f46331461017f578063ef6a249914610192578063fc258031146101a5576100be565b8063b244a41d1461014c578063b461382d1461016c576100be565b80632422224e116100a75780632422224e146101015780634162169f14610122578063485cc95514610137576100be565b8063158ef93e146100c35780631626ba7e146100e1575b600080fd5b6100cb6101b8565b6040516100d891906108c0565b60405180910390f35b6100f46100ef3660046106fb565b6101c1565b6040516100d891906108e3565b61011461010f36600461069f565b61026e565b6040516100d89291906108cb565b61012a61028a565b6040516100d89190610886565b61014a6101453660046107a8565b61029e565b005b61015f61015a366004610820565b6103b9565b6040516100d89190610a0b565b61014a61017a3660046106b7565b610415565b6100cb61018d366004610667565b6105f7565b6100cb6101a0366004610667565b610605565b6100cb6101b33660046107ff565b61064a565b60005460ff1681565b60008281526001602081815260408084208151808301909252805482529092015460e01b6001600160e01b03191690820181905261021a5760405162461bcd60e51b8152600401610211906109d4565b60405180910390fd5b8260405160200161022b919061084d565b604051602081830303815290604052805190602001208160000151146102635760405162461bcd60e51b81526004016102119061099d565b602001519392505050565b6001602081905260009182526040909120805491015460e01b82565b60005461010090046001600160a01b031681565b60005460ff16156102c15760405162461bcd60e51b81526004016102119061092f565b6040517fa230c5240000000000000000000000000000000000000000000000000000000081526001600160a01b0383169063a230c52490610306908490600401610886565b60206040518083038186803b15801561031e57600080fd5b505afa158015610332573d6000803e3d6000fd5b505050506040513d601f19601f820116820180604052508101906103569190610683565b6103725760405162461bcd60e51b8152600401610211906108f8565b506000805460ff196001600160a01b03909316610100027fffffffffffffffffffffff0000000000000000000000000000000000000000ff90911617919091166001179055565b60008115156103c8858561064a565b15151461040b5781156103f1576103e0836002610a72565b6103ea9085610a14565b905061040e565b6103fc836002610a72565b6103ea9085610b3b565b61040e565b50825b9392505050565b600030331480610434575060005461010090046001600160a01b031633145b806104e2575060008060019054906101000a90046001600160a01b03166001600160a01b031663c19d93fb6040518163ffffffff1660e01b815260040160206040518083038186803b15801561048957600080fd5b505afa15801561049d573d6000803e3d6000fd5b505050506040513d601f19601f820116820180604052508101906104c191906107e0565b60018111156104e057634e487b7160e01b600052602160045260246000fd5b145b8061058b575060005461010090046001600160a01b0316636cfdc32e333084801561051d57634e487b7160e01b600052602160045260246000fd5b6040518463ffffffff1660e01b815260040161053b9392919061089a565b60206040518083038186803b15801561055357600080fd5b505afa158015610567573d6000803e3d6000fd5b505050506040513d601f19601f8201168201806040525081019061058b9190610683565b6105a75760405162461bcd60e51b815260040161021190610966565b506040805180820182529283526001600160e01b03199190911660208084019182526000948552600190819052919093209151825591519101805463ffffffff191660e09290921c919091179055565b6001600160a01b0316151590565b60006001600160a01b03821661dead1480159061062d57506001600160a01b03821661babe14155b801561064457506001600160a01b038216614bec14155b92915050565b600061065d600260ff841685901c610b52565b6001149392505050565b600060208284031215610678578081fd5b813561040e81610b9e565b600060208284031215610694578081fd5b815161040e81610bb6565b6000602082840312156106b0578081fd5b5035919050565b6000806000606084860312156106cb578182fd5b833592506020840135915060408401356001600160e01b0319811681146106f0578182fd5b809150509250925092565b6000806040838503121561070d578182fd5b8235915060208084013567ffffffffffffffff8082111561072c578384fd5b818601915086601f83011261073f578384fd5b81358181111561075157610751610b88565b604051601f8201601f191681018501838111828210171561077457610774610b88565b604052818152838201850189101561078a578586fd5b81858501868301378585838301015280955050505050509250929050565b600080604083850312156107ba578182fd5b82356107c581610b9e565b915060208301356107d581610b9e565b809150509250929050565b6000602082840312156107f1578081fd5b81516002811061040e578182fd5b60008060408385031215610811578182fd5b50508035926020909101359150565b600080600060608486031215610834578283fd5b833592506020840135915060408401356106f081610bb6565b60008251815b8181101561086d5760208186018101518583015201610853565b8181111561087b5782828501525b509190910192915050565b6001600160a01b0391909116815260200190565b6001600160a01b03938416815291909216602082015260ff909116604082015260600190565b901515815260200190565b9182526001600160e01b031916602082015260400190565b6001600160e01b031991909116815260200190565b60208082526013908201527f657263313237313a3a6e6f74206d656d62657200000000000000000000000000604082015260600190565b6020808252601c908201527f657263313237313a3a616c726561647920696e697469616c697a656400000000604082015260600190565b60208082526015908201527f657263313237313a3a61636365737344656e6965640000000000000000000000604082015260600190565b6020808252601f908201527f657263313237313a3a696e76616c6964207369676e6174757265206861736800604082015260600190565b6020808252601a908201527f657263313237313a3a696e76616c6964207369676e6174757265000000000000604082015260600190565b90815260200190565b60008219821115610a2757610a27610b72565b500190565b80825b6001808611610a3e5750610a69565b818704821115610a5057610a50610b72565b80861615610a5d57918102915b9490941c938002610a2f565b94509492505050565b600061040e6000198484600082610a8b5750600161040e565b81610a985750600061040e565b8160018114610aae5760028114610ab857610ae5565b600191505061040e565b60ff841115610ac957610ac9610b72565b6001841b915084821115610adf57610adf610b72565b5061040e565b5060208310610133831016604e8410600b8410161715610b13575081810a8381111561040657610406610b72565b610b208484846001610a2c565b808604821115610b3257610b32610b72565b02949350505050565b600082821015610b4d57610b4d610b72565b500390565b600082610b6d57634e487b7160e01b81526012600452602481fd5b500690565b634e487b7160e01b600052601160045260246000fd5b634e487b7160e01b600052604160045260246000fd5b6001600160a01b0381168114610bb357600080fd5b50565b8015158114610bb357600080fdfea2646970667358221220e54ed0dac56af548db11bb635ecc1255c9f8709bc43135c79fa778c7ad17a01764736f6c63430008000033",
  "linkReferences": {},
  "deployedLinkReferences": {}
}