{
  "_format": "hh-sol-artifact-1",
  "contractName": "ERC20MinterContract",
  "sourceName": "build/sources/test/ERC20Minter.sol",
  "abi": [
    {
      "anonymous": false,
      "inputs": [
        {
          "indexed": false,
          "internalType": "address",
          "name": "owner",
          "type": "address"
        },
        {
          "indexed": false,
          "internalType": "address",
          "name": "token",
          "type": "address"
        },
        {
          "indexed": false,
          "internalType": "uint256",
          "name": "amount",
          "type": "uint256"
        }
      ],
      "name": "Minted",
      "type": "event"
    },
    {
      "inputs": [
        {
          "internalType": "contract DaoRegistry",
          "name": "dao",
          "type": "address"
        },
        {
          "internalType": "address",
          "name": "token",
          "type": "address"
        },
        {
          "internalType": "uint256",
          "name": "amount",
          "type": "uint256"
        }
      ],
      "name": "execute",
      "outputs": [],
      "stateMutability": "nonpayable",
      "type": "function"
    },
    {
      "inputs": [
        {
          "internalType": "uint256",
          "name": "flags",
          "type": "uint256"
        },
        {
          "internalType": "uint256",
          "name": "flag",
          "type": "uint256"
        }
      ],
      "name": "getFlag",
      "outputs": [
        {
          "internalType": "bool",
          "name": "",
          "type": "bool"
        }
      ],
      "stateMutability": "pure",
      "type": "function"
    },
    {
      "inputs": [
        {
          "internalType": "address",
          "name": "addr",
          "type": "address"
        }
      ],
      "name": "isNotReservedAddress",
      "outputs": [
        {
          "internalType": "bool",
          "name": "",
          "type": "bool"
        }
      ],
      "stateMutability": "pure",
      "type": "function"
    },
    {
      "inputs": [
        {
          "internalType": "address",
          "name": "addr",
          "type": "address"
        }
      ],
      "name": "isNotZeroAddress",
      "outputs": [
        {
          "internalType": "bool",
          "name": "",
          "type": "bool"
        }
      ],
      "stateMutability": "pure",
      "type": "function"
    },
    {
      "inputs": [
        {
          "internalType": "contract DaoRegistry",
          "name": "dao",
          "type": "address"
        },
        {
          "internalType": "address",
          "name": "token",
          "type": "address"
        },
        {
          "internalType": "uint256",
          "name": "amount",
          "type": "uint256"
        }
      ],
      "name": "mint",
      "outputs": [],
      "stateMutability": "nonpayable",
      "type": "function"
    },
    {
      "inputs": [
        {
          "internalType": "uint256",
          "name": "flags",
          "type": "uint256"
        },
        {
          "internalType": "uint256",
          "name": "flag",
          "type": "uint256"
        },
        {
          "internalType": "bool",
          "name": "value",
          "type": "bool"
        }
      ],
      "name": "setFlag",
      "outputs": [
        {
          "internalType": "uint256",
          "name": "",
          "type": "uint256"
        }
      ],
      "stateMutability": "pure",
      "type": "function"
    },
    {
      "stateMutability": "payable",
      "type": "receive"
    }
  ],
  "bytecode": "0x608060405234801561001057600080fd5b506109d0806100206000396000f3fe6080604052600436106100695760003560e01c8063eafaddfd11610043578063eafaddfd14610119578063ef6a249914610139578063fc258031146101595761008f565b8063b244a41d14610094578063c6c3bbe6146100ca578063ca0f4633146100ec5761008f565b3661008f5760405162461bcd60e51b8152600401610086906107d7565b60405180910390fd5b600080fd5b3480156100a057600080fd5b506100b46100af3660046106f5565b610179565b6040516100c19190610760565b60405180910390f35b3480156100d657600080fd5b506100ea6100e536600461067c565b6101d5565b005b3480156100f857600080fd5b5061010c610107366004610644565b61035d565b6040516100c19190610755565b34801561012557600080fd5b506100ea61013436600461067c565b61036b565b34801561014557600080fd5b5061010c610154366004610644565b6105e2565b34801561016557600080fd5b5061010c6101743660046106d4565b610627565b60008115156101888585610627565b1515146101cb5781156101b1576101a083600261086c565b6101aa908561080e565b90506101ce565b6101bc83600261086c565b6101aa9085610935565b6101ce565b50825b9392505050565b826000816001600160a01b031663593e96b67f0a6340841997155e4545ea64344191824abf8b42ca0c889bb376e9a09b1c4c796040518263ffffffff1660e01b81526004016102249190610760565b60206040518083038186803b15801561023c57600080fd5b505afa158015610250573d6000803e3d6000fd5b505050506040513d601f19601f820116820180604052508101906102749190610660565b9050306001600160a01b0382161461029e5760405162461bcd60e51b8152600401610086906107a0565b6040517fa0712d68000000000000000000000000000000000000000000000000000000008152339085906001600160a01b0382169063a0712d68906102e7908890600401610760565b600060405180830381600087803b15801561030157600080fd5b505af1158015610315573d6000803e3d6000fd5b505050507f9d228d69b5fdb8d273a2336f8fb8612d039631024ea9bf09c424a9503aa078f082878760405161034c93929190610731565b60405180910390a150505050505050565b6001600160a01b0316151590565b8243816001600160a01b031663b21634826040518163ffffffff1660e01b815260040160206040518083038186803b1580156103a657600080fd5b505afa1580156103ba573d6000803e3d6000fd5b505050506040513d601f19601f820116820180604052508101906103de91906106bc565b14156103fc5760405162461bcd60e51b815260040161008690610769565b806001600160a01b03166310fdb0a26040518163ffffffff1660e01b8152600401600060405180830381600087803b15801561043757600080fd5b505af115801561044b573d6000803e3d6000fd5b50506040517f593e96b6000000000000000000000000000000000000000000000000000000008152600092506001600160a01b038716915063593e96b6906104b7907f0a6340841997155e4545ea64344191824abf8b42ca0c889bb376e9a09b1c4c7990600401610760565b60206040518083038186803b1580156104cf57600080fd5b505afa1580156104e3573d6000803e3d6000fd5b505050506040513d601f19601f820116820180604052508101906105079190610660565b6040517fc6c3bbe600000000000000000000000000000000000000000000000000000000815290915081906001600160a01b0382169063c6c3bbe69061055590899089908990600401610731565b600060405180830381600087803b15801561056f57600080fd5b505af1158015610583573d6000803e3d6000fd5b505050505050806001600160a01b031663d4f7af436040518163ffffffff1660e01b8152600401600060405180830381600087803b1580156105c457600080fd5b505af11580156105d8573d6000803e3d6000fd5b5050505050505050565b60006001600160a01b03821661dead1480159061060a57506001600160a01b03821661babe14155b801561062157506001600160a01b038216614bec14155b92915050565b600061063a600260ff841685901c61094c565b6001149392505050565b600060208284031215610655578081fd5b81356101ce81610982565b600060208284031215610671578081fd5b81516101ce81610982565b600080600060608486031215610690578182fd5b833561069b81610982565b925060208401356106ab81610982565b929592945050506040919091013590565b6000602082840312156106cd578081fd5b5051919050565b600080604083850312156106e6578182fd5b50508035926020909101359150565b600080600060608486031215610709578283fd5b833592506020840135915060408401358015158114610726578182fd5b809150509250925092565b6001600160a01b039384168152919092166020820152604081019190915260600190565b901515815260200190565b90815260200190565b60208082526010908201527f7265656e7472616e637920677561726400000000000000000000000000000000604082015260600190565b6020808252601d908201527f6f6e6c792063616c6c61626c6520627920746865206578656375746f72000000604082015260600190565b6020808252600f908201527f66616c6c6261636b207265766572740000000000000000000000000000000000604082015260600190565b600082198211156108215761082161096c565b500190565b80825b60018086116108385750610863565b81870482111561084a5761084a61096c565b8086161561085757918102915b9490941c938002610829565b94509492505050565b60006101ce6000198484600082610885575060016101ce565b81610892575060006101ce565b81600181146108a857600281146108b2576108df565b60019150506101ce565b60ff8411156108c3576108c361096c565b6001841b9150848211156108d9576108d961096c565b506101ce565b5060208310610133831016604e8410600b841016171561090d575081810a838111156101c6576101c661096c565b61091a8484846001610826565b80860482111561092c5761092c61096c565b02949350505050565b6000828210156109475761094761096c565b500390565b60008261096757634e487b7160e01b81526012600452602481fd5b500690565b634e487b7160e01b600052601160045260246000fd5b6001600160a01b038116811461099757600080fd5b5056fea264697066735822122098a46194c3d0e0a486b0c8fcab9c34fb623ae85841ff9e610cfd94b2c5e3069f64736f6c63430008000033",
  "linkReferences": {},
  "deployedLinkReferences": {}
}