{
  "_format": "hh-sol-artifact-1",
  "contractName": "ERC20Extension",
  "sourceName": "build/sources/extensions/token/erc20/ERC20TokenExtension.sol",
  "abi": [
    {
      "inputs": [],
      "stateMutability": "nonpayable",
      "type": "constructor"
    },
    {
      "anonymous": false,
      "inputs": [
        {
          "indexed": true,
          "internalType": "address",
          "name": "owner",
          "type": "address"
        },
        {
          "indexed": true,
          "internalType": "address",
          "name": "spender",
          "type": "address"
        },
        {
          "indexed": false,
          "internalType": "uint256",
          "name": "value",
          "type": "uint256"
        }
      ],
      "name": "Approval",
      "type": "event"
    },
    {
      "anonymous": false,
      "inputs": [
        {
          "indexed": true,
          "internalType": "address",
          "name": "from",
          "type": "address"
        },
        {
          "indexed": true,
          "internalType": "address",
          "name": "to",
          "type": "address"
        },
        {
          "indexed": false,
          "internalType": "uint256",
          "name": "value",
          "type": "uint256"
        }
      ],
      "name": "Transfer",
      "type": "event"
    },
    {
      "inputs": [],
      "name": "ERC20_EXT_TRANSFER_TYPE",
      "outputs": [
        {
          "internalType": "bytes32",
          "name": "",
          "type": "bytes32"
        }
      ],
      "stateMutability": "view",
      "type": "function"
    },
    {
      "inputs": [
        {
          "internalType": "address",
          "name": "owner",
          "type": "address"
        },
        {
          "internalType": "address",
          "name": "spender",
          "type": "address"
        }
      ],
      "name": "allowance",
      "outputs": [
        {
          "internalType": "uint256",
          "name": "",
          "type": "uint256"
        }
      ],
      "stateMutability": "view",
      "type": "function"
    },
    {
      "inputs": [
        {
          "internalType": "address",
          "name": "spender",
          "type": "address"
        },
        {
          "internalType": "uint256",
          "name": "amount",
          "type": "uint256"
        }
      ],
      "name": "approve",
      "outputs": [
        {
          "internalType": "bool",
          "name": "",
          "type": "bool"
        }
      ],
      "stateMutability": "nonpayable",
      "type": "function"
    },
    {
      "inputs": [
        {
          "internalType": "address",
          "name": "account",
          "type": "address"
        }
      ],
      "name": "balanceOf",
      "outputs": [
        {
          "internalType": "uint256",
          "name": "",
          "type": "uint256"
        }
      ],
      "stateMutability": "view",
      "type": "function"
    },
    {
      "inputs": [],
      "name": "dao",
      "outputs": [
        {
          "internalType": "contract DaoRegistry",
          "name": "",
          "type": "address"
        }
      ],
      "stateMutability": "view",
      "type": "function"
    },
    {
      "inputs": [],
      "name": "decimals",
      "outputs": [
        {
          "internalType": "uint8",
          "name": "",
          "type": "uint8"
        }
      ],
      "stateMutability": "view",
      "type": "function"
    },
    {
      "inputs": [
        {
          "internalType": "uint256",
          "name": "flags",
          "type": "uint256"
        },
        {
          "internalType": "uint256",
          "name": "flag",
          "type": "uint256"
        }
      ],
      "name": "getFlag",
      "outputs": [
        {
          "internalType": "bool",
          "name": "",
          "type": "bool"
        }
      ],
      "stateMutability": "pure",
      "type": "function"
    },
    {
      "inputs": [
        {
          "internalType": "contract DaoRegistry",
          "name": "_dao",
          "type": "address"
        },
        {
          "internalType": "address",
          "name": "creator",
          "type": "address"
        }
      ],
      "name": "initialize",
      "outputs": [],
      "stateMutability": "nonpayable",
      "type": "function"
    },
    {
      "inputs": [],
      "name": "initialized",
      "outputs": [
        {
          "internalType": "bool",
          "name": "",
          "type": "bool"
        }
      ],
      "stateMutability": "view",
      "type": "function"
    },
    {
      "inputs": [
        {
          "internalType": "address",
          "name": "addr",
          "type": "address"
        }
      ],
      "name": "isNotReservedAddress",
      "outputs": [
        {
          "internalType": "bool",
          "name": "",
          "type": "bool"
        }
      ],
      "stateMutability": "pure",
      "type": "function"
    },
    {
      "inputs": [
        {
          "internalType": "address",
          "name": "addr",
          "type": "address"
        }
      ],
      "name": "isNotZeroAddress",
      "outputs": [
        {
          "internalType": "bool",
          "name": "",
          "type": "bool"
        }
      ],
      "stateMutability": "pure",
      "type": "function"
    },
    {
      "inputs": [],
      "name": "name",
      "outputs": [
        {
          "internalType": "string",
          "name": "",
          "type": "string"
        }
      ],
      "stateMutability": "view",
      "type": "function"
    },
    {
      "inputs": [
        {
          "internalType": "address",
          "name": "memberAddress",
          "type": "address"
        },
        {
          "internalType": "contract DaoRegistry",
          "name": "dao",
          "type": "address"
        },
        {
          "internalType": "contract BankExtension",
          "name": "bank",
          "type": "address"
        }
      ],
      "name": "potentialNewMember",
      "outputs": [],
      "stateMutability": "nonpayable",
      "type": "function"
    },
    {
      "inputs": [
        {
          "internalType": "uint8",
          "name": "_decimals",
          "type": "uint8"
        }
      ],
      "name": "setDecimals",
      "outputs": [],
      "stateMutability": "nonpayable",
      "type": "function"
    },
    {
      "inputs": [
        {
          "internalType": "uint256",
          "name": "flags",
          "type": "uint256"
        },
        {
          "internalType": "uint256",
          "name": "flag",
          "type": "uint256"
        },
        {
          "internalType": "bool",
          "name": "value",
          "type": "bool"
        }
      ],
      "name": "setFlag",
      "outputs": [
        {
          "internalType": "uint256",
          "name": "",
          "type": "uint256"
        }
      ],
      "stateMutability": "pure",
      "type": "function"
    },
    {
      "inputs": [
        {
          "internalType": "string",
          "name": "_name",
          "type": "string"
        }
      ],
      "name": "setName",
      "outputs": [],
      "stateMutability": "nonpayable",
      "type": "function"
    },
    {
      "inputs": [
        {
          "internalType": "string",
          "name": "_symbol",
          "type": "string"
        }
      ],
      "name": "setSymbol",
      "outputs": [],
      "stateMutability": "nonpayable",
      "type": "function"
    },
    {
      "inputs": [
        {
          "internalType": "address",
          "name": "_tokenAddress",
          "type": "address"
        }
      ],
      "name": "setToken",
      "outputs": [],
      "stateMutability": "nonpayable",
      "type": "function"
    },
    {
      "inputs": [],
      "name": "symbol",
      "outputs": [
        {
          "internalType": "string",
          "name": "",
          "type": "string"
        }
      ],
      "stateMutability": "view",
      "type": "function"
    },
    {
      "inputs": [],
      "name": "token",
      "outputs": [
        {
          "internalType": "address",
          "name": "",
          "type": "address"
        }
      ],
      "stateMutability": "view",
      "type": "function"
    },
    {
      "inputs": [],
      "name": "tokenAddress",
      "outputs": [
        {
          "internalType": "address",
          "name": "",
          "type": "address"
        }
      ],
      "stateMutability": "view",
      "type": "function"
    },
    {
      "inputs": [],
      "name": "tokenDecimals",
      "outputs": [
        {
          "internalType": "uint8",
          "name": "",
          "type": "uint8"
        }
      ],
      "stateMutability": "view",
      "type": "function"
    },
    {
      "inputs": [],
      "name": "tokenName",
      "outputs": [
        {
          "internalType": "string",
          "name": "",
          "type": "string"
        }
      ],
      "stateMutability": "view",
      "type": "function"
    },
    {
      "inputs": [],
      "name": "tokenSymbol",
      "outputs": [
        {
          "internalType": "string",
          "name": "",
          "type": "string"
        }
      ],
      "stateMutability": "view",
      "type": "function"
    },
    {
      "inputs": [],
      "name": "totalSupply",
      "outputs": [
        {
          "internalType": "uint256",
          "name": "",
          "type": "uint256"
        }
      ],
      "stateMutability": "view",
      "type": "function"
    },
    {
      "inputs": [
        {
          "internalType": "address",
          "name": "recipient",
          "type": "address"
        },
        {
          "internalType": "uint256",
          "name": "amount",
          "type": "uint256"
        }
      ],
      "name": "transfer",
      "outputs": [
        {
          "internalType": "bool",
          "name": "",
          "type": "bool"
        }
      ],
      "stateMutability": "nonpayable",
      "type": "function"
    },
    {
      "inputs": [
        {
          "internalType": "address",
          "name": "sender",
          "type": "address"
        },
        {
          "internalType": "address",
          "name": "recipient",
          "type": "address"
        },
        {
          "internalType": "uint256",
          "name": "amount",
          "type": "uint256"
        }
      ],
      "name": "transferFrom",
      "outputs": [
        {
          "internalType": "bool",
          "name": "",
          "type": "bool"
        }
      ],
      "stateMutability": "nonpayable",
      "type": "function"
    }
  ],
  "bytecode": "0x60806040526000805460ff60a01b1916905534801561001d57600080fd5b506129ce8061002d6000396000f3fe608060405234801561001057600080fd5b50600436106101b95760003560e01c80637b61c320116100f9578063b84c824611610097578063dd62ed3e11610071578063dd62ed3e14610346578063ef6a249914610359578063fc0c546a1461036c578063fc25803114610374576101b9565b8063b84c82461461030d578063c47f002714610320578063ca0f463314610333576101b9565b80639d76ea58116100d35780639d76ea58146102d7578063a6d4902a146102df578063a9059cbb146102e7578063b244a41d146102fa576101b9565b80637b61c320146102b457806386c17fd5146102bc57806395d89b41146102cf576101b9565b8063313ce56711610166578063485cc95511610140578063485cc955146102735780636c02a9311461028657806370a082311461028e5780637a1395aa146102a1576101b9565b8063313ce567146102415780633b97e856146102565780634162169f1461025e576101b9565b8063158ef93e11610197578063158ef93e1461021157806318160ddd1461021957806323b872dd1461022e576101b9565b806306fdde03146101be578063095ea7b3146101dc578063144fa6d7146101fc575b600080fd5b6101c6610387565b6040516101d391906121aa565b60405180910390f35b6101ef6101ea366004611f99565b610419565b6040516101d39190612196565b61020f61020a366004611e9f565b61076d565b005b6101ef610811565b610221610821565b6040516101d391906121a1565b6101ef61023c366004611f0f565b610959565b610249611064565b6040516101d3919061279f565b61024961106d565b610266611076565b6040516101d3919061211a565b61020f610281366004611fe0565b611085565b6101c6611223565b61022161029c366004611e9f565b6112b1565b61020f6102af3660046120f9565b6113e8565b6101c6611428565b61020f6102ca366004611f4f565b611435565b6101c66115f6565b610266611605565b610221611614565b6101ef6102f5366004611f99565b611638565b6102216103083660046120cc565b611c82565b61020f61031b366004611ff2565b611cde565b61020f61032e366004611ff2565b611d1f565b6101ef610341366004611e9f565b611d5c565b610221610354366004611ed7565b611d6a565b6101ef610367366004611e9f565b611d95565b610266611dda565b6101ef6103823660046120ab565b611de9565b606060028054610396906128eb565b80601f01602080910402602001604051908101604052809291908181526020018280546103c2906128eb565b801561040f5780601f106103e45761010080835404028352916020019161040f565b820191906000526020600020905b8154815290600101906020018083116103f257829003601f168201915b5050505050905090565b60008060009054906101000a90046001600160a01b031643816001600160a01b031663b21634826040518163ffffffff1660e01b815260040160206040518083038186803b15801561046a57600080fd5b505afa15801561047e573d6000803e3d6000fd5b505050506040513d601f19601f820116820180604052508101906104a29190612093565b14156104c95760405162461bcd60e51b81526004016104c090612416565b60405180910390fd5b806001600160a01b03166310fdb0a26040518163ffffffff1660e01b8152600401600060405180830381600087803b15801561050457600080fd5b505af1158015610518573d6000803e3d6000fd5b50506000805460405163644ddc5d60e11b81529193506001600160a01b0316915063c89bb8ba9061054d90339060040161211a565b60206040518083038186803b15801561056557600080fd5b505afa158015610579573d6000803e3d6000fd5b505050506040513d601f19601f8201168201806040525081019061059d9190611ebb565b90506105a881611d5c565b6105c45760405162461bcd60e51b81526004016104c090612640565b6105cd85611d5c565b6105e95760405162461bcd60e51b81526004016104c0906122ee565b60005460405163288c314960e21b81526001600160a01b039091169063a230c5249061061990849060040161211a565b60206040518083038186803b15801561063157600080fd5b505afa158015610645573d6000803e3d6000fd5b505050506040513d601f19601f820116820180604052508101906106699190611fc4565b6106855760405162461bcd60e51b81526004016104c09061234b565b61068e85611d95565b6106aa5760405162461bcd60e51b81526004016104c090612382565b6001600160a01b038082166000818152600560209081526040808320948a168084529490915290819020879055517f8c5be1e5ebec7d5bd14f71427d1e84f3dd0314c0f7b2291e5b200ac8c7c3b925906107059088906121a1565b60405180910390a360019250505b806001600160a01b031663d4f7af436040518163ffffffff1660e01b8152600401600060405180830381600087803b15801561074e57600080fd5b505af1158015610762573d6000803e3d6000fd5b505050505092915050565b600054600160a01b900460ff16156107975760405162461bcd60e51b81526004016104c0906124aa565b6001600160a01b0381166107bd5760405162461bcd60e51b81526004016104c0906122b7565b6107c681611d95565b6107e25760405162461bcd60e51b81526004016104c090612731565b6001805473ffffffffffffffffffffffffffffffffffffffff19166001600160a01b0392909216919091179055565b600054600160a01b900460ff1681565b60008054604051632c9f4b5b60e11b815282916001600160a01b03169063593e96b690610872907fea0ca03c7adbe41dc655fec28a9209dc8e6e042f3d991a67765ba285b9cf73a0906004016121a1565b60206040518083038186803b15801561088a57600080fd5b505afa15801561089e573d6000803e3d6000fd5b505050506040513d601f19601f820116820180604052508101906108c29190611ebb565b600154604051633de222bb60e21b81529192506001600160a01b038084169263f7888aec926108fa9261babe9291169060040161212e565b60206040518083038186803b15801561091257600080fd5b505afa158015610926573d6000803e3d6000fd5b505050506040513d601f19601f8201168201806040525081019061094a9190611ebb565b6001600160a01b031691505090565b60008060009054906101000a90046001600160a01b031643816001600160a01b031663b21634826040518163ffffffff1660e01b815260040160206040518083038186803b1580156109aa57600080fd5b505afa1580156109be573d6000803e3d6000fd5b505050506040513d601f19601f820116820180604052508101906109e29190612093565b1415610a005760405162461bcd60e51b81526004016104c090612416565b806001600160a01b03166310fdb0a26040518163ffffffff1660e01b8152600401600060405180830381600087803b158015610a3b57600080fd5b505af1158015610a4f573d6000803e3d6000fd5b50505050610a5c84611d5c565b610a785760405162461bcd60e51b81526004016104c09061225a565b6000805460405163644ddc5d60e11b81526001600160a01b039091169063c89bb8ba90610aa990899060040161211a565b60206040518083038186803b158015610ac157600080fd5b505afa158015610ad5573d6000803e3d6000fd5b505050506040513d601f19601f82011682018060405250810190610af99190611ebb565b6001600160a01b038116600090815260056020908152604080832033845290915290205490915084811015610b405760405162461bcd60e51b81526004016104c090612575565b60008054604051632c9f4b5b60e11b81526001600160a01b039091169063593e96b690610b91907fea0ca03c7adbe41dc655fec28a9209dc8e6e042f3d991a67765ba285b9cf73a0906004016121a1565b60206040518083038186803b158015610ba957600080fd5b505afa158015610bbd573d6000803e3d6000fd5b505050506040513d601f19601f82011682018060405250810190610be19190611ebb565b600154604051633de222bb60e21b815291925087916001600160a01b038085169263f7888aec92610c18928992169060040161212e565b60206040518083038186803b158015610c3057600080fd5b505afa158015610c44573d6000803e3d6000fd5b505050506040513d601f19601f82011682018060405250810190610c689190611ebb565b6001600160a01b031610158015610c7f5750600086115b610c9b5760405162461bcd60e51b81526004016104c09061244d565b60008054604051634941d71d60e11b81526001600160a01b0390911690639283ae3a90610cec907f6edf525cfd21fed34bb1b95c577788011ac3dcc63d978039512c86faf967af15906004016121a1565b60206040518083038186803b158015610d0457600080fd5b505afa158015610d18573d6000803e3d6000fd5b505050506040513d601f19601f82011682018060405250810190610d3c9190612093565b905080610eca5760005460405163288c314960e21b81526001600160a01b039091169063a230c52490610d73908b9060040161211a565b60206040518083038186803b158015610d8b57600080fd5b505afa158015610d9f573d6000803e3d6000fd5b505050506040513d601f19601f82011682018060405250810190610dc39190611fc4565b610ddf5760405162461bcd60e51b81526004016104c090612609565b610de987846128d4565b6001600160a01b038086166000908152600560209081526040808320338452909152908190209290925560015491516322514f1560e11b8152848216926344a29e2a92610e409289928e9216908d90600401612148565b600060405180830381600087803b158015610e5a57600080fd5b505af1158015610e6e573d6000803e3d6000fd5b50505050876001600160a01b0316846001600160a01b03167fddf252ad1be2c89b69c2b068fc378daa952ba7f163c4a11628f55a4df523b3ef89604051610eb591906121a1565b60405180910390a36001955050505050611009565b8060011415610fea57610edd87846128d4565b6001600160a01b0385166000908152600560209081526040808320338452909152902055610f0a88611d95565b610f265760405162461bcd60e51b81526004016104c09061269d565b6001546040516322514f1560e11b81526001600160a01b03808516926344a29e2a92610f5d9289928e929116908d90600401612148565b600060405180830381600087803b158015610f7757600080fd5b505af1158015610f8b573d6000803e3d6000fd5b5050600054610fa792508a91506001600160a01b031684611435565b876001600160a01b0316846001600160a01b03167fddf252ad1be2c89b69c2b068fc378daa952ba7f163c4a11628f55a4df523b3ef89604051610eb591906121a1565b8060021415611000576000955050505050611009565b60009550505050505b806001600160a01b031663d4f7af436040518163ffffffff1660e01b8152600401600060405180830381600087803b15801561104457600080fd5b505af1158015611058573d6000803e3d6000fd5b50505050509392505050565b60045460ff1690565b60045460ff1681565b6000546001600160a01b031681565b600054600160a01b900460ff16156110af5760405162461bcd60e51b81526004016104c0906124aa565b60405163288c314960e21b81526001600160a01b0383169063a230c524906110db90849060040161211a565b60206040518083038186803b1580156110f357600080fd5b505afa158015611107573d6000803e3d6000fd5b505050506040513d601f19601f8201168201806040525081019061112b9190611fc4565b6111475760405162461bcd60e51b81526004016104c0906124e1565b6001546001600160a01b031661116f5760405162461bcd60e51b81526004016104c090612768565b6002805461117c906128eb565b1515905061119c5760405162461bcd60e51b81526004016104c0906126fa565b600380546111a9906128eb565b151590506111c95760405162461bcd60e51b81526004016104c0906125d2565b5060008054600160a01b7fffffffffffffffffffffff00ffffffffffffffffffffffffffffffffffffffff9091161773ffffffffffffffffffffffffffffffffffffffff19166001600160a01b0392909216919091179055565b60028054611230906128eb565b80601f016020809104026020016040519081016040528092919081815260200182805461125c906128eb565b80156112a95780601f1061127e576101008083540402835291602001916112a9565b820191906000526020600020905b81548152906001019060200180831161128c57829003601f168201915b505050505081565b60008054604051632c9f4b5b60e11b815282916001600160a01b03169063593e96b690611302907fea0ca03c7adbe41dc655fec28a9209dc8e6e042f3d991a67765ba285b9cf73a0906004016121a1565b60206040518083038186803b15801561131a57600080fd5b505afa15801561132e573d6000803e3d6000fd5b505050506040513d601f19601f820116820180604052508101906113529190611ebb565b600154604051633de222bb60e21b81529192506001600160a01b038084169263f7888aec9261138892889291169060040161212e565b60206040518083038186803b1580156113a057600080fd5b505afa1580156113b4573d6000803e3d6000fd5b505050506040513d601f19601f820116820180604052508101906113d89190611ebb565b6001600160a01b03169392505050565b600054600160a01b900460ff16156114125760405162461bcd60e51b81526004016104c0906124aa565b6004805460ff191660ff92909216919091179055565b60038054611230906128eb565b6040517fdc929f4a0000000000000000000000000000000000000000000000000000000081526001600160a01b0383169063dc929f4a9061147a90869060040161211a565b600060405180830381600087803b15801561149457600080fd5b505af11580156114a8573d6000803e3d6000fd5b505050506001600160a01b0383166114d25760405162461bcd60e51b81526004016104c0906123df565b6001600160a01b038116156115f157604051633de222bb60e21b81526001600160a01b0382169063f7888aec9061151390869063decafbad9060040161212e565b60206040518083038186803b15801561152b57600080fd5b505afa15801561153f573d6000803e3d6000fd5b505050506040513d601f19601f820116820180604052508101906115639190611ebb565b6001600160a01b03166115f1576040517fc57d5fe90000000000000000000000000000000000000000000000000000000081526001600160a01b0382169063c57d5fe9906115be90869063decafbad90600190600401612172565b600060405180830381600087803b1580156115d857600080fd5b505af11580156115ec573d6000803e3d6000fd5b505050505b505050565b606060038054610396906128eb565b6001546001600160a01b031681565b7f6edf525cfd21fed34bb1b95c577788011ac3dcc63d978039512c86faf967af1581565b60008060009054906101000a90046001600160a01b031643816001600160a01b031663b21634826040518163ffffffff1660e01b815260040160206040518083038186803b15801561168957600080fd5b505afa15801561169d573d6000803e3d6000fd5b505050506040513d601f19601f820116820180604052508101906116c19190612093565b14156116df5760405162461bcd60e51b81526004016104c090612416565b806001600160a01b03166310fdb0a26040518163ffffffff1660e01b8152600401600060405180830381600087803b15801561171a57600080fd5b505af115801561172e573d6000803e3d6000fd5b50506000805460405163644ddc5d60e11b81529193506001600160a01b0316915063c89bb8ba9061176390339060040161211a565b60206040518083038186803b15801561177b57600080fd5b505afa15801561178f573d6000803e3d6000fd5b505050506040513d601f19601f820116820180604052508101906117b39190611ebb565b90506117be85611d5c565b6117da5760405162461bcd60e51b81526004016104c0906121fd565b60008054604051632c9f4b5b60e11b81526001600160a01b039091169063593e96b69061182b907fea0ca03c7adbe41dc655fec28a9209dc8e6e042f3d991a67765ba285b9cf73a0906004016121a1565b60206040518083038186803b15801561184357600080fd5b505afa158015611857573d6000803e3d6000fd5b505050506040513d601f19601f8201168201806040525081019061187b9190611ebb565b600154604051633de222bb60e21b815291925086916001600160a01b038085169263f7888aec926118b2928892169060040161212e565b60206040518083038186803b1580156118ca57600080fd5b505afa1580156118de573d6000803e3d6000fd5b505050506040513d601f19601f820116820180604052508101906119029190611ebb565b6001600160a01b0316101580156119195750600085115b6119355760405162461bcd60e51b81526004016104c090612518565b60008054604051634941d71d60e11b81526001600160a01b0390911690639283ae3a90611986907f6edf525cfd21fed34bb1b95c577788011ac3dcc63d978039512c86faf967af15906004016121a1565b60206040518083038186803b15801561199e57600080fd5b505afa1580156119b2573d6000803e3d6000fd5b505050506040513d601f19601f820116820180604052508101906119d69190612093565b905080611b395760005460405163288c314960e21b81526001600160a01b039091169063a230c52490611a0d908a9060040161211a565b60206040518083038186803b158015611a2557600080fd5b505afa158015611a39573d6000803e3d6000fd5b505050506040513d601f19601f82011682018060405250810190611a5d9190611fc4565b611a795760405162461bcd60e51b81526004016104c090612609565b6001546040516322514f1560e11b81526001600160a01b03808516926344a29e2a92611ab09288928d929116908c90600401612148565b600060405180830381600087803b158015611aca57600080fd5b505af1158015611ade573d6000803e3d6000fd5b50505050866001600160a01b0316836001600160a01b03167fddf252ad1be2c89b69c2b068fc378daa952ba7f163c4a11628f55a4df523b3ef88604051611b2591906121a1565b60405180910390a360019450505050610713565b8060011415611c2b57611b4b87611d95565b611b675760405162461bcd60e51b81526004016104c09061269d565b6001546040516322514f1560e11b81526001600160a01b03808516926344a29e2a92611b9e9288928d929116908c90600401612148565b600060405180830381600087803b158015611bb857600080fd5b505af1158015611bcc573d6000803e3d6000fd5b5050600054611be892508991506001600160a01b031684611435565b866001600160a01b0316836001600160a01b03167fddf252ad1be2c89b69c2b068fc378daa952ba7f163c4a11628f55a4df523b3ef88604051611b2591906121a1565b8060021415611c405760009450505050610713565b60009450505050806001600160a01b031663d4f7af436040518163ffffffff1660e01b8152600401600060405180830381600087803b15801561074e57600080fd5b6000811515611c918585611de9565b151514611cd4578115611cba57611ca983600261280b565b611cb390856127ad565b9050611cd7565b611cc583600261280b565b611cb390856128d4565b611cd7565b50825b9392505050565b600054600160a01b900460ff1615611d085760405162461bcd60e51b81526004016104c0906124aa565b8051611d1b906003906020840190611e06565b5050565b600054600160a01b900460ff1615611d495760405162461bcd60e51b81526004016104c0906124aa565b8051611d1b906002906020840190611e06565b6001600160a01b0316151590565b6001600160a01b03918216600090815260056020908152604080832093909416825291909152205490565b60006001600160a01b03821661dead14801590611dbd57506001600160a01b03821661babe14155b8015611dd457506001600160a01b038216614bec14155b92915050565b6001546001600160a01b031690565b6000611dfc600260ff841685901c612926565b6001149392505050565b828054611e12906128eb565b90600052602060002090601f016020900481019282611e345760008555611e7a565b82601f10611e4d57805160ff1916838001178555611e7a565b82800160010185558215611e7a579182015b82811115611e7a578251825591602001919060010190611e5f565b50611e86929150611e8a565b5090565b5b80821115611e865760008155600101611e8b565b600060208284031215611eb0578081fd5b8135611cd781612972565b600060208284031215611ecc578081fd5b8151611cd781612972565b60008060408385031215611ee9578081fd5b8235611ef481612972565b91506020830135611f0481612972565b809150509250929050565b600080600060608486031215611f23578081fd5b8335611f2e81612972565b92506020840135611f3e81612972565b929592945050506040919091013590565b600080600060608486031215611f63578283fd5b8335611f6e81612972565b92506020840135611f7e81612972565b91506040840135611f8e81612972565b809150509250925092565b60008060408385031215611fab578182fd5b8235611fb681612972565b946020939093013593505050565b600060208284031215611fd5578081fd5b8151611cd78161298a565b60008060408385031215611ee9578182fd5b60006020808385031215612004578182fd5b823567ffffffffffffffff8082111561201b578384fd5b818501915085601f83011261202e578384fd5b8135818111156120405761204061295c565b604051601f8201601f19168101850183811182821017156120635761206361295c565b6040528181528382018501881015612079578586fd5b818585018683013790810190930193909352509392505050565b6000602082840312156120a4578081fd5b5051919050565b600080604083850312156120bd578182fd5b50508035926020909101359150565b6000806000606084860312156120e0578283fd5b83359250602084013591506040840135611f8e8161298a565b60006020828403121561210a578081fd5b813560ff81168114611cd7578182fd5b6001600160a01b0391909116815260200190565b6001600160a01b0392831681529116602082015260400190565b6001600160a01b039485168152928416602084015292166040820152606081019190915260800190565b6001600160a01b039384168152919092166020820152604081019190915260600190565b901515815260200190565b90815260200190565b6000602080835283518082850152825b818110156121d6578581018301518582016040015282016121ba565b818111156121e75783604083870101525b50601f01601f1916929092016040019392505050565b60208082526023908201527f45524332303a207472616e7366657220746f20746865207a65726f206164647260408201527f6573730000000000000000000000000000000000000000000000000000000000606082015260800190565b60208082526035908201527f45524332303a207472616e7366657246726f6d20726563697069656e7420636160408201527f6e206e6f74206265207a65726f20616464726573730000000000000000000000606082015260800190565b60208082526015908201527f696e76616c696420746f6b656e20616464726573730000000000000000000000604082015260600190565b60208082526022908201527f45524332303a20617070726f766520746f20746865207a65726f20616464726560408201527f7373000000000000000000000000000000000000000000000000000000000000606082015260800190565b60208082526016908201527f73656e646572206973206e6f742061206d656d62657200000000000000000000604082015260600190565b60208082526025908201527f7370656e6465722063616e206e6f74206265206120726573657276656420616460408201527f6472657373000000000000000000000000000000000000000000000000000000606082015260800190565b60208082526016908201527f696e76616c6964206d656d626572206164647265737300000000000000000000604082015260600190565b60208082526010908201527f7265656e7472616e637920677561726400000000000000000000000000000000604082015260600190565b6020808252602b908201527f62616e6b20646f6573206e6f74206861766520656e6f75676820756e6974732060408201527f746f207472616e73666572000000000000000000000000000000000000000000606082015260800190565b60208082526013908201527f616c726561647920696e697469616c697a656400000000000000000000000000604082015260600190565b6020808252600c908201527f6e6f742061206d656d6265720000000000000000000000000000000000000000604082015260600190565b60208082526026908201527f73656e64657220646f6573206e6f74206861766520756e69747320746f20747260408201527f616e736665720000000000000000000000000000000000000000000000000000606082015260800190565b60208082526028908201527f45524332303a207472616e7366657220616d6f756e742065786365656473206160408201527f6c6c6f77616e6365000000000000000000000000000000000000000000000000606082015260800190565b60208082526014908201527f6d697373696e6720746f6b656e2073796d626f6c000000000000000000000000604082015260600190565b60208082526019908201527f726563697069656e74206973206e6f742061206d656d62657200000000000000604082015260600190565b60208082526024908201527f45524332303a20617070726f76652066726f6d20746865207a65726f2061646460408201527f7265737300000000000000000000000000000000000000000000000000000000606082015260800190565b60208082526025908201527f726563697069656e7420616464726573732063616e206e6f742062652072657360408201527f6572766564000000000000000000000000000000000000000000000000000000606082015260800190565b60208082526012908201527f6d697373696e6720746f6b656e206e616d650000000000000000000000000000604082015260600190565b6020808252601c908201527f746f6b656e206164647265737320616c726561647920696e2075736500000000604082015260600190565b60208082526015908201527f6d697373696e6720746f6b656e20616464726573730000000000000000000000604082015260600190565b60ff91909116815260200190565b600082198211156127c0576127c0612946565b500190565b80825b60018086116127d75750612802565b8187048211156127e9576127e9612946565b808616156127f657918102915b9490941c9380026127c8565b94509492505050565b6000611cd7600019848460008261282457506001611cd7565b8161283157506000611cd7565b816001811461284757600281146128515761287e565b6001915050611cd7565b60ff84111561286257612862612946565b6001841b91508482111561287857612878612946565b50611cd7565b5060208310610133831016604e8410600b84101617156128ac575081810a83811115611ccf57611ccf612946565b6128b984848460016127c5565b8086048211156128cb576128cb612946565b02949350505050565b6000828210156128e6576128e6612946565b500390565b6002810460018216806128ff57607f821691505b6020821081141561292057634e487b7160e01b600052602260045260246000fd5b50919050565b60008261294157634e487b7160e01b81526012600452602481fd5b500690565b634e487b7160e01b600052601160045260246000fd5b634e487b7160e01b600052604160045260246000fd5b6001600160a01b038116811461298757600080fd5b50565b801515811461298757600080fdfea2646970667358221220913fcadc22be7b923c3407f8ea546bb26a86be2005793e4a7fa31515f10f24dc64736f6c63430008000033",
  "linkReferences": {},
  "deployedLinkReferences": {}
}