{
  "_format": "hh-sol-artifact-1",
  "contractName": "ERC20TokenExtensionFactory",
  "sourceName": "build/sources/extensions/token/erc20/ERC20TokenExtensionFactory.sol",
  "abi": [
    {
      "inputs": [
        {
          "internalType": "address",
          "name": "_identityAddress",
          "type": "address"
        }
      ],
      "stateMutability": "nonpayable",
      "type": "constructor"
    },
    {
      "anonymous": false,
      "inputs": [
        {
          "indexed": false,
          "internalType": "address",
          "name": "erc20ExtTokenAddress",
          "type": "address"
        }
      ],
      "name": "ERC20TokenExtensionCreated",
      "type": "event"
    },
    {
      "inputs": [
        {
          "internalType": "string",
          "name": "tokenName",
          "type": "string"
        },
        {
          "internalType": "address",
          "name": "tokenAddress",
          "type": "address"
        },
        {
          "internalType": "string",
          "name": "tokenSymbol",
          "type": "string"
        },
        {
          "internalType": "uint8",
          "name": "decimals",
          "type": "uint8"
        }
      ],
      "name": "create",
      "outputs": [],
      "stateMutability": "nonpayable",
      "type": "function"
    },
    {
      "inputs": [
        {
          "internalType": "uint256",
          "name": "flags",
          "type": "uint256"
        },
        {
          "internalType": "uint256",
          "name": "flag",
          "type": "uint256"
        }
      ],
      "name": "getFlag",
      "outputs": [
        {
          "internalType": "bool",
          "name": "",
          "type": "bool"
        }
      ],
      "stateMutability": "pure",
      "type": "function"
    },
    {
      "inputs": [],
      "name": "identityAddress",
      "outputs": [
        {
          "internalType": "address",
          "name": "",
          "type": "address"
        }
      ],
      "stateMutability": "view",
      "type": "function"
    },
    {
      "inputs": [
        {
          "internalType": "address",
          "name": "addr",
          "type": "address"
        }
      ],
      "name": "isNotReservedAddress",
      "outputs": [
        {
          "internalType": "bool",
          "name": "",
          "type": "bool"
        }
      ],
      "stateMutability": "pure",
      "type": "function"
    },
    {
      "inputs": [
        {
          "internalType": "address",
          "name": "addr",
          "type": "address"
        }
      ],
      "name": "isNotZeroAddress",
      "outputs": [
        {
          "internalType": "bool",
          "name": "",
          "type": "bool"
        }
      ],
      "stateMutability": "pure",
      "type": "function"
    },
    {
      "inputs": [
        {
          "internalType": "uint256",
          "name": "flags",
          "type": "uint256"
        },
        {
          "internalType": "uint256",
          "name": "flag",
          "type": "uint256"
        },
        {
          "internalType": "bool",
          "name": "value",
          "type": "bool"
        }
      ],
      "name": "setFlag",
      "outputs": [
        {
          "internalType": "uint256",
          "name": "",
          "type": "uint256"
        }
      ],
      "stateMutability": "pure",
      "type": "function"
    }
  ],
  "bytecode": "0x608060405234801561001057600080fd5b5060405161089e38038061089e83398101604081905261002f91610054565b600080546001600160a01b0319166001600160a01b0392909216919091179055610082565b600060208284031215610065578081fd5b81516001600160a01b038116811461007b578182fd5b9392505050565b61080d806100916000396000f3fe608060405234801561001057600080fd5b50600436106100725760003560e01c8063ca0f463311610050578063ca0f4633146100ca578063ef6a2499146100ea578063fc258031146100fd57610072565b80634cdc38ce14610077578063b244a41d1461008c578063bf45767a146100b5575b600080fd5b61008a610085366004610509565b610110565b005b61009f61009a3660046105c2565b610349565b6040516100ac919061064c565b60405180910390f35b6100bd6103a5565b6040516100ac91906105fe565b6100dd6100d83660046104ef565b6103b4565b6040516100ac9190610612565b6100dd6100f83660046104ef565b6103c6565b6100dd61010b3660046105a1565b61040b565b60008054610126906001600160a01b0316610428565b6040517fc47f00270000000000000000000000000000000000000000000000000000000081529091506001600160a01b0382169063c47f002790610170908a908a9060040161061d565b600060405180830381600087803b15801561018a57600080fd5b505af115801561019e573d6000803e3d6000fd5b50506040517f144fa6d70000000000000000000000000000000000000000000000000000000081526001600160a01b038416925063144fa6d791506101e79088906004016105fe565b600060405180830381600087803b15801561020157600080fd5b505af1158015610215573d6000803e3d6000fd5b50506040517fb84c82460000000000000000000000000000000000000000000000000000000081526001600160a01b038416925063b84c82469150610260908790879060040161061d565b600060405180830381600087803b15801561027a57600080fd5b505af115801561028e573d6000803e3d6000fd5b50506040517f7a1395aa0000000000000000000000000000000000000000000000000000000081526001600160a01b0384169250637a1395aa91506102d7908590600401610655565b600060405180830381600087803b1580156102f157600080fd5b505af1158015610305573d6000803e3d6000fd5b505050507f117adf0d6989f19395d4ef7cc2e5bca2dd8749616fd9b53b3e090f0643b8c96a8160405161033891906105fe565b60405180910390a150505050505050565b6000811515610358858561040b565b15151461039b578115610381576103708360026106c1565b61037a9085610663565b905061039e565b61038c8360026106c1565b61037a908561078a565b61039e565b50825b9392505050565b6000546001600160a01b031681565b6001600160a01b03811615155b919050565b60006001600160a01b03821661dead148015906103ee57506001600160a01b03821661babe14155b801561040557506001600160a01b038216614bec14155b92915050565b600061041e600260ff841685901c6107a1565b6001149392505050565b6000808260601b90506040517f3d602d80600a3d3981f3363d3d373d3d3d363d7300000000000000000000000081528160148201527f5af43d82803e903d91602b57fd5bf3000000000000000000000000000000000060288201526037816000f0949350505050565b80356001600160a01b03811681146103c157600080fd5b60008083601f8401126104b9578182fd5b50813567ffffffffffffffff8111156104d0578182fd5b6020830191508360208285010111156104e857600080fd5b9250929050565b600060208284031215610500578081fd5b61039e82610491565b60008060008060008060808789031215610521578182fd5b863567ffffffffffffffff80821115610538578384fd5b6105448a838b016104a8565b909850965086915061055860208a01610491565b9550604089013591508082111561056d578384fd5b5061057a89828a016104a8565b909450925050606087013560ff81168114610593578182fd5b809150509295509295509295565b600080604083850312156105b3578182fd5b50508035926020909101359150565b6000806000606084860312156105d6578283fd5b8335925060208401359150604084013580151581146105f3578182fd5b809150509250925092565b6001600160a01b0391909116815260200190565b901515815260200190565b60006020825282602083015282846040840137818301604090810191909152601f909201601f19160101919050565b90815260200190565b60ff91909116815260200190565b60008219821115610676576106766107c1565b500190565b80825b600180861161068d57506106b8565b81870482111561069f5761069f6107c1565b808616156106ac57918102915b9490941c93800261067e565b94509492505050565b600061039e60001984846000826106da5750600161039e565b816106e75750600061039e565b81600181146106fd576002811461070757610734565b600191505061039e565b60ff841115610718576107186107c1565b6001841b91508482111561072e5761072e6107c1565b5061039e565b5060208310610133831016604e8410600b8410161715610762575081810a83811115610396576103966107c1565b61076f848484600161067b565b808604821115610781576107816107c1565b02949350505050565b60008282101561079c5761079c6107c1565b500390565b6000826107bc57634e487b7160e01b81526012600452602481fd5b500690565b634e487b7160e01b600052601160045260246000fdfea2646970667358221220200c2d465e32c6bd51cb5f016aae7bda6561a516c78698eff99156f6b5b3a7ad64736f6c63430008000033",
  "linkReferences": {},
  "deployedLinkReferences": {}
}