{
  "_format": "hh-sol-artifact-1",
  "contractName": "ExecutorExtension",
  "sourceName": "build/sources/extensions/executor/Executor.sol",
  "abi": [
    {
      "inputs": [],
      "stateMutability": "nonpayable",
      "type": "constructor"
    },
    {
      "stateMutability": "payable",
      "type": "fallback"
    },
    {
      "inputs": [],
      "name": "dao",
      "outputs": [
        {
          "internalType": "contract DaoRegistry",
          "name": "",
          "type": "address"
        }
      ],
      "stateMutability": "view",
      "type": "function"
    },
    {
      "inputs": [
        {
          "internalType": "uint256",
          "name": "flags",
          "type": "uint256"
        },
        {
          "internalType": "uint256",
          "name": "flag",
          "type": "uint256"
        }
      ],
      "name": "getFlag",
      "outputs": [
        {
          "internalType": "bool",
          "name": "",
          "type": "bool"
        }
      ],
      "stateMutability": "pure",
      "type": "function"
    },
    {
      "inputs": [
        {
          "internalType": "contract DaoRegistry",
          "name": "_dao",
          "type": "address"
        },
        {
          "internalType": "address",
          "name": "creator",
          "type": "address"
        }
      ],
      "name": "initialize",
      "outputs": [],
      "stateMutability": "nonpayable",
      "type": "function"
    },
    {
      "inputs": [],
      "name": "initialized",
      "outputs": [
        {
          "internalType": "bool",
          "name": "",
          "type": "bool"
        }
      ],
      "stateMutability": "view",
      "type": "function"
    },
    {
      "inputs": [
        {
          "internalType": "address",
          "name": "addr",
          "type": "address"
        }
      ],
      "name": "isNotReservedAddress",
      "outputs": [
        {
          "internalType": "bool",
          "name": "",
          "type": "bool"
        }
      ],
      "stateMutability": "pure",
      "type": "function"
    },
    {
      "inputs": [
        {
          "internalType": "address",
          "name": "addr",
          "type": "address"
        }
      ],
      "name": "isNotZeroAddress",
      "outputs": [
        {
          "internalType": "bool",
          "name": "",
          "type": "bool"
        }
      ],
      "stateMutability": "pure",
      "type": "function"
    },
    {
      "inputs": [
        {
          "internalType": "uint256",
          "name": "flags",
          "type": "uint256"
        },
        {
          "internalType": "uint256",
          "name": "flag",
          "type": "uint256"
        },
        {
          "internalType": "bool",
          "name": "value",
          "type": "bool"
        }
      ],
      "name": "setFlag",
      "outputs": [
        {
          "internalType": "uint256",
          "name": "",
          "type": "uint256"
        }
      ],
      "stateMutability": "pure",
      "type": "function"
    },
    {
      "stateMutability": "payable",
      "type": "receive"
    }
  ],
  "bytecode": "0x60806040526000805460ff1916905534801561001a57600080fd5b50610a028061002a6000396000f3fe6080604052600436106100745760003560e01c8063b244a41d1161004e578063b244a41d146100f8578063ca0f463314610125578063ef6a249914610145578063fc2580311461016557610083565b8063158ef93e1461008b5780634162169f146100b6578063485cc955146100d857610083565b3661008357610081610185565b005b610081610185565b34801561009757600080fd5b506100a0610190565b6040516100ad91906106bf565b60405180910390f35b3480156100c257600080fd5b506100cb610199565b6040516100ad9190610685565b3480156100e457600080fd5b506100816100f33660046105d5565b6101ad565b34801561010457600080fd5b5061011861011336600461064d565b6102d1565b6040516100ad9190610829565b34801561013157600080fd5b506100a061014036600461059d565b61032d565b34801561015157600080fd5b506100a061016036600461059d565b61033b565b34801561017157600080fd5b506100a061018036600461062c565b610380565b61018e3361039d565b565b60005460ff1681565b60005461010090046001600160a01b031681565b60005460ff16156101d95760405162461bcd60e51b81526004016101d090610738565b60405180910390fd5b6040517fa230c5240000000000000000000000000000000000000000000000000000000081526001600160a01b0383169063a230c5249061021e908490600401610685565b60206040518083038186803b15801561023657600080fd5b505afa15801561024a573d6000803e3d6000fd5b505050506040513d601f19601f8201168201806040525081019061026e91906105b9565b61028a5760405162461bcd60e51b81526004016101d0906106ca565b506000805460ff196001600160a01b03909316610100027fffffffffffffffffffffff0000000000000000000000000000000000000000ff90911617919091166001179055565b60008115156102e08585610380565b151514610323578115610309576102f8836002610890565b6103029085610832565b9050610326565b610314836002610890565b6103029085610959565b610326565b50825b9392505050565b6001600160a01b0316151590565b60006001600160a01b03821661dead1480159061036357506001600160a01b03821661babe14155b801561037a57506001600160a01b038216614bec14155b92915050565b6000610393600260ff841685901c610970565b6001149392505050565b6000303314806103bc575060005461010090046001600160a01b031633145b8061046a575060008060019054906101000a90046001600160a01b03166001600160a01b031663c19d93fb6040518163ffffffff1660e01b815260040160206040518083038186803b15801561041157600080fd5b505afa158015610425573d6000803e3d6000fd5b505050506040513d601f19601f82011682018060405250810190610449919061060d565b600181111561046857634e487b7160e01b600052602160045260246000fd5b145b80610513575060005461010090046001600160a01b0316636cfdc32e33308480156104a557634e487b7160e01b600052602160045260246000fd5b6040518463ffffffff1660e01b81526004016104c393929190610699565b60206040518083038186803b1580156104db57600080fd5b505afa1580156104ef573d6000803e3d6000fd5b505050506040513d601f19601f8201168201806040525081019061051391906105b9565b61052f5760405162461bcd60e51b81526004016101d090610701565b6105388261032d565b6105545760405162461bcd60e51b81526004016101d0906107cc565b61055d8261033b565b6105795760405162461bcd60e51b81526004016101d09061076f565b3660008037600080366000855af43d6000803e808015610598573d6000f35b3d6000fd5b6000602082840312156105ae578081fd5b8135610326816109a6565b6000602082840312156105ca578081fd5b8151610326816109be565b600080604083850312156105e7578081fd5b82356105f2816109a6565b91506020830135610602816109a6565b809150509250929050565b60006020828403121561061e578081fd5b815160028110610326578182fd5b6000806040838503121561063e578182fd5b50508035926020909101359150565b600080600060608486031215610661578081fd5b8335925060208401359150604084013561067a816109be565b809150509250925092565b6001600160a01b0391909116815260200190565b6001600160a01b03938416815291909216602082015260ff909116604082015260600190565b901515815260200190565b60208082526014908201527f6578656375746f723a3a6e6f74206d656d626572000000000000000000000000604082015260600190565b60208082526016908201527f6578656375746f723a3a61636365737344656e69656400000000000000000000604082015260600190565b6020808252601d908201527f6578656375746f723a3a616c726561647920696e697469616c697a6564000000604082015260600190565b6020808252602a908201527f696d706c656d656e746174696f6e20616464726573732063616e206e6f74206260408201527f6520726573657276656400000000000000000000000000000000000000000000606082015260800190565b60208082526026908201527f696d706c656d656e746174696f6e20616464726573732063616e206e6f74206260408201527f65207a65726f0000000000000000000000000000000000000000000000000000606082015260800190565b90815260200190565b6000821982111561084557610845610990565b500190565b80825b600180861161085c5750610887565b81870482111561086e5761086e610990565b8086161561087b57918102915b9490941c93800261084d565b94509492505050565b600061032660001984846000826108a957506001610326565b816108b657506000610326565b81600181146108cc57600281146108d657610903565b6001915050610326565b60ff8411156108e7576108e7610990565b6001841b9150848211156108fd576108fd610990565b50610326565b5060208310610133831016604e8410600b8410161715610931575081810a8381111561031e5761031e610990565b61093e848484600161084a565b80860482111561095057610950610990565b02949350505050565b60008282101561096b5761096b610990565b500390565b60008261098b57634e487b7160e01b81526012600452602481fd5b500690565b634e487b7160e01b600052601160045260246000fd5b6001600160a01b03811681146109bb57600080fd5b50565b80151581146109bb57600080fdfea26469706673582212202509309d26faf77477d21fa8ca518ccffa702879e5c8b662b230991310f4571964736f6c63430008000033",
  "linkReferences": {},
  "deployedLinkReferences": {}
}