{
  "_format": "hh-sol-artifact-1",
  "contractName": "ExecutorExtensionFactory",
  "sourceName": "build/sources/extensions/executor/ExecutorFactory.sol",
  "abi": [
    {
      "inputs": [
        {
          "internalType": "address",
          "name": "_identityAddress",
          "type": "address"
        }
      ],
      "stateMutability": "nonpayable",
      "type": "constructor"
    },
    {
      "anonymous": false,
      "inputs": [
        {
          "indexed": false,
          "internalType": "address",
          "name": "executorAddress",
          "type": "address"
        }
      ],
      "name": "ExecutorCreated",
      "type": "event"
    },
    {
      "inputs": [],
      "name": "create",
      "outputs": [],
      "stateMutability": "nonpayable",
      "type": "function"
    },
    {
      "inputs": [
        {
          "internalType": "uint256",
          "name": "flags",
          "type": "uint256"
        },
        {
          "internalType": "uint256",
          "name": "flag",
          "type": "uint256"
        }
      ],
      "name": "getFlag",
      "outputs": [
        {
          "internalType": "bool",
          "name": "",
          "type": "bool"
        }
      ],
      "stateMutability": "pure",
      "type": "function"
    },
    {
      "inputs": [],
      "name": "identityAddress",
      "outputs": [
        {
          "internalType": "address",
          "name": "",
          "type": "address"
        }
      ],
      "stateMutability": "view",
      "type": "function"
    },
    {
      "inputs": [
        {
          "internalType": "address",
          "name": "addr",
          "type": "address"
        }
      ],
      "name": "isNotReservedAddress",
      "outputs": [
        {
          "internalType": "bool",
          "name": "",
          "type": "bool"
        }
      ],
      "stateMutability": "pure",
      "type": "function"
    },
    {
      "inputs": [
        {
          "internalType": "address",
          "name": "addr",
          "type": "address"
        }
      ],
      "name": "isNotZeroAddress",
      "outputs": [
        {
          "internalType": "bool",
          "name": "",
          "type": "bool"
        }
      ],
      "stateMutability": "pure",
      "type": "function"
    },
    {
      "inputs": [
        {
          "internalType": "uint256",
          "name": "flags",
          "type": "uint256"
        },
        {
          "internalType": "uint256",
          "name": "flag",
          "type": "uint256"
        },
        {
          "internalType": "bool",
          "name": "value",
          "type": "bool"
        }
      ],
      "name": "setFlag",
      "outputs": [
        {
          "internalType": "uint256",
          "name": "",
          "type": "uint256"
        }
      ],
      "stateMutability": "pure",
      "type": "function"
    }
  ],
  "bytecode": "0x608060405234801561001057600080fd5b5060405161058238038061058283398101604081905261002f91610054565b600080546001600160a01b0319166001600160a01b0392909216919091179055610082565b600060208284031215610065578081fd5b81516001600160a01b038116811461007b578182fd5b9392505050565b6104f1806100916000396000f3fe608060405234801561001057600080fd5b50600436106100725760003560e01c8063ef6a249911610050578063ef6a2499146100d5578063efc81a8c146100e8578063fc258031146100f257610072565b8063b244a41d14610077578063bf45767a146100a0578063ca0f4633146100b5575b600080fd5b61008a6100853660046102e3565b610105565b604051610097919061033e565b60405180910390f35b6100a8610161565b604051610097919061031f565b6100c86100c336600461029b565b610170565b6040516100979190610333565b6100c86100e336600461029b565b61017e565b6100f06101c3565b005b6100c86101003660046102c2565b610215565b60008115156101148585610215565b15151461015757811561013d5761012c8360026103a5565b6101369085610347565b905061015a565b6101488360026103a5565b610136908561046e565b61015a565b50825b9392505050565b6000546001600160a01b031681565b6001600160a01b0316151590565b60006001600160a01b03821661dead148015906101a657506001600160a01b03821661babe14155b80156101bd57506001600160a01b038216614bec14155b92915050565b600080546101d9906001600160a01b0316610232565b90507f978bce61b526b8a9831b7114d5b16fca698ab856dc45ddd556da72d8dc81d93d8160405161020a919061031f565b60405180910390a150565b6000610228600260ff841685901c610485565b6001149392505050565b6000808260601b90506040517f3d602d80600a3d3981f3363d3d373d3d3d363d7300000000000000000000000081528160148201527f5af43d82803e903d91602b57fd5bf3000000000000000000000000000000000060288201526037816000f0949350505050565b6000602082840312156102ac578081fd5b81356001600160a01b038116811461015a578182fd5b600080604083850312156102d4578081fd5b50508035926020909101359150565b6000806000606084860312156102f7578081fd5b833592506020840135915060408401358015158114610314578182fd5b809150509250925092565b6001600160a01b0391909116815260200190565b901515815260200190565b90815260200190565b6000821982111561035a5761035a6104a5565b500190565b80825b6001808611610371575061039c565b818704821115610383576103836104a5565b8086161561039057918102915b9490941c938002610362565b94509492505050565b600061015a60001984846000826103be5750600161015a565b816103cb5750600061015a565b81600181146103e157600281146103eb57610418565b600191505061015a565b60ff8411156103fc576103fc6104a5565b6001841b915084821115610412576104126104a5565b5061015a565b5060208310610133831016604e8410600b8410161715610446575081810a83811115610152576101526104a5565b610453848484600161035f565b808604821115610465576104656104a5565b02949350505050565b600082821015610480576104806104a5565b500390565b6000826104a057634e487b7160e01b81526012600452602481fd5b500690565b634e487b7160e01b600052601160045260246000fdfea2646970667358221220ffb6419935930d753b3695d22111cab890ef959406f8d142a0a30fe61359f9c464736f6c63430008000033",
  "linkReferences": {},
  "deployedLinkReferences": {}
}