{
  "_format": "hh-sol-artifact-1",
  "contractName": "FinancingContract",
  "sourceName": "build/sources/adapters/Financing.sol",
  "abi": [
    {
      "inputs": [
        {
          "internalType": "uint256",
          "name": "flags",
          "type": "uint256"
        },
        {
          "internalType": "uint256",
          "name": "flag",
          "type": "uint256"
        }
      ],
      "name": "getFlag",
      "outputs": [
        {
          "internalType": "bool",
          "name": "",
          "type": "bool"
        }
      ],
      "stateMutability": "pure",
      "type": "function"
    },
    {
      "inputs": [
        {
          "internalType": "contract DaoRegistry",
          "name": "dao",
          "type": "address"
        },
        {
          "internalType": "address",
          "name": "_addr",
          "type": "address"
        }
      ],
      "name": "isActiveMember",
      "outputs": [
        {
          "internalType": "bool",
          "name": "",
          "type": "bool"
        }
      ],
      "stateMutability": "view",
      "type": "function"
    },
    {
      "inputs": [
        {
          "internalType": "address",
          "name": "addr",
          "type": "address"
        }
      ],
      "name": "isNotReservedAddress",
      "outputs": [
        {
          "internalType": "bool",
          "name": "",
          "type": "bool"
        }
      ],
      "stateMutability": "pure",
      "type": "function"
    },
    {
      "inputs": [
        {
          "internalType": "address",
          "name": "addr",
          "type": "address"
        }
      ],
      "name": "isNotZeroAddress",
      "outputs": [
        {
          "internalType": "bool",
          "name": "",
          "type": "bool"
        }
      ],
      "stateMutability": "pure",
      "type": "function"
    },
    {
      "inputs": [
        {
          "internalType": "contract DaoRegistry",
          "name": "dao",
          "type": "address"
        },
        {
          "internalType": "bytes32",
          "name": "proposalId",
          "type": "bytes32"
        }
      ],
      "name": "processProposal",
      "outputs": [],
      "stateMutability": "nonpayable",
      "type": "function"
    },
    {
      "inputs": [
        {
          "internalType": "address",
          "name": "",
          "type": "address"
        },
        {
          "internalType": "bytes32",
          "name": "",
          "type": "bytes32"
        }
      ],
      "name": "proposals",
      "outputs": [
        {
          "internalType": "address",
          "name": "applicant",
          "type": "address"
        },
        {
          "internalType": "uint256",
          "name": "amount",
          "type": "uint256"
        },
        {
          "internalType": "address",
          "name": "token",
          "type": "address"
        }
      ],
      "stateMutability": "view",
      "type": "function"
    },
    {
      "inputs": [
        {
          "internalType": "uint256",
          "name": "flags",
          "type": "uint256"
        },
        {
          "internalType": "uint256",
          "name": "flag",
          "type": "uint256"
        },
        {
          "internalType": "bool",
          "name": "value",
          "type": "bool"
        }
      ],
      "name": "setFlag",
      "outputs": [
        {
          "internalType": "uint256",
          "name": "",
          "type": "uint256"
        }
      ],
      "stateMutability": "pure",
      "type": "function"
    },
    {
      "inputs": [
        {
          "internalType": "contract DaoRegistry",
          "name": "dao",
          "type": "address"
        },
        {
          "internalType": "bytes32",
          "name": "proposalId",
          "type": "bytes32"
        },
        {
          "internalType": "address",
          "name": "applicant",
          "type": "address"
        },
        {
          "internalType": "address",
          "name": "token",
          "type": "address"
        },
        {
          "internalType": "uint256",
          "name": "amount",
          "type": "uint256"
        },
        {
          "internalType": "bytes",
          "name": "data",
          "type": "bytes"
        }
      ],
      "name": "submitProposal",
      "outputs": [],
      "stateMutability": "nonpayable",
      "type": "function"
    },
    {
      "stateMutability": "payable",
      "type": "receive"
    }
  ],
  "bytecode": "0x608060405234801561001057600080fd5b50611783806100206000396000f3fe60806040526004361061007f5760003560e01c8063b244a41d1161004e578063b244a41d14610151578063ca0f46331461017e578063ef6a24991461019e578063fc258031146101be576100a5565b80631e6f7672146100aa5780635cb75276146100cc5780638ecf7720146101045780639573167d14610131576100a5565b366100a55760405162461bcd60e51b815260040161009c906114fa565b60405180910390fd5b600080fd5b3480156100b657600080fd5b506100ca6100c5366004611125565b6101de565b005b3480156100d857600080fd5b506100ec6100e7366004611094565b6107c6565b6040516100fb9392919061133f565b60405180910390f35b34801561011057600080fd5b5061012461011f3660046110db565b6107fa565b6040516100fb9190611362565b34801561013d57600080fd5b506100ca61014c366004611113565b610a79565b34801561015d57600080fd5b5061017161016c36600461126a565b610f91565b6040516100fb919061136d565b34801561018a57600080fd5b5061012461019936600461105c565b610fed565b3480156101aa57600080fd5b506101246101b936600461105c565b610ffb565b3480156101ca57600080fd5b506101246101d9366004611249565b61103f565b8543816001600160a01b031663b21634826040518163ffffffff1660e01b815260040160206040518083038186803b15801561021957600080fd5b505afa15801561022d573d6000803e3d6000fd5b505050506040513d601f19601f820116820180604052508101906102519190611231565b141561026f5760405162461bcd60e51b815260040161009c9061148c565b806001600160a01b03166310fdb0a26040518163ffffffff1660e01b8152600401600060405180830381600087803b1580156102aa57600080fd5b505af11580156102be573d6000803e3d6000fd5b50505050600083116102e25760405162461bcd60e51b815260040161009c9061141e565b604051632c9f4b5b60e11b81526000906001600160a01b0389169063593e96b690610331907fea0ca03c7adbe41dc655fec28a9209dc8e6e042f3d991a67765ba285b9cf73a09060040161136d565b60206040518083038186803b15801561034957600080fd5b505afa15801561035d573d6000803e3d6000fd5b505050506040513d601f19601f820116820180604052508101906103819190611078565b6040517ff9eaee0d0000000000000000000000000000000000000000000000000000000081529091506001600160a01b0382169063f9eaee0d906103c99088906004016112ed565b60206040518083038186803b1580156103e157600080fd5b505afa1580156103f5573d6000803e3d6000fd5b505050506040513d601f19601f8201168201806040525081019061041991906110bf565b6104355760405162461bcd60e51b815260040161009c90611455565b61043e86610ffb565b61045a5760405162461bcd60e51b815260040161009c90611568565b6040517fb73dc3890000000000000000000000000000000000000000000000000000000081526001600160a01b0389169063b73dc3899061049f908a9060040161136d565b600060405180830381600087803b1580156104b957600080fd5b505af11580156104cd573d6000803e3d6000fd5b505050506001600160a01b038881166000818152602081815260408083208c845290915280822080547fffffffffffffffffffffffff00000000000000000000000000000000000000009081168c8716178255600182018a9055600282018054909116958b1695909517909455517f17ba7d850000000000000000000000000000000000000000000000000000000081529091906317ba7d8590610595907f0e49311626a26ba5be58a3b13d239908e80ce0dffdd5c50bf1d9c82ff35d1ab39060040161136d565b60206040518083038186803b1580156105ad57600080fd5b505afa1580156105c1573d6000803e3d6000fd5b505050506040513d601f19601f820116820180604052508101906105e59190611078565b90506000816001600160a01b031663966917d08c3089336040518563ffffffff1660e01b815260040161061b9493929190611395565b602060405180830381600087803b15801561063557600080fd5b505af1158015610649573d6000803e3d6000fd5b505050506040513d601f19601f8201168201806040525081019061066d9190611078565b6040517f896ae9ba0000000000000000000000000000000000000000000000000000000081529091506001600160a01b038c169063896ae9ba906106b9908d9085908790600401611376565b600060405180830381600087803b1580156106d357600080fd5b505af11580156106e7573d6000803e3d6000fd5b50506040517f2b0974d00000000000000000000000000000000000000000000000000000000081526001600160a01b0385169250632b0974d09150610734908e908e908b906004016113ed565b600060405180830381600087803b15801561074e57600080fd5b505af1158015610762573d6000803e3d6000fd5b5050505050505050806001600160a01b031663d4f7af436040518163ffffffff1660e01b8152600401600060405180830381600087803b1580156107a557600080fd5b505af11580156107b9573d6000803e3d6000fd5b5050505050505050505050565b60006020818152928152604080822090935290815220805460018201546002909201546001600160a01b0391821692911683565b600080836001600160a01b031663fefbd8757fea0ca03c7adbe41dc655fec28a9209dc8e6e042f3d991a67765ba285b9cf73a06040518263ffffffff1660e01b8152600401610849919061136d565b60206040518083038186803b15801561086157600080fd5b505afa158015610875573d6000803e3d6000fd5b505050506040513d601f19601f820116820180604052508101906108999190611078565b90506001600160a01b038116156109da576040517fc89bb8ba0000000000000000000000000000000000000000000000000000000081526000906001600160a01b0386169063c89bb8ba906108f29087906004016112ed565b60206040518083038186803b15801561090a57600080fd5b505afa15801561091e573d6000803e3d6000fd5b505050506040513d601f19601f820116820180604052508101906109429190611078565b90506000826001600160a01b031663f7888aec83620ff1ce6040518363ffffffff1660e01b8152600401610977929190611301565b60206040518083038186803b15801561098f57600080fd5b505afa1580156109a3573d6000803e3d6000fd5b505050506040513d601f19601f820116820180604052508101906109c79190611078565b6001600160a01b03161192505050610a73565b6040517fa230c5240000000000000000000000000000000000000000000000000000000081526001600160a01b0385169063a230c52490610a1f9086906004016112ed565b60206040518083038186803b158015610a3757600080fd5b505afa158015610a4b573d6000803e3d6000fd5b505050506040513d601f19601f82011682018060405250810190610a6f91906110bf565b9150505b92915050565b8143816001600160a01b031663b21634826040518163ffffffff1660e01b815260040160206040518083038186803b158015610ab457600080fd5b505afa158015610ac8573d6000803e3d6000fd5b505050506040513d601f19601f82011682018060405250810190610aec9190611231565b1415610b0a5760405162461bcd60e51b815260040161009c9061148c565b806001600160a01b03166310fdb0a26040518163ffffffff1660e01b8152600401600060405180830381600087803b158015610b4557600080fd5b505af1158015610b59573d6000803e3d6000fd5b5050506001600160a01b0380851660008181526020818152604080832088845282528083208151606081018352815487168152600182015493810193909352600201549094168185015292517f40de703e000000000000000000000000000000000000000000000000000000008152929350916340de703e90610be090879060040161136d565b60206040518083038186803b158015610bf857600080fd5b505afa158015610c0c573d6000803e3d6000fd5b505050506040513d601f19601f82011682018060405250810190610c309190611078565b90506001600160a01b038116610c585760405162461bcd60e51b815260040161009c90611531565b60026040517f76225e730000000000000000000000000000000000000000000000000000000081526001600160a01b038316906376225e7390610ca190899089906004016113d4565b602060405180830381600087803b158015610cbb57600080fd5b505af1158015610ccf573d6000803e3d6000fd5b505050506040513d601f19601f82011682018060405250810190610cf39190611212565b6005811115610d1257634e487b7160e01b600052602160045260246000fd5b14610d2f5760405162461bcd60e51b815260040161009c906114c3565b6040517f30490e910000000000000000000000000000000000000000000000000000000081526001600160a01b038616906330490e9190610d7490879060040161136d565b600060405180830381600087803b158015610d8e57600080fd5b505af1158015610da2573d6000803e3d6000fd5b5050604051632c9f4b5b60e11b8152600092506001600160a01b038816915063593e96b690610df5907fea0ca03c7adbe41dc655fec28a9209dc8e6e042f3d991a67765ba285b9cf73a09060040161136d565b60206040518083038186803b158015610e0d57600080fd5b505afa158015610e21573d6000803e3d6000fd5b505050506040513d601f19601f82011682018060405250810190610e459190611078565b9050806001600160a01b031663e3a05cc161dead856040015186602001516040518463ffffffff1660e01b8152600401610e819392919061131b565b600060405180830381600087803b158015610e9b57600080fd5b505af1158015610eaf573d6000803e3d6000fd5b50508451604080870151602088015191517fc57d5fe90000000000000000000000000000000000000000000000000000000081526001600160a01b038716955063c57d5fe99450610f0493929060040161131b565b600060405180830381600087803b158015610f1e57600080fd5b505af1158015610f32573d6000803e3d6000fd5b50505050505050806001600160a01b031663d4f7af436040518163ffffffff1660e01b8152600401600060405180830381600087803b158015610f7457600080fd5b505af1158015610f88573d6000803e3d6000fd5b50505050505050565b6000811515610fa0858561103f565b151514610fe3578115610fc957610fb88360026115fb565b610fc2908561159d565b9050610fe6565b610fd48360026115fb565b610fc290856116c4565b610fe6565b50825b9392505050565b6001600160a01b0316151590565b60006001600160a01b03821661dead1480159061102357506001600160a01b03821661babe14155b8015610a7357506001600160a01b038216614bec141592915050565b6000611052600260ff841685901c6116db565b6001149392505050565b60006020828403121561106d578081fd5b8135610fe681611727565b600060208284031215611089578081fd5b8151610fe681611727565b600080604083850312156110a6578081fd5b82356110b181611727565b946020939093013593505050565b6000602082840312156110d0578081fd5b8151610fe68161173f565b600080604083850312156110ed578182fd5b82356110f881611727565b9150602083013561110881611727565b809150509250929050565b600080604083850312156110a6578182fd5b60008060008060008060c0878903121561113d578182fd5b863561114881611727565b95506020878101359550604088013561116081611727565b9450606088013561117081611727565b93506080880135925060a088013567ffffffffffffffff80821115611193578384fd5b818a0191508a601f8301126111a6578384fd5b8135818111156111b8576111b8611711565b604051601f8201601f19168101850183811182821017156111db576111db611711565b60405281815283820185018d10156111f1578586fd5b81858501868301378585838301015280955050505050509295509295509295565b600060208284031215611223578081fd5b815160068110610fe6578182fd5b600060208284031215611242578081fd5b5051919050565b6000806040838503121561125b578182fd5b50508035926020909101359150565b60008060006060848603121561127e578283fd5b833592506020840135915060408401356112978161173f565b809150509250925092565b60008151808452815b818110156112c7576020818501810151868301820152016112ab565b818111156112d85782602083870101525b50601f01601f19169290920160200192915050565b6001600160a01b0391909116815260200190565b6001600160a01b0392831681529116602082015260400190565b6001600160a01b039384168152919092166020820152604081019190915260600190565b6001600160a01b0393841681526020810192909252909116604082015260600190565b901515815260200190565b90815260200190565b9283526001600160a01b03918216602084015216604082015260600190565b60006001600160a01b0380871683528086166020840152608060408401526113c060808401866112a2565b915080841660608401525095945050505050565b6001600160a01b03929092168252602082015260400190565b60006001600160a01b03851682528360208301526060604083015261141560608301846112a2565b95945050505050565b60208082526018908201527f696e76616c69642072657175657374656420616d6f756e740000000000000000604082015260600190565b60208082526011908201527f746f6b656e206e6f7420616c6c6f776564000000000000000000000000000000604082015260600190565b60208082526010908201527f7265656e7472616e637920677561726400000000000000000000000000000000604082015260600190565b60208082526016908201527f70726f706f73616c206e6565647320746f207061737300000000000000000000604082015260600190565b6020808252600f908201527f66616c6c6261636b207265766572740000000000000000000000000000000000604082015260600190565b60208082526011908201527f61646170746572206e6f7420666f756e64000000000000000000000000000000604082015260600190565b6020808252818101527f6170706c6963616e74207573696e672072657365727665642061646472657373604082015260600190565b600082198211156115b0576115b06116fb565b500190565b80825b60018086116115c757506115f2565b8187048211156115d9576115d96116fb565b808616156115e657918102915b9490941c9380026115b8565b94509492505050565b6000610fe6600019848460008261161457506001610fe6565b8161162157506000610fe6565b816001811461163757600281146116415761166e565b6001915050610fe6565b60ff841115611652576116526116fb565b6001841b915084821115611668576116686116fb565b50610fe6565b5060208310610133831016604e8410600b841016171561169c575081810a83811115610fde57610fde6116fb565b6116a984848460016115b5565b8086048211156116bb576116bb6116fb565b02949350505050565b6000828210156116d6576116d66116fb565b500390565b6000826116f657634e487b7160e01b81526012600452602481fd5b500690565b634e487b7160e01b600052601160045260246000fd5b634e487b7160e01b600052604160045260246000fd5b6001600160a01b038116811461173c57600080fd5b50565b801515811461173c57600080fdfea2646970667358221220078b8191758c6e1689f1c7288d49babfffef7a418d94e6fbd43aa7a7865c945064736f6c63430008000033",
  "linkReferences": {},
  "deployedLinkReferences": {}
}