{
  "_format": "hh-sol-artifact-1",
  "contractName": "GuildKickContract",
  "sourceName": "build/sources/adapters/GuildKick.sol",
  "abi": [
    {
      "inputs": [
        {
          "internalType": "uint256",
          "name": "flags",
          "type": "uint256"
        },
        {
          "internalType": "uint256",
          "name": "flag",
          "type": "uint256"
        }
      ],
      "name": "getFlag",
      "outputs": [
        {
          "internalType": "bool",
          "name": "",
          "type": "bool"
        }
      ],
      "stateMutability": "pure",
      "type": "function"
    },
    {
      "inputs": [
        {
          "internalType": "contract DaoRegistry",
          "name": "dao",
          "type": "address"
        },
        {
          "internalType": "address",
          "name": "_addr",
          "type": "address"
        }
      ],
      "name": "isActiveMember",
      "outputs": [
        {
          "internalType": "bool",
          "name": "",
          "type": "bool"
        }
      ],
      "stateMutability": "view",
      "type": "function"
    },
    {
      "inputs": [
        {
          "internalType": "address",
          "name": "addr",
          "type": "address"
        }
      ],
      "name": "isNotReservedAddress",
      "outputs": [
        {
          "internalType": "bool",
          "name": "",
          "type": "bool"
        }
      ],
      "stateMutability": "pure",
      "type": "function"
    },
    {
      "inputs": [
        {
          "internalType": "address",
          "name": "addr",
          "type": "address"
        }
      ],
      "name": "isNotZeroAddress",
      "outputs": [
        {
          "internalType": "bool",
          "name": "",
          "type": "bool"
        }
      ],
      "stateMutability": "pure",
      "type": "function"
    },
    {
      "inputs": [
        {
          "internalType": "address",
          "name": "",
          "type": "address"
        },
        {
          "internalType": "bytes32",
          "name": "",
          "type": "bytes32"
        }
      ],
      "name": "kicks",
      "outputs": [
        {
          "internalType": "address",
          "name": "memberToKick",
          "type": "address"
        }
      ],
      "stateMutability": "view",
      "type": "function"
    },
    {
      "inputs": [
        {
          "internalType": "contract DaoRegistry",
          "name": "dao",
          "type": "address"
        },
        {
          "internalType": "bytes32",
          "name": "proposalId",
          "type": "bytes32"
        }
      ],
      "name": "processProposal",
      "outputs": [],
      "stateMutability": "nonpayable",
      "type": "function"
    },
    {
      "inputs": [
        {
          "internalType": "uint256",
          "name": "flags",
          "type": "uint256"
        },
        {
          "internalType": "uint256",
          "name": "flag",
          "type": "uint256"
        },
        {
          "internalType": "bool",
          "name": "value",
          "type": "bool"
        }
      ],
      "name": "setFlag",
      "outputs": [
        {
          "internalType": "uint256",
          "name": "",
          "type": "uint256"
        }
      ],
      "stateMutability": "pure",
      "type": "function"
    },
    {
      "inputs": [
        {
          "internalType": "contract DaoRegistry",
          "name": "dao",
          "type": "address"
        },
        {
          "internalType": "bytes32",
          "name": "proposalId",
          "type": "bytes32"
        },
        {
          "internalType": "address",
          "name": "memberToKick",
          "type": "address"
        },
        {
          "internalType": "bytes",
          "name": "data",
          "type": "bytes"
        }
      ],
      "name": "submitProposal",
      "outputs": [],
      "stateMutability": "nonpayable",
      "type": "function"
    },
    {
      "stateMutability": "payable",
      "type": "receive"
    }
  ],
  "bytecode": "0x608060405234801561001057600080fd5b50612819806100206000396000f3fe60806040526004361061007f5760003560e01c8063b244a41d1161004e578063b244a41d1461014f578063ca0f46331461017c578063ef6a24991461019c578063fc258031146101bc576100a5565b806314604a20146100aa5780633981538e146100cc5780638ecf7720146101025780639573167d1461012f576100a5565b366100a55760405162461bcd60e51b815260040161009c90612521565b60405180910390fd5b600080fd5b3480156100b657600080fd5b506100ca6100c53660046120fb565b6101dc565b005b3480156100d857600080fd5b506100ec6100e736600461206a565b6104a1565b6040516100f9919061224f565b60405180910390f35b34801561010e57600080fd5b5061012261011d3660046120b1565b6104c4565b6040516100f991906122cb565b34801561013b57600080fd5b506100ca61014a3660046120e9565b610743565b34801561015b57600080fd5b5061016f61016a3660046121ed565b610b4b565b6040516100f991906122d6565b34801561018857600080fd5b50610122610197366004612032565b610ba7565b3480156101a857600080fd5b506101226101b7366004612032565b610bb5565b3480156101c857600080fd5b506101226101d73660046121cc565b610bf9565b8443816001600160a01b031663b21634826040518163ffffffff1660e01b815260040160206040518083038186803b15801561021757600080fd5b505afa15801561022b573d6000803e3d6000fd5b505050506040513d601f19601f8201168201806040525081019061024f91906121b4565b141561026d5760405162461bcd60e51b815260040161009c9061241f565b806001600160a01b03166310fdb0a26040518163ffffffff1660e01b8152600401600060405180830381600087803b1580156102a857600080fd5b505af11580156102bc573d6000803e3d6000fd5b50506040517f17ba7d85000000000000000000000000000000000000000000000000000000008152600092506001600160a01b03891691506317ba7d8590610328907f0e49311626a26ba5be58a3b13d239908e80ce0dffdd5c50bf1d9c82ff35d1ab3906004016122d6565b60206040518083038186803b15801561034057600080fd5b505afa158015610354573d6000803e3d6000fd5b505050506040513d601f19601f82011682018060405250810190610378919061204e565b90506000816001600160a01b031663966917d089308888336040518663ffffffff1660e01b81526004016103b09594939291906122fe565b602060405180830381600087803b1580156103ca57600080fd5b505af11580156103de573d6000803e3d6000fd5b505050506040513d601f19601f82011682018060405250810190610402919061204e565b9050856001600160a01b0316816001600160a01b031614156104365760405162461bcd60e51b815260040161009c9061258f565b610444888888888886610c16565b5050806001600160a01b031663d4f7af436040518163ffffffff1660e01b8152600401600060405180830381600087803b15801561048157600080fd5b505af1158015610495573d6000803e3d6000fd5b50505050505050505050565b60006020818152928152604080822090935290815220546001600160a01b031681565b600080836001600160a01b031663fefbd8757fea0ca03c7adbe41dc655fec28a9209dc8e6e042f3d991a67765ba285b9cf73a06040518263ffffffff1660e01b815260040161051391906122d6565b60206040518083038186803b15801561052b57600080fd5b505afa15801561053f573d6000803e3d6000fd5b505050506040513d601f19601f82011682018060405250810190610563919061204e565b90506001600160a01b038116156106a4576040517fc89bb8ba0000000000000000000000000000000000000000000000000000000081526000906001600160a01b0386169063c89bb8ba906105bc90879060040161224f565b60206040518083038186803b1580156105d457600080fd5b505afa1580156105e8573d6000803e3d6000fd5b505050506040513d601f19601f8201168201806040525081019061060c919061204e565b90506000826001600160a01b031663f7888aec83620ff1ce6040518363ffffffff1660e01b8152600401610641929190612263565b60206040518083038186803b15801561065957600080fd5b505afa15801561066d573d6000803e3d6000fd5b505050506040513d601f19601f82011682018060405250810190610691919061204e565b6001600160a01b0316119250505061073d565b6040517fa230c5240000000000000000000000000000000000000000000000000000000081526001600160a01b0385169063a230c524906106e990869060040161224f565b60206040518083038186803b15801561070157600080fd5b505afa158015610715573d6000803e3d6000fd5b505050506040513d601f19601f820116820180604052508101906107399190612095565b9150505b92915050565b8143816001600160a01b031663b21634826040518163ffffffff1660e01b815260040160206040518083038186803b15801561077e57600080fd5b505afa158015610792573d6000803e3d6000fd5b505050506040513d601f19601f820116820180604052508101906107b691906121b4565b14156107d45760405162461bcd60e51b815260040161009c9061241f565b806001600160a01b03166310fdb0a26040518163ffffffff1660e01b8152600401600060405180830381600087803b15801561080f57600080fd5b505af1158015610823573d6000803e3d6000fd5b50506040517f30490e910000000000000000000000000000000000000000000000000000000081526001600160a01b03861692506330490e91915061086c9085906004016122d6565b600060405180830381600087803b15801561088657600080fd5b505af115801561089a573d6000803e3d6000fd5b50506040517f40de703e000000000000000000000000000000000000000000000000000000008152600092506001600160a01b03861691506340de703e906108e69086906004016122d6565b60206040518083038186803b1580156108fe57600080fd5b505afa158015610912573d6000803e3d6000fd5b505050506040513d601f19601f82011682018060405250810190610936919061204e565b90506001600160a01b03811661095e5760405162461bcd60e51b815260040161009c90612558565b6040517f76225e730000000000000000000000000000000000000000000000000000000081526000906001600160a01b038316906376225e73906109a8908890889060040161233f565b602060405180830381600087803b1580156109c257600080fd5b505af11580156109d6573d6000803e3d6000fd5b505050506040513d601f19601f820116820180604052508101906109fa9190612195565b90506002816005811115610a1e57634e487b7160e01b600052602160045260246000fd5b1415610a58576001600160a01b03808616600090815260208181526040808320888452909152902054610a53918791166110f9565b610af1565b6003816005811115610a7a57634e487b7160e01b600052602160045260246000fd5b1480610aa557506001816005811115610aa357634e487b7160e01b600052602160045260246000fd5b145b15610ad9576001600160a01b03808616600090815260208181526040808320888452909152902054610a53918791166115f6565b60405162461bcd60e51b815260040161009c906124ea565b5050806001600160a01b031663d4f7af436040518163ffffffff1660e01b8152600401600060405180830381600087803b158015610b2e57600080fd5b505af1158015610b42573d6000803e3d6000fd5b50505050505050565b6000811515610b5a8585610bf9565b151514610b9d578115610b8357610b72836002612663565b610b7c90856125f1565b9050610ba0565b610b8e836002612663565b610b7c908561274b565b610ba0565b50825b9392505050565b6001600160a01b0316151590565b60006001600160a01b03821661dead14801590610bdd57506001600160a01b03821661babe14155b801561073d57506001600160a01b038216614bec141592915050565b6000610c0c600260ff841685901c61277d565b6001149392505050565b8581610c228282611953565b6040517fb73dc3890000000000000000000000000000000000000000000000000000000081526001600160a01b0389169063b73dc38990610c67908a906004016122d6565b600060405180830381600087803b158015610c8157600080fd5b505af1158015610c95573d6000803e3d6000fd5b5050604051632c9f4b5b60e11b8152600092506001600160a01b038b16915063593e96b690610ce8907fea0ca03c7adbe41dc655fec28a9209dc8e6e042f3d991a67765ba285b9cf73a0906004016122d6565b60206040518083038186803b158015610d0057600080fd5b505afa158015610d14573d6000803e3d6000fd5b505050506040513d601f19601f82011682018060405250810190610d38919061204e565b90506000816001600160a01b031663f7888aec89620ff1ce6040518363ffffffff1660e01b8152600401610d6d929190612263565b60206040518083038186803b158015610d8557600080fd5b505afa158015610d99573d6000803e3d6000fd5b505050506040513d601f19601f82011682018060405250810190610dbd919061204e565b6001600160a01b031690506000826001600160a01b031663f7888aec8a63b105f00d6040518363ffffffff1660e01b8152600401610dfc929190612263565b60206040518083038186803b158015610e1457600080fd5b505afa158015610e28573d6000803e3d6000fd5b505050506040513d601f19601f82011682018060405250810190610e4c919061204e565b6001600160a01b031690506000610e6382846125f1565b11610e805760405162461bcd60e51b815260040161009c9061238b565b60405180602001604052808a6001600160a01b03168152506000808d6001600160a01b03166001600160a01b0316815260200190815260200160002060008c815260200190815260200160002060008201518160000160006101000a8154816001600160a01b0302191690836001600160a01b0316021790555090505060008b6001600160a01b03166317ba7d857f0e49311626a26ba5be58a3b13d239908e80ce0dffdd5c50bf1d9c82ff35d1ab36040518263ffffffff1660e01b8152600401610f4b91906122d6565b60206040518083038186803b158015610f6357600080fd5b505afa158015610f77573d6000803e3d6000fd5b505050506040513d601f19601f82011682018060405250810190610f9b919061204e565b6040517f2b0974d00000000000000000000000000000000000000000000000000000000081529091506001600160a01b03821690632b0974d090610fe9908f908f908e908e90600401612358565b600060405180830381600087803b15801561100357600080fd5b505af1158015611017573d6000803e3d6000fd5b505050506110708c6000808f6001600160a01b03166001600160a01b0316815260200190815260200160002060008e815260200190815260200160002060000160009054906101000a90046001600160a01b031661197d565b6040517f896ae9ba0000000000000000000000000000000000000000000000000000000081526001600160a01b038d169063896ae9ba906110b9908e908b9086906004016122df565b600060405180830381600087803b1580156110d357600080fd5b505af11580156110e7573d6000803e3d6000fd5b50505050505050505050505050505050565b604051632c9f4b5b60e11b81526000906001600160a01b0384169063593e96b690611148907fea0ca03c7adbe41dc655fec28a9209dc8e6e042f3d991a67765ba285b9cf73a0906004016122d6565b60206040518083038186803b15801561116057600080fd5b505afa158015611174573d6000803e3d6000fd5b505050506040513d601f19601f82011682018060405250810190611198919061204e565b90506000816001600160a01b0316637de66b6d6040518163ffffffff1660e01b815260040160206040518083038186803b1580156111d557600080fd5b505afa1580156111e9573d6000803e3d6000fd5b505050506040513d601f19601f8201168201806040525081019061120d91906121b4565b9050600061121a83611d7d565b90506000836001600160a01b031663f7888aec8662fff1ce6040518363ffffffff1660e01b815260040161124f929190612263565b60206040518083038186803b15801561126757600080fd5b505afa15801561127b573d6000803e3d6000fd5b505050506040513d601f19601f8201168201806040525081019061129f919061204e565b6001600160a01b031690506000846001600160a01b031663f7888aec87640bb105f00d6040518363ffffffff1660e01b81526004016112df929190612263565b60206040518083038186803b1580156112f757600080fd5b505afa15801561130b573d6000803e3d6000fd5b505050506040513d601f19601f8201168201806040525081019061132f919061204e565b6001600160a01b03169050600061134682846125f1565b905060005b8581101561151f576040517fe4b50cb80000000000000000000000000000000000000000000000000000000081526000906001600160a01b0389169063e4b50cb89061139b9085906004016122d6565b60206040518083038186803b1580156113b357600080fd5b505afa1580156113c7573d6000803e3d6000fd5b505050506040513d601f19601f820116820180604052508101906113eb919061204e565b90506000611482896001600160a01b031663f7888aec61dead856040518363ffffffff1660e01b8152600401611422929190612263565b60206040518083038186803b15801561143a57600080fd5b505afa15801561144e573d6000803e3d6000fd5b505050506040513d601f19601f82011682018060405250810190611472919061204e565b6001600160a01b03168589611d8b565b9050801561150a576040517f44a29e2a0000000000000000000000000000000000000000000000000000000081526001600160a01b038a16906344a29e2a906114d79061dead908e908790879060040161227d565b600060405180830381600087803b1580156114f157600080fd5b505af1158015611505573d6000803e3d6000fd5b505050505b5050808061151790612762565b91505061134b565b5060405163e3a05cc160e01b81526001600160a01b0387169063e3a05cc190611553908a9062fff1ce9088906004016122a7565b600060405180830381600087803b15801561156d57600080fd5b505af1158015611581573d6000803e3d6000fd5b505060405163e3a05cc160e01b81526001600160a01b038916925063e3a05cc191506115ba908a90640bb105f00d9087906004016122a7565b600060405180830381600087803b1580156115d457600080fd5b505af11580156115e8573d6000803e3d6000fd5b505050505050505050505050565b604051632c9f4b5b60e11b81526000906001600160a01b0384169063593e96b690611645907fea0ca03c7adbe41dc655fec28a9209dc8e6e042f3d991a67765ba285b9cf73a0906004016122d6565b60206040518083038186803b15801561165d57600080fd5b505afa158015611671573d6000803e3d6000fd5b505050506040513d601f19601f82011682018060405250810190611695919061204e565b90506000816001600160a01b031663f7888aec8462fff1ce6040518363ffffffff1660e01b81526004016116ca929190612263565b60206040518083038186803b1580156116e257600080fd5b505afa1580156116f6573d6000803e3d6000fd5b505050506040513d601f19601f8201168201806040525081019061171a919061204e565b6001600160a01b031690506000826001600160a01b031663f7888aec85640bb105f00d6040518363ffffffff1660e01b815260040161175a929190612263565b60206040518083038186803b15801561177257600080fd5b505afa158015611786573d6000803e3d6000fd5b505050506040513d601f19601f820116820180604052508101906117aa919061204e565b6001600160a01b03169050826001600160a01b031663c57d5fe985620ff1ce856040518463ffffffff1660e01b81526004016117e8939291906122a7565b600060405180830381600087803b15801561180257600080fd5b505af1158015611816573d6000803e3d6000fd5b505060405163e3a05cc160e01b81526001600160a01b038616925063e3a05cc1915061184d90879062fff1ce9087906004016122a7565b600060405180830381600087803b15801561186757600080fd5b505af115801561187b573d6000803e3d6000fd5b505060405163c57d5fe960e01b81526001600160a01b038616925063c57d5fe991506118b390879063b105f00d9086906004016122a7565b600060405180830381600087803b1580156118cd57600080fd5b505af11580156118e1573d6000803e3d6000fd5b505060405163e3a05cc160e01b81526001600160a01b038616925063e3a05cc1915061191a908790640bb105f00d9086906004016122a7565b600060405180830381600087803b15801561193457600080fd5b505af1158015611948573d6000803e3d6000fd5b505050505050505050565b61195d82826104c4565b6119795760405162461bcd60e51b815260040161009c906124b3565b5050565b604051632c9f4b5b60e11b81526000906001600160a01b0384169063593e96b6906119cc907fea0ca03c7adbe41dc655fec28a9209dc8e6e042f3d991a67765ba285b9cf73a0906004016122d6565b60206040518083038186803b1580156119e457600080fd5b505afa1580156119f8573d6000803e3d6000fd5b505050506040513d601f19601f82011682018060405250810190611a1c919061204e565b90506000816001600160a01b031663f7888aec84620ff1ce6040518363ffffffff1660e01b8152600401611a51929190612263565b60206040518083038186803b158015611a6957600080fd5b505afa158015611a7d573d6000803e3d6000fd5b505050506040513d601f19601f82011682018060405250810190611aa1919061204e565b6001600160a01b031690506000826001600160a01b031663f7888aec8563b105f00d6040518363ffffffff1660e01b8152600401611ae0929190612263565b60206040518083038186803b158015611af857600080fd5b505afa158015611b0c573d6000803e3d6000fd5b505050506040513d601f19601f82011682018060405250810190611b30919061204e565b6001600160a01b03169050826001600160a01b03166369af242f62fff1ce6040518263ffffffff1660e01b8152600401611b6a919061224f565b600060405180830381600087803b158015611b8457600080fd5b505af1158015611b98573d6000803e3d6000fd5b50506040517f69af242f0000000000000000000000000000000000000000000000000000000081526001600160a01b03861692506369af242f9150611be690640bb105f00d9060040161224f565b600060405180830381600087803b158015611c0057600080fd5b505af1158015611c14573d6000803e3d6000fd5b505060405163c57d5fe960e01b81526001600160a01b038616925063c57d5fe99150611c4b90879062fff1ce9087906004016122a7565b600060405180830381600087803b158015611c6557600080fd5b505af1158015611c79573d6000803e3d6000fd5b505060405163e3a05cc160e01b81526001600160a01b038616925063e3a05cc19150611cb0908790620ff1ce9087906004016122a7565b600060405180830381600087803b158015611cca57600080fd5b505af1158015611cde573d6000803e3d6000fd5b505060405163c57d5fe960e01b81526001600160a01b038616925063c57d5fe99150611d17908790640bb105f00d9086906004016122a7565b600060405180830381600087803b158015611d3157600080fd5b505af1158015611d45573d6000803e3d6000fd5b505060405163e3a05cc160e01b81526001600160a01b038616925063e3a05cc1915061191a90879063b105f00d9086906004016122a7565b600061073d8261babe611dfa565b6000808211611dac5760405162461bcd60e51b815260040161009c906123c2565b81831115611dcc5760405162461bcd60e51b815260040161009c90612456565b83611dd957506000610ba0565b6000611de5848661272c565b9050611df18382612609565b95945050505050565b604051633de222bb60e21b81526000906001600160a01b0384169063f7888aec90611e30908590640bb105f00d90600401612263565b60206040518083038186803b158015611e4857600080fd5b505afa158015611e5c573d6000803e3d6000fd5b505050506040513d601f19601f82011682018060405250810190611e80919061204e565b604051633de222bb60e21b81526001600160a01b0385169063f7888aec90611eb290869063b105f00d90600401612263565b60206040518083038186803b158015611eca57600080fd5b505afa158015611ede573d6000803e3d6000fd5b505050506040513d601f19601f82011682018060405250810190611f02919061204e565b604051633de222bb60e21b81526001600160a01b0386169063f7888aec90611f3390879062fff1ce90600401612263565b60206040518083038186803b158015611f4b57600080fd5b505afa158015611f5f573d6000803e3d6000fd5b505050506040513d601f19601f82011682018060405250810190611f83919061204e565b604051633de222bb60e21b81526001600160a01b0387169063f7888aec90611fb4908890620ff1ce90600401612263565b60206040518083038186803b158015611fcc57600080fd5b505afa158015611fe0573d6000803e3d6000fd5b505050506040513d601f19601f82011682018060405250810190612004919061204e565b61200e91906125c6565b61201891906125c6565b61202291906125c6565b6001600160a01b03169392505050565b600060208284031215612043578081fd5b8135610ba0816127bd565b60006020828403121561205f578081fd5b8151610ba0816127bd565b6000806040838503121561207c578081fd5b8235612087816127bd565b946020939093013593505050565b6000602082840312156120a6578081fd5b8151610ba0816127d5565b600080604083850312156120c3578182fd5b82356120ce816127bd565b915060208301356120de816127bd565b809150509250929050565b6000806040838503121561207c578182fd5b600080600080600060808688031215612112578081fd5b853561211d816127bd565b9450602086013593506040860135612134816127bd565b9250606086013567ffffffffffffffff80821115612150578283fd5b818801915088601f830112612163578283fd5b813581811115612171578384fd5b896020828501011115612182578384fd5b9699959850939650602001949392505050565b6000602082840312156121a6578081fd5b815160068110610ba0578182fd5b6000602082840312156121c5578081fd5b5051919050565b600080604083850312156121de578182fd5b50508035926020909101359150565b600080600060608486031215612201578283fd5b8335925060208401359150604084013561221a816127d5565b809150509250925092565b60008284528282602086013780602084860101526020601f19601f85011685010190509392505050565b6001600160a01b0391909116815260200190565b6001600160a01b0392831681529116602082015260400190565b6001600160a01b039485168152928416602084015292166040820152606081019190915260800190565b6001600160a01b039384168152919092166020820152604081019190915260600190565b901515815260200190565b90815260200190565b9283526001600160a01b03918216602084015216604082015260600190565b60006001600160a01b03808816835280871660208401526080604084015261232a608084018688612225565b91508084166060840152509695505050505050565b6001600160a01b03929092168252602082015260400190565b60006001600160a01b038616825284602083015260606040830152612381606083018486612225565b9695505050505050565b60208082526010908201527f6e6f20756e697473206f72206c6f6f7400000000000000000000000000000000604082015260600190565b60208082526021908201527f746f74616c556e697473206d7573742062652067726561746572207468616e2060408201527f3000000000000000000000000000000000000000000000000000000000000000606082015260800190565b60208082526010908201527f7265656e7472616e637920677561726400000000000000000000000000000000604082015260600190565b6020808252602e908201527f756e697473206d757374206265206c657373207468616e206f7220657175616c60408201527f20746f20746f74616c556e697473000000000000000000000000000000000000606082015260800190565b6020808252600a908201527f6f6e6c794d656d62657200000000000000000000000000000000000000000000604082015260600190565b6020808252601b908201527f766f74696e67206973207374696c6c20696e2070726f67726573730000000000604082015260600190565b6020808252600f908201527f66616c6c6261636b207265766572740000000000000000000000000000000000604082015260600190565b60208082526011908201527f61646170746572206e6f7420666f756e64000000000000000000000000000000604082015260600190565b6020808252600c908201527f7573652072616765717569740000000000000000000000000000000000000000604082015260600190565b60006001600160a01b038083168185168083038211156125e8576125e8612791565b01949350505050565b6000821982111561260457612604612791565b500190565b600082612618576126186127a7565b500490565b80825b600180861161262f575061265a565b81870482111561264157612641612791565b8086161561264e57918102915b9490941c938002612620565b94509492505050565b6000610ba0600019848460008261267c57506001610ba0565b8161268957506000610ba0565b816001811461269f57600281146126a9576126d6565b6001915050610ba0565b60ff8411156126ba576126ba612791565b6001841b9150848211156126d0576126d0612791565b50610ba0565b5060208310610133831016604e8410600b8410161715612704575081810a83811115610b9857610b98612791565b612711848484600161261d565b80860482111561272357612723612791565b02949350505050565b600081600019048311821515161561274657612746612791565b500290565b60008282101561275d5761275d612791565b500390565b600060001982141561277657612776612791565b5060010190565b60008261278c5761278c6127a7565b500690565b634e487b7160e01b600052601160045260246000fd5b634e487b7160e01b600052601260045260246000fd5b6001600160a01b03811681146127d257600080fd5b50565b80151581146127d257600080fdfea2646970667358221220196c7bf8c7a99830073d4a9251de81af19eb21a53783c5caa1e21decc05ee10064736f6c63430008000033",
  "linkReferences": {},
  "deployedLinkReferences": {}
}