{
  "_format": "hh-sol-artifact-1",
  "contractName": "KickBadReporterAdapter",
  "sourceName": "build/sources/adapters/voting/KickBadReporterAdapter.sol",
  "abi": [
    {
      "inputs": [
        {
          "internalType": "uint256",
          "name": "flags",
          "type": "uint256"
        },
        {
          "internalType": "uint256",
          "name": "flag",
          "type": "uint256"
        }
      ],
      "name": "getFlag",
      "outputs": [
        {
          "internalType": "bool",
          "name": "",
          "type": "bool"
        }
      ],
      "stateMutability": "pure",
      "type": "function"
    },
    {
      "inputs": [
        {
          "internalType": "contract DaoRegistry",
          "name": "dao",
          "type": "address"
        },
        {
          "internalType": "address",
          "name": "_addr",
          "type": "address"
        }
      ],
      "name": "isActiveMember",
      "outputs": [
        {
          "internalType": "bool",
          "name": "",
          "type": "bool"
        }
      ],
      "stateMutability": "view",
      "type": "function"
    },
    {
      "inputs": [
        {
          "internalType": "address",
          "name": "addr",
          "type": "address"
        }
      ],
      "name": "isNotReservedAddress",
      "outputs": [
        {
          "internalType": "bool",
          "name": "",
          "type": "bool"
        }
      ],
      "stateMutability": "pure",
      "type": "function"
    },
    {
      "inputs": [
        {
          "internalType": "address",
          "name": "addr",
          "type": "address"
        }
      ],
      "name": "isNotZeroAddress",
      "outputs": [
        {
          "internalType": "bool",
          "name": "",
          "type": "bool"
        }
      ],
      "stateMutability": "pure",
      "type": "function"
    },
    {
      "inputs": [
        {
          "internalType": "contract DaoRegistry",
          "name": "dao",
          "type": "address"
        },
        {
          "internalType": "bytes32",
          "name": "proposalId",
          "type": "bytes32"
        }
      ],
      "name": "processProposal",
      "outputs": [],
      "stateMutability": "nonpayable",
      "type": "function"
    },
    {
      "inputs": [
        {
          "internalType": "uint256",
          "name": "flags",
          "type": "uint256"
        },
        {
          "internalType": "uint256",
          "name": "flag",
          "type": "uint256"
        },
        {
          "internalType": "bool",
          "name": "value",
          "type": "bool"
        }
      ],
      "name": "setFlag",
      "outputs": [
        {
          "internalType": "uint256",
          "name": "",
          "type": "uint256"
        }
      ],
      "stateMutability": "pure",
      "type": "function"
    },
    {
      "inputs": [
        {
          "internalType": "contract DaoRegistry",
          "name": "dao",
          "type": "address"
        },
        {
          "internalType": "bytes32",
          "name": "proposalId",
          "type": "bytes32"
        },
        {
          "internalType": "bytes",
          "name": "data",
          "type": "bytes"
        }
      ],
      "name": "sponsorProposal",
      "outputs": [],
      "stateMutability": "nonpayable",
      "type": "function"
    },
    {
      "stateMutability": "payable",
      "type": "receive"
    }
  ],
  "bytecode": "0x608060405234801561001057600080fd5b50611b9c806100206000396000f3fe6080604052600436106100745760003560e01c8063ca0f46331161004e578063ca0f463314610124578063cd0e42ed14610144578063ef6a249914610164578063fc258031146101845761009a565b80638ecf77201461009f5780639573167d146100d5578063b244a41d146100f75761009a565b3661009a5760405162461bcd60e51b815260040161009190611912565b60405180910390fd5b600080fd5b3480156100ab57600080fd5b506100bf6100ba3660046114c4565b6101a4565b6040516100cc91906116db565b60405180910390f35b3480156100e157600080fd5b506100f56100f03660046114fc565b610423565b005b34801561010357600080fd5b50610117610112366004611627565b61092f565b6040516100cc91906116e6565b34801561013057600080fd5b506100bf61013f366004611470565b61098b565b34801561015057600080fd5b506100f561015f366004611527565b610999565b34801561017057600080fd5b506100bf61017f366004611470565b610b0f565b34801561019057600080fd5b506100bf61019f366004611606565b610b53565b600080836001600160a01b031663fefbd8757fea0ca03c7adbe41dc655fec28a9209dc8e6e042f3d991a67765ba285b9cf73a06040518263ffffffff1660e01b81526004016101f391906116e6565b60206040518083038186803b15801561020b57600080fd5b505afa15801561021f573d6000803e3d6000fd5b505050506040513d601f19601f82011682018060405250810190610243919061148c565b90506001600160a01b03811615610384576040517fc89bb8ba0000000000000000000000000000000000000000000000000000000081526000906001600160a01b0386169063c89bb8ba9061029c90879060040161165f565b60206040518083038186803b1580156102b457600080fd5b505afa1580156102c8573d6000803e3d6000fd5b505050506040513d601f19601f820116820180604052508101906102ec919061148c565b90506000826001600160a01b031663f7888aec83620ff1ce6040518363ffffffff1660e01b8152600401610321929190611673565b60206040518083038186803b15801561033957600080fd5b505afa15801561034d573d6000803e3d6000fd5b505050506040513d601f19601f82011682018060405250810190610371919061148c565b6001600160a01b0316119250505061041d565b6040517fa230c5240000000000000000000000000000000000000000000000000000000081526001600160a01b0385169063a230c524906103c990869060040161165f565b60206040518083038186803b1580156103e157600080fd5b505afa1580156103f5573d6000803e3d6000fd5b505050506040513d601f19601f8201168201806040525081019061041991906114a8565b9150505b92915050565b6040516317ba7d8560e01b81526000906001600160a01b038416906317ba7d8590610472907f0e49311626a26ba5be58a3b13d239908e80ce0dffdd5c50bf1d9c82ff35d1ab3906004016116e6565b60206040518083038186803b15801561048a57600080fd5b505afa15801561049e573d6000803e3d6000fd5b505050506040513d601f19601f820116820180604052508101906104c2919061148c565b6040517f1bb791cd0000000000000000000000000000000000000000000000000000000081529091506001600160a01b03821690631bb791cd9061050c9086908690600401611743565b600060405180830381600087803b15801561052657600080fd5b505af115801561053a573d6000803e3d6000fd5b50506040517f76225e73000000000000000000000000000000000000000000000000000000008152600092506001600160a01b03841691506376225e73906105889087908790600401611743565b60206040518083038186803b1580156105a057600080fd5b505afa1580156105b4573d6000803e3d6000fd5b505050506040513d601f19601f820116820180604052508101906105d891906115ab565b905060028160058111156105fc57634e487b7160e01b600052602160045260246000fd5b14156106ae576040517f29ae0f1a0000000000000000000000000000000000000000000000000000000081526000906001600160a01b038416906329ae0f1a9061064c9088908890600401611743565b604080518083038186803b15801561066357600080fd5b505afa158015610677573d6000803e3d6000fd5b505050506040513d601f19601f8201168201806040525081019061069b91906115e2565b9150506106a88582610b70565b50610929565b60038160058111156106d057634e487b7160e01b600052602160045260246000fd5b14806106fb575060018160058111156106f957634e487b7160e01b600052602160045260246000fd5b145b1561091157600080836001600160a01b03166329ae0f1a87876040518363ffffffff1660e01b8152600401610731929190611743565b604080518083038186803b15801561074857600080fd5b505afa15801561075c573d6000803e3d6000fd5b505050506040513d601f19601f8201168201806040525081019061078091906115e2565b915091506000866001600160a01b031663593e96b67fea0ca03c7adbe41dc655fec28a9209dc8e6e042f3d991a67765ba285b9cf73a06040518263ffffffff1660e01b81526004016107d291906116e6565b60206040518083038186803b1580156107ea57600080fd5b505afa1580156107fe573d6000803e3d6000fd5b505050506040513d601f19601f82011682018060405250810190610822919061148c565b60405163e3a05cc160e01b81529091506001600160a01b0382169063e3a05cc19061085990859063b105f00d9088906004016116b7565b600060405180830381600087803b15801561087357600080fd5b505af1158015610887573d6000803e3d6000fd5b50506040517fc57d5fe90000000000000000000000000000000000000000000000000000000081526001600160a01b038416925063c57d5fe991506108d7908590620ff1ce9088906004016116b7565b600060405180830381600087803b1580156108f157600080fd5b505af1158015610905573d6000803e3d6000fd5b50505050505050610929565b60405162461bcd60e51b8152600401610091906118db565b50505050565b600081151561093e8585610b53565b151514610981578115610967576109568360026119e6565b6109609085611974565b9050610984565b6109728360026119e6565b6109609085611ace565b610984565b50825b9392505050565b6001600160a01b0316151590565b6040516317ba7d8560e01b81526000906001600160a01b038616906317ba7d85906109e8907f0e49311626a26ba5be58a3b13d239908e80ce0dffdd5c50bf1d9c82ff35d1ab3906004016116e6565b60206040518083038186803b158015610a0057600080fd5b505afa158015610a14573d6000803e3d6000fd5b505050506040513d601f19601f82011682018060405250810190610a38919061148c565b90506000816001600160a01b031663966917d087308787336040518663ffffffff1660e01b8152600401610a709594939291906116ef565b60206040518083038186803b158015610a8857600080fd5b505afa158015610a9c573d6000803e3d6000fd5b505050506040513d601f19601f82011682018060405250810190610ac0919061148c565b9050610b07868686868080601f0160208091040260200160405190810160405280939291908181526020018383808284376000920191909152508792508891506110869050565b505050505050565b60006001600160a01b03821661dead14801590610b3757506001600160a01b03821661babe14155b801561041d57506001600160a01b038216614bec141592915050565b6000610b66600260ff841685901c611b00565b6001149392505050565b6040517f593e96b60000000000000000000000000000000000000000000000000000000081526000906001600160a01b0384169063593e96b690610bd8907fea0ca03c7adbe41dc655fec28a9209dc8e6e042f3d991a67765ba285b9cf73a0906004016116e6565b60206040518083038186803b158015610bf057600080fd5b505afa158015610c04573d6000803e3d6000fd5b505050506040513d601f19601f82011682018060405250810190610c28919061148c565b90506000816001600160a01b0316637de66b6d6040518163ffffffff1660e01b815260040160206040518083038186803b158015610c6557600080fd5b505afa158015610c79573d6000803e3d6000fd5b505050506040513d601f19601f82011682018060405250810190610c9d91906115ca565b90506000610caa83611191565b90506000836001600160a01b031663f7888aec8662fff1ce6040518363ffffffff1660e01b8152600401610cdf929190611673565b60206040518083038186803b158015610cf757600080fd5b505afa158015610d0b573d6000803e3d6000fd5b505050506040513d601f19601f82011682018060405250810190610d2f919061148c565b6001600160a01b031690506000846001600160a01b031663f7888aec87640bb105f00d6040518363ffffffff1660e01b8152600401610d6f929190611673565b60206040518083038186803b158015610d8757600080fd5b505afa158015610d9b573d6000803e3d6000fd5b505050506040513d601f19601f82011682018060405250810190610dbf919061148c565b6001600160a01b031690506000610dd68284611974565b905060005b85811015610faf576040517fe4b50cb80000000000000000000000000000000000000000000000000000000081526000906001600160a01b0389169063e4b50cb890610e2b9085906004016116e6565b60206040518083038186803b158015610e4357600080fd5b505afa158015610e57573d6000803e3d6000fd5b505050506040513d601f19601f82011682018060405250810190610e7b919061148c565b90506000610f12896001600160a01b031663f7888aec61dead856040518363ffffffff1660e01b8152600401610eb2929190611673565b60206040518083038186803b158015610eca57600080fd5b505afa158015610ede573d6000803e3d6000fd5b505050506040513d601f19601f82011682018060405250810190610f02919061148c565b6001600160a01b0316858961119f565b90508015610f9a576040517f44a29e2a0000000000000000000000000000000000000000000000000000000081526001600160a01b038a16906344a29e2a90610f679061dead908e908790879060040161168d565b600060405180830381600087803b158015610f8157600080fd5b505af1158015610f95573d6000803e3d6000fd5b505050505b50508080610fa790611ae5565b915050610ddb565b5060405163e3a05cc160e01b81526001600160a01b0387169063e3a05cc190610fe3908a9062fff1ce9088906004016116b7565b600060405180830381600087803b158015610ffd57600080fd5b505af1158015611011573d6000803e3d6000fd5b505060405163e3a05cc160e01b81526001600160a01b038916925063e3a05cc1915061104a908a90640bb105f00d9087906004016116b7565b600060405180830381600087803b15801561106457600080fd5b505af1158015611078573d6000803e3d6000fd5b505050505050505050505050565b8482611092828261120e565b6040517f779552630000000000000000000000000000000000000000000000000000000081526001600160a01b038416906377955263906110db908a908a90899060040161175c565b600060405180830381600087803b1580156110f557600080fd5b505af1158015611109573d6000803e3d6000fd5b50506040517f2b0974d00000000000000000000000000000000000000000000000000000000081526001600160a01b0386169250632b0974d09150611156908a908a908a9060040161177f565b600060405180830381600087803b15801561117057600080fd5b505af1158015611184573d6000803e3d6000fd5b5050505050505050505050565b600061041d8261babe611238565b60008082116111c05760405162461bcd60e51b8152600401610091906117ea565b818311156111e05760405162461bcd60e51b815260040161009190611847565b836111ed57506000610984565b60006111f98486611aaf565b9050611205838261198c565b95945050505050565b61121882826101a4565b6112345760405162461bcd60e51b8152600401610091906118a4565b5050565b604051633de222bb60e21b81526000906001600160a01b0384169063f7888aec9061126e908590640bb105f00d90600401611673565b60206040518083038186803b15801561128657600080fd5b505afa15801561129a573d6000803e3d6000fd5b505050506040513d601f19601f820116820180604052508101906112be919061148c565b604051633de222bb60e21b81526001600160a01b0385169063f7888aec906112f090869063b105f00d90600401611673565b60206040518083038186803b15801561130857600080fd5b505afa15801561131c573d6000803e3d6000fd5b505050506040513d601f19601f82011682018060405250810190611340919061148c565b604051633de222bb60e21b81526001600160a01b0386169063f7888aec9061137190879062fff1ce90600401611673565b60206040518083038186803b15801561138957600080fd5b505afa15801561139d573d6000803e3d6000fd5b505050506040513d601f19601f820116820180604052508101906113c1919061148c565b604051633de222bb60e21b81526001600160a01b0387169063f7888aec906113f2908890620ff1ce90600401611673565b60206040518083038186803b15801561140a57600080fd5b505afa15801561141e573d6000803e3d6000fd5b505050506040513d601f19601f82011682018060405250810190611442919061148c565b61144c9190611949565b6114569190611949565b6114609190611949565b6001600160a01b03169392505050565b600060208284031215611481578081fd5b813561098481611b40565b60006020828403121561149d578081fd5b815161098481611b40565b6000602082840312156114b9578081fd5b815161098481611b58565b600080604083850312156114d6578081fd5b82356114e181611b40565b915060208301356114f181611b40565b809150509250929050565b6000806040838503121561150e578182fd5b823561151981611b40565b946020939093013593505050565b6000806000806060858703121561153c578182fd5b843561154781611b40565b935060208501359250604085013567ffffffffffffffff8082111561156a578384fd5b818701915087601f83011261157d578384fd5b81358181111561158b578485fd5b88602082850101111561159c578485fd5b95989497505060200194505050565b6000602082840312156115bc578081fd5b815160068110610984578182fd5b6000602082840312156115db578081fd5b5051919050565b600080604083850312156115f4578182fd5b8251915060208301516114f181611b40565b60008060408385031215611618578182fd5b50508035926020909101359150565b60008060006060848603121561163b578283fd5b8335925060208401359150604084013561165481611b58565b809150509250925092565b6001600160a01b0391909116815260200190565b6001600160a01b0392831681529116602082015260400190565b6001600160a01b039485168152928416602084015292166040820152606081019190915260800190565b6001600160a01b039384168152919092166020820152604081019190915260600190565b901515815260200190565b90815260200190565b60006001600160a01b038088168352808716602084015260806040840152846080840152848660a085013782850160a090810192909252929092166060820152601f909201601f1916909101019392505050565b6001600160a01b03929092168252602082015260400190565b6001600160a01b0393841681526020810192909252909116604082015260600190565b60006001600160a01b038516825260208481840152606060408401528351806060850152825b818110156117c1578581018301518582016080015282016117a5565b818111156117d25783608083870101525b50601f01601f19169290920160800195945050505050565b60208082526021908201527f746f74616c556e697473206d7573742062652067726561746572207468616e2060408201527f3000000000000000000000000000000000000000000000000000000000000000606082015260800190565b6020808252602e908201527f756e697473206d757374206265206c657373207468616e206f7220657175616c60408201527f20746f20746f74616c556e697473000000000000000000000000000000000000606082015260800190565b6020808252600a908201527f6f6e6c794d656d62657200000000000000000000000000000000000000000000604082015260600190565b60208082526015908201527f766f7465206e6f742066696e6973686564207965740000000000000000000000604082015260600190565b6020808252600f908201527f66616c6c6261636b207265766572740000000000000000000000000000000000604082015260600190565b60006001600160a01b0380831681851680830382111561196b5761196b611b14565b01949350505050565b6000821982111561198757611987611b14565b500190565b60008261199b5761199b611b2a565b500490565b80825b60018086116119b257506119dd565b8187048211156119c4576119c4611b14565b808616156119d157918102915b9490941c9380026119a3565b94509492505050565b600061098460001984846000826119ff57506001610984565b81611a0c57506000610984565b8160018114611a225760028114611a2c57611a59565b6001915050610984565b60ff841115611a3d57611a3d611b14565b6001841b915084821115611a5357611a53611b14565b50610984565b5060208310610133831016604e8410600b8410161715611a87575081810a8381111561097c5761097c611b14565b611a9484848460016119a0565b808604821115611aa657611aa6611b14565b02949350505050565b6000816000190483118215151615611ac957611ac9611b14565b500290565b600082821015611ae057611ae0611b14565b500390565b6000600019821415611af957611af9611b14565b5060010190565b600082611b0f57611b0f611b2a565b500690565b634e487b7160e01b600052601160045260246000fd5b634e487b7160e01b600052601260045260246000fd5b6001600160a01b0381168114611b5557600080fd5b50565b8015158114611b5557600080fdfea26469706673582212202404687f2a3faab5addb7a22dfcb92d97a62c54256a996e842c1954e47fc18b664736f6c63430008000033",
  "linkReferences": {},
  "deployedLinkReferences": {}
}