{
  "_format": "hh-sol-artifact-1",
  "contractName": "ManagingContract",
  "sourceName": "build/sources/adapters/Managing.sol",
  "abi": [
    {
      "inputs": [
        {
          "internalType": "uint256",
          "name": "flags",
          "type": "uint256"
        },
        {
          "internalType": "uint256",
          "name": "flag",
          "type": "uint256"
        }
      ],
      "name": "getFlag",
      "outputs": [
        {
          "internalType": "bool",
          "name": "",
          "type": "bool"
        }
      ],
      "stateMutability": "pure",
      "type": "function"
    },
    {
      "inputs": [
        {
          "internalType": "contract DaoRegistry",
          "name": "dao",
          "type": "address"
        },
        {
          "internalType": "address",
          "name": "_addr",
          "type": "address"
        }
      ],
      "name": "isActiveMember",
      "outputs": [
        {
          "internalType": "bool",
          "name": "",
          "type": "bool"
        }
      ],
      "stateMutability": "view",
      "type": "function"
    },
    {
      "inputs": [
        {
          "internalType": "address",
          "name": "addr",
          "type": "address"
        }
      ],
      "name": "isNotReservedAddress",
      "outputs": [
        {
          "internalType": "bool",
          "name": "",
          "type": "bool"
        }
      ],
      "stateMutability": "pure",
      "type": "function"
    },
    {
      "inputs": [
        {
          "internalType": "address",
          "name": "addr",
          "type": "address"
        }
      ],
      "name": "isNotZeroAddress",
      "outputs": [
        {
          "internalType": "bool",
          "name": "",
          "type": "bool"
        }
      ],
      "stateMutability": "pure",
      "type": "function"
    },
    {
      "inputs": [
        {
          "internalType": "contract DaoRegistry",
          "name": "dao",
          "type": "address"
        },
        {
          "internalType": "bytes32",
          "name": "proposalId",
          "type": "bytes32"
        }
      ],
      "name": "processProposal",
      "outputs": [],
      "stateMutability": "nonpayable",
      "type": "function"
    },
    {
      "inputs": [
        {
          "internalType": "address",
          "name": "",
          "type": "address"
        },
        {
          "internalType": "bytes32",
          "name": "",
          "type": "bytes32"
        }
      ],
      "name": "proposals",
      "outputs": [
        {
          "internalType": "bytes32",
          "name": "adapterOrExtensionId",
          "type": "bytes32"
        },
        {
          "internalType": "address",
          "name": "adapterOrExtensionAddr",
          "type": "address"
        },
        {
          "internalType": "enum IManaging.UpdateType",
          "name": "updateType",
          "type": "uint8"
        },
        {
          "internalType": "uint128",
          "name": "flags",
          "type": "uint128"
        }
      ],
      "stateMutability": "view",
      "type": "function"
    },
    {
      "inputs": [
        {
          "internalType": "uint256",
          "name": "flags",
          "type": "uint256"
        },
        {
          "internalType": "uint256",
          "name": "flag",
          "type": "uint256"
        },
        {
          "internalType": "bool",
          "name": "value",
          "type": "bool"
        }
      ],
      "name": "setFlag",
      "outputs": [
        {
          "internalType": "uint256",
          "name": "",
          "type": "uint256"
        }
      ],
      "stateMutability": "pure",
      "type": "function"
    },
    {
      "inputs": [
        {
          "internalType": "contract DaoRegistry",
          "name": "dao",
          "type": "address"
        },
        {
          "internalType": "bytes32",
          "name": "proposalId",
          "type": "bytes32"
        },
        {
          "components": [
            {
              "internalType": "bytes32",
              "name": "adapterOrExtensionId",
              "type": "bytes32"
            },
            {
              "internalType": "address",
              "name": "adapterOrExtensionAddr",
              "type": "address"
            },
            {
              "internalType": "enum IManaging.UpdateType",
              "name": "updateType",
              "type": "uint8"
            },
            {
              "internalType": "uint128",
              "name": "flags",
              "type": "uint128"
            },
            {
              "internalType": "bytes32[]",
              "name": "keys",
              "type": "bytes32[]"
            },
            {
              "internalType": "uint256[]",
              "name": "values",
              "type": "uint256[]"
            },
            {
              "internalType": "address[]",
              "name": "extensionAddresses",
              "type": "address[]"
            },
            {
              "internalType": "uint128[]",
              "name": "extensionAclFlags",
              "type": "uint128[]"
            }
          ],
          "internalType": "struct IManaging.ProposalDetails",
          "name": "proposal",
          "type": "tuple"
        },
        {
          "internalType": "bytes",
          "name": "data",
          "type": "bytes"
        }
      ],
      "name": "submitProposal",
      "outputs": [],
      "stateMutability": "nonpayable",
      "type": "function"
    },
    {
      "stateMutability": "payable",
      "type": "receive"
    }
  ],
  "bytecode": "0x608060405234801561001057600080fd5b506121a2806100206000396000f3fe60806040526004361061007f5760003560e01c8063ca0f46331161004e578063ca0f46331461015f578063d458c4531461017f578063ef6a24991461019f578063fc258031146101bf576100a5565b80635cb75276146100aa5780638ecf7720146100e35780639573167d14610110578063b244a41d14610132576100a5565b366100a55760405162461bcd60e51b815260040161009c90611a74565b60405180910390fd5b600080fd5b3480156100b657600080fd5b506100ca6100c5366004611446565b6101df565b6040516100da94939291906116ed565b60405180910390f35b3480156100ef57600080fd5b506101036100fe36600461148d565b610227565b6040516100da91906116ba565b34801561011c57600080fd5b5061013061012b3660046114c5565b6104a6565b005b34801561013e57600080fd5b5061015261014d3660046115fe565b610e05565b6040516100da91906116c5565b34801561016b57600080fd5b5061010361017a36600461140e565b610e61565b34801561018b57600080fd5b5061013061019a3660046114d7565b610e6f565b3480156101ab57600080fd5b506101036101ba36600461140e565b611383565b3480156101cb57600080fd5b506101036101da3660046115dd565b6113c7565b600060208181529281526040808220909352908152208054600182015460029092015490916001600160a01b03811691600160a01b90910460ff16906001600160801b031684565b600080836001600160a01b031663fefbd8757fea0ca03c7adbe41dc655fec28a9209dc8e6e042f3d991a67765ba285b9cf73a06040518263ffffffff1660e01b815260040161027691906116c5565b60206040518083038186803b15801561028e57600080fd5b505afa1580156102a2573d6000803e3d6000fd5b505050506040513d601f19601f820116820180604052508101906102c6919061142a565b90506001600160a01b03811615610407576040517fc89bb8ba0000000000000000000000000000000000000000000000000000000081526000906001600160a01b0386169063c89bb8ba9061031f908790600401611660565b60206040518083038186803b15801561033757600080fd5b505afa15801561034b573d6000803e3d6000fd5b505050506040513d601f19601f8201168201806040525081019061036f919061142a565b90506000826001600160a01b031663f7888aec83620ff1ce6040518363ffffffff1660e01b81526004016103a4929190611674565b60206040518083038186803b1580156103bc57600080fd5b505afa1580156103d0573d6000803e3d6000fd5b505050506040513d601f19601f820116820180604052508101906103f4919061142a565b6001600160a01b031611925050506104a0565b6040517fa230c5240000000000000000000000000000000000000000000000000000000081526001600160a01b0385169063a230c5249061044c908690600401611660565b60206040518083038186803b15801561046457600080fd5b505afa158015610478573d6000803e3d6000fd5b505050506040513d601f19601f8201168201806040525081019061049c9190611471565b9150505b92915050565b8143816001600160a01b031663b21634826040518163ffffffff1660e01b815260040160206040518083038186803b1580156104e157600080fd5b505afa1580156104f5573d6000803e3d6000fd5b505050506040513d601f19601f8201168201806040525081019061051991906115c5565b14156105375760405162461bcd60e51b815260040161009c90611972565b806001600160a01b03166310fdb0a26040518163ffffffff1660e01b8152600401600060405180830381600087803b15801561057257600080fd5b505af1158015610586573d6000803e3d6000fd5b5050506001600160a01b0380851660009081526020818152604080832087845282528083208151610100810183528154815260018201549586169381019390935292945090929083019060ff600160a01b9091041660028111156105fa57634e487b7160e01b600052602160045260246000fd5b600281111561061957634e487b7160e01b600052602160045260246000fd5b815260028201546001600160801b0316602080830191909152600383018054604080518285028101850182528281529401939283018282801561067b57602002820191906000526020600020905b815481526020019060010190808311610667575b50505050508152602001600482018054806020026020016040519081016040528092919081815260200182805480156106d357602002820191906000526020600020905b8154815260200190600101908083116106bf575b505050505081526020016005820180548060200260200160405190810160405280929190818152602001828054801561073557602002820191906000526020600020905b81546001600160a01b03168152600190910190602001808311610717575b50505050508152602001600682018054806020026020016040519081016040528092919081815260200182805480156107bf57602002820191906000526020600020906000905b82829054906101000a90046001600160801b03166001600160801b031681526020019060100190602082600f0104928301926001038202915080841161077c5790505b50505050508152505090506000846001600160a01b03166340de703e856040518263ffffffff1660e01b81526004016107f891906116c5565b60206040518083038186803b15801561081057600080fd5b505afa158015610824573d6000803e3d6000fd5b505050506040513d601f19601f82011682018060405250810190610848919061142a565b90506001600160a01b0381166108705760405162461bcd60e51b815260040161009c90611aab565b60026040517f76225e730000000000000000000000000000000000000000000000000000000081526001600160a01b038316906376225e73906108b99089908990600401611824565b602060405180830381600087803b1580156108d357600080fd5b505af11580156108e7573d6000803e3d6000fd5b505050506040513d601f19601f8201168201806040525081019061090b919061158a565b600581111561092a57634e487b7160e01b600052602160045260246000fd5b146109475760405162461bcd60e51b815260040161009c90611870565b6040517f30490e910000000000000000000000000000000000000000000000000000000081526001600160a01b038616906330490e919061098c9087906004016116c5565b600060405180830381600087803b1580156109a657600080fd5b505af11580156109ba573d6000803e3d6000fd5b50600192506109c7915050565b826040015160028111156109eb57634e487b7160e01b600052602160045260246000fd5b1415610a7057846001600160a01b031663a37ff5e483600001518460200151856060015186608001518760a001516040518663ffffffff1660e01b8152600401610a3995949392919061173f565b600060405180830381600087803b158015610a5357600080fd5b505af1158015610a67573d6000803e3d6000fd5b50505050610cb0565b600282604001516002811115610a9657634e487b7160e01b600052602160045260246000fd5b1415610c985781516040517ffefbd8750000000000000000000000000000000000000000000000000000000081526000916001600160a01b0388169163fefbd87591610ae4916004016116c5565b60206040518083038186803b158015610afc57600080fd5b505afa158015610b10573d6000803e3d6000fd5b505050506040513d601f19601f82011682018060405250810190610b34919061142a565b6001600160a01b031614610bbb5781516040517f0ac9bd010000000000000000000000000000000000000000000000000000000081526001600160a01b03871691630ac9bd0191610b8891906004016116c5565b600060405180830381600087803b158015610ba257600080fd5b505af1158015610bb6573d6000803e3d6000fd5b505050505b60208201516001600160a01b031615610c9357815160208301516040517f9029444a0000000000000000000000000000000000000000000000000000000081526001600160a01b0388169263c130c6399290918490639029444a90610c25906000906004016116c5565b60206040518083038186803b158015610c3d57600080fd5b505afa158015610c51573d6000803e3d6000fd5b505050506040513d601f19601f82011682018060405250810190610c75919061142a565b6040518463ffffffff1660e01b8152600401610a39939291906116ce565b610cb0565b60405162461bcd60e51b815260040161009c906118de565b60005b8260e0015151816001600160801b03161015610daa57856001600160a01b031663179986f88460c00151836001600160801b031681518110610d0557634e487b7160e01b600052603260045260246000fd5b602002602001015185602001518660e00151856001600160801b031681518110610d3f57634e487b7160e01b600052603260045260246000fd5b60200260200101516040518463ffffffff1660e01b8152600401610d659392919061168e565b600060405180830381600087803b158015610d7f57600080fd5b505af1158015610d93573d6000803e3d6000fd5b505050508080610da290611e92565b915050610cb3565b505050806001600160a01b031663d4f7af436040518163ffffffff1660e01b8152600401600060405180830381600087803b158015610de857600080fd5b505af1158015610dfc573d6000803e3d6000fd5b50505050505050565b6000811515610e1485856113c7565b151514610e57578115610e3d57610e2c836002611bb0565b610e369085611b52565b9050610e5a565b610e48836002611bb0565b610e369085611c79565b610e5a565b50825b9392505050565b6001600160a01b0316151590565b84610e7a81336113e4565b8543816001600160a01b031663b21634826040518163ffffffff1660e01b815260040160206040518083038186803b158015610eb557600080fd5b505afa158015610ec9573d6000803e3d6000fd5b505050506040513d601f19601f82011682018060405250810190610eed91906115c5565b1415610f0b5760405162461bcd60e51b815260040161009c90611972565b806001600160a01b03166310fdb0a26040518163ffffffff1660e01b8152600401600060405180830381600087803b158015610f4657600080fd5b505af1158015610f5a573d6000803e3d6000fd5b50610f6c9250505060a0860186611b30565b9050610f7b6080870187611b30565b905014610f9a5760405162461bcd60e51b815260040161009c90611a17565b610fa760e0860186611b30565b9050610fb660c0870187611ae2565b905014610fd55760405162461bcd60e51b815260040161009c90611915565b6001600160801b03610fed60808701606088016115a9565b6001600160801b0316106110135760405162461bcd60e51b815260040161009c906119a9565b6110266101ba604087016020880161140e565b6110425760405162461bcd60e51b815260040161009c906118a7565b6040517fb73dc3890000000000000000000000000000000000000000000000000000000081526001600160a01b0388169063b73dc389906110879089906004016116c5565b600060405180830381600087803b1580156110a157600080fd5b505af11580156110b5573d6000803e3d6000fd5b5050506001600160a01b0388166000908152602081815260408083208a845290915290208691506110e68282611f7f565b50506040517f17ba7d850000000000000000000000000000000000000000000000000000000081526000906001600160a01b038916906317ba7d8590611150907f0e49311626a26ba5be58a3b13d239908e80ce0dffdd5c50bf1d9c82ff35d1ab3906004016116c5565b60206040518083038186803b15801561116857600080fd5b505afa15801561117c573d6000803e3d6000fd5b505050506040513d601f19601f820116820180604052508101906111a0919061142a565b90506000816001600160a01b031663966917d08a308989336040518663ffffffff1660e01b81526004016111d89594939291906117e3565b602060405180830381600087803b1580156111f257600080fd5b505af1158015611206573d6000803e3d6000fd5b505050506040513d601f19601f8201168201806040525081019061122a919061142a565b6040517f896ae9ba0000000000000000000000000000000000000000000000000000000081529091506001600160a01b038a169063896ae9ba90611276908b90859087906004016116ce565b600060405180830381600087803b15801561129057600080fd5b505af11580156112a4573d6000803e3d6000fd5b50506040517f2b0974d00000000000000000000000000000000000000000000000000000000081526001600160a01b0385169250632b0974d091506112f3908c908c908b908b9060040161183d565b600060405180830381600087803b15801561130d57600080fd5b505af1158015611321573d6000803e3d6000fd5b505050505050806001600160a01b031663d4f7af436040518163ffffffff1660e01b8152600401600060405180830381600087803b15801561136257600080fd5b505af1158015611376573d6000803e3d6000fd5b5050505050505050505050565b60006001600160a01b03821661dead148015906113ab57506001600160a01b03821661babe14155b80156104a057506001600160a01b038216614bec141592915050565b60006113da600260ff841685901c611eb9565b6001149392505050565b6113ee8282610227565b61140a5760405162461bcd60e51b815260040161009c906119e0565b5050565b60006020828403121561141f578081fd5b8135610e5a81612131565b60006020828403121561143b578081fd5b8151610e5a81612131565b60008060408385031215611458578081fd5b823561146381612131565b946020939093013593505050565b600060208284031215611482578081fd5b8151610e5a81612149565b6000806040838503121561149f578182fd5b82356114aa81612131565b915060208301356114ba81612131565b809150509250929050565b60008060408385031215611458578182fd5b6000806000806000608086880312156114ee578081fd5b85356114f981612131565b945060208601359350604086013567ffffffffffffffff8082111561151c578283fd5b90870190610100828a031215611530578283fd5b90935060608701359080821115611545578283fd5b818801915088601f830112611558578283fd5b813581811115611566578384fd5b896020828501011115611577578384fd5b9699959850939650602001949392505050565b60006020828403121561159b578081fd5b815160068110610e5a578182fd5b6000602082840312156115ba578081fd5b8135610e5a81612157565b6000602082840312156115d6578081fd5b5051919050565b600080604083850312156115ef578182fd5b50508035926020909101359150565b600080600060608486031215611612578283fd5b8335925060208401359150604084013561162b81612149565b809150509250925092565b60008284528282602086013780602084860101526020601f19601f85011685010190509392505050565b6001600160a01b0391909116815260200190565b6001600160a01b0392831681529116602082015260400190565b6001600160a01b0393841681529190921660208201526001600160801b03909116604082015260600190565b901515815260200190565b90815260200190565b9283526001600160a01b03918216602084015216604082015260600190565b8481526001600160a01b0384166020820152608081016003841061172157634e487b7160e01b600052602160045260246000fd5b8360408301526001600160801b038316606083015295945050505050565b600060a0820187835260206001600160a01b038816818501526001600160801b038716604085015260a0606085015281865180845260c0860191508288019350845b8181101561179d57845183529383019391830191600101611781565b505084810360808601528551808252908201925081860190845b818110156117d3578251855293830193918301916001016117b7565b50929a9950505050505050505050565b60006001600160a01b03808816835280871660208401526080604084015261180f608084018688611636565b91508084166060840152509695505050505050565b6001600160a01b03929092168252602082015260400190565b60006001600160a01b038616825284602083015260606040830152611866606083018486611636565b9695505050505050565b60208082526015908201527f70726f706f73616c20646964206e6f7420706173730000000000000000000000604082015260600190565b60208082526013908201527f6164647265737320697320726573657276656400000000000000000000000000604082015260600190565b60208082526013908201527f756e6b6e6f776e20757064617465207479706500000000000000000000000000604082015260600190565b60208082526036908201527f6d75737420626520616e20657175616c206e756d626572206f6620657874656e60408201527f73696f6e2061646472657373657320616e642061636c00000000000000000000606082015260800190565b60208082526010908201527f7265656e7472616e637920677561726400000000000000000000000000000000604082015260600190565b60208082526017908201527f70726f706f73616c20666c616773206f766572666c6f77000000000000000000604082015260600190565b6020808252600a908201527f6f6e6c794d656d62657200000000000000000000000000000000000000000000604082015260600190565b60208082526031908201527f6d75737420626520616e20657175616c206e756d626572206f6620636f6e666960408201527f67206b65797320616e642076616c756573000000000000000000000000000000606082015260800190565b6020808252600f908201527f66616c6c6261636b207265766572740000000000000000000000000000000000604082015260600190565b60208082526011908201527f61646170746572206e6f7420666f756e64000000000000000000000000000000604082015260600190565b6000808335601e19843603018112611af8578283fd5b83018035915067ffffffffffffffff821115611b12578283fd5b6020908101925081023603821315611b2957600080fd5b9250929050565b6000808335601e19843603018112611af8578182fd5b60009081526020902090565b60008219821115611b6557611b65611ed9565b500190565b80825b6001808611611b7c5750611ba7565b818704821115611b8e57611b8e611ed9565b80861615611b9b57918102915b9490941c938002611b6d565b94509492505050565b6000610e5a6000198484600082611bc957506001610e5a565b81611bd657506000610e5a565b8160018114611bec5760028114611bf657611c23565b6001915050610e5a565b60ff841115611c0757611c07611ed9565b6001841b915084821115611c1d57611c1d611ed9565b50610e5a565b5060208310610133831016604e8410600b8410161715611c51575081810a83811115610e5257610e52611ed9565b611c5e8484846001611b6a565b808604821115611c7057611c70611ed9565b02949350505050565b600082821015611c8b57611c8b611ed9565b500390565b5b8181101561140a5760008155600101611c91565b611caf8382611f22565b818160005260208060002060005b86811015610dfc578335611cd081612131565b825473ffffffffffffffffffffffffffffffffffffffff19166001600160a01b03919091161782559282019260019182019101611cbd565b68010000000000000000831115611d2157611d21611eef565b805483825580841015611d63576000828152602081208581019083015b80821015611d5f57611d5283848454611f66565b8255600182019150611d3e565b5050505b5081611d6e82611b46565b6000805b86811015610dfc57611d86843583856120f7565b6020939093019260019283019201611d72565b68010000000000000000831115611db257611db2611eef565b805483825580841015611e0b57816000526020600020600260018601048101601060018716028015611df557600019808301805482846020036008021c16815550505b50611e0860026001850104830182611c90565b50505b5081611e1682611b46565b6000805b86811015610dfc57611e35611e2e85611f15565b8385612109565b6020840193506010808301925080831115611e5557600092506001840193505b50600101611e1a565b611e688382611f22565b818160005260208060002060005b86811015610dfc57833582559282019260019182019101611e76565b60006001600160801b0380831681811415611eaf57611eaf611ed9565b6001019392505050565b600082611ed457634e487b7160e01b81526012600452602481fd5b500690565b634e487b7160e01b600052601160045260246000fd5b634e487b7160e01b600052604160045260246000fd5b60008135600381106104a0578182fd5b600081356104a081612157565b68010000000000000000821115611f3b57611f3b611eef565b805482825580831015611f6157816000526020600020611f5f828201858301611c90565b505b505050565b60089190910291821b60001990921b9182169119161790565b81358155600181016020830135611f9581612131565b6001600160a01b03811673ffffffffffffffffffffffffffffffffffffffff1983541617825550611fd1611fcb60408501611f05565b82612091565b50611fea611fe160608401611f15565b6002830161205c565b611ff76080830183611ae2565b612005818360038601611d08565b505061201460a0830183611ae2565b612022818360048601611e5e565b505061203160c0830183611ae2565b61203f818360058601611ca5565b505061204e60e0830183611ae2565b611f5f818360068601611d99565b6001600160801b0382167fffffffffffffffffffffffffffffffff000000000000000000000000000000008254161781555050565b600382106120af57634e487b7160e01b600052602160045260246000fd5b805474ff00000000000000000000000000000000000000008360a01b167fffffffffffffffffffffff00ffffffffffffffffffffffffffffffffffffffff8216178255505050565b61210383838354611f66565b90555050565b6001600160801b0381546008840282811b80848816831b168119841617855550505050505050565b6001600160a01b038116811461214657600080fd5b50565b801515811461214657600080fd5b6001600160801b038116811461214657600080fdfea2646970667358221220afbb20fc9d5c454612c027a21c29ba92ddbed0e8024d15a6cc0f15f2d9f1141b64736f6c63430008000033",
  "linkReferences": {},
  "deployedLinkReferences": {}
}