{
  "_format": "hh-sol-artifact-1",
  "contractName": "MovementAdapter",
  "sourceName": "build/sources/adapters/MovementAdapter.sol",
  "abi": [
    {
      "anonymous": false,
      "inputs": [
        {
          "indexed": false,
          "internalType": "address",
          "name": "adapter",
          "type": "address"
        },
        {
          "indexed": false,
          "internalType": "bytes32",
          "name": "proposalId",
          "type": "bytes32"
        }
      ],
      "name": "ProposalProcessed",
      "type": "event"
    },
    {
      "anonymous": false,
      "inputs": [
        {
          "indexed": false,
          "internalType": "address",
          "name": "adapter",
          "type": "address"
        },
        {
          "indexed": false,
          "internalType": "bytes32",
          "name": "proposalId",
          "type": "bytes32"
        }
      ],
      "name": "ProposalSubmitted",
      "type": "event"
    },
    {
      "inputs": [
        {
          "internalType": "uint256",
          "name": "flags",
          "type": "uint256"
        },
        {
          "internalType": "uint256",
          "name": "flag",
          "type": "uint256"
        }
      ],
      "name": "getFlag",
      "outputs": [
        {
          "internalType": "bool",
          "name": "",
          "type": "bool"
        }
      ],
      "stateMutability": "pure",
      "type": "function"
    },
    {
      "inputs": [
        {
          "internalType": "contract DaoRegistry",
          "name": "dao",
          "type": "address"
        },
        {
          "internalType": "address",
          "name": "_addr",
          "type": "address"
        }
      ],
      "name": "isActiveMember",
      "outputs": [
        {
          "internalType": "bool",
          "name": "",
          "type": "bool"
        }
      ],
      "stateMutability": "view",
      "type": "function"
    },
    {
      "inputs": [
        {
          "internalType": "address",
          "name": "addr",
          "type": "address"
        }
      ],
      "name": "isNotReservedAddress",
      "outputs": [
        {
          "internalType": "bool",
          "name": "",
          "type": "bool"
        }
      ],
      "stateMutability": "pure",
      "type": "function"
    },
    {
      "inputs": [
        {
          "internalType": "address",
          "name": "addr",
          "type": "address"
        }
      ],
      "name": "isNotZeroAddress",
      "outputs": [
        {
          "internalType": "bool",
          "name": "",
          "type": "bool"
        }
      ],
      "stateMutability": "pure",
      "type": "function"
    },
    {
      "inputs": [
        {
          "internalType": "contract DaoRegistry",
          "name": "dao",
          "type": "address"
        },
        {
          "internalType": "bytes32",
          "name": "proposalId",
          "type": "bytes32"
        }
      ],
      "name": "processProposal",
      "outputs": [],
      "stateMutability": "nonpayable",
      "type": "function"
    },
    {
      "inputs": [
        {
          "internalType": "address",
          "name": "",
          "type": "address"
        },
        {
          "internalType": "bytes32",
          "name": "",
          "type": "bytes32"
        }
      ],
      "name": "proposals",
      "outputs": [
        {
          "internalType": "uint256",
          "name": "fundingGoal",
          "type": "uint256"
        },
        {
          "internalType": "uint256",
          "name": "startingReservers",
          "type": "uint256"
        },
        {
          "internalType": "uint256",
          "name": "startPrice",
          "type": "uint256"
        },
        {
          "internalType": "uint256",
          "name": "stopPrice",
          "type": "uint256"
        },
        {
          "internalType": "uint256",
          "name": "annualizedDeflationFee",
          "type": "uint256"
        },
        {
          "internalType": "uint256",
          "name": "fixedBuySideTransactionFee",
          "type": "uint256"
        },
        {
          "internalType": "uint256",
          "name": "fixedSellSideTransactionFee",
          "type": "uint256"
        },
        {
          "internalType": "uint256",
          "name": "vestingPeriod",
          "type": "uint256"
        },
        {
          "internalType": "uint256",
          "name": "sypplementalVestingPenalty",
          "type": "uint256"
        },
        {
          "internalType": "uint256",
          "name": "projectVotingPeriod",
          "type": "uint256"
        }
      ],
      "stateMutability": "view",
      "type": "function"
    },
    {
      "inputs": [
        {
          "internalType": "uint256",
          "name": "flags",
          "type": "uint256"
        },
        {
          "internalType": "uint256",
          "name": "flag",
          "type": "uint256"
        },
        {
          "internalType": "bool",
          "name": "value",
          "type": "bool"
        }
      ],
      "name": "setFlag",
      "outputs": [
        {
          "internalType": "uint256",
          "name": "",
          "type": "uint256"
        }
      ],
      "stateMutability": "pure",
      "type": "function"
    },
    {
      "inputs": [
        {
          "internalType": "contract DaoRegistry",
          "name": "dao",
          "type": "address"
        },
        {
          "internalType": "bytes32",
          "name": "proposalId",
          "type": "bytes32"
        },
        {
          "internalType": "string[]",
          "name": "information",
          "type": "string[]"
        },
        {
          "internalType": "bytes",
          "name": "data",
          "type": "bytes"
        }
      ],
      "name": "submitProposal",
      "outputs": [],
      "stateMutability": "nonpayable",
      "type": "function"
    },
    {
      "stateMutability": "payable",
      "type": "receive"
    }
  ],
  "bytecode": "0x608060405234801561001057600080fd5b50611788806100206000396000f3fe60806040526004361061007f5760003560e01c8063b244a41d1161004e578063b244a41d14610158578063ca0f463314610185578063ef6a2499146101a5578063fc258031146101c5576100a5565b80635cb75276146100aa5780638ecf7720146100e95780639573167d1461011657806397e435e614610138576100a5565b366100a55760405162461bcd60e51b815260040161009c9061148d565b60405180910390fd5b600080fd5b3480156100b657600080fd5b506100ca6100c53660046110af565b6101e5565b6040516100e09a999897969594939291906114fb565b60405180910390f35b3480156100f557600080fd5b506101096101043660046110f6565b610246565b6040516100e09190611356565b34801561012257600080fd5b5061013661013136600461112e565b6104c5565b005b34801561014457600080fd5b50610136610153366004611140565b6108c7565b34801561016457600080fd5b5061017861017336600461128c565b610dc8565b6040516100e09190611361565b34801561019157600080fd5b506101096101a0366004611077565b610e24565b3480156101b157600080fd5b506101096101c0366004611077565b610e32565b3480156101d157600080fd5b506101096101e036600461126b565b610e76565b60006020528160005260406000206020528060005260406000206000915091505080600101549080600201549080600301549080600401549080600501549080600601549080600701549080600801549080600901549080600a015490508a565b600080836001600160a01b031663fefbd8757fea0ca03c7adbe41dc655fec28a9209dc8e6e042f3d991a67765ba285b9cf73a06040518263ffffffff1660e01b81526004016102959190611361565b60206040518083038186803b1580156102ad57600080fd5b505afa1580156102c1573d6000803e3d6000fd5b505050506040513d601f19601f820116820180604052508101906102e59190611093565b90506001600160a01b03811615610426576040517fc89bb8ba0000000000000000000000000000000000000000000000000000000081526000906001600160a01b0386169063c89bb8ba9061033e90879060040161130f565b60206040518083038186803b15801561035657600080fd5b505afa15801561036a573d6000803e3d6000fd5b505050506040513d601f19601f8201168201806040525081019061038e9190611093565b90506000826001600160a01b031663f7888aec83620ff1ce6040518363ffffffff1660e01b81526004016103c3929190611323565b60206040518083038186803b1580156103db57600080fd5b505afa1580156103ef573d6000803e3d6000fd5b505050506040513d601f19601f820116820180604052508101906104139190611093565b6001600160a01b031611925050506104bf565b6040517fa230c5240000000000000000000000000000000000000000000000000000000081526001600160a01b0385169063a230c5249061046b90869060040161130f565b60206040518083038186803b15801561048357600080fd5b505afa158015610497573d6000803e3d6000fd5b505050506040513d601f19601f820116820180604052508101906104bb91906110da565b9150505b92915050565b8143816001600160a01b031663b21634826040518163ffffffff1660e01b815260040160206040518083038186803b15801561050057600080fd5b505afa158015610514573d6000803e3d6000fd5b505050506040513d601f19601f820116820180604052508101906105389190611253565b14156105565760405162461bcd60e51b815260040161009c906113f9565b806001600160a01b03166310fdb0a26040518163ffffffff1660e01b8152600401600060405180830381600087803b15801561059157600080fd5b505af11580156105a5573d6000803e3d6000fd5b50506040517f40de703e000000000000000000000000000000000000000000000000000000008152600092506001600160a01b03861691506340de703e906105f1908690600401611361565b60206040518083038186803b15801561060957600080fd5b505afa15801561061d573d6000803e3d6000fd5b505050506040513d601f19601f820116820180604052508101906106419190611093565b90506001600160a01b0381166106695760405162461bcd60e51b815260040161009c906114c4565b60026040517f76225e730000000000000000000000000000000000000000000000000000000081526001600160a01b038316906376225e73906106b2908890889060040161133d565b602060405180830381600087803b1580156106cc57600080fd5b505af11580156106e0573d6000803e3d6000fd5b505050506040513d601f19601f820116820180604052508101906107049190611234565b600581111561072357634e487b7160e01b600052602160045260246000fd5b146107405760405162461bcd60e51b815260040161009c90611430565b6040517f30490e910000000000000000000000000000000000000000000000000000000081526001600160a01b038516906330490e9190610785908690600401611361565b600060405180830381600087803b15801561079f57600080fd5b505af11580156107b3573d6000803e3d6000fd5b5050506001600160a01b038516600090815260208181526040808320878452909152812091506107e38282610e98565b600182016000905560028201600090556003820160009055600482016000905560058201600090556006820160009055600782016000905560088201600090556009820160009055600a82016000905550507fc6e3e61ae1fad006f0fe39a22062b08c0b1d829f076121bd702ced30b9b048f8308460405161086692919061133d565b60405180910390a150806001600160a01b031663d4f7af436040518163ffffffff1660e01b8152600401600060405180830381600087803b1580156108aa57600080fd5b505af11580156108be573d6000803e3d6000fd5b50505050505050565b8343816001600160a01b031663b21634826040518163ffffffff1660e01b815260040160206040518083038186803b15801561090257600080fd5b505afa158015610916573d6000803e3d6000fd5b505050506040513d601f19601f8201168201806040525081019061093a9190611253565b14156109585760405162461bcd60e51b815260040161009c906113f9565b806001600160a01b03166310fdb0a26040518163ffffffff1660e01b8152600401600060405180830381600087803b15801561099357600080fd5b505af11580156109a7573d6000803e3d6000fd5b50506040517fb73dc3890000000000000000000000000000000000000000000000000000000081526001600160a01b038816925063b73dc38991506109f0908790600401611361565b600060405180830381600087803b158015610a0a57600080fd5b505af1158015610a1e573d6000803e3d6000fd5b505050506001600160a01b038516600090815260208181526040808320878452825290912084519091610a55918391870190610eb9565b50610a61836024610e93565b6001820155610a71836044610e93565b6002820155610a81836064610e93565b6003820155610a91836084610e93565b6004820155610aa18360a4610e93565b6005820155610ab18360c4610e93565b6006820155610ac18360e4610e93565b6007820155610ad283610104610e93565b6008820155610ae383610124610e93565b6009820155610af483610144610e93565b600a8201556040517f17ba7d850000000000000000000000000000000000000000000000000000000081526000906001600160a01b038816906317ba7d8590610b61907f0e49311626a26ba5be58a3b13d239908e80ce0dffdd5c50bf1d9c82ff35d1ab390600401611361565b60206040518083038186803b158015610b7957600080fd5b505afa158015610b8d573d6000803e3d6000fd5b505050506040513d601f19601f82011682018060405250810190610bb19190611093565b90506000816001600160a01b031663966917d0893088336040518563ffffffff1660e01b8152600401610be79493929190611389565b602060405180830381600087803b158015610c0157600080fd5b505af1158015610c15573d6000803e3d6000fd5b505050506040513d601f19601f82011682018060405250810190610c399190611093565b6040517f896ae9ba0000000000000000000000000000000000000000000000000000000081529091506001600160a01b0389169063896ae9ba90610c85908a908590879060040161136a565b600060405180830381600087803b158015610c9f57600080fd5b505af1158015610cb3573d6000803e3d6000fd5b50506040517f2b0974d00000000000000000000000000000000000000000000000000000000081526001600160a01b0385169250632b0974d09150610d00908b908b908a906004016113c8565b600060405180830381600087803b158015610d1a57600080fd5b505af1158015610d2e573d6000803e3d6000fd5b505050507f9181e5ee1252a3d853fd34d3d8a48eceaeb399635045838e557bb0ff49def1133088604051610d6392919061133d565b60405180910390a1505050806001600160a01b031663d4f7af436040518163ffffffff1660e01b8152600401600060405180830381600087803b158015610da957600080fd5b505af1158015610dbd573d6000803e3d6000fd5b505050505050505050565b6000811515610dd78585610e76565b151514610e1a578115610e0057610def8360026115c8565b610df9908561156a565b9050610e1d565b610e0b8360026115c8565b610df99085611691565b610e1d565b50825b9392505050565b6001600160a01b0316151590565b60006001600160a01b03821661dead14801590610e5a57506001600160a01b03821661babe14155b80156104bf57506001600160a01b038216614bec141592915050565b6000610e89600260ff841685901c6116e3565b6001149392505050565b015190565b5080546000825590600052602060002090810190610eb69190610f16565b50565b828054828255906000526020600020908101928215610f06579160200282015b82811115610f065782518051610ef6918491602090910190610f33565b5091602001919060010190610ed9565b50610f12929150610f16565b5090565b80821115610f12576000610f2a8282610fb3565b50600101610f16565b828054610f3f906116a8565b90600052602060002090601f016020900481019282610f615760008555610fa7565b82601f10610f7a57805160ff1916838001178555610fa7565b82800160010185558215610fa7579182015b82811115610fa7578251825591602001919060010190610f8c565b50610f12929150610feb565b508054610fbf906116a8565b6000825580601f10610fd15750610eb6565b601f016020900490600052602060002090810190610eb691905b5b80821115610f125760008155600101610fec565b600067ffffffffffffffff83111561101a5761101a611719565b61102d601f8401601f1916602001611540565b905082815283838301111561104157600080fd5b828260208301376000602084830101529392505050565b600082601f830112611068578081fd5b610e1d83833560208501611000565b600060208284031215611088578081fd5b8135610e1d8161172f565b6000602082840312156110a4578081fd5b8151610e1d8161172f565b600080604083850312156110c1578081fd5b82356110cc8161172f565b946020939093013593505050565b6000602082840312156110eb578081fd5b8151610e1d81611744565b60008060408385031215611108578182fd5b82356111138161172f565b915060208301356111238161172f565b809150509250929050565b600080604083850312156110c1578182fd5b60008060008060808587031215611155578182fd5b84356111608161172f565b93506020858101359350604086013567ffffffffffffffff80821115611184578485fd5b818801915088601f830112611197578485fd5b8135818111156111a9576111a9611719565b6111b68485830201611540565b81815284810190848601885b8481101561120057813587018e603f8201126111dc578a8bfd5b6111ed8f8a83013560408401611000565b85525092870192908701906001016111c2565b50909750505050606088013592508083111561121a578384fd5b505061122887828801611058565b91505092959194509250565b600060208284031215611245578081fd5b815160068110610e1d578182fd5b600060208284031215611264578081fd5b5051919050565b6000806040838503121561127d578182fd5b50508035926020909101359150565b6000806000606084860312156112a0578081fd5b833592506020840135915060408401356112b981611744565b809150509250925092565b60008151808452815b818110156112e9576020818501810151868301820152016112cd565b818111156112fa5782602083870101525b50601f01601f19169290920160200192915050565b6001600160a01b0391909116815260200190565b6001600160a01b0392831681529116602082015260400190565b6001600160a01b03929092168252602082015260400190565b901515815260200190565b90815260200190565b9283526001600160a01b03918216602084015216604082015260600190565b60006001600160a01b0380871683528086166020840152608060408401526113b460808401866112c4565b915080841660608401525095945050505050565b60006001600160a01b0385168252836020830152606060408301526113f060608301846112c4565b95945050505050565b60208082526010908201527f7265656e7472616e637920677561726400000000000000000000000000000000604082015260600190565b60208082526022908201527f70726f706f73616c20686173206e6f74206265656e20766f746564206f6e207960408201527f6574000000000000000000000000000000000000000000000000000000000000606082015260800190565b6020808252600f908201527f66616c6c6261636b207265766572740000000000000000000000000000000000604082015260600190565b60208082526011908201527f61646170746572206e6f7420666f756e64000000000000000000000000000000604082015260600190565b998a5260208a019890985260408901969096526060880194909452608087019290925260a086015260c085015260e08401526101008301526101208201526101400190565b60405181810167ffffffffffffffff8111828210171561156257611562611719565b604052919050565b6000821982111561157d5761157d611703565b500190565b80825b600180861161159457506115bf565b8187048211156115a6576115a6611703565b808616156115b357918102915b9490941c938002611585565b94509492505050565b6000610e1d60001984846000826115e157506001610e1d565b816115ee57506000610e1d565b8160018114611604576002811461160e5761163b565b6001915050610e1d565b60ff84111561161f5761161f611703565b6001841b91508482111561163557611635611703565b50610e1d565b5060208310610133831016604e8410600b8410161715611669575081810a83811115610e1557610e15611703565b6116768484846001611582565b80860482111561168857611688611703565b02949350505050565b6000828210156116a3576116a3611703565b500390565b6002810460018216806116bc57607f821691505b602082108114156116dd57634e487b7160e01b600052602260045260246000fd5b50919050565b6000826116fe57634e487b7160e01b81526012600452602481fd5b500690565b634e487b7160e01b600052601160045260246000fd5b634e487b7160e01b600052604160045260246000fd5b6001600160a01b0381168114610eb657600080fd5b8015158114610eb657600080fdfea264697066735822122032b5daffcc7c8124e87240519843dd936b391b8ee17a01cb289acbd30266eae164736f6c63430008000033",
  "linkReferences": {},
  "deployedLinkReferences": {}
}