{
  "_format": "hh-sol-artifact-1",
  "contractName": "NFTAdapterContract",
  "sourceName": "build/sources/adapters/NFTAdapter.sol",
  "abi": [
    {
      "inputs": [
        {
          "internalType": "contract DaoRegistry",
          "name": "dao",
          "type": "address"
        },
        {
          "internalType": "address",
          "name": "nftAddr",
          "type": "address"
        },
        {
          "internalType": "uint256",
          "name": "nftTokenId",
          "type": "uint256"
        }
      ],
      "name": "collect",
      "outputs": [],
      "stateMutability": "nonpayable",
      "type": "function"
    },
    {
      "inputs": [
        {
          "internalType": "uint256",
          "name": "flags",
          "type": "uint256"
        },
        {
          "internalType": "uint256",
          "name": "flag",
          "type": "uint256"
        }
      ],
      "name": "getFlag",
      "outputs": [
        {
          "internalType": "bool",
          "name": "",
          "type": "bool"
        }
      ],
      "stateMutability": "pure",
      "type": "function"
    },
    {
      "inputs": [
        {
          "internalType": "contract DaoRegistry",
          "name": "dao",
          "type": "address"
        },
        {
          "internalType": "address",
          "name": "_addr",
          "type": "address"
        }
      ],
      "name": "isActiveMember",
      "outputs": [
        {
          "internalType": "bool",
          "name": "",
          "type": "bool"
        }
      ],
      "stateMutability": "view",
      "type": "function"
    },
    {
      "inputs": [
        {
          "internalType": "address",
          "name": "addr",
          "type": "address"
        }
      ],
      "name": "isNotReservedAddress",
      "outputs": [
        {
          "internalType": "bool",
          "name": "",
          "type": "bool"
        }
      ],
      "stateMutability": "pure",
      "type": "function"
    },
    {
      "inputs": [
        {
          "internalType": "address",
          "name": "addr",
          "type": "address"
        }
      ],
      "name": "isNotZeroAddress",
      "outputs": [
        {
          "internalType": "bool",
          "name": "",
          "type": "bool"
        }
      ],
      "stateMutability": "pure",
      "type": "function"
    },
    {
      "inputs": [
        {
          "internalType": "uint256",
          "name": "flags",
          "type": "uint256"
        },
        {
          "internalType": "uint256",
          "name": "flag",
          "type": "uint256"
        },
        {
          "internalType": "bool",
          "name": "value",
          "type": "bool"
        }
      ],
      "name": "setFlag",
      "outputs": [
        {
          "internalType": "uint256",
          "name": "",
          "type": "uint256"
        }
      ],
      "stateMutability": "pure",
      "type": "function"
    },
    {
      "stateMutability": "payable",
      "type": "receive"
    }
  ],
  "bytecode": "0x608060405234801561001057600080fd5b50610b0b806100206000396000f3fe6080604052600436106100695760003560e01c8063ca0f463311610043578063ca0f463314610119578063ef6a249914610139578063fc258031146101595761008f565b80638ecf772014610094578063b244a41d146100ca578063c8fea2fb146100f75761008f565b3661008f5760405162461bcd60e51b815260040161008690610904565b60405180910390fd5b600080fd5b3480156100a057600080fd5b506100b46100af366004610789565b610179565b6040516100c191906108b9565b60405180910390f35b3480156100d657600080fd5b506100ea6100e536600461083a565b6103f8565b6040516100c191906108c4565b34801561010357600080fd5b506101176101123660046107c1565b610454565b005b34801561012557600080fd5b506100b4610134366004610735565b6106c6565b34801561014557600080fd5b506100b4610154366004610735565b6106d4565b34801561016557600080fd5b506100b4610174366004610819565b610718565b600080836001600160a01b031663fefbd8757fea0ca03c7adbe41dc655fec28a9209dc8e6e042f3d991a67765ba285b9cf73a06040518263ffffffff1660e01b81526004016101c891906108c4565b60206040518083038186803b1580156101e057600080fd5b505afa1580156101f4573d6000803e3d6000fd5b505050506040513d601f19601f820116820180604052508101906102189190610751565b90506001600160a01b03811615610359576040517fc89bb8ba0000000000000000000000000000000000000000000000000000000081526000906001600160a01b0386169063c89bb8ba90610271908790600401610872565b60206040518083038186803b15801561028957600080fd5b505afa15801561029d573d6000803e3d6000fd5b505050506040513d601f19601f820116820180604052508101906102c19190610751565b90506000826001600160a01b031663f7888aec83620ff1ce6040518363ffffffff1660e01b81526004016102f6929190610886565b60206040518083038186803b15801561030e57600080fd5b505afa158015610322573d6000803e3d6000fd5b505050506040513d601f19601f820116820180604052508101906103469190610751565b6001600160a01b031611925050506103f2565b6040517fa230c5240000000000000000000000000000000000000000000000000000000081526001600160a01b0385169063a230c5249061039e908690600401610872565b60206040518083038186803b1580156103b657600080fd5b505afa1580156103ca573d6000803e3d6000fd5b505050506040513d601f19601f820116820180604052508101906103ee919061076d565b9150505b92915050565b60008115156104078585610718565b15151461044a5781156104305761041f836002610999565b610429908561093b565b905061044d565b61043b836002610999565b6104299085610a62565b61044d565b50825b9392505050565b8243816001600160a01b031663b21634826040518163ffffffff1660e01b815260040160206040518083038186803b15801561048f57600080fd5b505afa1580156104a3573d6000803e3d6000fd5b505050506040513d601f19601f820116820180604052508101906104c79190610801565b14156104e55760405162461bcd60e51b8152600401610086906108cd565b806001600160a01b03166310fdb0a26040518163ffffffff1660e01b8152600401600060405180830381600087803b15801561052057600080fd5b505af1158015610534573d6000803e3d6000fd5b50506040517f593e96b6000000000000000000000000000000000000000000000000000000008152600092506001600160a01b038716915063593e96b6906105a0907f7dd481eb4b63b94bb55e6b98aabb06c3b8484f82a4d656d6bca0b0cf9b446be0906004016108c4565b60206040518083038186803b1580156105b857600080fd5b505afa1580156105cc573d6000803e3d6000fd5b505050506040513d601f19601f820116820180604052508101906105f09190610751565b6040517f6b8357ac0000000000000000000000000000000000000000000000000000000081529091506001600160a01b03821690636b8357ac9061063a90879087906004016108a0565b600060405180830381600087803b15801561065457600080fd5b505af1158015610668573d6000803e3d6000fd5b5050505050806001600160a01b031663d4f7af436040518163ffffffff1660e01b8152600401600060405180830381600087803b1580156106a857600080fd5b505af11580156106bc573d6000803e3d6000fd5b5050505050505050565b6001600160a01b0316151590565b60006001600160a01b03821661dead148015906106fc57506001600160a01b03821661babe14155b80156103f257506001600160a01b038216614bec141592915050565b600061072b600260ff841685901c610a79565b6001149392505050565b600060208284031215610746578081fd5b813561044d81610aaf565b600060208284031215610762578081fd5b815161044d81610aaf565b60006020828403121561077e578081fd5b815161044d81610ac7565b6000806040838503121561079b578081fd5b82356107a681610aaf565b915060208301356107b681610aaf565b809150509250929050565b6000806000606084860312156107d5578081fd5b83356107e081610aaf565b925060208401356107f081610aaf565b929592945050506040919091013590565b600060208284031215610812578081fd5b5051919050565b6000806040838503121561082b578182fd5b50508035926020909101359150565b60008060006060848603121561084e578283fd5b8335925060208401359150604084013561086781610ac7565b809150509250925092565b6001600160a01b0391909116815260200190565b6001600160a01b0392831681529116602082015260400190565b6001600160a01b03929092168252602082015260400190565b901515815260200190565b90815260200190565b60208082526010908201527f7265656e7472616e637920677561726400000000000000000000000000000000604082015260600190565b6020808252600f908201527f66616c6c6261636b207265766572740000000000000000000000000000000000604082015260600190565b6000821982111561094e5761094e610a99565b500190565b80825b60018086116109655750610990565b81870482111561097757610977610a99565b8086161561098457918102915b9490941c938002610956565b94509492505050565b600061044d60001984846000826109b25750600161044d565b816109bf5750600061044d565b81600181146109d557600281146109df57610a0c565b600191505061044d565b60ff8411156109f0576109f0610a99565b6001841b915084821115610a0657610a06610a99565b5061044d565b5060208310610133831016604e8410600b8410161715610a3a575081810a8381111561044557610445610a99565b610a478484846001610953565b808604821115610a5957610a59610a99565b02949350505050565b600082821015610a7457610a74610a99565b500390565b600082610a9457634e487b7160e01b81526012600452602481fd5b500690565b634e487b7160e01b600052601160045260246000fd5b6001600160a01b0381168114610ac457600080fd5b50565b8015158114610ac457600080fdfea2646970667358221220d0c7b384ea568fc506b5d6bcfe75f194f167dd7c182459ca92cb78b404bddecb64736f6c63430008000033",
  "linkReferences": {},
  "deployedLinkReferences": {}
}