{
  "_format": "hh-sol-artifact-1",
  "contractName": "NFTExtension",
  "sourceName": "build/sources/extensions/nft/NFT.sol",
  "abi": [
    {
      "inputs": [],
      "stateMutability": "nonpayable",
      "type": "constructor"
    },
    {
      "anonymous": false,
      "inputs": [
        {
          "indexed": false,
          "internalType": "address",
          "name": "nftAddr",
          "type": "address"
        },
        {
          "indexed": false,
          "internalType": "uint256",
          "name": "nftTokenId",
          "type": "uint256"
        }
      ],
      "name": "CollectedNFT",
      "type": "event"
    },
    {
      "anonymous": false,
      "inputs": [
        {
          "indexed": false,
          "internalType": "address",
          "name": "nftAddr",
          "type": "address"
        },
        {
          "indexed": false,
          "internalType": "uint256",
          "name": "nftTokenId",
          "type": "uint256"
        },
        {
          "indexed": false,
          "internalType": "address",
          "name": "oldOwner",
          "type": "address"
        },
        {
          "indexed": false,
          "internalType": "address",
          "name": "newOwner",
          "type": "address"
        }
      ],
      "name": "TransferredNFT",
      "type": "event"
    },
    {
      "anonymous": false,
      "inputs": [
        {
          "indexed": false,
          "internalType": "address",
          "name": "nftAddr",
          "type": "address"
        },
        {
          "indexed": false,
          "internalType": "uint256",
          "name": "nftTokenId",
          "type": "uint256"
        },
        {
          "indexed": false,
          "internalType": "address",
          "name": "toAddress",
          "type": "address"
        }
      ],
      "name": "WithdrawnNFT",
      "type": "event"
    },
    {
      "inputs": [
        {
          "internalType": "address",
          "name": "nftAddr",
          "type": "address"
        },
        {
          "internalType": "uint256",
          "name": "nftTokenId",
          "type": "uint256"
        }
      ],
      "name": "collect",
      "outputs": [],
      "stateMutability": "nonpayable",
      "type": "function"
    },
    {
      "inputs": [],
      "name": "dao",
      "outputs": [
        {
          "internalType": "contract DaoRegistry",
          "name": "",
          "type": "address"
        }
      ],
      "stateMutability": "view",
      "type": "function"
    },
    {
      "inputs": [
        {
          "internalType": "uint256",
          "name": "flags",
          "type": "uint256"
        },
        {
          "internalType": "uint256",
          "name": "flag",
          "type": "uint256"
        }
      ],
      "name": "getFlag",
      "outputs": [
        {
          "internalType": "bool",
          "name": "",
          "type": "bool"
        }
      ],
      "stateMutability": "pure",
      "type": "function"
    },
    {
      "inputs": [
        {
          "internalType": "address",
          "name": "tokenAddr",
          "type": "address"
        },
        {
          "internalType": "uint256",
          "name": "index",
          "type": "uint256"
        }
      ],
      "name": "getNFT",
      "outputs": [
        {
          "internalType": "uint256",
          "name": "",
          "type": "uint256"
        }
      ],
      "stateMutability": "view",
      "type": "function"
    },
    {
      "inputs": [
        {
          "internalType": "uint256",
          "name": "index",
          "type": "uint256"
        }
      ],
      "name": "getNFTAddress",
      "outputs": [
        {
          "internalType": "address",
          "name": "",
          "type": "address"
        }
      ],
      "stateMutability": "view",
      "type": "function"
    },
    {
      "inputs": [
        {
          "internalType": "address",
          "name": "nftAddress",
          "type": "address"
        },
        {
          "internalType": "uint256",
          "name": "tokenId",
          "type": "uint256"
        }
      ],
      "name": "getNFTId",
      "outputs": [
        {
          "internalType": "bytes32",
          "name": "",
          "type": "bytes32"
        }
      ],
      "stateMutability": "pure",
      "type": "function"
    },
    {
      "inputs": [
        {
          "internalType": "address",
          "name": "nftAddress",
          "type": "address"
        },
        {
          "internalType": "uint256",
          "name": "tokenId",
          "type": "uint256"
        }
      ],
      "name": "getNFTOwner",
      "outputs": [
        {
          "internalType": "address",
          "name": "",
          "type": "address"
        }
      ],
      "stateMutability": "view",
      "type": "function"
    },
    {
      "inputs": [
        {
          "internalType": "contract DaoRegistry",
          "name": "_dao",
          "type": "address"
        },
        {
          "internalType": "address",
          "name": "creator",
          "type": "address"
        }
      ],
      "name": "initialize",
      "outputs": [],
      "stateMutability": "nonpayable",
      "type": "function"
    },
    {
      "inputs": [],
      "name": "initialized",
      "outputs": [
        {
          "internalType": "bool",
          "name": "",
          "type": "bool"
        }
      ],
      "stateMutability": "view",
      "type": "function"
    },
    {
      "inputs": [
        {
          "internalType": "address",
          "name": "nftAddr",
          "type": "address"
        },
        {
          "internalType": "uint256",
          "name": "nftTokenId",
          "type": "uint256"
        },
        {
          "internalType": "address",
          "name": "newOwner",
          "type": "address"
        }
      ],
      "name": "internalTransfer",
      "outputs": [],
      "stateMutability": "nonpayable",
      "type": "function"
    },
    {
      "inputs": [
        {
          "internalType": "address",
          "name": "addr",
          "type": "address"
        }
      ],
      "name": "isNotReservedAddress",
      "outputs": [
        {
          "internalType": "bool",
          "name": "",
          "type": "bool"
        }
      ],
      "stateMutability": "pure",
      "type": "function"
    },
    {
      "inputs": [
        {
          "internalType": "address",
          "name": "addr",
          "type": "address"
        }
      ],
      "name": "isNotZeroAddress",
      "outputs": [
        {
          "internalType": "bool",
          "name": "",
          "type": "bool"
        }
      ],
      "stateMutability": "pure",
      "type": "function"
    },
    {
      "inputs": [],
      "name": "nbNFTAddresses",
      "outputs": [
        {
          "internalType": "uint256",
          "name": "",
          "type": "uint256"
        }
      ],
      "stateMutability": "view",
      "type": "function"
    },
    {
      "inputs": [
        {
          "internalType": "address",
          "name": "tokenAddr",
          "type": "address"
        }
      ],
      "name": "nbNFTs",
      "outputs": [
        {
          "internalType": "uint256",
          "name": "",
          "type": "uint256"
        }
      ],
      "stateMutability": "view",
      "type": "function"
    },
    {
      "inputs": [
        {
          "internalType": "address",
          "name": "",
          "type": "address"
        },
        {
          "internalType": "address",
          "name": "",
          "type": "address"
        },
        {
          "internalType": "uint256",
          "name": "",
          "type": "uint256"
        },
        {
          "internalType": "bytes",
          "name": "",
          "type": "bytes"
        }
      ],
      "name": "onERC721Received",
      "outputs": [
        {
          "internalType": "bytes4",
          "name": "",
          "type": "bytes4"
        }
      ],
      "stateMutability": "pure",
      "type": "function"
    },
    {
      "inputs": [
        {
          "internalType": "uint256",
          "name": "flags",
          "type": "uint256"
        },
        {
          "internalType": "uint256",
          "name": "flag",
          "type": "uint256"
        },
        {
          "internalType": "bool",
          "name": "value",
          "type": "bool"
        }
      ],
      "name": "setFlag",
      "outputs": [
        {
          "internalType": "uint256",
          "name": "",
          "type": "uint256"
        }
      ],
      "stateMutability": "pure",
      "type": "function"
    },
    {
      "inputs": [
        {
          "internalType": "address",
          "name": "newOwner",
          "type": "address"
        },
        {
          "internalType": "address",
          "name": "nftAddr",
          "type": "address"
        },
        {
          "internalType": "uint256",
          "name": "nftTokenId",
          "type": "uint256"
        }
      ],
      "name": "withdrawNFT",
      "outputs": [],
      "stateMutability": "nonpayable",
      "type": "function"
    }
  ],
  "bytecode": "0x60806040526000805460ff1916905534801561001a57600080fd5b506116bb8061002a6000396000f3fe608060405234801561001057600080fd5b506004361061011b5760003560e01c8063637dfb0c116100b2578063bff863ec11610081578063ca0f463311610066578063ca0f463314610248578063ef6a24991461025b578063fc2580311461026e5761011b565b8063bff863ec14610222578063c33077d5146102355761011b565b8063637dfb0c146101d65780636b8357ac146101e95780639d18f773146101fc578063b244a41d1461020f5761011b565b806325b3fb1c116100ee57806325b3fb1c1461019157806326e3cdc9146101a65780634162169f146101ae578063485cc955146101c35761011b565b8063150b7a0214610120578063158ef93e146101495780632148c71f1461015e5780632207bdcf1461017e575b600080fd5b61013361012e3660046110d1565b610281565b60405161014091906113ab565b60405180910390f35b6101516102ab565b6040516101409190611397565b61017161016c366004611059565b6102b4565b60405161014091906113a2565b61017161018c36600461116b565b6102db565b6101a461019f366004611196565b610304565b005b610171610574565b6101b6610585565b60405161014091906112d2565b6101a46101d13660046111f3565b610599565b6101b66101e436600461116b565b6106b7565b6101a46101f736600461116b565b6106e8565b6101b661020a36600461124a565b610a2a565b61017161021d366004611283565b610a37565b6101a4610230366004611091565b610a91565b61017161024336600461116b565b610d28565b610151610256366004611059565b610d5b565b610151610269366004611059565b610d69565b61015161027c366004611262565b610daa565b7f150b7a020000000000000000000000000000000000000000000000000000000095945050505050565b60005460ff1681565b6001600160a01b03811660009081526001602052604081206102d590610dc7565b92915050565b6001600160a01b03821660009081526001602052604081206102fd9083610dd2565b9392505050565b30600260008060019054906101000a90046001600160a01b03166001600160a01b031663c19d93fb6040518163ffffffff1660e01b815260040160206040518083038186803b15801561035657600080fd5b505afa15801561036a573d6000803e3d6000fd5b505050506040513d601f19601f8201168201806040525081019061038e919061122b565b60018111156103ad57634e487b7160e01b600052602160045260246000fd5b148061045a575060005461010090046001600160a01b0316636cfdc32e33848460028111156103ec57634e487b7160e01b600052602160045260246000fd5b6040518463ffffffff1660e01b815260040161040a9392919061130a565b60206040518083038186803b15801561042257600080fd5b505afa158015610436573d6000803e3d6000fd5b505050506040513d601f19601f8201168201806040525081019061045a91906111d7565b61047f5760405162461bcd60e51b8152600401610476906113d8565b60405180910390fd5b6001600160a01b0383166104a55760405162461bcd60e51b81526004016104769061140f565b6000600260006104b58888610d28565b81526020810191909152604001600020546001600160a01b03169050806104ee5760405162461bcd60e51b815260040161047690611446565b83600260006104fd8989610d28565b815260200190815260200160002060006101000a8154816001600160a01b0302191690836001600160a01b031602179055507fdc925f69bff4b58c4abd9ce5e1135fbe3c5fcd18292ccd0e57d2d3ecae2c13f986868387604051610564949392919061136c565b60405180910390a1505050505050565b60006105806003610dc7565b905090565b60005461010090046001600160a01b031681565b60005460ff16156105bc5760405162461bcd60e51b81526004016104769061147d565b6040517fa230c5240000000000000000000000000000000000000000000000000000000081526001600160a01b0383169063a230c524906106019084906004016112d2565b60206040518083038186803b15801561061957600080fd5b505afa15801561062d573d6000803e3d6000fd5b505050506040513d601f19601f8201168201806040525081019061065191906111d7565b61066d5760405162461bcd60e51b8152600401610476906114b4565b50600080546001600160a01b03909216610100027fffffffffffffffffffffff0000000000000000000000000000000000000000ff60ff1990931660011792909216919091179055565b6000600260006106c78585610d28565b81526020810191909152604001600020546001600160a01b03169392505050565b30600160008060019054906101000a90046001600160a01b03166001600160a01b031663c19d93fb6040518163ffffffff1660e01b815260040160206040518083038186803b15801561073a57600080fd5b505afa15801561074e573d6000803e3d6000fd5b505050506040513d601f19601f82011682018060405250810190610772919061122b565b600181111561079157634e487b7160e01b600052602160045260246000fd5b148061083e575060005461010090046001600160a01b0316636cfdc32e33848460028111156107d057634e487b7160e01b600052602160045260246000fd5b6040518463ffffffff1660e01b81526004016107ee9392919061130a565b60206040518083038186803b15801561080657600080fd5b505afa15801561081a573d6000803e3d6000fd5b505050506040513d601f19601f8201168201806040525081019061083e91906111d7565b61085a5760405162461bcd60e51b8152600401610476906113d8565b6040517f6352211e00000000000000000000000000000000000000000000000000000000815284906000906001600160a01b03831690636352211e906108a49088906004016113a2565b60206040518083038186803b1580156108bc57600080fd5b505afa1580156108d0573d6000803e3d6000fd5b505050506040513d601f19601f820116820180604052508101906108f49190611075565b90506001600160a01b0381163014156109825760006002816109168989610d28565b81526020810191909152604001600020546001600160a01b0316141561097d57610943868661dead610dde565b7fece416f2c4451e4ae4ee096cf741fd12daedb227bab7ba7facb1b9afa7b4f0838686604051610974929190611330565b60405180910390a15b610a22565b604051632142170760e11b81526001600160a01b038316906342842e0e906109b290849030908a906004016112e6565b600060405180830381600087803b1580156109cc57600080fd5b505af11580156109e0573d6000803e3d6000fd5b505050506109f1868661dead610dde565b7fece416f2c4451e4ae4ee096cf741fd12daedb227bab7ba7facb1b9afa7b4f0838686604051610564929190611330565b505050505050565b60006102d5600383610dd2565b6000811515610a468585610daa565b151514610a89578115610a6f57610a5e836002611549565b610a6890856114eb565b90506102fd565b610a7a836002611549565b610a689085611612565b6102fd565b509192915050565b30600080600060019054906101000a90046001600160a01b03166001600160a01b031663c19d93fb6040518163ffffffff1660e01b815260040160206040518083038186803b158015610ae357600080fd5b505afa158015610af7573d6000803e3d6000fd5b505050506040513d601f19601f82011682018060405250810190610b1b919061122b565b6001811115610b3a57634e487b7160e01b600052602160045260246000fd5b1480610be7575060005461010090046001600160a01b0316636cfdc32e3384846002811115610b7957634e487b7160e01b600052602160045260246000fd5b6040518463ffffffff1660e01b8152600401610b979392919061130a565b60206040518083038186803b158015610baf57600080fd5b505afa158015610bc3573d6000803e3d6000fd5b505050506040513d601f19601f82011682018060405250810190610be791906111d7565b610c035760405162461bcd60e51b8152600401610476906113d8565b604051632142170760e11b815284906001600160a01b038216906342842e0e90610c359030908a9089906004016112e6565b600060405180830381600087803b158015610c4f57600080fd5b505af1158015610c63573d6000803e3d6000fd5b5050506001600160a01b0386166000908152600160205260409020610c89915085610e5c565b5060026000610c988787610d28565b815260208082019290925260409081016000908120805473ffffffffffffffffffffffffffffffffffffffff191690556001600160a01b038816815260019092529020610ce490610dc7565b610cf557610cf3600386610e68565b505b7f88b2808a6fc6d8edbe6d59ced2418eb201957d7b09fc67da2b9dec70703ffa8285858860405161056493929190611349565b60008282604051602001610d3d9291906112b0565b60405160208183030381529060405280519060200120905092915050565b6001600160a01b0316151590565b60006001600160a01b03821661dead14801590610d9157506001600160a01b03821661babe14155b80156102d55750506001600160a01b0316614bec141590565b6000610dbd600260ff841685901c611629565b6001149392505050565b60006102d582610e7d565b60006102fd8383610e81565b6001600160a01b0383166000908152600160205260409020610e009083610eb9565b508060026000610e108686610d28565b81526020810191909152604001600020805473ffffffffffffffffffffffffffffffffffffffff19166001600160a01b0392909216919091179055610e56600384610ec5565b50505050565b60006102fd8383610eda565b60006102fd836001600160a01b038416610eda565b5490565b6000826000018281548110610ea657634e487b7160e01b600052603260045260246000fd5b9060005260206000200154905092915050565b60006102fd8383610ff7565b60006102fd836001600160a01b038416610ff7565b60008181526001830160205260408120548015610fed576000610efe600183611612565b8554909150600090610f1290600190611612565b9050818114610f93576000866000018281548110610f4057634e487b7160e01b600052603260045260246000fd5b9060005260206000200154905080876000018481548110610f7157634e487b7160e01b600052603260045260246000fd5b6000918252602080832090910192909255918252600188019052604090208390555b8554869080610fb257634e487b7160e01b600052603160045260246000fd5b6001900381819060005260206000200160009055905585600101600086815260200190815260200160002060009055600193505050506102d5565b60009150506102d5565b60006110038383611041565b611039575081546001818101845560008481526020808220909301849055845484825282860190935260409020919091556102d5565b5060006102d5565b60009081526001919091016020526040902054151590565b60006020828403121561106a578081fd5b81356102fd8161165f565b600060208284031215611086578081fd5b81516102fd8161165f565b6000806000606084860312156110a5578182fd5b83356110b08161165f565b925060208401356110c08161165f565b929592945050506040919091013590565b6000806000806000608086880312156110e8578081fd5b85356110f38161165f565b945060208601356111038161165f565b935060408601359250606086013567ffffffffffffffff80821115611126578283fd5b818801915088601f830112611139578283fd5b813581811115611147578384fd5b896020828501011115611158578384fd5b9699959850939650602001949392505050565b6000806040838503121561117d578182fd5b82356111888161165f565b946020939093013593505050565b6000806000606084860312156111aa578283fd5b83356111b58161165f565b92506020840135915060408401356111cc8161165f565b809150509250925092565b6000602082840312156111e8578081fd5b81516102fd81611677565b60008060408385031215611205578182fd5b82356112108161165f565b915060208301356112208161165f565b809150509250929050565b60006020828403121561123c578081fd5b8151600281106102fd578182fd5b60006020828403121561125b578081fd5b5035919050565b60008060408385031215611274578182fd5b50508035926020909101359150565b600080600060608486031215611297578283fd5b833592506020840135915060408401356111cc81611677565b60609290921b6bffffffffffffffffffffffff19168252601482015260340190565b6001600160a01b0391909116815260200190565b6001600160a01b039384168152919092166020820152604081019190915260600190565b6001600160a01b03938416815291909216602082015260ff909116604082015260600190565b6001600160a01b03929092168252602082015260400190565b6001600160a01b0393841681526020810192909252909116604082015260600190565b6001600160a01b03948516815260208101939093529083166040830152909116606082015260800190565b901515815260200190565b90815260200190565b7fffffffff0000000000000000000000000000000000000000000000000000000091909116815260200190565b60208082526011908201527f6e66743a3a61636365737344656e696564000000000000000000000000000000604082015260600190565b6020808252600e908201527f6e6577206f776e65722069732030000000000000000000000000000000000000604082015260600190565b6020808252600d908201527f6e6674206e6f7420666f756e6400000000000000000000000000000000000000604082015260600190565b60208082526013908201527f616c726561647920696e697469616c697a656400000000000000000000000000604082015260600190565b6020808252600c908201527f6e6f742061206d656d6265720000000000000000000000000000000000000000604082015260600190565b600082198211156114fe576114fe611649565b500190565b80825b60018086116115155750611540565b81870482111561152757611527611649565b8086161561153457918102915b9490941c938002611506565b94509492505050565b60006102fd6000198484600082611562575060016102fd565b8161156f575060006102fd565b8160018114611585576002811461158f576115bc565b60019150506102fd565b60ff8411156115a0576115a0611649565b6001841b9150848211156115b6576115b6611649565b506102fd565b5060208310610133831016604e8410600b84101617156115ea575081810a83811115610a8457610a84611649565b6115f78484846001611503565b80860482111561160957611609611649565b02949350505050565b60008282101561162457611624611649565b500390565b60008261164457634e487b7160e01b81526012600452602481fd5b500690565b634e487b7160e01b600052601160045260246000fd5b6001600160a01b038116811461167457600080fd5b50565b801515811461167457600080fdfea2646970667358221220186428d9f296f844eeee912de57702ccc3e485729b07843008e9d7e35e3639d564736f6c63430008000033",
  "linkReferences": {},
  "deployedLinkReferences": {}
}