{
  "_format": "hh-sol-artifact-1",
  "contractName": "OffchainVotingContract",
  "sourceName": "build/sources/adapters/voting/OffchainVoting.sol",
  "abi": [
    {
      "inputs": [
        {
          "internalType": "contract VotingContract",
          "name": "_c",
          "type": "address"
        },
        {
          "internalType": "contract OffchainVotingHashContract",
          "name": "_ovhc",
          "type": "address"
        },
        {
          "internalType": "contract SnapshotProposalContract",
          "name": "_spc",
          "type": "address"
        },
        {
          "internalType": "contract KickBadReporterAdapter",
          "name": "_hbra",
          "type": "address"
        },
        {
          "internalType": "address",
          "name": "_owner",
          "type": "address"
        }
      ],
      "stateMutability": "nonpayable",
      "type": "constructor"
    },
    {
      "anonymous": false,
      "inputs": [
        {
          "indexed": true,
          "internalType": "address",
          "name": "previousOwner",
          "type": "address"
        },
        {
          "indexed": true,
          "internalType": "address",
          "name": "newOwner",
          "type": "address"
        }
      ],
      "name": "OwnershipTransferred",
      "type": "event"
    },
    {
      "anonymous": false,
      "inputs": [
        {
          "indexed": false,
          "internalType": "bytes32",
          "name": "proposalId",
          "type": "bytes32"
        },
        {
          "indexed": false,
          "internalType": "bytes32",
          "name": "resultRoot",
          "type": "bytes32"
        }
      ],
      "name": "ResultChallenged",
      "type": "event"
    },
    {
      "anonymous": false,
      "inputs": [
        {
          "indexed": false,
          "internalType": "bytes32",
          "name": "proposalId",
          "type": "bytes32"
        },
        {
          "indexed": false,
          "internalType": "uint256",
          "name": "nbNo",
          "type": "uint256"
        },
        {
          "indexed": false,
          "internalType": "uint256",
          "name": "nbYes",
          "type": "uint256"
        },
        {
          "indexed": false,
          "internalType": "bytes32",
          "name": "resultRoot",
          "type": "bytes32"
        },
        {
          "indexed": false,
          "internalType": "address",
          "name": "memberAddr",
          "type": "address"
        }
      ],
      "name": "VoteResultSubmitted",
      "type": "event"
    },
    {
      "inputs": [
        {
          "internalType": "contract DaoRegistry",
          "name": "dao",
          "type": "address"
        },
        {
          "internalType": "bytes32",
          "name": "proposalId",
          "type": "bytes32"
        }
      ],
      "name": "adminFailProposal",
      "outputs": [],
      "stateMutability": "nonpayable",
      "type": "function"
    },
    {
      "inputs": [
        {
          "internalType": "contract DaoRegistry",
          "name": "dao",
          "type": "address"
        },
        {
          "internalType": "bytes32",
          "name": "proposalId",
          "type": "bytes32"
        },
        {
          "components": [
            {
              "internalType": "uint32",
              "name": "choice",
              "type": "uint32"
            },
            {
              "internalType": "uint64",
              "name": "index",
              "type": "uint64"
            },
            {
              "internalType": "uint64",
              "name": "timestamp",
              "type": "uint64"
            },
            {
              "internalType": "uint88",
              "name": "nbNo",
              "type": "uint88"
            },
            {
              "internalType": "uint88",
              "name": "nbYes",
              "type": "uint88"
            },
            {
              "internalType": "bytes",
              "name": "sig",
              "type": "bytes"
            },
            {
              "internalType": "bytes32",
              "name": "proposalId",
              "type": "bytes32"
            },
            {
              "internalType": "bytes32[]",
              "name": "proof",
              "type": "bytes32[]"
            }
          ],
          "internalType": "struct OffchainVotingHashContract.VoteResultNode",
          "name": "node",
          "type": "tuple"
        }
      ],
      "name": "challengeBadFirstNode",
      "outputs": [],
      "stateMutability": "nonpayable",
      "type": "function"
    },
    {
      "inputs": [
        {
          "internalType": "contract DaoRegistry",
          "name": "dao",
          "type": "address"
        },
        {
          "internalType": "bytes32",
          "name": "proposalId",
          "type": "bytes32"
        },
        {
          "components": [
            {
              "internalType": "uint32",
              "name": "choice",
              "type": "uint32"
            },
            {
              "internalType": "uint64",
              "name": "index",
              "type": "uint64"
            },
            {
              "internalType": "uint64",
              "name": "timestamp",
              "type": "uint64"
            },
            {
              "internalType": "uint88",
              "name": "nbNo",
              "type": "uint88"
            },
            {
              "internalType": "uint88",
              "name": "nbYes",
              "type": "uint88"
            },
            {
              "internalType": "bytes",
              "name": "sig",
              "type": "bytes"
            },
            {
              "internalType": "bytes32",
              "name": "proposalId",
              "type": "bytes32"
            },
            {
              "internalType": "bytes32[]",
              "name": "proof",
              "type": "bytes32[]"
            }
          ],
          "internalType": "struct OffchainVotingHashContract.VoteResultNode",
          "name": "node",
          "type": "tuple"
        }
      ],
      "name": "challengeBadNode",
      "outputs": [],
      "stateMutability": "nonpayable",
      "type": "function"
    },
    {
      "inputs": [
        {
          "internalType": "contract DaoRegistry",
          "name": "dao",
          "type": "address"
        },
        {
          "internalType": "bytes32",
          "name": "proposalId",
          "type": "bytes32"
        },
        {
          "components": [
            {
              "internalType": "uint32",
              "name": "choice",
              "type": "uint32"
            },
            {
              "internalType": "uint64",
              "name": "index",
              "type": "uint64"
            },
            {
              "internalType": "uint64",
              "name": "timestamp",
              "type": "uint64"
            },
            {
              "internalType": "uint88",
              "name": "nbNo",
              "type": "uint88"
            },
            {
              "internalType": "uint88",
              "name": "nbYes",
              "type": "uint88"
            },
            {
              "internalType": "bytes",
              "name": "sig",
              "type": "bytes"
            },
            {
              "internalType": "bytes32",
              "name": "proposalId",
              "type": "bytes32"
            },
            {
              "internalType": "bytes32[]",
              "name": "proof",
              "type": "bytes32[]"
            }
          ],
          "internalType": "struct OffchainVotingHashContract.VoteResultNode",
          "name": "nodePrevious",
          "type": "tuple"
        },
        {
          "components": [
            {
              "internalType": "uint32",
              "name": "choice",
              "type": "uint32"
            },
            {
              "internalType": "uint64",
              "name": "index",
              "type": "uint64"
            },
            {
              "internalType": "uint64",
              "name": "timestamp",
              "type": "uint64"
            },
            {
              "internalType": "uint88",
              "name": "nbNo",
              "type": "uint88"
            },
            {
              "internalType": "uint88",
              "name": "nbYes",
              "type": "uint88"
            },
            {
              "internalType": "bytes",
              "name": "sig",
              "type": "bytes"
            },
            {
              "internalType": "bytes32",
              "name": "proposalId",
              "type": "bytes32"
            },
            {
              "internalType": "bytes32[]",
              "name": "proof",
              "type": "bytes32[]"
            }
          ],
          "internalType": "struct OffchainVotingHashContract.VoteResultNode",
          "name": "nodeCurrent",
          "type": "tuple"
        }
      ],
      "name": "challengeBadStep",
      "outputs": [],
      "stateMutability": "nonpayable",
      "type": "function"
    },
    {
      "inputs": [
        {
          "internalType": "contract DaoRegistry",
          "name": "dao",
          "type": "address"
        },
        {
          "internalType": "bytes32",
          "name": "proposalId",
          "type": "bytes32"
        }
      ],
      "name": "challengeMissingStep",
      "outputs": [],
      "stateMutability": "nonpayable",
      "type": "function"
    },
    {
      "inputs": [
        {
          "internalType": "contract DaoRegistry",
          "name": "dao",
          "type": "address"
        },
        {
          "internalType": "uint256",
          "name": "votingPeriod",
          "type": "uint256"
        },
        {
          "internalType": "uint256",
          "name": "gracePeriod",
          "type": "uint256"
        },
        {
          "internalType": "uint256",
          "name": "fallbackThreshold",
          "type": "uint256"
        }
      ],
      "name": "configureDao",
      "outputs": [],
      "stateMutability": "nonpayable",
      "type": "function"
    },
    {
      "inputs": [],
      "name": "getAdapterName",
      "outputs": [
        {
          "internalType": "string",
          "name": "",
          "type": "string"
        }
      ],
      "stateMutability": "pure",
      "type": "function"
    },
    {
      "inputs": [
        {
          "internalType": "contract DaoRegistry",
          "name": "dao",
          "type": "address"
        },
        {
          "internalType": "bytes32",
          "name": "proposalId",
          "type": "bytes32"
        },
        {
          "internalType": "bool",
          "name": "submitNewVote",
          "type": "bool"
        },
        {
          "internalType": "bytes32",
          "name": "resultRoot",
          "type": "bytes32"
        },
        {
          "internalType": "uint256",
          "name": "blockNumber",
          "type": "uint256"
        },
        {
          "internalType": "uint256",
          "name": "gracePeriodStartingTime",
          "type": "uint256"
        },
        {
          "internalType": "uint256",
          "name": "nbMembers",
          "type": "uint256"
        },
        {
          "components": [
            {
              "internalType": "uint32",
              "name": "choice",
              "type": "uint32"
            },
            {
              "internalType": "uint64",
              "name": "index",
              "type": "uint64"
            },
            {
              "internalType": "uint64",
              "name": "timestamp",
              "type": "uint64"
            },
            {
              "internalType": "uint88",
              "name": "nbNo",
              "type": "uint88"
            },
            {
              "internalType": "uint88",
              "name": "nbYes",
              "type": "uint88"
            },
            {
              "internalType": "bytes",
              "name": "sig",
              "type": "bytes"
            },
            {
              "internalType": "bytes32",
              "name": "proposalId",
              "type": "bytes32"
            },
            {
              "internalType": "bytes32[]",
              "name": "proof",
              "type": "bytes32[]"
            }
          ],
          "internalType": "struct OffchainVotingHashContract.VoteResultNode",
          "name": "node",
          "type": "tuple"
        }
      ],
      "name": "getBadNodeError",
      "outputs": [
        {
          "internalType": "enum OffchainVotingContract.BadNodeError",
          "name": "",
          "type": "uint8"
        }
      ],
      "stateMutability": "view",
      "type": "function"
    },
    {
      "inputs": [
        {
          "internalType": "contract DaoRegistry",
          "name": "dao",
          "type": "address"
        },
        {
          "internalType": "bytes32",
          "name": "proposalId",
          "type": "bytes32"
        }
      ],
      "name": "getChallengeDetails",
      "outputs": [
        {
          "internalType": "uint256",
          "name": "",
          "type": "uint256"
        },
        {
          "internalType": "address",
          "name": "",
          "type": "address"
        }
      ],
      "stateMutability": "view",
      "type": "function"
    },
    {
      "inputs": [
        {
          "internalType": "uint256",
          "name": "flags",
          "type": "uint256"
        },
        {
          "internalType": "uint256",
          "name": "flag",
          "type": "uint256"
        }
      ],
      "name": "getFlag",
      "outputs": [
        {
          "internalType": "bool",
          "name": "",
          "type": "bool"
        }
      ],
      "stateMutability": "pure",
      "type": "function"
    },
    {
      "inputs": [
        {
          "internalType": "contract DaoRegistry",
          "name": "dao",
          "type": "address"
        },
        {
          "internalType": "address",
          "name": "actionId",
          "type": "address"
        },
        {
          "internalType": "bytes",
          "name": "data",
          "type": "bytes"
        },
        {
          "internalType": "address",
          "name": "",
          "type": "address"
        }
      ],
      "name": "getSenderAddress",
      "outputs": [
        {
          "internalType": "address",
          "name": "",
          "type": "address"
        }
      ],
      "stateMutability": "view",
      "type": "function"
    },
    {
      "inputs": [
        {
          "internalType": "contract DaoRegistry",
          "name": "dao",
          "type": "address"
        },
        {
          "internalType": "address",
          "name": "_addr",
          "type": "address"
        }
      ],
      "name": "isActiveMember",
      "outputs": [
        {
          "internalType": "bool",
          "name": "",
          "type": "bool"
        }
      ],
      "stateMutability": "view",
      "type": "function"
    },
    {
      "inputs": [
        {
          "internalType": "address",
          "name": "addr",
          "type": "address"
        }
      ],
      "name": "isNotReservedAddress",
      "outputs": [
        {
          "internalType": "bool",
          "name": "",
          "type": "bool"
        }
      ],
      "stateMutability": "pure",
      "type": "function"
    },
    {
      "inputs": [
        {
          "internalType": "address",
          "name": "addr",
          "type": "address"
        }
      ],
      "name": "isNotZeroAddress",
      "outputs": [
        {
          "internalType": "bool",
          "name": "",
          "type": "bool"
        }
      ],
      "stateMutability": "pure",
      "type": "function"
    },
    {
      "inputs": [],
      "name": "ovHash",
      "outputs": [
        {
          "internalType": "contract OffchainVotingHashContract",
          "name": "",
          "type": "address"
        }
      ],
      "stateMutability": "view",
      "type": "function"
    },
    {
      "inputs": [],
      "name": "owner",
      "outputs": [
        {
          "internalType": "address",
          "name": "",
          "type": "address"
        }
      ],
      "stateMutability": "view",
      "type": "function"
    },
    {
      "inputs": [
        {
          "internalType": "contract DaoRegistry",
          "name": "dao",
          "type": "address"
        },
        {
          "internalType": "bytes32",
          "name": "proposalId",
          "type": "bytes32"
        }
      ],
      "name": "processChallengeProposal",
      "outputs": [],
      "stateMutability": "nonpayable",
      "type": "function"
    },
    {
      "inputs": [
        {
          "internalType": "contract DaoRegistry",
          "name": "dao",
          "type": "address"
        },
        {
          "internalType": "address",
          "name": "adapterAddress",
          "type": "address"
        },
        {
          "components": [
            {
              "internalType": "uint32",
              "name": "choice",
              "type": "uint32"
            },
            {
              "internalType": "uint64",
              "name": "index",
              "type": "uint64"
            },
            {
              "internalType": "uint64",
              "name": "timestamp",
              "type": "uint64"
            },
            {
              "internalType": "uint88",
              "name": "nbNo",
              "type": "uint88"
            },
            {
              "internalType": "uint88",
              "name": "nbYes",
              "type": "uint88"
            },
            {
              "internalType": "bytes",
              "name": "sig",
              "type": "bytes"
            },
            {
              "internalType": "bytes32",
              "name": "proposalId",
              "type": "bytes32"
            },
            {
              "internalType": "bytes32[]",
              "name": "proof",
              "type": "bytes32[]"
            }
          ],
          "internalType": "struct OffchainVotingHashContract.VoteResultNode",
          "name": "node",
          "type": "tuple"
        }
      ],
      "name": "provideStep",
      "outputs": [],
      "stateMutability": "nonpayable",
      "type": "function"
    },
    {
      "inputs": [],
      "name": "renounceOwnership",
      "outputs": [],
      "stateMutability": "nonpayable",
      "type": "function"
    },
    {
      "inputs": [
        {
          "internalType": "contract DaoRegistry",
          "name": "dao",
          "type": "address"
        },
        {
          "internalType": "bytes32",
          "name": "proposalId",
          "type": "bytes32"
        }
      ],
      "name": "requestFallback",
      "outputs": [],
      "stateMutability": "nonpayable",
      "type": "function"
    },
    {
      "inputs": [
        {
          "internalType": "contract DaoRegistry",
          "name": "dao",
          "type": "address"
        },
        {
          "internalType": "bytes32",
          "name": "proposalId",
          "type": "bytes32"
        },
        {
          "internalType": "uint256",
          "name": "index",
          "type": "uint256"
        }
      ],
      "name": "requestStep",
      "outputs": [],
      "stateMutability": "nonpayable",
      "type": "function"
    },
    {
      "inputs": [
        {
          "internalType": "uint256",
          "name": "flags",
          "type": "uint256"
        },
        {
          "internalType": "uint256",
          "name": "flag",
          "type": "uint256"
        },
        {
          "internalType": "bool",
          "name": "value",
          "type": "bool"
        }
      ],
      "name": "setFlag",
      "outputs": [
        {
          "internalType": "uint256",
          "name": "",
          "type": "uint256"
        }
      ],
      "stateMutability": "pure",
      "type": "function"
    },
    {
      "inputs": [
        {
          "internalType": "contract DaoRegistry",
          "name": "dao",
          "type": "address"
        },
        {
          "internalType": "bytes32",
          "name": "proposalId",
          "type": "bytes32"
        },
        {
          "internalType": "address",
          "name": "sponsoredBy",
          "type": "address"
        }
      ],
      "name": "sponsorChallengeProposal",
      "outputs": [],
      "stateMutability": "nonpayable",
      "type": "function"
    },
    {
      "inputs": [
        {
          "internalType": "contract DaoRegistry",
          "name": "dao",
          "type": "address"
        },
        {
          "internalType": "bytes32",
          "name": "proposalId",
          "type": "bytes32"
        },
        {
          "internalType": "bytes",
          "name": "data",
          "type": "bytes"
        }
      ],
      "name": "startNewVotingForProposal",
      "outputs": [],
      "stateMutability": "nonpayable",
      "type": "function"
    },
    {
      "inputs": [
        {
          "internalType": "contract DaoRegistry",
          "name": "dao",
          "type": "address"
        },
        {
          "internalType": "bytes32",
          "name": "proposalId",
          "type": "bytes32"
        },
        {
          "internalType": "bytes32",
          "name": "resultRoot",
          "type": "bytes32"
        },
        {
          "internalType": "address",
          "name": "reporter",
          "type": "address"
        },
        {
          "components": [
            {
              "internalType": "uint32",
              "name": "choice",
              "type": "uint32"
            },
            {
              "internalType": "uint64",
              "name": "index",
              "type": "uint64"
            },
            {
              "internalType": "uint64",
              "name": "timestamp",
              "type": "uint64"
            },
            {
              "internalType": "uint88",
              "name": "nbNo",
              "type": "uint88"
            },
            {
              "internalType": "uint88",
              "name": "nbYes",
              "type": "uint88"
            },
            {
              "internalType": "bytes",
              "name": "sig",
              "type": "bytes"
            },
            {
              "internalType": "bytes32",
              "name": "proposalId",
              "type": "bytes32"
            },
            {
              "internalType": "bytes32[]",
              "name": "proof",
              "type": "bytes32[]"
            }
          ],
          "internalType": "struct OffchainVotingHashContract.VoteResultNode",
          "name": "result",
          "type": "tuple"
        },
        {
          "internalType": "bytes",
          "name": "rootSig",
          "type": "bytes"
        }
      ],
      "name": "submitVoteResult",
      "outputs": [],
      "stateMutability": "nonpayable",
      "type": "function"
    },
    {
      "inputs": [
        {
          "internalType": "address",
          "name": "newOwner",
          "type": "address"
        }
      ],
      "name": "transferOwnership",
      "outputs": [],
      "stateMutability": "nonpayable",
      "type": "function"
    },
    {
      "inputs": [
        {
          "internalType": "contract DaoRegistry",
          "name": "dao",
          "type": "address"
        },
        {
          "internalType": "bytes32",
          "name": "proposalId",
          "type": "bytes32"
        }
      ],
      "name": "voteResult",
      "outputs": [
        {
          "internalType": "enum IVoting.VotingState",
          "name": "state",
          "type": "uint8"
        }
      ],
      "stateMutability": "view",
      "type": "function"
    },
    {
      "inputs": [
        {
          "internalType": "address",
          "name": "",
          "type": "address"
        },
        {
          "internalType": "bytes32",
          "name": "",
          "type": "bytes32"
        }
      ],
      "name": "votes",
      "outputs": [
        {
          "internalType": "uint256",
          "name": "snapshot",
          "type": "uint256"
        },
        {
          "internalType": "address",
          "name": "reporter",
          "type": "address"
        },
        {
          "internalType": "bytes32",
          "name": "resultRoot",
          "type": "bytes32"
        },
        {
          "internalType": "uint256",
          "name": "nbYes",
          "type": "uint256"
        },
        {
          "internalType": "uint256",
          "name": "nbNo",
          "type": "uint256"
        },
        {
          "internalType": "uint256",
          "name": "startingTime",
          "type": "uint256"
        },
        {
          "internalType": "uint256",
          "name": "gracePeriodStartingTime",
          "type": "uint256"
        },
        {
          "internalType": "bool",
          "name": "isChallenged",
          "type": "bool"
        },
        {
          "internalType": "uint256",
          "name": "stepRequested",
          "type": "uint256"
        },
        {
          "internalType": "bool",
          "name": "forceFailed",
          "type": "bool"
        },
        {
          "internalType": "uint256",
          "name": "fallbackVotesCount",
          "type": "uint256"
        }
      ],
      "stateMutability": "view",
      "type": "function"
    }
  ],
  "bytecode": "0x60806040523480156200001157600080fd5b5060405162005b1b38038062005b1b83398101604081905262000034916200019d565b620000486200004262000149565b6200014d565b6001600160a01b0385166200007a5760405162461bcd60e51b815260040162000071906200028a565b60405180910390fd5b6001600160a01b038416620000a35760405162461bcd60e51b8152600401620000719062000253565b6001600160a01b038316620000cc5760405162461bcd60e51b81526004016200007190620002b3565b6001600160a01b038216620000f55760405162461bcd60e51b815260040162000071906200021c565b50600580546001600160a01b039586166001600160a01b03199182161790915560028054948616948216949094179093556003805491851691841691909117905560018054919093169116179055620002f7565b3390565b600080546001600160a01b038381166001600160a01b0319831681178455604051919092169283917f8be0079c531659141344cd1fd0a4f28419497f9722a3daafe3b4186f6b6457e09190a35050565b600080600080600060a08688031215620001b5578081fd5b8551620001c281620002de565b6020870151909550620001d581620002de565b6040870151909450620001e881620002de565b6060870151909350620001fb81620002de565b60808701519092506200020e81620002de565b809150509295509295909350565b60208082526013908201527f68616e646c6520626164207265706f7274657200000000000000000000000000604082015260600190565b6020808252601d908201527f6f6666636861696e20766f74696e6720686173682070726f706f73616c000000604082015260600190565b6020808252600f908201526e1d9bdd1a5b99c818dbdb9d1c9858dd608a1b604082015260600190565b6020808252601190820152701cdb985c1cda1bdd081c1c9bdc1bdcd85b607a1b604082015260600190565b6001600160a01b0381168114620002f457600080fd5b50565b61581480620003076000396000f3fe608060405234801561001057600080fd5b50600436106101c45760003560e01c806377955263116100f9578063b244a41d11610097578063cab730ab11610071578063cab730ab146103d6578063ef6a2499146103e9578063f2fde38b146103fc578063fc2580311461040f576101c4565b8063b244a41d14610390578063c8ebc334146103b0578063ca0f4633146103c3576101c4565b80638ecf7720116100d35780638ecf77201461033757806390c4643c14610357578063944fe5211461036a578063966917d01461037d576101c4565b806377955263146103095780638d1670971461031c5780638da5cb5b1461032f576101c4565b80632bd197d6116101665780635d5b4522116101405780635d5b4522146102bb5780636778bc56146102ce578063715018a6146102e157806376225e73146102e9576101c4565b80632bd197d614610280578063345c76a41461029557806355ace0bb146102a8576101c4565b80631db5ade8116101a25780631db5ade8146102045780631f86f5b31461023757806329ae0f1a1461024c5780632b0974d01461026d576101c4565b80630a477c7f146101c957806316b60b7d146101de5780631bb791cd146101f1575b600080fd5b6101dc6101d7366004614647565b610422565b005b6101dc6101ec366004614705565b6105b5565b6101dc6101ff36600461447e565b6107b0565b61021761021236600461428a565b610855565b60405161022e9b9a99989796959493929190615460565b60405180910390f35b61023f6108c7565b60405161022e9190614d69565b61025f61025a36600461447e565b6108fe565b60405161022e929190615449565b6101dc61027b3660046145fa565b610934565b610288610e51565b60405161022e9190614a17565b6101dc6102a3366004614562565b610e60565b6101dc6102b6366004614688565b6113f5565b6101dc6102c936600461447e565b6117b8565b6101dc6102dc36600461447e565b61184d565b6101dc611969565b6102fc6102f736600461447e565b6119b4565b60405161022e9190614d56565b6101dc610317366004614490565b611ced565b6101dc61032a36600461441e565b611d97565b610288611eba565b61034a610345366004614373565b611ec9565b60405161022e9190614a82565b6102fc6103653660046144d1565b612114565b6101dc610378366004614739565b6125a9565b61028861038b3660046143ab565b612872565b6103a361039e36600461489b565b61294c565b60405161022e9190614a8d565b6101dc6103be366004614647565b6129a8565b61034a6103d1366004614252565b612c76565b6101dc6103e436600461447e565b612c88565b61034a6103f7366004614252565b612dc5565b6101dc61040a366004614252565b612e09565b61034a61041d36600461487a565b612e7a565b6001600160a01b03831660008181526007602090815260408083208684529091528082209051632c9f4b5b60e11b815290929063593e96b690610489907fea0ca03c7adbe41dc655fec28a9209dc8e6e042f3d991a67765ba285b9cf73a090600401614a8d565b60206040518083038186803b1580156104a157600080fd5b505afa1580156104b5573d6000803e3d6000fd5b505050506040513d601f19601f820116820180604052508101906104d9919061426e565b9050600060028301548354600685015460405163faaf38b360e01b8152610580938a938a936000936001600160a01b038a169063faaf38b39061052a9061babe9063decafbad908790600401614a45565b60206040518083038186803b15801561054257600080fd5b505afa158015610556573d6000803e3d6000fd5b505050506040513d601f19601f8201168201806040525081019061057a919061431b565b8b612114565b600581111561059f57634e487b7160e01b600052602160045260246000fd5b146105ae576105ae8585612e97565b5050505050565b60405163644ddc5d60e11b81526000906001600160a01b0385169063c89bb8ba906105e4903390600401614a17565b60206040518083038186803b1580156105fc57600080fd5b505afa158015610610573d6000803e3d6000fd5b505050506040513d601f19601f82011682018060405250810190610634919061426e565b6001600160a01b038516600090815260076020908152604080832087845290915290209091506106648583611ec9565b6106895760405162461bcd60e51b815260040161068090614e21565b60405180910390fd5b60028101546000908152600460205260408120816106a9610100876155b0565b81526020019081526020016000205490506106cc816101008661041d9190615747565b156106e95760405162461bcd60e51b81526004016106809061517e565b610700816106f961010087615747565b600161294c565b6002830154600090815260046020526040812090610720610100886155b0565b81526020810191909152604001600020556008820154156107535760405162461bcd60e51b8152600401610680906151b5565b600561075f87876119b4565b600581111561077e57634e487b7160e01b600052602160045260246000fd5b1461079b5760405162461bcd60e51b815260040161068090615291565b50600881019290925550426006909101555050565b6003546001600160a01b031633146107da5760405162461bcd60e51b8152600401610680906150db565b6040517f30490e910000000000000000000000000000000000000000000000000000000081526001600160a01b038316906330490e919061081f908490600401614a8d565b600060405180830381600087803b15801561083957600080fd5b505af115801561084d573d6000803e3d6000fd5b505050505050565b6007602081815260009384526040808520909152918352912080546001820154600283015460038401546004850154600586015460068701549787015460088801546009890154600b9099015497996001600160a01b0390971698959794969395929460ff928316939192909116908b565b60408051808201909152601681527f4f6666636861696e566f74696e67436f6e747261637400000000000000000000602082015290565b6001600160a01b0382811660009081526006602090815260408083208584529091529020600181015490549091165b9250929050565b826000816001600160a01b031663c19d93fb6040518163ffffffff1660e01b815260040160206040518083038186803b15801561097057600080fd5b505afa158015610984573d6000803e3d6000fd5b505050506040513d601f19601f820116820180604052508101906109a89190614773565b60018111156109c757634e487b7160e01b600052602160045260246000fd5b1480156109d857506109d881613192565b80610a5a57506040516368c18beb60e01b81526001600160a01b038216906368c18beb90610a0a903390600401614a17565b60206040518083038186803b158015610a2257600080fd5b505afa158015610a36573d6000803e3d6000fd5b505050506040513d601f19601f82011682018060405250810190610a5a91906142e2565b610a765760405162461bcd60e51b81526004016106809061536d565b600082806020019051810190610a8c91906147b1565b600254606082015160a001516040517f1bd9515500000000000000000000000000000000000000000000000000000000815292935060009283926001600160a01b031691631bd9515591610ae39190600401614d69565b604080518083038186803b158015610afa57600080fd5b505afa158015610b0e573d6000803e3d6000fd5b505050506040513d601f19601f82011682018060405250810190610b3291906142fe565b9150915081610b535760405162461bcd60e51b8152600401610680906153a4565b604051632c9f4b5b60e11b81526000906001600160a01b0389169063593e96b690610ba2907fea0ca03c7adbe41dc655fec28a9209dc8e6e042f3d991a67765ba285b9cf73a090600401614a8d565b60206040518083038186803b158015610bba57600080fd5b505afa158015610bce573d6000803e3d6000fd5b505050506040513d601f19601f82011682018060405250810190610bf2919061426e565b90506000886001600160a01b031663c89bb8ba86604001516040518263ffffffff1660e01b8152600401610c269190614a17565b60206040518083038186803b158015610c3e57600080fd5b505afa158015610c52573d6000803e3d6000fd5b505050506040513d601f19601f82011682018060405250810190610c76919061426e565b90506000826001600160a01b031663f7888aec83620ff1ce6040518363ffffffff1660e01b8152600401610cab929190614a2b565b60206040518083038186803b158015610cc357600080fd5b505afa158015610cd7573d6000803e3d6000fd5b505050506040513d601f19601f82011682018060405250810190610cfb919061426e565b6001600160a01b031611610d215760405162461bcd60e51b8152600401610680906153db565b600154604051633084557f60e01b81526000916001600160a01b031690633084557f90610d56908d9033908b90600401614b8b565b60206040518083038186803b158015610d6e57600080fd5b505afa158015610d82573d6000803e3d6000fd5b505050506040513d601f19601f82011682018060405250810190610da6919061431b565b9050610dbb866040015182886080015161330a565b610dd75760405162461bcd60e51b815260040161068090614dea565b43841115610df75760405162461bcd60e51b815260040161068090614fff565b60008411610e175760405162461bcd60e51b8152600401610680906150a4565b5050506001600160a01b03969096166000908152600760209081526040808320978352969052949094204260058201559490945550505050565b6002546001600160a01b031681565b6001600160a01b038616600090815260076020908152604080832088845290915290208054610ea15760405162461bcd60e51b815260040161068090614eec565b60028101541580610eb65750600781015460ff165b15610f0557610ee9878285608001516affffffffffffffffffffff1686606001516affffffffffffffffffffff166134c1565b610f055760405162461bcd60e51b8152600401610680906152ff565b604051631976ad8960e11b81526000906001600160a01b038916906332ed5b1290610f34908a90600401614a8d565b604080518083038186803b158015610f4b57600080fd5b505afa158015610f5f573d6000803e3d6000fd5b505050506040513d601f19601f82011682018060405250810190610f8391906142b5565b506002546040517f4a87400b00000000000000000000000000000000000000000000000000000000815291925061102e9187916001600160a01b031690634a87400b90610fd8908d9087908d90600401614a45565b60206040518083038186803b158015610ff057600080fd5b505afa158015611004573d6000803e3d6000fd5b505050506040513d601f19601f82011682018060405250810190611028919061431b565b8561330a565b61104a5760405162461bcd60e51b815260040161068090614dea565b60405163644ddc5d60e11b81526000906001600160a01b038a169063c89bb8ba90611079908990600401614a17565b60206040518083038186803b15801561109157600080fd5b505afa1580156110a5573d6000803e3d6000fd5b505050506040513d601f19601f820116820180604052508101906110c9919061426e565b90506110d58982611ec9565b6110f15760405162461bcd60e51b815260040161068090614e21565b604051632c9f4b5b60e11b81526000906001600160a01b038b169063593e96b690611140907fea0ca03c7adbe41dc655fec28a9209dc8e6e042f3d991a67765ba285b9cf73a090600401614a8d565b60206040518083038186803b15801561115857600080fd5b505afa15801561116c573d6000803e3d6000fd5b505050506040513d601f19601f82011682018060405250810190611190919061426e565b845460405163faaf38b360e01b81526001600160a01b03929092169163faaf38b3916111c89161babe9163decafbad91600401614a45565b60206040518083038186803b1580156111e057600080fd5b505afa1580156111f4573d6000803e3d6000fd5b505050506040513d601f19601f82011682018060405250810190611218919061431b565b602087015190915067ffffffffffffffff166112356001836156e9565b146112525760405162461bcd60e51b815260040161068090615412565b600061126d8b8b60018c89600001548a60060154888e612114565b600581111561128c57634e487b7160e01b600052602160045260246000fd5b146112a95760405162461bcd60e51b815260040161068090614f91565b856060015186608001516112bd919061558a565b6affffffffffffffffffffff16846004015485600301546112de9190615546565b106112fb5760405162461bcd60e51b815260040161068090614e58565b6006840154158061133e575085608001516affffffffffffffffffffff1686606001516affffffffffffffffffffff161115158460030154856004015411151514155b1561134a574260068501555b60608601516affffffffffffffffffffff808216600487015560808801519081166003870155600286018a905560018601805473ffffffffffffffffffffffffffffffffffffffff19166001600160a01b03861617905560078601805460ff191690556040517f9b76c443e8316f42efc71e72d68a9040919beb9033ab8788a7c69ee5b8b6b994926113e1928d928d908890614ace565b60405180910390a150505050505050505050565b6001600160a01b038416600081815260076020908152604080832087845290915280822060028101549151631976ad8960e11b81529093919291906332ed5b1290611444908990600401614a8d565b604080518083038186803b15801561145b57600080fd5b505afa15801561146f573d6000803e3d6000fd5b505050506040513d601f19601f8201168201806040525081019061149391906142b5565b509050816114b35760405162461bcd60e51b8152600401610680906152c8565b600254604051636a71d09b60e01b81526000916001600160a01b031690636a71d09b906114e8908b9086908a90600401614ca9565b60206040518083038186803b15801561150057600080fd5b505afa158015611514573d6000803e3d6000fd5b505050506040513d601f19601f82011682018060405250810190611538919061431b565b600254604051636a71d09b60e01b81529192506000916001600160a01b0390911690636a71d09b90611572908c9087908c90600401614ca9565b60206040518083038186803b15801561158a57600080fd5b505afa15801561159e573d6000803e3d6000fd5b505050506040513d601f19601f820116820180604052508101906115c2919061431b565b90506115d38660e00151858461371e565b6115ef5760405162461bcd60e51b815260040161068090615036565b6115fe8760e00151858361371e565b61161a5760405162461bcd60e51b815260040161068090614fc8565b602087015161162a90600161555e565b67ffffffffffffffff16866020015167ffffffffffffffff16146116605760405162461bcd60e51b815260040161068090615336565b604051631976ad8960e11b81526000906001600160a01b038b16906332ed5b129061168f908c90600401614a8d565b604080518083038186803b1580156116a657600080fd5b505afa1580156116ba573d6000803e3d6000fd5b505050506040513d601f19601f820116820180604052508101906116de91906142b5565b50604080516060808201835260808c01516affffffffffffffffffffff9081168352908c01511660208201528082018c90526002548954925163ca51726760e01b815293945090926001600160a01b039091169163ca5172679161174c918f9187918e918890600401614cd5565b60206040518083038186803b15801561176457600080fd5b505afa158015611778573d6000803e3d6000fd5b505050506040513d601f19601f8201168201806040525081019061179c91906142e2565b156117ab576117ab8b8b612e97565b5050505050505050505050565b6117c06137d9565b6001600160a01b03166117d1611eba565b6001600160a01b0316146117f75760405162461bcd60e51b815260040161068090615149565b6001600160a01b03821660009081526007602090815260408083208484529091529020600581015461183b5760405162461bcd60e51b81526004016106809061506d565b600901805460ff191660011790555050565b6001600160a01b03821660008181526007602090815260408083208584529091528082209051634941d71d60e11b8152909290639283ae3a906118b4907f2324ddf5530d2241228494f4f2da5f930e5133943b8dd5669a10fe763085bf8c90600401614a8d565b60206040518083038186803b1580156118cc57600080fd5b505afa1580156118e0573d6000803e3d6000fd5b505050506040513d601f19601f82011682018060405250810190611904919061431b565b9050600082600801541161192a5760405162461bcd60e51b81526004016106809061525a565b80826006015461193a9190615546565b4210156119595760405162461bcd60e51b815260040161068090615223565b6119638484612e97565b50505050565b6119716137d9565b6001600160a01b0316611982611eba565b6001600160a01b0316146119a85760405162461bcd60e51b815260040161068090615149565b6119b260006137dd565b565b6001600160a01b0382166000908152600760209081526040808320848452909152812060058101546119ea576000915050611ce7565b600981015460ff1615611a01576003915050611ce7565b611a0f8482600b015461383a565b15611ab7576005546040517f76225e730000000000000000000000000000000000000000000000000000000081526001600160a01b03909116906376225e7390611a5f9087908790600401614a69565b60206040518083038186803b158015611a7757600080fd5b505afa158015611a8b573d6000803e3d6000fd5b505050506040513d601f19601f82011682018060405250810190611aaf9190614792565b915050611ce7565b600781015460ff1615611ace576004915050611ce7565b600881015415611ae2576004915050611ce7565b604051634941d71d60e11b81526000906001600160a01b03861690639283ae3a90611b31907f5747c91a28cbec9252486e322546a68a0eb195f6f01518b0442207980ad3884c90600401614a8d565b60206040518083038186803b158015611b4957600080fd5b505afa158015611b5d573d6000803e3d6000fd5b505050506040513d601f19601f82011682018060405250810190611b81919061431b565b9050808260050154611b939190615546565b421015611ba557600492505050611ce7565b604051634941d71d60e11b81526000906001600160a01b03871690639283ae3a90611bf4907f2324ddf5530d2241228494f4f2da5f930e5133943b8dd5669a10fe763085bf8c90600401614a8d565b60206040518083038186803b158015611c0c57600080fd5b505afa158015611c20573d6000803e3d6000fd5b505050506040513d601f19601f82011682018060405250810190611c44919061431b565b905082600601546000148015611c73575081818460050154611c669190615546565b611c709190615546565b42105b15611c845760059350505050611ce7565b808360060154611c949190615546565b421015611ca75760059350505050611ce7565b826004015483600301541115611cc35760029350505050611ce7565b826004015483600301541015611cdf5760039350505050611ce7565b600193505050505b92915050565b6003546001600160a01b03163314611d175760405162461bcd60e51b8152600401610680906150db565b6040517f896ae9ba0000000000000000000000000000000000000000000000000000000081526001600160a01b0384169063896ae9ba90611d6090859085903090600401614a96565b600060405180830381600087803b158015611d7a57600080fd5b505af1158015611d8e573d6000803e3d6000fd5b50505050505050565b6001600160a01b038316600090815260076020908152604080832060c08501518452825290912090820151600882015467ffffffffffffffff90911614611df05760405162461bcd60e51b815260040161068090614f5a565b600254604051636a71d09b60e01b81526000916001600160a01b031690636a71d09b90611e2590889088908890600401614ca9565b60206040518083038186803b158015611e3d57600080fd5b505afa158015611e51573d6000803e3d6000fd5b505050506040513d601f19601f82011682018060405250810190611e75919061431b565b9050611e8a8360e0015183600201548361371e565b611ea65760405162461bcd60e51b815260040161068090614d7c565b506000600882015542600690910155505050565b6000546001600160a01b031690565b600080836001600160a01b031663fefbd8757fea0ca03c7adbe41dc655fec28a9209dc8e6e042f3d991a67765ba285b9cf73a06040518263ffffffff1660e01b8152600401611f189190614a8d565b60206040518083038186803b158015611f3057600080fd5b505afa158015611f44573d6000803e3d6000fd5b505050506040513d601f19601f82011682018060405250810190611f68919061426e565b90506001600160a01b038116156120905760405163644ddc5d60e11b81526000906001600160a01b0386169063c89bb8ba90611fa8908790600401614a17565b60206040518083038186803b158015611fc057600080fd5b505afa158015611fd4573d6000803e3d6000fd5b505050506040513d601f19601f82011682018060405250810190611ff8919061426e565b90506000826001600160a01b031663f7888aec83620ff1ce6040518363ffffffff1660e01b815260040161202d929190614a2b565b60206040518083038186803b15801561204557600080fd5b505afa158015612059573d6000803e3d6000fd5b505050506040513d601f19601f8201168201806040525081019061207d919061426e565b6001600160a01b03161192505050611ce7565b60405163288c314960e21b81526001600160a01b0385169063a230c524906120bc908690600401614a17565b60206040518083038186803b1580156120d457600080fd5b505afa1580156120e8573d6000803e3d6000fd5b505050506040513d601f19601f8201168201806040525081019061210c91906142e2565b949350505050565b600080896001600160a01b03166332ed5b128a6040518263ffffffff1660e01b81526004016121439190614a8d565b604080518083038186803b15801561215a57600080fd5b505afa15801561216e573d6000803e3d6000fd5b505050506040513d601f19601f8201168201806040525081019061219291906142b5565b509050866121b25760405162461bcd60e51b815260040161068090614f23565b600254604051636a71d09b60e01b81526000916001600160a01b031690636a71d09b906121e7908e9086908990600401614ca9565b60206040518083038186803b1580156121ff57600080fd5b505afa158015612213573d6000803e3d6000fd5b505050506040513d601f19601f82011682018060405250810190612237919061431b565b90506122488460e00151898361371e565b6122645760405162461bcd60e51b815260040161068090614d7c565b84846020015167ffffffffffffffff16106122845760059250505061259d565b60208401516040517f9029444a0000000000000000000000000000000000000000000000000000000081526000916001600160a01b038e1691639029444a916122cf916004016154bb565b60206040518083038186803b1580156122e757600080fd5b505afa1580156122fb573d6000803e3d6000fd5b505050506040513d601f19601f8201168201806040525081019061231f919061426e565b905060008c6001600160a01b0316634a19d91e838b6040518363ffffffff1660e01b8152600401612351929190614a69565b60206040518083038186803b15801561236957600080fd5b505afa15801561237d573d6000803e3d6000fd5b505050506040513d601f19601f820116820180604052508101906123a1919061426e565b905060008d6001600160a01b03166332ed5b128e6040518263ffffffff1660e01b81526004016123d19190614a8d565b604080518083038186803b1580156123e857600080fd5b505afa1580156123fc573d6000803e3d6000fd5b505050506040513d601f19601f8201168201806040525081019061242091906142b5565b5090508660a0015151600014801561243e5750865163ffffffff1615155b80612467575060008760a0015151118015612467575086516124659063ffffffff16613968565b155b1561247a5760029550505050505061259d565b8c8760c00151146124935760019550505050505061259d565b8b1580156124ae575088876040015167ffffffffffffffff16115b156124c15760039550505050505061259d565b60008760a00151511180156125805750600260009054906101000a90046001600160a01b03166001600160a01b031663df6197cc8f83858b604001518c60c001518d600001518e60a001516040518863ffffffff1660e01b815260040161252e9796959493929190614b28565b60206040518083038186803b15801561254657600080fd5b505afa15801561255a573d6000803e3d6000fd5b505050506040513d601f19601f8201168201806040525081019061257e91906142e2565b155b156125935760049550505050505061259d565b6000955050505050505b98975050505050505050565b836000816001600160a01b031663c19d93fb6040518163ffffffff1660e01b815260040160206040518083038186803b1580156125e557600080fd5b505afa1580156125f9573d6000803e3d6000fd5b505050506040513d601f19601f8201168201806040525081019061261d9190614773565b600181111561263c57634e487b7160e01b600052602160045260246000fd5b14801561264d575061264d81613192565b806126cf57506040516368c18beb60e01b81526001600160a01b038216906368c18beb9061267f903390600401614a17565b60206040518083038186803b15801561269757600080fd5b505afa1580156126ab573d6000803e3d6000fd5b505050506040513d601f19601f820116820180604052508101906126cf91906142e2565b6126eb5760405162461bcd60e51b81526004016106809061536d565b604051630da0f6c760e41b81526001600160a01b0386169063da0f6c7090612739907f5747c91a28cbec9252486e322546a68a0eb195f6f01518b0442207980ad3884c9088906004016149ed565b600060405180830381600087803b15801561275357600080fd5b505af1158015612767573d6000803e3d6000fd5b5050604051630da0f6c760e41b81526001600160a01b038816925063da0f6c7091506127b9907f2324ddf5530d2241228494f4f2da5f930e5133943b8dd5669a10fe763085bf8c9087906004016149ed565b600060405180830381600087803b1580156127d357600080fd5b505af11580156127e7573d6000803e3d6000fd5b5050604051630da0f6c760e41b81526001600160a01b038816925063da0f6c709150612839907f7781b80638de1bad375fa02f17b809bb0037ecfaca3f762ca34d55e5b29687329086906004016149ed565b600060405180830381600087803b15801561285357600080fd5b505af1158015612867573d6000803e3d6000fd5b505050505050505050565b6000808380602001905181019061288991906147b1565b6040808201516001549151633084557f60e01b81529293506129239290916001600160a01b031690633084557f906128c9908b908b908890600401614b8b565b60206040518083038186803b1580156128e157600080fd5b505afa1580156128f5573d6000803e3d6000fd5b505050506040513d601f19601f82011682018060405250810190612919919061431b565b836080015161330a565b61293f5760405162461bcd60e51b815260040161068090614dea565b6040015195945050505050565b600081151561295b8585612e7a565b15151461299e57811561298457612973836002615601565b61297d9085615546565b90506129a1565b61298f836002615601565b61297d90856156e9565b6129a1565b50825b9392505050565b602081015167ffffffffffffffff16156129d45760405162461bcd60e51b8152600401610680906151ec565b6001600160a01b03831660008181526007602090815260408083208684529091528082209051631976ad8960e11b81529092906332ed5b1290612a1b908790600401614a8d565b604080518083038186803b158015612a3257600080fd5b505afa158015612a46573d6000803e3d6000fd5b505050506040513d601f19601f82011682018060405250810190612a6a91906142b5565b506002830154909150612a8f5760405162461bcd60e51b815260040161068090614f23565b600254604051636a71d09b60e01b81526000916001600160a01b031690636a71d09b90612ac490899086908990600401614ca9565b60206040518083038186803b158015612adc57600080fd5b505afa158015612af0573d6000803e3d6000fd5b505050506040513d601f19601f82011682018060405250810190612b14919061431b565b9050612b298460e0015184600201548361371e565b612b455760405162461bcd60e51b815260040161068090614d7c565b604051631976ad8960e11b81526000906001600160a01b038816906332ed5b1290612b74908990600401614a8d565b604080518083038186803b158015612b8b57600080fd5b505afa158015612b9f573d6000803e3d6000fd5b505050506040513d601f19601f82011682018060405250810190612bc391906142b5565b50600254855460408051606081018252600080825260208201528082018b9052905163ca51726760e01b81529394506001600160a01b039092169263ca51726792612c17928c9287928c9291600401614cd5565b60206040518083038186803b158015612c2f57600080fd5b505afa158015612c43573d6000803e3d6000fd5b505050506040513d601f19601f82011682018060405250810190612c6791906142e2565b15611d8e57611d8e8787612e97565b6001600160a01b03811615155b919050565b81612c938133613988565b6001600160a01b03831660009081526007602090815260408083208584528252808320338452600a0190915290205460ff1615612ce25760405162461bcd60e51b815260040161068090614db3565b6001600160a01b0383166000908152600760209081526040808320858452808352818420338552600a81018452918420805460ff191660019081179091558685529252600b01805491929091612d39908490615546565b90915550506001600160a01b03831660009081526007602090815260408083208584529091529020600b0154612d7090849061383a565b15612dc0576005546040517f2b0974d00000000000000000000000000000000000000000000000000000000081526001600160a01b0390911690632b0974d090611d609086908690600401614d2e565b505050565b60006001600160a01b03821661dead14801590612ded57506001600160a01b03821661babe14155b8015611ce757506001600160a01b038216614bec141592915050565b612e116137d9565b6001600160a01b0316612e22611eba565b6001600160a01b031614612e485760405162461bcd60e51b815260040161068090615149565b6001600160a01b038116612e6e5760405162461bcd60e51b815260040161068090614e8f565b612e77816137dd565b50565b6000612e8d600260ff841685901c615747565b6001149392505050565b604051632c9f4b5b60e11b81526000906001600160a01b0384169063593e96b690612ee6907fea0ca03c7adbe41dc655fec28a9209dc8e6e042f3d991a67765ba285b9cf73a090600401614a8d565b60206040518083038186803b158015612efe57600080fd5b505afa158015612f12573d6000803e3d6000fd5b505050506040513d601f19601f82011682018060405250810190612f36919061426e565b6001600160a01b0384811660009081526007602081815260408084208885528252808420928301805460ff19166001908117909155830154600290930154905195965091909316939192612f8d92879291016149ed565b60408051601f198184030181529082905280516020909101207fb73dc38900000000000000000000000000000000000000000000000000000000825291506001600160a01b0386169063b73dc38990612fea908490600401614a8d565b600060405180830381600087803b15801561300457600080fd5b505af1158015613018573d6000803e3d6000fd5b50506040517ff7888aec000000000000000000000000000000000000000000000000000000008152600092506001600160a01b038616915063f7888aec90613069908690620ff1ce90600401614a2b565b60206040518083038186803b15801561308157600080fd5b505afa158015613095573d6000803e3d6000fd5b505050506040513d601f19601f820116820180604052508101906130b9919061426e565b6040805180820182526001600160a01b03868116825292831660208083018281528b86166000908152600683528581208982529092529390209151825473ffffffffffffffffffffffffffffffffffffffff191694169390931781559051600190910155905061312986846139b2565b6001600160a01b0386166000908152600760209081526040808320888452909152908190206002015490517fa525954fc0ce1ab54fff715f1e3d4953fc9ce77336271aae747732966a4f7d0691613182918891906149ed565b60405180910390a1505050505050565b6000816001600160a01b031663c67143666040518163ffffffff1660e01b815260040160206040518083038186803b1580156131cd57600080fd5b505afa1580156131e1573d6000803e3d6000fd5b505050506040513d601f19601f82011682018060405250810190613205919061431b565b1580613288575060405163288c314960e21b81526001600160a01b0383169063a230c52490613238903390600401614a17565b60206040518083038186803b15801561325057600080fd5b505afa158015613264573d6000803e3d6000fd5b505050506040513d601f19601f8201168201806040525081019061328891906142e2565b80611ce757506040516368c18beb60e01b81526001600160a01b038316906368c18beb906132ba903390600401614a17565b60206040518083038186803b1580156132d257600080fd5b505afa1580156132e6573d6000803e3d6000fd5b505050506040513d601f19601f82011682018060405250810190611ce791906142e2565b60008060006133198585613db2565b9092509050600081600481111561334057634e487b7160e01b600052602160045260246000fd5b14801561335e5750856001600160a01b0316826001600160a01b0316145b1561336e576001925050506129a1565b600080876001600160a01b0316631626ba7e60e01b8888604051602401613396929190614ab5565b60408051601f198184030181529181526020820180517bffffffffffffffffffffffffffffffffffffffffffffffffffffffff167fffffffff0000000000000000000000000000000000000000000000000000000090941693909317909252905161340191906149fb565b600060405180830381855afa9150503d806000811461343c576040519150601f19603f3d011682016040523d82523d6000602084013e613441565b606091505b5091509150818015613454575080516020145b801561259d575080517f1626ba7e00000000000000000000000000000000000000000000000000000000906134929083016020908101908401614333565b7fffffffff00000000000000000000000000000000000000000000000000000000161498975050505050505050565b600983015460009060ff16156134d95750600061210c565b604051632c9f4b5b60e11b81526000906001600160a01b0387169063593e96b690613528907fea0ca03c7adbe41dc655fec28a9209dc8e6e042f3d991a67765ba285b9cf73a090600401614a8d565b60206040518083038186803b15801561354057600080fd5b505afa158015613554573d6000803e3d6000fd5b505050506040513d601f19601f82011682018060405250810190613578919061426e565b855460405163faaf38b360e01b81529192506000916001600160a01b0384169163faaf38b3916135b49161babe91620ff1ce9190600401614a45565b60206040518083038186803b1580156135cc57600080fd5b505afa1580156135e0573d6000803e3d6000fd5b505050506040513d601f19601f82011682018060405250810190613604919061431b565b905060008461361387846156e9565b61361d91906156e9565b905060008587111561363a5761363386886156e9565b9050613647565b61364487876156e9565b90505b8181111561365c57600194505050505061210c565b604051634941d71d60e11b81526000906001600160a01b038b1690639283ae3a906136ab907f5747c91a28cbec9252486e322546a68a0eb195f6f01518b0442207980ad3884c90600401614a8d565b60206040518083038186803b1580156136c357600080fd5b505afa1580156136d7573d6000803e3d6000fd5b505050506040513d601f19601f820116820180604052508101906136fb919061431b565b905042818a6005015461370e9190615546565b11159a9950505050505050505050565b600081815b85518110156137ce57600086828151811061374e57634e487b7160e01b600052603260045260246000fd5b6020026020010151905080831161378f5782816040516020016137729291906149ed565b6040516020818303038152906040528051906020012092506137bb565b80836040516020016137a29291906149ed565b6040516020818303038152906040528051906020012092505b50806137c68161572c565b915050613723565b509092149392505050565b3390565b600080546001600160a01b0383811673ffffffffffffffffffffffffffffffffffffffff19831681178455604051919092169283917f8be0079c531659141344cd1fd0a4f28419497f9722a3daafe3b4186f6b6457e09190a35050565b604051634941d71d60e11b81526000906001600160a01b03841690639283ae3a90613889907f7781b80638de1bad375fa02f17b809bb0037ecfaca3f762ca34d55e5b296873290600401614a8d565b60206040518083038186803b1580156138a157600080fd5b505afa1580156138b5573d6000803e3d6000fd5b505050506040513d601f19601f820116820180604052508101906138d9919061431b565b836001600160a01b031663c67143666040518163ffffffff1660e01b815260040160206040518083038186803b15801561391257600080fd5b505afa158015613926573d6000803e3d6000fd5b505050506040513d601f19601f8201168201806040525081019061394a919061431b565b6139559060646156ca565b61395f91906155b0565b90911192915050565b60008082118015611ce7575061398060026001615546565b909110919050565b6139928282611ec9565b6139ae5760405162461bcd60e51b815260040161068090615112565b5050565b604051632c9f4b5b60e11b81526000906001600160a01b0384169063593e96b690613a01907fea0ca03c7adbe41dc655fec28a9209dc8e6e042f3d991a67765ba285b9cf73a090600401614a8d565b60206040518083038186803b158015613a1957600080fd5b505afa158015613a2d573d6000803e3d6000fd5b505050506040513d601f19601f82011682018060405250810190613a51919061426e565b90506000816001600160a01b031663f7888aec84620ff1ce6040518363ffffffff1660e01b8152600401613a86929190614a2b565b60206040518083038186803b158015613a9e57600080fd5b505afa158015613ab2573d6000803e3d6000fd5b505050506040513d601f19601f82011682018060405250810190613ad6919061426e565b6001600160a01b031690506000826001600160a01b031663f7888aec8563b105f00d6040518363ffffffff1660e01b8152600401613b15929190614a2b565b60206040518083038186803b158015613b2d57600080fd5b505afa158015613b41573d6000803e3d6000fd5b505050506040513d601f19601f82011682018060405250810190613b65919061426e565b6001600160a01b03169050826001600160a01b03166369af242f62fff1ce6040518263ffffffff1660e01b8152600401613b9f9190614a17565b600060405180830381600087803b158015613bb957600080fd5b505af1158015613bcd573d6000803e3d6000fd5b50506040517f69af242f0000000000000000000000000000000000000000000000000000000081526001600160a01b03861692506369af242f9150613c1b90640bb105f00d90600401614a17565b600060405180830381600087803b158015613c3557600080fd5b505af1158015613c49573d6000803e3d6000fd5b505060405163c57d5fe960e01b81526001600160a01b038616925063c57d5fe99150613c8090879062fff1ce908790600401614a45565b600060405180830381600087803b158015613c9a57600080fd5b505af1158015613cae573d6000803e3d6000fd5b505060405163e3a05cc160e01b81526001600160a01b038616925063e3a05cc19150613ce5908790620ff1ce908790600401614a45565b600060405180830381600087803b158015613cff57600080fd5b505af1158015613d13573d6000803e3d6000fd5b505060405163c57d5fe960e01b81526001600160a01b038616925063c57d5fe99150613d4c908790640bb105f00d908690600401614a45565b600060405180830381600087803b158015613d6657600080fd5b505af1158015613d7a573d6000803e3d6000fd5b505060405163e3a05cc160e01b81526001600160a01b038616925063e3a05cc1915061283990879063b105f00d908690600401614a45565b600080825160411415613de95760208301516040840151606085015160001a613ddd87828585613e1f565b9450945050505061092d565b825160401415613e135760208301516040840151613e08868383613eff565b93509350505061092d565b5060009050600261092d565b6000807f7fffffffffffffffffffffffffffffff5d576e7357a4501ddfe92f46681b20a0831115613e565750600090506003613ef6565b8460ff16601b14158015613e6e57508460ff16601c14155b15613e7f5750600090506004613ef6565b600060018787878760405160008152602001604052604051613ea49493929190614b0a565b6020604051602081039080840390855afa158015613ec6573d6000803e3d6000fd5b5050604051601f1901519150506001600160a01b038116613eef57600060019250925050613ef6565b9150600090505b94509492505050565b6000807f7fffffffffffffffffffffffffffffffffffffffffffffffffffffffffffffff831660ff84901c601b01613f3987828885613e1f565b935093505050935093915050565b8051612c83816157bb565b600082601f830112613f62578081fd5b81356020613f77613f72836154fa565b6154d0565b8281528181019085830183850287018401881015613f93578586fd5b855b85811015613fb157813584529284019290840190600101613f95565b5090979650505050505050565b600082601f830112613fce578081fd5b81516020613fde613f72836154fa565b82815281810190858301855b85811015613fb157614001898684518b010161405f565b84529284019290840190600101613fea565b600082601f830112614023578081fd5b8135614031613f728261551e565b818152846020838601011115614045578283fd5b816020850160208301379081016020019190915292915050565b600082601f83011261406f578081fd5b815161407d613f728261551e565b818152846020838601011115614091578283fd5b61210c826020830160208701615700565b600060c082840312156140b3578081fd5b6140bd60c06154d0565b90508151815260208201516020820152604082015167ffffffffffffffff808211156140e857600080fd5b6140f485838601613fbe565b6040840152606084015160608401526080840151608084015260a084015191508082111561412157600080fd5b5061412e8482850161405f565b60a08301525092915050565b600061010080838503121561414d578182fd5b614156816154d0565b9150506141628261420b565b81526141706020830161421f565b60208201526141816040830161421f565b604082015261419260608301614237565b60608201526141a360808301614237565b608082015260a082013567ffffffffffffffff808211156141c357600080fd5b6141cf85838601614013565b60a084015260c084013560c084015260e08401359150808211156141f257600080fd5b506141ff84828501613f52565b60e08301525092915050565b803563ffffffff81168114612c8357600080fd5b803567ffffffffffffffff81168114612c8357600080fd5b80356affffffffffffffffffffff81168114612c8357600080fd5b600060208284031215614263578081fd5b81356129a1816157bb565b60006020828403121561427f578081fd5b81516129a1816157bb565b6000806040838503121561429c578081fd5b82356142a7816157bb565b946020939093013593505050565b600080604083850312156142c7578182fd5b82516142d2816157bb565b6020939093015192949293505050565b6000602082840312156142f3578081fd5b81516129a1816157d0565b60008060408385031215614310578182fd5b82516142d2816157d0565b60006020828403121561432c578081fd5b5051919050565b600060208284031215614344578081fd5b81517fffffffff00000000000000000000000000000000000000000000000000000000811681146129a1578182fd5b60008060408385031215614385578182fd5b8235614390816157bb565b915060208301356143a0816157bb565b809150509250929050565b600080600080608085870312156143c0578182fd5b84356143cb816157bb565b935060208501356143db816157bb565b9250604085013567ffffffffffffffff8111156143f6578283fd5b61440287828801614013565b9250506060850135614413816157bb565b939692955090935050565b600080600060608486031215614432578081fd5b833561443d816157bb565b9250602084013561444d816157bb565b9150604084013567ffffffffffffffff811115614468578182fd5b6144748682870161413a565b9150509250925092565b6000806040838503121561429c578182fd5b6000806000606084860312156144a4578081fd5b83356144af816157bb565b92506020840135915060408401356144c6816157bb565b809150509250925092565b600080600080600080600080610100898b0312156144ed578586fd5b88356144f8816157bb565b975060208901359650604089013561450f816157d0565b9550606089013594506080890135935060a0890135925060c0890135915060e089013567ffffffffffffffff811115614546578182fd5b6145528b828c0161413a565b9150509295985092959890939650565b60008060008060008060c0878903121561457a578384fd5b8635614585816157bb565b9550602087013594506040870135935060608701356145a3816157bb565b9250608087013567ffffffffffffffff808211156145bf578384fd5b6145cb8a838b0161413a565b935060a08901359150808211156145e0578283fd5b506145ed89828a01614013565b9150509295509295509295565b60008060006060848603121561460e578081fd5b8335614619816157bb565b925060208401359150604084013567ffffffffffffffff81111561463b578182fd5b61447486828701614013565b60008060006060848603121561465b578081fd5b8335614666816157bb565b925060208401359150604084013567ffffffffffffffff811115614468578182fd5b6000806000806080858703121561469d578182fd5b84356146a8816157bb565b935060208501359250604085013567ffffffffffffffff808211156146cb578384fd5b6146d78883890161413a565b935060608701359150808211156146ec578283fd5b506146f98782880161413a565b91505092959194509250565b600080600060608486031215614719578081fd5b8335614724816157bb565b95602085013595506040909401359392505050565b6000806000806080858703121561474e578182fd5b8435614759816157bb565b966020860135965060408601359560600135945092505050565b600060208284031215614784578081fd5b8151600281106129a1578182fd5b6000602082840312156147a3578081fd5b8151600681106129a1578182fd5b6000602082840312156147c2578081fd5b815167ffffffffffffffff808211156147d9578283fd5b9083019060a082860312156147ec578283fd5b60405160a08101818110838211171561480757614807615787565b8060405250825181526020830151602082015261482660408401613f47565b604082015260608301518281111561483c578485fd5b614848878286016140a2565b60608301525060808301518281111561485f578485fd5b61486b8782860161405f565b60808301525095945050505050565b6000806040838503121561488c578182fd5b50508035926020909101359150565b6000806000606084860312156148af578081fd5b833592506020840135915060408401356144c6816157d0565b6000815180845260208085019450808401835b838110156148f7578151875295820195908201906001016148db565b509495945050505050565b6000815180845261491a816020860160208601615700565b601f01601f19169290920160200192915050565b600061010063ffffffff835116845267ffffffffffffffff6020840151166020850152604083015161496360408601826149ce565b50606083015161497660608601826149dc565b50608083015161498960808601826149dc565b5060a08301518160a08601526149a182860182614902565b91505060c083015160c085015260e083015184820360e08601526149c582826148c8565b95945050505050565b67ffffffffffffffff169052565b6affffffffffffffffffffff169052565b918252602082015260400190565b60008251614a0d818460208701615700565b9190910192915050565b6001600160a01b0391909116815260200190565b6001600160a01b0392831681529116602082015260400190565b6001600160a01b039384168152919092166020820152604081019190915260600190565b6001600160a01b03929092168252602082015260400190565b901515815260200190565b90815260200190565b9283526001600160a01b03918216602084015216604082015260600190565b60008382526040602083015261210c6040830184614902565b9485526affffffffffffffffffffff938416602086015291909216604084015260608301919091526001600160a01b0316608082015260a00190565b93845260ff9290921660208401526040830152606082015260800190565b60006001600160a01b03808a168352808916602084015280881660408401525067ffffffffffffffff8616606083015284608083015263ffffffff841660a083015260e060c0830152614b7e60e0830184614902565b9998505050505050505050565b60006001600160a01b03808616835260208186168185015260606040850152845160608501528085015160808501528160408601511660a08501526060850151915060a060c08501526101c08401825161010086015281830151610120860152604083015160c06101408701528181518084526101e0935083880191508385820289010193508483019250865b81811015614c47576101df19898603018352614c35858551614902565b94509285019291850191600101614c18565b505050506060830151610160860152608083015161018086015260a09092015184830360ff19016101a086015291614c7f8184614902565b925050506080840151605f198483030160e0850152614c9e8282614902565b979650505050505050565b60006001600160a01b038086168352808516602084015250606060408301526149c5606083018461492e565b60006001600160a01b03808816835280871660208401525060e06040830152614d0160e083018661492e565b905083606083015282516080830152602083015160a0830152604083015160c08301529695505050505050565b6001600160a01b03929092168252602082015260606040820181905260009082015260800190565b60208101614d638361579d565b91905290565b6000602082526129a16020830184614902565b60208082526009908201527f70726f6f663a6261640000000000000000000000000000000000000000000000604082015260600190565b60208082526017908201527f66616c6c6261636b20766f7465206475706c6963617465000000000000000000604082015260600190565b6020808252600b908201527f696e76616c696420736967000000000000000000000000000000000000000000604082015260600190565b60208082526011908201527f6e6f7420616374697665206d656d626572000000000000000000000000000000604082015260600190565b60208082526015908201527f726573756c742077656967687420746f6f206c6f770000000000000000000000604082015260600190565b60208082526026908201527f4f776e61626c653a206e6577206f776e657220697320746865207a65726f206160408201527f6464726573730000000000000000000000000000000000000000000000000000606082015260800190565b60208082526010908201527f766f74653a6e6f74207374617274656400000000000000000000000000000000604082015260600190565b60208082526018908201527f6e6f20726573756c7420617661696c61626c6520796574210000000000000000604082015260600190565b60208082526013908201527f77726f6e6720737465702070726f766964656400000000000000000000000000604082015260600190565b6020808252600a908201527f62616420726573756c7400000000000000000000000000000000000000000000604082015260600190565b6020808252601a908201527f70726f6f6620696e76616c696420666f722070726576696f7573000000000000604082015260600190565b60208082526018908201527f736e617073686f7420626c6f636b20696e206675747572650000000000000000604082015260600190565b60208082526019908201527f70726f6f6620696e76616c696420666f722063757272656e7400000000000000604082015260600190565b6020808252601c908201527f70726f706f73616c20686173206e6f7420737461727465642079657400000000604082015260600190565b60208082526018908201527f626c6f636b206e756d6265722063616e6e6f7420626520300000000000000000604082015260600190565b60208082526009908201527f6f6e6c793a686272610000000000000000000000000000000000000000000000604082015260600190565b6020808252600a908201527f6f6e6c794d656d62657200000000000000000000000000000000000000000000604082015260600190565b6020808252818101527f4f776e61626c653a2063616c6c6572206973206e6f7420746865206f776e6572604082015260600190565b60208082526016908201527f7374657020616c72656164792072657175657374656400000000000000000000604082015260600190565b6020808252601c908201527f6f74686572207374657020616c72656164792072657175657374656400000000604082015260600190565b6020808252600f908201527f6f6e6c79206669727374206e6f64650000000000000000000000000000000000604082015260600190565b6020808252600c908201527f677261636520706572696f640000000000000000000000000000000000000000604082015260600190565b6020808252600f908201527f6e6f207374657020726571756573740000000000000000000000000000000000604082015260600190565b60208082526016908201527f73686f756c6420626520677261636520706572696f6400000000000000000000604082015260600190565b6020808252600a908201527f6e6f20726573756c742100000000000000000000000000000000000000000000604082015260600190565b6020808252601b908201527f766f74653a6e6f745265616479546f5375626d6974526573756c740000000000604082015260600190565b6020808252600f908201527f6e6f7420636f6e73656375746976650000000000000000000000000000000000604082015260600190565b6020808252600b908201527f6f6e6c7941646170746572000000000000000000000000000000000000000000604082015260600190565b60208082526019908201527f736e617073686f7420636f6e76657273696f6e206572726f7200000000000000604082015260600190565b6020808252600e908201527f6e6f4163746976654d656d626572000000000000000000000000000000000000604082015260600190565b6020808252601b908201527f696e6465783a6d656d6265725f636f756e74206d69736d617463680000000000604082015260600190565b9182526001600160a01b0316602082015260400190565b9a8b526001600160a01b039990991660208b015260408a01979097526060890195909552608088019390935260a087019190915260c0860152151560e085015261010084015215156101208301526101408201526101600190565b67ffffffffffffffff91909116815260200190565b60405181810167ffffffffffffffff811182821017156154f2576154f2615787565b604052919050565b600067ffffffffffffffff82111561551457615514615787565b5060209081020190565b600067ffffffffffffffff82111561553857615538615787565b50601f01601f191660200190565b600082198211156155595761555961575b565b500190565b600067ffffffffffffffff8083168185168083038211156155815761558161575b565b01949350505050565b60006affffffffffffffffffffff8083168185168083038211156155815761558161575b565b6000826155bf576155bf615771565b500490565b80825b60018086116155d65750613ef6565b8187048211156155e8576155e861575b565b808616156155f557918102915b9490941c9380026155c7565b60006129a1600019848460008261561a575060016129a1565b81615627575060006129a1565b816001811461563d576002811461564757615674565b60019150506129a1565b60ff8411156156585761565861575b565b6001841b91508482111561566e5761566e61575b565b506129a1565b5060208310610133831016604e8410600b84101617156156a2575081810a838111156129995761299961575b565b6156af84848460016155c4565b8086048211156156c1576156c161575b565b02949350505050565b60008160001904831182151516156156e4576156e461575b565b500290565b6000828210156156fb576156fb61575b565b500390565b60005b8381101561571b578181015183820152602001615703565b838111156119635750506000910152565b60006000198214156157405761574061575b565b5060010190565b60008261575657615756615771565b500690565b634e487b7160e01b600052601160045260246000fd5b634e487b7160e01b600052601260045260246000fd5b634e487b7160e01b600052604160045260246000fd5b60068110612e7757634e487b7160e01b600052602160045260246000fd5b6001600160a01b0381168114612e7757600080fd5b8015158114612e7757600080fdfea2646970667358221220c9766d622dcc574e94e880bf4655f4d9daa90814612e5c0da517486ee646815964736f6c63430008000033",
  "linkReferences": {},
  "deployedLinkReferences": {}
}