{
  "_format": "hh-sol-artifact-1",
  "contractName": "OffchainVotingHashContract",
  "sourceName": "build/sources/adapters/voting/OffchainVotingHash.sol",
  "abi": [
    {
      "inputs": [
        {
          "internalType": "contract SnapshotProposalContract",
          "name": "_spc",
          "type": "address"
        }
      ],
      "stateMutability": "nonpayable",
      "type": "constructor"
    },
    {
      "inputs": [],
      "name": "VOTE_RESULT_NODE_TYPE",
      "outputs": [
        {
          "internalType": "string",
          "name": "",
          "type": "string"
        }
      ],
      "stateMutability": "view",
      "type": "function"
    },
    {
      "inputs": [],
      "name": "VOTE_RESULT_NODE_TYPEHASH",
      "outputs": [
        {
          "internalType": "bytes32",
          "name": "",
          "type": "bytes32"
        }
      ],
      "stateMutability": "view",
      "type": "function"
    },
    {
      "inputs": [],
      "name": "VOTE_RESULT_ROOT_TYPE",
      "outputs": [
        {
          "internalType": "string",
          "name": "",
          "type": "string"
        }
      ],
      "stateMutability": "view",
      "type": "function"
    },
    {
      "inputs": [],
      "name": "VOTE_RESULT_ROOT_TYPEHASH",
      "outputs": [
        {
          "internalType": "bytes32",
          "name": "",
          "type": "bytes32"
        }
      ],
      "stateMutability": "view",
      "type": "function"
    },
    {
      "inputs": [
        {
          "internalType": "contract DaoRegistry",
          "name": "dao",
          "type": "address"
        },
        {
          "internalType": "address",
          "name": "actionId",
          "type": "address"
        },
        {
          "components": [
            {
              "internalType": "uint32",
              "name": "choice",
              "type": "uint32"
            },
            {
              "internalType": "uint64",
              "name": "index",
              "type": "uint64"
            },
            {
              "internalType": "uint64",
              "name": "timestamp",
              "type": "uint64"
            },
            {
              "internalType": "uint88",
              "name": "nbNo",
              "type": "uint88"
            },
            {
              "internalType": "uint88",
              "name": "nbYes",
              "type": "uint88"
            },
            {
              "internalType": "bytes",
              "name": "sig",
              "type": "bytes"
            },
            {
              "internalType": "bytes32",
              "name": "proposalId",
              "type": "bytes32"
            },
            {
              "internalType": "bytes32[]",
              "name": "proof",
              "type": "bytes32[]"
            }
          ],
          "internalType": "struct OffchainVotingHashContract.VoteResultNode",
          "name": "node",
          "type": "tuple"
        },
        {
          "internalType": "uint256",
          "name": "snapshot",
          "type": "uint256"
        },
        {
          "components": [
            {
              "internalType": "uint256",
              "name": "previousYes",
              "type": "uint256"
            },
            {
              "internalType": "uint256",
              "name": "previousNo",
              "type": "uint256"
            },
            {
              "internalType": "bytes32",
              "name": "proposalId",
              "type": "bytes32"
            }
          ],
          "internalType": "struct OffchainVotingHashContract.VoteStepParams",
          "name": "params",
          "type": "tuple"
        }
      ],
      "name": "checkStep",
      "outputs": [
        {
          "internalType": "bool",
          "name": "",
          "type": "bool"
        }
      ],
      "stateMutability": "view",
      "type": "function"
    },
    {
      "inputs": [
        {
          "internalType": "uint256",
          "name": "flags",
          "type": "uint256"
        },
        {
          "internalType": "uint256",
          "name": "flag",
          "type": "uint256"
        }
      ],
      "name": "getFlag",
      "outputs": [
        {
          "internalType": "bool",
          "name": "",
          "type": "bool"
        }
      ],
      "stateMutability": "pure",
      "type": "function"
    },
    {
      "inputs": [
        {
          "internalType": "contract DaoRegistry",
          "name": "dao",
          "type": "address"
        },
        {
          "internalType": "address",
          "name": "actionId",
          "type": "address"
        },
        {
          "internalType": "address",
          "name": "voter",
          "type": "address"
        },
        {
          "internalType": "uint64",
          "name": "timestamp",
          "type": "uint64"
        },
        {
          "internalType": "bytes32",
          "name": "proposalId",
          "type": "bytes32"
        },
        {
          "internalType": "uint32",
          "name": "choiceIdx",
          "type": "uint32"
        },
        {
          "internalType": "bytes",
          "name": "sig",
          "type": "bytes"
        }
      ],
      "name": "hasVoted",
      "outputs": [
        {
          "internalType": "bool",
          "name": "",
          "type": "bool"
        }
      ],
      "stateMutability": "view",
      "type": "function"
    },
    {
      "inputs": [
        {
          "internalType": "contract DaoRegistry",
          "name": "dao",
          "type": "address"
        },
        {
          "internalType": "address",
          "name": "actionId",
          "type": "address"
        },
        {
          "internalType": "bytes32",
          "name": "resultRoot",
          "type": "bytes32"
        }
      ],
      "name": "hashResultRoot",
      "outputs": [
        {
          "internalType": "bytes32",
          "name": "",
          "type": "bytes32"
        }
      ],
      "stateMutability": "view",
      "type": "function"
    },
    {
      "inputs": [
        {
          "components": [
            {
              "internalType": "uint32",
              "name": "choice",
              "type": "uint32"
            },
            {
              "internalType": "uint64",
              "name": "index",
              "type": "uint64"
            },
            {
              "internalType": "uint64",
              "name": "timestamp",
              "type": "uint64"
            },
            {
              "internalType": "uint88",
              "name": "nbNo",
              "type": "uint88"
            },
            {
              "internalType": "uint88",
              "name": "nbYes",
              "type": "uint88"
            },
            {
              "internalType": "bytes",
              "name": "sig",
              "type": "bytes"
            },
            {
              "internalType": "bytes32",
              "name": "proposalId",
              "type": "bytes32"
            },
            {
              "internalType": "bytes32[]",
              "name": "proof",
              "type": "bytes32[]"
            }
          ],
          "internalType": "struct OffchainVotingHashContract.VoteResultNode",
          "name": "node",
          "type": "tuple"
        }
      ],
      "name": "hashVotingResultNode",
      "outputs": [
        {
          "internalType": "bytes32",
          "name": "",
          "type": "bytes32"
        }
      ],
      "stateMutability": "pure",
      "type": "function"
    },
    {
      "inputs": [
        {
          "internalType": "address",
          "name": "addr",
          "type": "address"
        }
      ],
      "name": "isNotReservedAddress",
      "outputs": [
        {
          "internalType": "bool",
          "name": "",
          "type": "bool"
        }
      ],
      "stateMutability": "pure",
      "type": "function"
    },
    {
      "inputs": [
        {
          "internalType": "address",
          "name": "addr",
          "type": "address"
        }
      ],
      "name": "isNotZeroAddress",
      "outputs": [
        {
          "internalType": "bool",
          "name": "",
          "type": "bool"
        }
      ],
      "stateMutability": "pure",
      "type": "function"
    },
    {
      "inputs": [
        {
          "internalType": "contract DaoRegistry",
          "name": "dao",
          "type": "address"
        },
        {
          "internalType": "address",
          "name": "actionId",
          "type": "address"
        },
        {
          "components": [
            {
              "internalType": "uint32",
              "name": "choice",
              "type": "uint32"
            },
            {
              "internalType": "uint64",
              "name": "index",
              "type": "uint64"
            },
            {
              "internalType": "uint64",
              "name": "timestamp",
              "type": "uint64"
            },
            {
              "internalType": "uint88",
              "name": "nbNo",
              "type": "uint88"
            },
            {
              "internalType": "uint88",
              "name": "nbYes",
              "type": "uint88"
            },
            {
              "internalType": "bytes",
              "name": "sig",
              "type": "bytes"
            },
            {
              "internalType": "bytes32",
              "name": "proposalId",
              "type": "bytes32"
            },
            {
              "internalType": "bytes32[]",
              "name": "proof",
              "type": "bytes32[]"
            }
          ],
          "internalType": "struct OffchainVotingHashContract.VoteResultNode",
          "name": "node",
          "type": "tuple"
        }
      ],
      "name": "nodeHash",
      "outputs": [
        {
          "internalType": "bytes32",
          "name": "",
          "type": "bytes32"
        }
      ],
      "stateMutability": "view",
      "type": "function"
    },
    {
      "inputs": [
        {
          "internalType": "uint256",
          "name": "flags",
          "type": "uint256"
        },
        {
          "internalType": "uint256",
          "name": "flag",
          "type": "uint256"
        },
        {
          "internalType": "bool",
          "name": "value",
          "type": "bool"
        }
      ],
      "name": "setFlag",
      "outputs": [
        {
          "internalType": "uint256",
          "name": "",
          "type": "uint256"
        }
      ],
      "stateMutability": "pure",
      "type": "function"
    },
    {
      "inputs": [],
      "name": "snapshotContract",
      "outputs": [
        {
          "internalType": "contract SnapshotProposalContract",
          "name": "",
          "type": "address"
        }
      ],
      "stateMutability": "view",
      "type": "function"
    },
    {
      "inputs": [
        {
          "internalType": "string",
          "name": "s",
          "type": "string"
        }
      ],
      "name": "stringToUint",
      "outputs": [
        {
          "internalType": "bool",
          "name": "success",
          "type": "bool"
        },
        {
          "internalType": "uint256",
          "name": "result",
          "type": "uint256"
        }
      ],
      "stateMutability": "pure",
      "type": "function"
    }
  ],
  "bytecode": "0x608060405234801561001057600080fd5b5060405162001a6b38038062001a6b83398101604081905261003191610085565b6001600160a01b0381166100605760405162461bcd60e51b8152600401610057906100b3565b60405180910390fd5b600180546001600160a01b0319166001600160a01b03929092169190911790556100de565b600060208284031215610096578081fd5b81516001600160a01b03811681146100ac578182fd5b9392505050565b6020808252601190820152701cdb985c1cda1bdd081c1c9bdc1bdcd85b607a1b604082015260600190565b61197d80620000ee6000396000f3fe608060405234801561001057600080fd5b50600436106100f55760003560e01c8063ca0f463311610097578063ee772d2211610066578063ee772d22146101e8578063ef6a2499146101fd578063f83ae4bb14610210578063fc25803114610218576100f5565b8063ca0f46331461019a578063ca517267146101ba578063df6197cc146101cd578063ee3e7a28146101e0576100f5565b80635bae28f5116100d35780635bae28f5146101575780636a71d09b1461015f578063a4d08a9c14610172578063b244a41d14610187576100f5565b80631bd95155146100fa5780632f9abe8d146101245780634a87400b14610144575b600080fd5b61010d6101083660046113af565b61022b565b60405161011b929190611553565b60405180910390f35b6101376101323660046113fd565b61031c565b60405161011b9190611563565b61013761015236600461124d565b6103af565b6101376104e7565b61013761016d36600461128d565b610529565b61017a6105c6565b60405161011b919061166f565b610137610195366004611451565b6105ff565b6101ad6101a836600461111f565b610658565b60405161011b9190611548565b6101ad6101c83660046112ed565b610666565b6101ad6101db3660046111af565b610a01565b610137610aeb565b6101f0610b31565b60405161011b919061165b565b6101ad61020b36600461111f565b610b40565b61017a610b85565b6101ad610226366004611430565b610ba1565b60008082815b815181101561031557603082828151811061025c57634e487b7160e01b600052603260045260246000fd5b016020015160f81c1080159061029a5750603982828151811061028f57634e487b7160e01b600052603260045260246000fd5b016020015160f81c11155b156102f65760308282815181106102c157634e487b7160e01b600052603260045260246000fd5b01602001516102d3919060f81c611815565b60ff166102e184600a6117df565b6102eb91906116c1565b925060019350610303565b6000925060009350610315565b8061030d81611868565b915050610231565b5050915091565b60006040518060800160405280606081526020016118e86060913960405160200161034791906114b9565b60405160208183030381529060405280519060200120826040015183608001518460600151856020015186600001518760c001516040516020016103919796959493929190611593565b6040516020818303038152906040528051906020012090505b919050565b60015460405163591e237160e01b81526000916001600160a01b03169063591e2371906103e29087908790600401611600565b60206040518083038186803b1580156103fa57600080fd5b505afa15801561040e573d6000803e3d6000fd5b505050506040513d601f19601f820116820180604052508101906104329190611157565b6040518060400160405280601581526020017f4d657373616765286279746573333220726f6f7429000000000000000000000081525060405160200161047891906114b9565b60405160208183030381529060405280519060200120836040516020016104a092919061156c565b604051602081830303815290604052805190602001206040516020016104c79291906114d5565b6040516020818303038152906040528051906020012090505b9392505050565b6040518060800160405280606081526020016118e86060913960405160200161051091906114b9565b6040516020818303038152906040528051906020012081565b60015460405163591e237160e01b81526000916001600160a01b03169063591e23719061055c9087908790600401611600565b60206040518083038186803b15801561057457600080fd5b505afa158015610588573d6000803e3d6000fd5b505050506040513d601f19601f820116820180604052508101906105ac9190611157565b6105b58361031c565b6040516020016104c79291906114d5565b6040518060400160405280601581526020017f4d657373616765286279746573333220726f6f7429000000000000000000000081525081565b600081151561060e8585610ba1565b15151461065157811561063757610626836002611716565b61063090856116c1565b90506104e0565b610642836002611716565b61063090856117fe565b6104e0565b50826104e0565b6001600160a01b0316151590565b600080866001600160a01b0316639029444a86602001516040518263ffffffff1660e01b81526004016106999190611682565b60206040518083038186803b1580156106b157600080fd5b505afa1580156106c5573d6000803e3d6000fd5b505050506040513d601f19601f820116820180604052508101906106e9919061113b565b90506000876001600160a01b0316634a19d91e83876040518363ffffffff1660e01b815260040161071b92919061152f565b60206040518083038186803b15801561073357600080fd5b505afa158015610747573d6000803e3d6000fd5b505050506040513d601f19601f8201168201806040525081019061076b919061113b565b90506000886001600160a01b031663593e96b67fea0ca03c7adbe41dc655fec28a9209dc8e6e042f3d991a67765ba285b9cf73a06040518263ffffffff1660e01b81526004016107bb9190611563565b60206040518083038186803b1580156107d357600080fd5b505afa1580156107e7573d6000803e3d6000fd5b505050506040513d601f19601f8201168201806040525081019061080b919061113b565b90506000816001600160a01b031663faaf38b385620ff1ce8a6040518463ffffffff1660e01b81526004016108429392919061150b565b60206040518083038186803b15801561085a57600080fd5b505afa15801561086e573d6000803e3d6000fd5b505050506040513d601f19601f820116820180604052508101906108929190611157565b885190915063ffffffff166108f35787608001516affffffffffffffffffffff168660000151146108ca5760019450505050506109f8565b87606001516affffffffffffffffffffff168660200151146108f35760019450505050506109f8565b61090f8a8a858b604001518c60c0015160018e60a00151610a01565b156109715787608001516affffffffffffffffffffff1681876000015161093691906116c1565b146109485760019450505050506109f8565b87606001516affffffffffffffffffffff168660200151146109715760019450505050506109f8565b61098d8a8a858b604001518c60c0015160028e60a00151610a01565b156109ef5787608001516affffffffffffffffffffff168660000151146109bb5760019450505050506109f8565b87606001516affffffffffffffffffffff168187602001516109dd91906116c1565b146109ef5760019450505050506109f8565b60009450505050505b95945050505050565b60015460408051808201825267ffffffffffffffff871681528151808301835263ffffffff86168152602081810188905282015290517fec6678b700000000000000000000000000000000000000000000000000000000815260009283926001600160a01b039091169163ec6678b791610a81918d918d9160040161161a565b60206040518083038186803b158015610a9957600080fd5b505afa158015610aad573d6000803e3d6000fd5b505050506040513d601f19601f82011682018060405250810190610ad19190611157565b9050610ade878285610bbe565b9998505050505050505050565b6040518060400160405280601581526020017f4d657373616765286279746573333220726f6f7429000000000000000000000081525060405160200161051091906114b9565b6001546001600160a01b031681565b60006001600160a01b03821661dead14801590610b6857506001600160a01b03821661babe14155b8015610b7f57506001600160a01b038216614bec14155b92915050565b6040518060800160405280606081526020016118e86060913981565b6000610bb4600260ff841685901c611883565b6001149392505050565b6000806000610bcd8585610d76565b90925090506000816004811115610bf457634e487b7160e01b600052602160045260246000fd5b148015610c125750856001600160a01b0316826001600160a01b0316145b15610c22576001925050506104e0565b600080876001600160a01b0316631626ba7e60e01b8888604051602401610c4a92919061157a565b60408051601f198184030181529181526020820180517bffffffffffffffffffffffffffffffffffffffffffffffffffffffff167fffffffff00000000000000000000000000000000000000000000000000000000909416939093179092529051610cb591906114b9565b600060405180830381855afa9150503d8060008114610cf0576040519150601f19603f3d011682016040523d82523d6000602084013e610cf5565b606091505b5091509150818015610d08575080516020145b8015610d6a575080517f1626ba7e0000000000000000000000000000000000000000000000000000000090610d46908301602090810190840161116f565b7fffffffff0000000000000000000000000000000000000000000000000000000016145b98975050505050505050565b600080825160411415610dad5760208301516040840151606085015160001a610da187828585610de6565b94509450505050610ddf565b825160401415610dd75760208301516040840151610dcc868383610ec6565b935093505050610ddf565b506000905060025b9250929050565b6000807f7fffffffffffffffffffffffffffffff5d576e7357a4501ddfe92f46681b20a0831115610e1d5750600090506003610ebd565b8460ff16601b14158015610e3557508460ff16601c14155b15610e465750600090506004610ebd565b600060018787878760405160008152602001604052604051610e6b94939291906115e2565b6020604051602081039080840390855afa158015610e8d573d6000803e3d6000fd5b5050604051601f1901519150506001600160a01b038116610eb657600060019250925050610ebd565b9150600090505b94509492505050565b6000807f7fffffffffffffffffffffffffffffffffffffffffffffffffffffffffffffff831660ff84901c601b01610f0087828885610de6565b935093505050935093915050565b600067ffffffffffffffff831115610f2857610f286118b9565b610f3b601f8401601f1916602001611697565b9050828152838383011115610f4f57600080fd5b828260208301376000602084830101529392505050565b600082601f830112610f76578081fd5b8135602067ffffffffffffffff821115610f9257610f926118b9565b808202610fa0828201611697565b838152828101908684018388018501891015610fba578687fd5b8693505b85841015610fdc578035835260019390930192918401918401610fbe565b50979650505050505050565b600082601f830112610ff8578081fd5b6104e083833560208501610f0e565b600061010080838503121561101a578182fd5b61102381611697565b91505061102f826110d8565b815261103d602083016110ec565b602082015261104e604083016110ec565b604082015261105f60608301611104565b606082015261107060808301611104565b608082015260a082013567ffffffffffffffff8082111561109057600080fd5b61109c85838601610fe8565b60a084015260c084013560c084015260e08401359150808211156110bf57600080fd5b506110cc84828501610f66565b60e08301525092915050565b803563ffffffff811681146103aa57600080fd5b803567ffffffffffffffff811681146103aa57600080fd5b80356affffffffffffffffffffff811681146103aa57600080fd5b600060208284031215611130578081fd5b81356104e0816118cf565b60006020828403121561114c578081fd5b81516104e0816118cf565b600060208284031215611168578081fd5b5051919050565b600060208284031215611180578081fd5b81517fffffffff00000000000000000000000000000000000000000000000000000000811681146104e0578182fd5b600080600080600080600060e0888a0312156111c9578283fd5b87356111d4816118cf565b965060208801356111e4816118cf565b955060408801356111f4816118cf565b9450611202606089016110ec565b93506080880135925061121760a089016110d8565b915060c088013567ffffffffffffffff811115611232578182fd5b61123e8a828b01610fe8565b91505092959891949750929550565b600080600060608486031215611261578081fd5b833561126c816118cf565b9250602084013561127c816118cf565b929592945050506040919091013590565b6000806000606084860312156112a1578081fd5b83356112ac816118cf565b925060208401356112bc816118cf565b9150604084013567ffffffffffffffff8111156112d7578182fd5b6112e386828701611007565b9150509250925092565b600080600080600085870360e0811215611305578384fd5b8635611310816118cf565b95506020870135611320816118cf565b9450604087013567ffffffffffffffff8082111561133c578586fd5b6113488a838b01611007565b95506060898101359550607f1984011215611361578384fd5b60405192506060830191508282108183111715611380576113806118b9565b5080604052506080870135815260a0870135602082015260c08701356040820152809150509295509295909350565b6000602082840312156113c0578081fd5b813567ffffffffffffffff8111156113d6578182fd5b8201601f810184136113e6578182fd5b6113f584823560208401610f0e565b949350505050565b60006020828403121561140e578081fd5b813567ffffffffffffffff811115611424578182fd5b6113f584828501611007565b60008060408385031215611442578182fd5b50508035926020909101359150565b600080600060608486031215611465578081fd5b833592506020840135915060408401358015158114611482578182fd5b809150509250925092565b600081518084526114a5816020860160208601611838565b601f01601f19169290920160200192915050565b600082516114cb818460208701611838565b9190910192915050565b7f190100000000000000000000000000000000000000000000000000000000000081526002810192909252602282015260420190565b6001600160a01b039384168152919092166020820152604081019190915260600190565b6001600160a01b03929092168252602082015260400190565b901515815260200190565b9115158252602082015260400190565b90815260200190565b918252602082015260400190565b6000838252604060208301526113f5604083018461148d565b96875267ffffffffffffffff95861660208801526affffffffffffffffffffff9485166040880152929093166060860152909216608084015263ffffffff1660a083015260c082015260e00190565b93845260ff9290921660208401526040830152606082015260800190565b6001600160a01b0392831681529116602082015260400190565b6001600160a01b039384168152919092166020808301919091528251604083015291820151805163ffffffff16606083015290910151608082015260a00190565b6001600160a01b0391909116815260200190565b6000602082526104e0602083018461148d565b67ffffffffffffffff91909116815260200190565b60405181810167ffffffffffffffff811182821017156116b9576116b96118b9565b604052919050565b600082198211156116d4576116d46118a3565b500190565b80825b60018086116116eb5750610ebd565b8187048211156116fd576116fd6118a3565b8086161561170a57918102915b9490941c9380026116dc565b60006104e0600019848460008261172f575060016104e0565b8161173c575060006104e0565b8160018114611752576002811461175c57611789565b60019150506104e0565b60ff84111561176d5761176d6118a3565b6001841b915084821115611783576117836118a3565b506104e0565b5060208310610133831016604e8410600b84101617156117b7575081810a8381111561064c5761064c6118a3565b6117c484848460016116d9565b8086048211156117d6576117d66118a3565b02949350505050565b60008160001904831182151516156117f9576117f96118a3565b500290565b600082821015611810576118106118a3565b500390565b600060ff821660ff84168082101561182f5761182f6118a3565b90039392505050565b60005b8381101561185357818101518382015260200161183b565b83811115611862576000848401525b50505050565b600060001982141561187c5761187c6118a3565b5060010190565b60008261189e57634e487b7160e01b81526012600452602481fd5b500690565b634e487b7160e01b600052601160045260246000fd5b634e487b7160e01b600052604160045260246000fd5b6001600160a01b03811681146118e457600080fd5b5056fe4d6573736167652875696e7436342074696d657374616d702c75696e743838206e625965732c75696e743838206e624e6f2c75696e74333220696e6465782c75696e7433322063686f6963652c627974657333322070726f706f73616c496429a264697066735822122058cd5d95cfdfd2abb66e2aa496e8621211418843b31d20e7e8d6525f0edfbefb64736f6c63430008000033",
  "linkReferences": {},
  "deployedLinkReferences": {}
}