{
  "_format": "hh-sol-artifact-1",
  "contractName": "OnboardingContract",
  "sourceName": "build/sources/adapters/Onboarding.sol",
  "abi": [
    {
      "inputs": [
        {
          "internalType": "contract DaoRegistry",
          "name": "dao",
          "type": "address"
        },
        {
          "internalType": "address",
          "name": "unitsToMint",
          "type": "address"
        },
        {
          "internalType": "uint256",
          "name": "chunkSize",
          "type": "uint256"
        },
        {
          "internalType": "uint256",
          "name": "unitsPerChunk",
          "type": "uint256"
        },
        {
          "internalType": "uint256",
          "name": "maximumChunks",
          "type": "uint256"
        },
        {
          "internalType": "address",
          "name": "tokenAddr",
          "type": "address"
        }
      ],
      "name": "configureDao",
      "outputs": [],
      "stateMutability": "nonpayable",
      "type": "function"
    },
    {
      "inputs": [
        {
          "internalType": "uint256",
          "name": "flags",
          "type": "uint256"
        },
        {
          "internalType": "uint256",
          "name": "flag",
          "type": "uint256"
        }
      ],
      "name": "getFlag",
      "outputs": [
        {
          "internalType": "bool",
          "name": "",
          "type": "bool"
        }
      ],
      "stateMutability": "pure",
      "type": "function"
    },
    {
      "inputs": [
        {
          "internalType": "contract DaoRegistry",
          "name": "dao",
          "type": "address"
        },
        {
          "internalType": "address",
          "name": "_addr",
          "type": "address"
        }
      ],
      "name": "isActiveMember",
      "outputs": [
        {
          "internalType": "bool",
          "name": "",
          "type": "bool"
        }
      ],
      "stateMutability": "view",
      "type": "function"
    },
    {
      "inputs": [
        {
          "internalType": "address",
          "name": "addr",
          "type": "address"
        }
      ],
      "name": "isNotReservedAddress",
      "outputs": [
        {
          "internalType": "bool",
          "name": "",
          "type": "bool"
        }
      ],
      "stateMutability": "pure",
      "type": "function"
    },
    {
      "inputs": [
        {
          "internalType": "address",
          "name": "addr",
          "type": "address"
        }
      ],
      "name": "isNotZeroAddress",
      "outputs": [
        {
          "internalType": "bool",
          "name": "",
          "type": "bool"
        }
      ],
      "stateMutability": "pure",
      "type": "function"
    },
    {
      "inputs": [
        {
          "internalType": "address",
          "name": "memberAddress",
          "type": "address"
        },
        {
          "internalType": "contract DaoRegistry",
          "name": "dao",
          "type": "address"
        },
        {
          "internalType": "contract BankExtension",
          "name": "bank",
          "type": "address"
        }
      ],
      "name": "potentialNewMember",
      "outputs": [],
      "stateMutability": "nonpayable",
      "type": "function"
    },
    {
      "inputs": [
        {
          "internalType": "contract DaoRegistry",
          "name": "dao",
          "type": "address"
        },
        {
          "internalType": "bytes32",
          "name": "proposalId",
          "type": "bytes32"
        }
      ],
      "name": "processProposal",
      "outputs": [],
      "stateMutability": "payable",
      "type": "function"
    },
    {
      "inputs": [
        {
          "internalType": "address",
          "name": "",
          "type": "address"
        },
        {
          "internalType": "bytes32",
          "name": "",
          "type": "bytes32"
        }
      ],
      "name": "proposals",
      "outputs": [
        {
          "internalType": "bytes32",
          "name": "id",
          "type": "bytes32"
        },
        {
          "internalType": "address",
          "name": "unitsToMint",
          "type": "address"
        },
        {
          "internalType": "uint160",
          "name": "amount",
          "type": "uint160"
        },
        {
          "internalType": "uint88",
          "name": "unitsRequested",
          "type": "uint88"
        },
        {
          "internalType": "address",
          "name": "token",
          "type": "address"
        },
        {
          "internalType": "address payable",
          "name": "applicant",
          "type": "address"
        }
      ],
      "stateMutability": "view",
      "type": "function"
    },
    {
      "inputs": [
        {
          "internalType": "uint256",
          "name": "flags",
          "type": "uint256"
        },
        {
          "internalType": "uint256",
          "name": "flag",
          "type": "uint256"
        },
        {
          "internalType": "bool",
          "name": "value",
          "type": "bool"
        }
      ],
      "name": "setFlag",
      "outputs": [
        {
          "internalType": "uint256",
          "name": "",
          "type": "uint256"
        }
      ],
      "stateMutability": "pure",
      "type": "function"
    },
    {
      "inputs": [
        {
          "internalType": "contract DaoRegistry",
          "name": "dao",
          "type": "address"
        },
        {
          "internalType": "bytes32",
          "name": "proposalId",
          "type": "bytes32"
        },
        {
          "internalType": "address payable",
          "name": "applicant",
          "type": "address"
        },
        {
          "internalType": "address",
          "name": "tokenToMint",
          "type": "address"
        },
        {
          "internalType": "uint256",
          "name": "tokenAmount",
          "type": "uint256"
        },
        {
          "internalType": "bytes",
          "name": "data",
          "type": "bytes"
        }
      ],
      "name": "submitProposal",
      "outputs": [],
      "stateMutability": "nonpayable",
      "type": "function"
    },
    {
      "inputs": [
        {
          "internalType": "address",
          "name": "",
          "type": "address"
        },
        {
          "internalType": "address",
          "name": "",
          "type": "address"
        },
        {
          "internalType": "address",
          "name": "",
          "type": "address"
        }
      ],
      "name": "units",
      "outputs": [
        {
          "internalType": "uint88",
          "name": "",
          "type": "uint88"
        }
      ],
      "stateMutability": "view",
      "type": "function"
    }
  ],
  "bytecode": "0x608060405234801561001057600080fd5b506131f1806100206000396000f3fe6080604052600436106100bc5760003560e01c80639573167d11610074578063ca0f46331161004e578063ca0f4633146101f8578063ef6a249914610218578063fc25803114610238576100bc565b80639573167d14610198578063b244a41d146101ab578063bbc8b5f2146101d8576100bc565b80635cb75276116100a55780635cb752761461011957806386c17fd51461014b5780638ecf77201461016b576100bc565b80631e6f7672146100c15780632e88038d146100e3575b600080fd5b3480156100cd57600080fd5b506100e16100dc366004612607565b610258565b005b3480156100ef57600080fd5b506101036100fe3660046124c4565b61052b565b6040516101109190612f12565b60405180910390f35b34801561012557600080fd5b5061013961013436600461250e565b610557565b60405161011096959493929190612898565b34801561015757600080fd5b506100e1610166366004612539565b6105b0565b34801561017757600080fd5b5061018b610186366004612569565b610771565b604051610110919061284e565b6100e16101a636600461250e565b6109d7565b3480156101b757600080fd5b506101cb6101c636600461276b565b611204565b6040516101109190612859565b3480156101e457600080fd5b506100e16101f33660046125a1565b611260565b34801561020457600080fd5b5061018b61021336600461248c565b611825565b34801561022457600080fd5b5061018b61023336600461248c565b611833565b34801561024457600080fd5b5061018b61025336600461274a565b611877565b8543816001600160a01b031663b21634826040518163ffffffff1660e01b815260040160206040518083038186803b15801561029357600080fd5b505afa1580156102a7573d6000803e3d6000fd5b505050506040513d601f19601f820116820180604052508101906102cb9190612732565b14156102f25760405162461bcd60e51b81526004016102e990612af9565b60405180910390fd5b806001600160a01b03166310fdb0a26040518163ffffffff1660e01b8152600401600060405180830381600087803b15801561032d57600080fd5b505af1158015610341573d6000803e3d6000fd5b5050505061034e85611833565b61036a5760405162461bcd60e51b81526004016102e99061299a565b61040b8588896001600160a01b031663593e96b67fea0ca03c7adbe41dc655fec28a9209dc8e6e042f3d991a67765ba285b9cf73a06040518263ffffffff1660e01b81526004016103bb9190612859565b60206040518083038186803b1580156103d357600080fd5b505afa1580156103e7573d6000803e3d6000fd5b505050506040513d601f19601f8201168201806040525081019061016691906124a8565b6000876001600160a01b031663fd310d29610446877fca5e51d871c2bd0fbb1f1e373766b041e8f8bc14987d5ac31c3115292d133840611894565b6040518263ffffffff1660e01b81526004016104629190612859565b60206040518083038186803b15801561047a57600080fd5b505afa15801561048e573d6000803e3d6000fd5b505050506040513d601f19601f820116820180604052508101906104b291906124a8565b90506104c28888878988866118c7565b506104ce888885611d95565b50806001600160a01b031663d4f7af436040518163ffffffff1660e01b8152600401600060405180830381600087803b15801561050a57600080fd5b505af115801561051e573d6000803e3d6000fd5b5050505050505050505050565b60016020908152600093845260408085208252928452828420905282529020546001600160581b031681565b60006020818152928152604080822090935290815220805460018201546002830154600384015460049094015492936001600160a01b039283169383831693600160a01b9093046001600160581b031692918216911686565b6040517fdc929f4a0000000000000000000000000000000000000000000000000000000081526001600160a01b0383169063dc929f4a906105f59086906004016127e3565b600060405180830381600087803b15801561060f57600080fd5b505af1158015610623573d6000803e3d6000fd5b505050506001600160a01b03831661064d5760405162461bcd60e51b81526004016102e990612ac2565b6001600160a01b0381161561076c576040517ff7888aec0000000000000000000000000000000000000000000000000000000081526001600160a01b0382169063f7888aec906106a790869063decafbad906004016127f7565b60206040518083038186803b1580156106bf57600080fd5b505afa1580156106d3573d6000803e3d6000fd5b505050506040513d601f19601f820116820180604052508101906106f791906124a8565b6001600160a01b031661076c5760405163c57d5fe960e01b81526001600160a01b0382169063c57d5fe99061073990869063decafbad90600190600401612811565b600060405180830381600087803b15801561075357600080fd5b505af1158015610767573d6000803e3d6000fd5b505050505b505050565b600080836001600160a01b031663fefbd8757fea0ca03c7adbe41dc655fec28a9209dc8e6e042f3d991a67765ba285b9cf73a06040518263ffffffff1660e01b81526004016107c09190612859565b60206040518083038186803b1580156107d857600080fd5b505afa1580156107ec573d6000803e3d6000fd5b505050506040513d601f19601f8201168201806040525081019061081091906124a8565b90506001600160a01b03811615610951576040517fc89bb8ba0000000000000000000000000000000000000000000000000000000081526000906001600160a01b0386169063c89bb8ba906108699087906004016127e3565b60206040518083038186803b15801561088157600080fd5b505afa158015610895573d6000803e3d6000fd5b505050506040513d601f19601f820116820180604052508101906108b991906124a8565b90506000826001600160a01b031663f7888aec83620ff1ce6040518363ffffffff1660e01b81526004016108ee9291906127f7565b60206040518083038186803b15801561090657600080fd5b505afa15801561091a573d6000803e3d6000fd5b505050506040513d601f19601f8201168201806040525081019061093e91906124a8565b6001600160a01b031611925050506109d1565b60405163288c314960e21b81526001600160a01b0385169063a230c5249061097d9086906004016127e3565b60206040518083038186803b15801561099557600080fd5b505afa1580156109a9573d6000803e3d6000fd5b505050506040513d601f19601f820116820180604052508101906109cd919061254d565b9150505b92915050565b8143816001600160a01b031663b21634826040518163ffffffff1660e01b815260040160206040518083038186803b158015610a1257600080fd5b505afa158015610a26573d6000803e3d6000fd5b505050506040513d601f19601f82011682018060405250810190610a4a9190612732565b1415610a685760405162461bcd60e51b81526004016102e990612af9565b806001600160a01b03166310fdb0a26040518163ffffffff1660e01b8152600401600060405180830381600087803b158015610aa357600080fd5b505af1158015610ab7573d6000803e3d6000fd5b505050506001600160a01b038316600090815260208181526040808320858452909152902080548314610afc5760405162461bcd60e51b81526004016102e990612b30565b6040517ff941f6910000000000000000000000000000000000000000000000000000000081526001600160a01b0385169063f941f69190610b449086906002906004016128d7565b60206040518083038186803b158015610b5c57600080fd5b505afa158015610b70573d6000803e3d6000fd5b505050506040513d601f19601f82011682018060405250810190610b94919061254d565b15610bb15760405162461bcd60e51b81526004016102e990612b9e565b6040517f40de703e0000000000000000000000000000000000000000000000000000000081526000906001600160a01b038616906340de703e90610bf9908790600401612859565b60206040518083038186803b158015610c1157600080fd5b505afa158015610c25573d6000803e3d6000fd5b505050506040513d601f19601f82011682018060405250810190610c4991906124a8565b90506001600160a01b038116610c715760405162461bcd60e51b81526004016102e990612ea4565b6040517f76225e730000000000000000000000000000000000000000000000000000000081526000906001600160a01b038316906376225e7390610cbb9089908990600401612835565b602060405180830381600087803b158015610cd557600080fd5b505af1158015610ce9573d6000803e3d6000fd5b505050506040513d601f19601f82011682018060405250810190610d0d9190612713565b6040517f30490e910000000000000000000000000000000000000000000000000000000081529091506001600160a01b038716906330490e9190610d55908890600401612859565b600060405180830381600087803b158015610d6f57600080fd5b505af1158015610d83573d6000803e3d6000fd5b5050505060038301546002808501546001600160a01b03928316921690836005811115610dc057634e487b7160e01b600052602160045260246000fd5b14156111455760018501546002860154600480880154604051632c9f4b5b60e11b81526001600160a01b0394851694600160a01b9094046001600160581b031693918216926000928e169163593e96b691610e3d917fea0ca03c7adbe41dc655fec28a9209dc8e6e042f3d991a67765ba285b9cf73a09101612859565b60206040518083038186803b158015610e5557600080fd5b505afa158015610e69573d6000803e3d6000fd5b505050506040513d601f19601f82011682018060405250810190610e8d91906124a8565b6040517f14a332160000000000000000000000000000000000000000000000000000000081529091506001600160a01b038216906314a3321690610ed59087906004016127e3565b60206040518083038186803b158015610eed57600080fd5b505afa158015610f01573d6000803e3d6000fd5b505050506040513d601f19601f82011682018060405250810190610f25919061254d565b610f415760405162461bcd60e51b81526004016102e990612cd7565b60405163c57d5fe960e01b81526001600160a01b0382169063c57d5fe990610f7190859088908890600401612811565b600060405180830381600087803b158015610f8b57600080fd5b505af1158015610f9f573d6000803e3d6000fd5b508e925050506001600160a01b03871661103a5760405163c57d5fe960e01b81526001600160a01b0383169063c57d5fe9908890610fe79061dead908c908490600401612811565b6000604051808303818588803b15801561100057600080fd5b505af1158015611014573d6000803e3d6000fd5b5050505050853411156110355761103561102e87346130fc565b3390611fd5565b6110b8565b60405163c57d5fe960e01b81526001600160a01b0383169063c57d5fe99061106c9061dead908b908b90600401612811565b600060405180830381600087803b15801561108657600080fd5b505af115801561109a573d6000803e3d6000fd5b508992506110b69150506001600160a01b03821633858a612071565b505b60028a0154600090600160a01b90046001600160581b03166110db8388876120fc565b6110e59190612f3e565b6001600160a01b039283166000908152600160209081526040808320998616835298815288822096909416815294909252509390912080546affffffffffffffffffffff19166001600160581b0390941693909317909255506111c49050565b600383600581111561116757634e487b7160e01b600052602160045260246000fd5b14806111925750600183600581111561119057634e487b7160e01b600052602160045260246000fd5b145b156111ac5734156111a7576111a73334611fd5565b6111c4565b60405162461bcd60e51b81526004016102e990612c0c565b5050505050806001600160a01b031663d4f7af436040518163ffffffff1660e01b8152600401600060405180830381600087803b15801561075357600080fd5b60008115156112138585611877565b15151461125657811561123c5761122b836002612fee565b6112359085612f26565b9050611259565b611247836002612fee565b61123590856130fc565b611259565b50825b9392505050565b856000816001600160a01b031663c19d93fb6040518163ffffffff1660e01b815260040160206040518083038186803b15801561129c57600080fd5b505afa1580156112b0573d6000803e3d6000fd5b505050506040513d601f19601f820116820180604052508101906112d491906126f4565b60018111156112f357634e487b7160e01b600052602160045260246000fd5b14801561130457506113048161213a565b8061138657506040516368c18beb60e01b81526001600160a01b038216906368c18beb906113369033906004016127e3565b60206040518083038186803b15801561134e57600080fd5b505afa158015611362573d6000803e3d6000fd5b505050506040513d601f19601f82011682018060405250810190611386919061254d565b6113a25760405162461bcd60e51b81526004016102e990612edb565b6000851180156113b857506001600160581b0385105b6113d45760405162461bcd60e51b81526004016102e990612bd5565b6000831180156113ea57506001600160581b0383105b6114065760405162461bcd60e51b81526004016102e990612ca0565b60008411801561141c57506001600160581b0384105b6114385760405162461bcd60e51b81526004016102e990612b67565b6001600160581b0361144a85856130b7565b106114675760405162461bcd60e51b81526004016102e990612d45565b866001600160a01b031663da0f6c706114a0887f4db46213baf202d5a8ce8e25a9de875449eb3e84a2ada17e34244b3195e199fd611894565b856040518363ffffffff1660e01b81526004016114be929190612909565b600060405180830381600087803b1580156114d857600080fd5b505af11580156114ec573d6000803e3d6000fd5b50505050866001600160a01b031663da0f6c70611529887fa4de78b7a2e3ac2c4deb7d71d777f1d6eca4a7c95700e5cf48246bd8fef00f3d611894565b876040518363ffffffff1660e01b8152600401611547929190612909565b600060405180830381600087803b15801561156157600080fd5b505af1158015611575573d6000803e3d6000fd5b50505050866001600160a01b031663da0f6c706115b2887f6c6a4284369e63b6d1ce10e2c6430ce3e9fdd08e44e4189708679315f8a90533611894565b866040518363ffffffff1660e01b81526004016115d0929190612909565b600060405180830381600087803b1580156115ea57600080fd5b505af11580156115fe573d6000803e3d6000fd5b50505050866001600160a01b0316633b4f921a61163b887fca5e51d871c2bd0fbb1f1e373766b041e8f8bc14987d5ac31c3115292d133840611894565b846040518363ffffffff1660e01b8152600401611659929190612862565b600060405180830381600087803b15801561167357600080fd5b505af1158015611687573d6000803e3d6000fd5b5050604051632c9f4b5b60e11b8152600092506001600160a01b038a16915063593e96b6906116da907fea0ca03c7adbe41dc655fec28a9209dc8e6e042f3d991a67765ba285b9cf73a090600401612859565b60206040518083038186803b1580156116f257600080fd5b505afa158015611706573d6000803e3d6000fd5b505050506040513d601f19601f8201168201806040525081019061172a91906124a8565b6040517ff7e15acf0000000000000000000000000000000000000000000000000000000081529091506001600160a01b0382169063f7e15acf90611772908a906004016127e3565b600060405180830381600087803b15801561178c57600080fd5b505af11580156117a0573d6000803e3d6000fd5b50506040517f69af242f0000000000000000000000000000000000000000000000000000000081526001600160a01b03841692506369af242f91506117e99086906004016127e3565b600060405180830381600087803b15801561180357600080fd5b505af1158015611817573d6000803e3d6000fd5b505050505050505050505050565b6001600160a01b0316151590565b60006001600160a01b03821661dead1480159061185b57506001600160a01b03821661babe14155b80156109d157506001600160a01b038216614bec141592915050565b600061188a600260ff841685901c61313f565b6001149392505050565b600082826040516020016118a9929190612835565b60405160208183030381529060405280519060200120905092915050565b60006118d1612457565b876001600160a01b0316639283ae3a61190a887fa4de78b7a2e3ac2c4deb7d71d777f1d6eca4a7c95700e5cf48246bd8fef00f3d611894565b6040518263ffffffff1660e01b81526004016119269190612859565b60206040518083038186803b15801561193e57600080fd5b505afa158015611952573d6000803e3d6000fd5b505050506040513d601f19601f820116820180604052508101906119769190612732565b6001600160581b031680825261199e5760405162461bcd60e51b81526004016102e990612c69565b80516119b3906001600160581b031685612f69565b6001600160581b0316602082018190526119df5760405162461bcd60e51b81526004016102e990612d0e565b876001600160a01b0316639283ae3a611a18887f6c6a4284369e63b6d1ce10e2c6430ce3e9fdd08e44e4189708679315f8a90533611894565b6040518263ffffffff1660e01b8152600401611a349190612859565b60206040518083038186803b158015611a4c57600080fd5b505afa158015611a60573d6000803e3d6000fd5b505050506040513d601f19601f82011682018060405250810190611a849190612732565b6001600160581b031660408201819052611ab05760405162461bcd60e51b81526004016102e990612e10565b80516020820151611ac191906130d6565b6001600160581b031660a082015260408101516020820151611ae391906130d6565b6001600160581b031660608201819052611afe8985886120fc565b611b089190612f3e565b6001600160581b031660808201526001600160a01b038816639283ae3a611b4f887f4db46213baf202d5a8ce8e25a9de875449eb3e84a2ada17e34244b3195e199fd611894565b6040518263ffffffff1660e01b8152600401611b6b9190612859565b60206040518083038186803b158015611b8357600080fd5b505afa158015611b97573d6000803e3d6000fd5b505050506040513d601f19601f82011682018060405250810190611bbb9190612732565b81604001516001600160581b03168260800151611bd89190612f7d565b6bffffffffffffffffffffffff1610611c035760405162461bcd60e51b81526004016102e990612d7c565b6040517fb73dc3890000000000000000000000000000000000000000000000000000000081526001600160a01b0389169063b73dc38990611c48908a90600401612859565b600060405180830381600087803b158015611c6257600080fd5b505af1158015611c76573d6000803e3d6000fd5b50506040805160c0810182528a81526001600160a01b03998a16602080830191825260a080880180518e168587019081526060998a01516001600160581b039081169a87019a8b529b8f16608087019081529d8f169286019283529f8e1660009081528084528681209f81529e90925293909c209151825551600182018054918c167fffffffffffffffffffffffff00000000000000000000000000000000000000009283161790559b516002820180549651909816600160a01b027fff0000000000000000000000ffffffffffffffffffffffffffffffffffffffff918c16968e1696909617169490941790955550509351600385018054918716918916919091179055505160049092018054929093169190941617905551919050565b6040517f17ba7d850000000000000000000000000000000000000000000000000000000081526000906001600160a01b038516906317ba7d8590611dfd907f0e49311626a26ba5be58a3b13d239908e80ce0dffdd5c50bf1d9c82ff35d1ab390600401612859565b60206040518083038186803b158015611e1557600080fd5b505afa158015611e29573d6000803e3d6000fd5b505050506040513d601f19601f82011682018060405250810190611e4d91906124a8565b90506000816001600160a01b031663966917d0863086336040518563ffffffff1660e01b8152600401611e839493929190612917565b602060405180830381600087803b158015611e9d57600080fd5b505af1158015611eb1573d6000803e3d6000fd5b505050506040513d601f19601f82011682018060405250810190611ed591906124a8565b6040517f896ae9ba0000000000000000000000000000000000000000000000000000000081529091506001600160a01b0386169063896ae9ba90611f2190879085908790600401612879565b600060405180830381600087803b158015611f3b57600080fd5b505af1158015611f4f573d6000803e3d6000fd5b50506040517f2b0974d00000000000000000000000000000000000000000000000000000000081526001600160a01b0385169250632b0974d09150611f9c90889088908890600401612956565b600060405180830381600087803b158015611fb657600080fd5b505af1158015611fca573d6000803e3d6000fd5b505050505050505050565b80471015611ff55760405162461bcd60e51b81526004016102e990612a2e565b6000826001600160a01b03168260405161200e906127e0565b60006040518083038185875af1925050503d806000811461204b576040519150601f19603f3d011682016040523d82523d6000602084013e612050565b606091505b505090508061076c5760405162461bcd60e51b81526004016102e9906129d1565b6120f6846323b872dd60e01b85858560405160240161209293929190612811565b60408051601f198184030181529190526020810180517bffffffffffffffffffffffffffffffffffffffffffffffffffffffff167fffffffff00000000000000000000000000000000000000000000000000000000909316929092179091526122b2565b50505050565b6001600160a01b039283166000908152600160209081526040808320948616835293815283822092909416815292529020546001600160581b031690565b6000816001600160a01b031663c67143666040518163ffffffff1660e01b815260040160206040518083038186803b15801561217557600080fd5b505afa158015612189573d6000803e3d6000fd5b505050506040513d601f19601f820116820180604052508101906121ad9190612732565b1580612230575060405163288c314960e21b81526001600160a01b0383169063a230c524906121e09033906004016127e3565b60206040518083038186803b1580156121f857600080fd5b505afa15801561220c573d6000803e3d6000fd5b505050506040513d601f19601f82011682018060405250810190612230919061254d565b806109d157506040516368c18beb60e01b81526001600160a01b038316906368c18beb906122629033906004016127e3565b60206040518083038186803b15801561227a57600080fd5b505afa15801561228e573d6000803e3d6000fd5b505050506040513d601f19601f820116820180604052508101906109d1919061254d565b6000612307826040518060400160405280602081526020017f5361666545524332303a206c6f772d6c6576656c2063616c6c206661696c6564815250856001600160a01b03166123419092919063ffffffff16565b80519091501561076c5780806020019051810190612325919061254d565b61076c5760405162461bcd60e51b81526004016102e990612e47565b60606123508484600085612358565b949350505050565b60608247101561237a5760405162461bcd60e51b81526004016102e990612a65565b61238385612418565b61239f5760405162461bcd60e51b81526004016102e990612dd9565b600080866001600160a01b031685876040516123bb91906127c4565b60006040518083038185875af1925050503d80600081146123f8576040519150601f19603f3d011682016040523d82523d6000602084013e6123fd565b606091505b509150915061240d82828661241e565b979650505050505050565b3b151590565b6060831561242d575081611259565b82511561243d5782518084602001fd5b8160405162461bcd60e51b81526004016102e99190612987565b6040805160c081018252600080825260208201819052918101829052606081018290526080810182905260a081019190915290565b60006020828403121561249d578081fd5b813561125981613195565b6000602082840312156124b9578081fd5b815161125981613195565b6000806000606084860312156124d8578182fd5b83356124e381613195565b925060208401356124f381613195565b9150604084013561250381613195565b809150509250925092565b60008060408385031215612520578182fd5b823561252b81613195565b946020939093013593505050565b6000806000606084860312156124d8578283fd5b60006020828403121561255e578081fd5b8151611259816131ad565b6000806040838503121561257b578182fd5b823561258681613195565b9150602083013561259681613195565b809150509250929050565b60008060008060008060c087890312156125b9578182fd5b86356125c481613195565b955060208701356125d481613195565b945060408701359350606087013592506080870135915060a08701356125f981613195565b809150509295509295509295565b60008060008060008060c0878903121561261f578182fd5b863561262a81613195565b95506020878101359550604088013561264281613195565b9450606088013561265281613195565b93506080880135925060a088013567ffffffffffffffff80821115612675578384fd5b818a0191508a601f830112612688578384fd5b81358181111561269a5761269a61317f565b604051601f8201601f19168101850183811182821017156126bd576126bd61317f565b60405281815283820185018d10156126d3578586fd5b81858501868301378585838301015280955050505050509295509295509295565b600060208284031215612705578081fd5b815160028110611259578182fd5b600060208284031215612724578081fd5b815160068110611259578182fd5b600060208284031215612743578081fd5b5051919050565b6000806040838503121561275c578182fd5b50508035926020909101359150565b60008060006060848603121561277f578081fd5b83359250602084013591506040840135612503816131ad565b600081518084526127b0816020860160208601613113565b601f01601f19169290920160200192915050565b600082516127d6818460208701613113565b9190910192915050565b90565b6001600160a01b0391909116815260200190565b6001600160a01b0392831681529116602082015260400190565b6001600160a01b039384168152919092166020820152604081019190915260600190565b6001600160a01b03929092168252602082015260400190565b901515815260200190565b90815260200190565b9182526001600160a01b0316602082015260400190565b9283526001600160a01b03918216602084015216604082015260600190565b9586526001600160a01b03948516602087015292841660408601526001600160581b03919091166060850152821660808401521660a082015260c00190565b82815260408101600383106128fc57634e487b7160e01b600052602160045260246000fd5b8260208301529392505050565b918252602082015260400190565b60006001600160a01b0380871683528086166020840152608060408401526129426080840186612798565b915080841660608401525095945050505050565b60006001600160a01b03851682528360208301526060604083015261297e6060830184612798565b95945050505050565b6000602082526112596020830184612798565b6020808252601d908201527f6170706c6963616e742069732072657365727665642061646472657373000000604082015260600190565b6020808252603a908201527f416464726573733a20756e61626c6520746f2073656e642076616c75652c207260408201527f6563697069656e74206d61792068617665207265766572746564000000000000606082015260800190565b6020808252601d908201527f416464726573733a20696e73756666696369656e742062616c616e6365000000604082015260600190565b60208082526026908201527f416464726573733a20696e73756666696369656e742062616c616e636520666f60408201527f722063616c6c0000000000000000000000000000000000000000000000000000606082015260800190565b60208082526016908201527f696e76616c6964206d656d626572206164647265737300000000000000000000604082015260600190565b60208082526010908201527f7265656e7472616e637920677561726400000000000000000000000000000000604082015260600190565b60208082526017908201527f70726f706f73616c20646f6573206e6f74206578697374000000000000000000604082015260600190565b60208082526016908201527f756e6974735065724368756e6b3a3a696e76616c696400000000000000000000604082015260600190565b6020808252601a908201527f70726f706f73616c20616c72656164792070726f636573736564000000000000604082015260600190565b60208082526012908201527f6368756e6b53697a653a3a696e76616c69640000000000000000000000000000604082015260600190565b60208082526022908201527f70726f706f73616c20686173206e6f74206265656e20766f746564206f6e207960408201527f6574000000000000000000000000000000000000000000000000000000000000606082015260800190565b60208082526018908201527f636f6e666967206368756e6b53697a65206d697373696e670000000000000000604082015260600190565b60208082526016908201527f6d6178696d756d4368756e6b733a3a696e76616c696400000000000000000000604082015260600190565b60208082526016908201527f69742063616e206f6e6c79206d696e7420756e69747300000000000000000000604082015260600190565b60208082526014908201527f6e6f742073756666696369656e742066756e6473000000000000000000000000604082015260600190565b60208082526012908201527f706f74656e7469616c206f766572666c6f770000000000000000000000000000604082015260600190565b6020808252603a908201527f746f74616c20756e69747320666f722074686973206d656d626572206d75737460408201527f206265206c6f776572207468616e20746865206d6178696d756d000000000000606082015260800190565b6020808252601d908201527f416464726573733a2063616c6c20746f206e6f6e2d636f6e7472616374000000604082015260600190565b6020808252601c908201527f636f6e66696720756e6974735065724368756e6b206d697373696e6700000000604082015260600190565b6020808252602a908201527f5361666545524332303a204552433230206f7065726174696f6e20646964206e60408201527f6f74207375636365656400000000000000000000000000000000000000000000606082015260800190565b60208082526011908201527f61646170746572206e6f7420666f756e64000000000000000000000000000000604082015260600190565b6020808252600b908201527f6f6e6c7941646170746572000000000000000000000000000000000000000000604082015260600190565b6001600160581b0391909116815260200190565b60008219821115612f3957612f39613153565b500190565b60006001600160581b03808316818516808303821115612f6057612f60613153565b01949350505050565b600082612f7857612f78613169565b500490565b60006bffffffffffffffffffffffff80841680612f9c57612f9c613169565b92169190910492915050565b80825b6001808611612fba5750612fe5565b818704821115612fcc57612fcc613153565b80861615612fd957918102915b9490941c938002612fab565b94509492505050565b6000611259600019848460008261300757506001611259565b8161301457506000611259565b816001811461302a576002811461303457613061565b6001915050611259565b60ff84111561304557613045613153565b6001841b91508482111561305b5761305b613153565b50611259565b5060208310610133831016604e8410600b841016171561308f575081810a8381111561125157611251613153565b61309c8484846001612fa8565b8086048211156130ae576130ae613153565b02949350505050565b60008160001904831182151516156130d1576130d1613153565b500290565b60006001600160581b03808316818516818304811182151516156130ae576130ae613153565b60008282101561310e5761310e613153565b500390565b60005b8381101561312e578181015183820152602001613116565b838111156120f65750506000910152565b60008261314e5761314e613169565b500690565b634e487b7160e01b600052601160045260246000fd5b634e487b7160e01b600052601260045260246000fd5b634e487b7160e01b600052604160045260246000fd5b6001600160a01b03811681146131aa57600080fd5b50565b80151581146131aa57600080fdfea2646970667358221220cd20a852431c7a98b409426c0eda21e4c287134ff2af546b55c62ad29ee4e80664736f6c63430008000033",
  "linkReferences": {},
  "deployedLinkReferences": {}
}