{
  "_format": "hh-sol-artifact-1",
  "contractName": "PixelNFT",
  "sourceName": "build/sources/test/PixelNFT.sol",
  "abi": [
    {
      "inputs": [
        {
          "internalType": "uint32",
          "name": "dimension",
          "type": "uint32"
        }
      ],
      "stateMutability": "nonpayable",
      "type": "constructor"
    },
    {
      "anonymous": false,
      "inputs": [
        {
          "indexed": true,
          "internalType": "address",
          "name": "owner",
          "type": "address"
        },
        {
          "indexed": true,
          "internalType": "address",
          "name": "approved",
          "type": "address"
        },
        {
          "indexed": true,
          "internalType": "uint256",
          "name": "tokenId",
          "type": "uint256"
        }
      ],
      "name": "Approval",
      "type": "event"
    },
    {
      "anonymous": false,
      "inputs": [
        {
          "indexed": true,
          "internalType": "address",
          "name": "owner",
          "type": "address"
        },
        {
          "indexed": true,
          "internalType": "address",
          "name": "operator",
          "type": "address"
        },
        {
          "indexed": false,
          "internalType": "bool",
          "name": "approved",
          "type": "bool"
        }
      ],
      "name": "ApprovalForAll",
      "type": "event"
    },
    {
      "anonymous": false,
      "inputs": [
        {
          "indexed": false,
          "internalType": "address",
          "name": "owner",
          "type": "address"
        },
        {
          "indexed": false,
          "internalType": "uint256",
          "name": "tokenId",
          "type": "uint256"
        },
        {
          "indexed": false,
          "internalType": "string",
          "name": "uri",
          "type": "string"
        },
        {
          "indexed": false,
          "internalType": "string",
          "name": "metadata",
          "type": "string"
        }
      ],
      "name": "PixMinted",
      "type": "event"
    },
    {
      "anonymous": false,
      "inputs": [
        {
          "indexed": true,
          "internalType": "address",
          "name": "from",
          "type": "address"
        },
        {
          "indexed": true,
          "internalType": "address",
          "name": "to",
          "type": "address"
        },
        {
          "indexed": true,
          "internalType": "uint256",
          "name": "tokenId",
          "type": "uint256"
        }
      ],
      "name": "Transfer",
      "type": "event"
    },
    {
      "inputs": [
        {
          "internalType": "address",
          "name": "to",
          "type": "address"
        },
        {
          "internalType": "uint256",
          "name": "tokenId",
          "type": "uint256"
        }
      ],
      "name": "approve",
      "outputs": [],
      "stateMutability": "nonpayable",
      "type": "function"
    },
    {
      "inputs": [
        {
          "internalType": "address",
          "name": "owner",
          "type": "address"
        }
      ],
      "name": "balanceOf",
      "outputs": [
        {
          "internalType": "uint256",
          "name": "",
          "type": "uint256"
        }
      ],
      "stateMutability": "view",
      "type": "function"
    },
    {
      "inputs": [
        {
          "internalType": "uint256",
          "name": "tokenId",
          "type": "uint256"
        }
      ],
      "name": "getApproved",
      "outputs": [
        {
          "internalType": "address",
          "name": "",
          "type": "address"
        }
      ],
      "stateMutability": "view",
      "type": "function"
    },
    {
      "inputs": [
        {
          "internalType": "address",
          "name": "owner",
          "type": "address"
        },
        {
          "internalType": "address",
          "name": "operator",
          "type": "address"
        }
      ],
      "name": "isApprovedForAll",
      "outputs": [
        {
          "internalType": "bool",
          "name": "",
          "type": "bool"
        }
      ],
      "stateMutability": "view",
      "type": "function"
    },
    {
      "inputs": [
        {
          "internalType": "address",
          "name": "recipient",
          "type": "address"
        },
        {
          "internalType": "uint32",
          "name": "x",
          "type": "uint32"
        },
        {
          "internalType": "uint32",
          "name": "y",
          "type": "uint32"
        }
      ],
      "name": "mintPixel",
      "outputs": [],
      "stateMutability": "nonpayable",
      "type": "function"
    },
    {
      "inputs": [],
      "name": "name",
      "outputs": [
        {
          "internalType": "string",
          "name": "",
          "type": "string"
        }
      ],
      "stateMutability": "view",
      "type": "function"
    },
    {
      "inputs": [
        {
          "internalType": "uint256",
          "name": "tokenId",
          "type": "uint256"
        }
      ],
      "name": "ownerOf",
      "outputs": [
        {
          "internalType": "address",
          "name": "",
          "type": "address"
        }
      ],
      "stateMutability": "view",
      "type": "function"
    },
    {
      "inputs": [
        {
          "internalType": "address",
          "name": "from",
          "type": "address"
        },
        {
          "internalType": "address",
          "name": "to",
          "type": "address"
        },
        {
          "internalType": "uint256",
          "name": "tokenId",
          "type": "uint256"
        }
      ],
      "name": "safeTransferFrom",
      "outputs": [],
      "stateMutability": "nonpayable",
      "type": "function"
    },
    {
      "inputs": [
        {
          "internalType": "address",
          "name": "from",
          "type": "address"
        },
        {
          "internalType": "address",
          "name": "to",
          "type": "address"
        },
        {
          "internalType": "uint256",
          "name": "tokenId",
          "type": "uint256"
        },
        {
          "internalType": "bytes",
          "name": "_data",
          "type": "bytes"
        }
      ],
      "name": "safeTransferFrom",
      "outputs": [],
      "stateMutability": "nonpayable",
      "type": "function"
    },
    {
      "inputs": [
        {
          "internalType": "address",
          "name": "operator",
          "type": "address"
        },
        {
          "internalType": "bool",
          "name": "approved",
          "type": "bool"
        }
      ],
      "name": "setApprovalForAll",
      "outputs": [],
      "stateMutability": "nonpayable",
      "type": "function"
    },
    {
      "inputs": [
        {
          "internalType": "bytes4",
          "name": "interfaceId",
          "type": "bytes4"
        }
      ],
      "name": "supportsInterface",
      "outputs": [
        {
          "internalType": "bool",
          "name": "",
          "type": "bool"
        }
      ],
      "stateMutability": "view",
      "type": "function"
    },
    {
      "inputs": [],
      "name": "symbol",
      "outputs": [
        {
          "internalType": "string",
          "name": "",
          "type": "string"
        }
      ],
      "stateMutability": "view",
      "type": "function"
    },
    {
      "inputs": [
        {
          "internalType": "uint256",
          "name": "tokenId",
          "type": "uint256"
        }
      ],
      "name": "tokenURI",
      "outputs": [
        {
          "internalType": "string",
          "name": "",
          "type": "string"
        }
      ],
      "stateMutability": "view",
      "type": "function"
    },
    {
      "inputs": [
        {
          "internalType": "address",
          "name": "from",
          "type": "address"
        },
        {
          "internalType": "address",
          "name": "to",
          "type": "address"
        },
        {
          "internalType": "uint256",
          "name": "tokenId",
          "type": "uint256"
        }
      ],
      "name": "transferFrom",
      "outputs": [],
      "stateMutability": "nonpayable",
      "type": "function"
    }
  ],
  "bytecode": "0x60806040523480156200001157600080fd5b5060405162001c0c38038062001c0c8339810160408190526200003491620001c4565b604080518082018252600b81526a2834bc32b6102a37b5b2b760a91b6020808301918252835180850190945260038452620a092b60eb1b90840152815191929162000082916000916200011e565b508051620000989060019060208401906200011e565b50620f42409150620000ad9050828062000233565b63ffffffff161115620000dd5760405162461bcd60e51b8152600401620000d490620001f1565b60405180910390fd5b620000e9818062000233565b6007805463ffffffff191663ffffffff9283161763ffffffff60201b19166401000000009390921692909202179055620002a9565b8280546200012c906200026c565b90600052602060002090601f0160209004810192826200015057600085556200019b565b82601f106200016b57805160ff19168380011785556200019b565b828001600101855582156200019b579182015b828111156200019b5782518255916020019190600101906200017e565b50620001a9929150620001ad565b5090565b5b80821115620001a95760008155600101620001ae565b600060208284031215620001d6578081fd5b815163ffffffff81168114620001ea578182fd5b9392505050565b60208082526022908201527f746f6f206d616e7920706978656c73202d206d617820616c6c6f7765643a20316040820152614d6960f01b606082015260800190565b600063ffffffff808316818516818304811182151516156200026357634e487b7160e01b84526011600452602484fd5b02949350505050565b6002810460018216806200028157607f821691505b60208210811415620002a357634e487b7160e01b600052602260045260246000fd5b50919050565b61195380620002b96000396000f3fe608060405234801561001057600080fd5b50600436106100ea5760003560e01c80636352211e1161008c578063a22cb46511610066578063a22cb465146101d6578063b88d4fde146101e9578063c87b56dd146101fc578063e985e9c51461020f576100ea565b80636352211e1461019b57806370a08231146101ae57806395d89b41146101ce576100ea565b8063081812fc116100c8578063081812fc14610142578063095ea7b31461016257806323b872dd1461017557806342842e0e14610188576100ea565b806301ffc9a7146100ef578063058798eb1461011857806306fdde031461012d575b600080fd5b6101026100fd3660046110ed565b610222565b60405161010f91906112ae565b60405180910390f35b61012b6101263660046110ab565b61029c565b005b610135610418565b60405161010f91906112b9565b610155610150366004611125565b6104aa565b60405161010f9190611219565b61012b610170366004611082565b6104ed565b61012b610183366004610f41565b610585565b61012b610196366004610f41565b6105bd565b6101556101a9366004611125565b6105d8565b6101c16101bc366004610ef5565b61060d565b60405161010f91906117e0565b610135610651565b61012b6101e4366004611048565b610660565b61012b6101f7366004610f7c565b61072e565b61013561020a366004611125565b61076d565b61010261021d366004610f0f565b6107f0565b60006001600160e01b031982167f80ac58cd00000000000000000000000000000000000000000000000000000000148061028557506001600160e01b031982167f5b5e139f00000000000000000000000000000000000000000000000000000000145b8061029457506102948261081e565b90505b919050565b60075463ffffffff64010000000090910481169083161080156102d2575060075463ffffffff6401000000009091048116908216105b6102f75760405162461bcd60e51b81526004016102ee906112cc565b60405180910390fd5b63ffffffff80831660009081526008602090815260408083209385168352929052205460ff161561033a5760405162461bcd60e51b81526004016102ee9061149d565b6103446006610850565b63ffffffff80831660009081526008602090815260408083209385168352929052908120805460ff1916600117905561037d6006610859565b905060006103908463ffffffff1661085d565b61039f8463ffffffff1661085d565b6040516020016103b0929190611198565b60405160208183030381529060405290506103cc8583836109b4565b7fe73c09e18308672224b7df5c54fda44cd8313a4b90d6d68b9b329bc125e0919185836103f88561076d565b846040516104099493929190611269565b60405180910390a15050505050565b60606000805461042790611858565b80601f016020809104026020016040519081016040528092919081815260200182805461045390611858565b80156104a05780601f10610475576101008083540402835291602001916104a0565b820191906000526020600020905b81548152906001019060200180831161048357829003601f168201915b5050505050905090565b60006104b5826109e7565b6104d15760405162461bcd60e51b81526004016102ee90611620565b506000908152600460205260409020546001600160a01b031690565b60006104f8826105d8565b9050806001600160a01b0316836001600160a01b0316141561052c5760405162461bcd60e51b81526004016102ee90611726565b806001600160a01b031661053e610a04565b6001600160a01b0316148061055a575061055a8161021d610a04565b6105765760405162461bcd60e51b81526004016102ee906114d4565b6105808383610a08565b505050565b610596610590610a04565b82610a83565b6105b25760405162461bcd60e51b81526004016102ee90611783565b610580838383610b00565b6105808383836040518060200160405280600081525061072e565b6000818152600260205260408120546001600160a01b0316806102945760405162461bcd60e51b81526004016102ee9061158e565b60006001600160a01b0382166106355760405162461bcd60e51b81526004016102ee90611531565b506001600160a01b031660009081526003602052604090205490565b60606001805461042790611858565b610668610a04565b6001600160a01b0316826001600160a01b031614156106995760405162461bcd60e51b81526004016102ee9061141a565b80600560006106a6610a04565b6001600160a01b03908116825260208083019390935260409182016000908120918716808252919093529120805460ff1916921515929092179091556106ea610a04565b6001600160a01b03167f17307eab39ab6107e8899845ad3d59bd9653f200f220920489ca2b5937696c318360405161072291906112ae565b60405180910390a35050565b61073f610739610a04565b83610a83565b61075b5760405162461bcd60e51b81526004016102ee90611783565b61076784848484610c3a565b50505050565b6060610778826109e7565b6107945760405162461bcd60e51b81526004016102ee906116c9565b600061079e610c6d565b905060008151116107be57604051806020016040528060008152506107e9565b806107c88461085d565b6040516020016107d9929190611169565b6040516020818303038152906040525b9392505050565b6001600160a01b03918216600090815260056020908152604080832093909416825291909152205460ff1690565b6001600160e01b031981167f01ffc9a70000000000000000000000000000000000000000000000000000000014919050565b80546001019055565b5490565b60608161089e575060408051808201909152600181527f30000000000000000000000000000000000000000000000000000000000000006020820152610297565b8160005b81156108c857806108b281611893565b91506108c19050600a83611801565b91506108a2565b60008167ffffffffffffffff8111156108f157634e487b7160e01b600052604160045260246000fd5b6040519080825280601f01601f19166020018201604052801561091b576020820181803683370190505b5090505b84156109ac57610930600183611815565b915061093d600a866118ae565b6109489060306117e9565b60f81b81838151811061096b57634e487b7160e01b600052603260045260246000fd5b60200101907effffffffffffffffffffffffffffffffffffffffffffffffffffffffffffff1916908160001a9053506109a5600a86611801565b945061091f565b949350505050565b6109be8383610ca4565b6109cb6000848484610d90565b6105805760405162461bcd60e51b81526004016102ee90611329565b6000908152600260205260409020546001600160a01b0316151590565b3390565b6000818152600460205260409020805473ffffffffffffffffffffffffffffffffffffffff19166001600160a01b0384169081179091558190610a4a826105d8565b6001600160a01b03167f8c5be1e5ebec7d5bd14f71427d1e84f3dd0314c0f7b2291e5b200ac8c7c3b92560405160405180910390a45050565b6000610a8e826109e7565b610aaa5760405162461bcd60e51b81526004016102ee90611451565b6000610ab5836105d8565b9050806001600160a01b0316846001600160a01b03161480610af05750836001600160a01b0316610ae5846104aa565b6001600160a01b0316145b806109ac57506109ac81856107f0565b826001600160a01b0316610b13826105d8565b6001600160a01b031614610b395760405162461bcd60e51b81526004016102ee9061166c565b6001600160a01b038216610b5f5760405162461bcd60e51b81526004016102ee906113bd565b610b6a838383610580565b610b75600082610a08565b6001600160a01b0383166000908152600360205260408120805460019290610b9e908490611815565b90915550506001600160a01b0382166000908152600360205260408120805460019290610bcc9084906117e9565b9091555050600081815260026020526040808220805473ffffffffffffffffffffffffffffffffffffffff19166001600160a01b0386811691821790925591518493918716917fddf252ad1be2c89b69c2b068fc378daa952ba7f163c4a11628f55a4df523b3ef91a4505050565b610c45848484610b00565b610c5184848484610d90565b6107675760405162461bcd60e51b81526004016102ee90611329565b6040805180820190915260208082527f68747470733a2f2f7777772e6f70656e6c61772e696f2f6e6674732f7069782f9082015290565b6001600160a01b038216610cca5760405162461bcd60e51b81526004016102ee906115eb565b610cd3816109e7565b15610cf05760405162461bcd60e51b81526004016102ee90611386565b610cfc60008383610580565b6001600160a01b0382166000908152600360205260408120805460019290610d259084906117e9565b9091555050600081815260026020526040808220805473ffffffffffffffffffffffffffffffffffffffff19166001600160a01b03861690811790915590518392907fddf252ad1be2c89b69c2b068fc378daa952ba7f163c4a11628f55a4df523b3ef908290a45050565b6000610da4846001600160a01b0316610ec4565b15610eb957836001600160a01b031663150b7a02610dc0610a04565b8786866040518563ffffffff1660e01b8152600401610de2949392919061122d565b602060405180830381600087803b158015610dfc57600080fd5b505af1925050508015610e2c575060408051601f3d908101601f19168201909252610e2991810190611109565b60015b610e86573d808015610e5a576040519150601f19603f3d011682016040523d82523d6000602084013e610e5f565b606091505b508051610e7e5760405162461bcd60e51b81526004016102ee90611329565b805181602001fd5b6001600160e01b0319167f150b7a02000000000000000000000000000000000000000000000000000000001490506109ac565b506001949350505050565b3b151590565b80356001600160a01b038116811461029757600080fd5b803563ffffffff8116811461029757600080fd5b600060208284031215610f06578081fd5b6107e982610eca565b60008060408385031215610f21578081fd5b610f2a83610eca565b9150610f3860208401610eca565b90509250929050565b600080600060608486031215610f55578081fd5b610f5e84610eca565b9250610f6c60208501610eca565b9150604084013590509250925092565b60008060008060808587031215610f91578081fd5b610f9a85610eca565b93506020610fa9818701610eca565b935060408601359250606086013567ffffffffffffffff80821115610fcc578384fd5b818801915088601f830112610fdf578384fd5b813581811115610ff157610ff16118ee565b604051601f8201601f1916810185018381118282101715611014576110146118ee565b60405281815283820185018b101561102a578586fd5b81858501868301379081019093019390935250939692955090935050565b6000806040838503121561105a578182fd5b61106383610eca565b915060208301358015158114611077578182fd5b809150509250929050565b60008060408385031215611094578182fd5b61109d83610eca565b946020939093013593505050565b6000806000606084860312156110bf578283fd5b6110c884610eca565b92506110d660208501610ee1565b91506110e460408501610ee1565b90509250925092565b6000602082840312156110fe578081fd5b81356107e981611904565b60006020828403121561111a578081fd5b81516107e981611904565b600060208284031215611136578081fd5b5035919050565b6000815180845261115581602086016020860161182c565b601f01601f19169290920160200192915050565b6000835161117b81846020880161182c565b83519083019061118f81836020880161182c565b01949350505050565b60007f706978656c3a2000000000000000000000000000000000000000000000000000825283516111d081600785016020880161182c565b7f2c00000000000000000000000000000000000000000000000000000000000000600791840191820152835161120d81600884016020880161182c565b01600801949350505050565b6001600160a01b0391909116815260200190565b60006001600160a01b0380871683528086166020840152508360408301526080606083015261125f608083018461113d565b9695505050505050565b60006001600160a01b038616825284602083015260806040830152611291608083018561113d565b82810360608401526112a3818561113d565b979650505050505050565b901515815260200190565b6000602082526107e9602083018461113d565b60208082526021908201527f6d6178696d756d20616d6f756e74206f6620706978656c73206578636565646560408201527f6400000000000000000000000000000000000000000000000000000000000000606082015260800190565b60208082526032908201527f4552433732313a207472616e7366657220746f206e6f6e20455243373231526560408201527f63656976657220696d706c656d656e7465720000000000000000000000000000606082015260800190565b6020808252601c908201527f4552433732313a20746f6b656e20616c7265616479206d696e74656400000000604082015260600190565b60208082526024908201527f4552433732313a207472616e7366657220746f20746865207a65726f2061646460408201527f7265737300000000000000000000000000000000000000000000000000000000606082015260800190565b60208082526019908201527f4552433732313a20617070726f766520746f2063616c6c657200000000000000604082015260600190565b6020808252602c908201527f4552433732313a206f70657261746f7220717565727920666f72206e6f6e657860408201526b34b9ba32b73a103a37b5b2b760a11b606082015260800190565b60208082526014908201527f706978656c20616c7265616479206d696e746564000000000000000000000000604082015260600190565b60208082526038908201527f4552433732313a20617070726f76652063616c6c6572206973206e6f74206f7760408201527f6e6572206e6f7220617070726f76656420666f7220616c6c0000000000000000606082015260800190565b6020808252602a908201527f4552433732313a2062616c616e636520717565727920666f7220746865207a6560408201527f726f206164647265737300000000000000000000000000000000000000000000606082015260800190565b60208082526029908201527f4552433732313a206f776e657220717565727920666f72206e6f6e657869737460408201527f656e7420746f6b656e0000000000000000000000000000000000000000000000606082015260800190565b6020808252818101527f4552433732313a206d696e7420746f20746865207a65726f2061646472657373604082015260600190565b6020808252602c908201527f4552433732313a20617070726f76656420717565727920666f72206e6f6e657860408201526b34b9ba32b73a103a37b5b2b760a11b606082015260800190565b60208082526029908201527f4552433732313a207472616e73666572206f6620746f6b656e2074686174206960408201527f73206e6f74206f776e0000000000000000000000000000000000000000000000606082015260800190565b6020808252602f908201527f4552433732314d657461646174613a2055524920717565727920666f72206e6f60408201527f6e6578697374656e7420746f6b656e0000000000000000000000000000000000606082015260800190565b60208082526021908201527f4552433732313a20617070726f76616c20746f2063757272656e74206f776e6560408201527f7200000000000000000000000000000000000000000000000000000000000000606082015260800190565b60208082526031908201527f4552433732313a207472616e736665722063616c6c6572206973206e6f74206f60408201527f776e6572206e6f7220617070726f766564000000000000000000000000000000606082015260800190565b90815260200190565b600082198211156117fc576117fc6118c2565b500190565b600082611810576118106118d8565b500490565b600082821015611827576118276118c2565b500390565b60005b8381101561184757818101518382015260200161182f565b838111156107675750506000910152565b60028104600182168061186c57607f821691505b6020821081141561188d57634e487b7160e01b600052602260045260246000fd5b50919050565b60006000198214156118a7576118a76118c2565b5060010190565b6000826118bd576118bd6118d8565b500690565b634e487b7160e01b600052601160045260246000fd5b634e487b7160e01b600052601260045260246000fd5b634e487b7160e01b600052604160045260246000fd5b6001600160e01b03198116811461191a57600080fd5b5056fea2646970667358221220a9f3e9a1a416a8543563968d4240c898c674a8adfcee3f8d066472437b1c889564736f6c63430008000033",
  "linkReferences": {},
  "deployedLinkReferences": {}
}