{
  "_format": "hh-sol-artifact-1",
  "contractName": "RagequitContract",
  "sourceName": "build/sources/adapters/Ragequit.sol",
  "abi": [
    {
      "anonymous": false,
      "inputs": [
        {
          "indexed": false,
          "internalType": "address",
          "name": "memberAddr",
          "type": "address"
        },
        {
          "indexed": false,
          "internalType": "uint256",
          "name": "burnedUnits",
          "type": "uint256"
        },
        {
          "indexed": false,
          "internalType": "uint256",
          "name": "burnedLoot",
          "type": "uint256"
        },
        {
          "indexed": false,
          "internalType": "uint256",
          "name": "initialTotalUnitsAndLoot",
          "type": "uint256"
        }
      ],
      "name": "MemberRagequit",
      "type": "event"
    },
    {
      "inputs": [
        {
          "internalType": "uint256",
          "name": "flags",
          "type": "uint256"
        },
        {
          "internalType": "uint256",
          "name": "flag",
          "type": "uint256"
        }
      ],
      "name": "getFlag",
      "outputs": [
        {
          "internalType": "bool",
          "name": "",
          "type": "bool"
        }
      ],
      "stateMutability": "pure",
      "type": "function"
    },
    {
      "inputs": [
        {
          "internalType": "address",
          "name": "addr",
          "type": "address"
        }
      ],
      "name": "isNotReservedAddress",
      "outputs": [
        {
          "internalType": "bool",
          "name": "",
          "type": "bool"
        }
      ],
      "stateMutability": "pure",
      "type": "function"
    },
    {
      "inputs": [
        {
          "internalType": "address",
          "name": "addr",
          "type": "address"
        }
      ],
      "name": "isNotZeroAddress",
      "outputs": [
        {
          "internalType": "bool",
          "name": "",
          "type": "bool"
        }
      ],
      "stateMutability": "pure",
      "type": "function"
    },
    {
      "inputs": [
        {
          "internalType": "contract DaoRegistry",
          "name": "dao",
          "type": "address"
        },
        {
          "internalType": "uint256",
          "name": "unitsToBurn",
          "type": "uint256"
        },
        {
          "internalType": "uint256",
          "name": "lootToBurn",
          "type": "uint256"
        },
        {
          "internalType": "address[]",
          "name": "tokens",
          "type": "address[]"
        }
      ],
      "name": "ragequit",
      "outputs": [],
      "stateMutability": "nonpayable",
      "type": "function"
    },
    {
      "inputs": [
        {
          "internalType": "uint256",
          "name": "flags",
          "type": "uint256"
        },
        {
          "internalType": "uint256",
          "name": "flag",
          "type": "uint256"
        },
        {
          "internalType": "bool",
          "name": "value",
          "type": "bool"
        }
      ],
      "name": "setFlag",
      "outputs": [
        {
          "internalType": "uint256",
          "name": "",
          "type": "uint256"
        }
      ],
      "stateMutability": "pure",
      "type": "function"
    },
    {
      "stateMutability": "payable",
      "type": "receive"
    }
  ],
  "bytecode": "0x608060405234801561001057600080fd5b506113b6806100206000396000f3fe60806040526004361061005e5760003560e01c8063ed0cdf1511610043578063ed0cdf15146100ec578063ef6a24991461010e578063fc2580311461012e57610084565b8063b244a41d14610089578063ca0f4633146100bf57610084565b366100845760405162461bcd60e51b815260040161007b906110f5565b60405180910390fd5b600080fd5b34801561009557600080fd5b506100a96100a4366004610e03565b61014e565b6040516100b69190610ee8565b60405180910390f35b3480156100cb57600080fd5b506100df6100da366004610ce3565b6101aa565b6040516100b69190610edd565b3480156100f857600080fd5b5061010c610107366004610d37565b6101b8565b005b34801561011a57600080fd5b506100df610129366004610ce3565b610611565b34801561013a57600080fd5b506100df610149366004610de2565b610656565b600081151561015d8585610656565b1515146101a057811561018657610175836002611200565b61017f908561118e565b90506101a3565b610191836002611200565b61017f90856112e8565b6101a3565b50825b9392505050565b6001600160a01b0316151590565b8443816001600160a01b031663b21634826040518163ffffffff1660e01b815260040160206040518083038186803b1580156101f357600080fd5b505afa158015610207573d6000803e3d6000fd5b505050506040513d601f19601f8201168201806040525081019061022b9190610dca565b14156102495760405162461bcd60e51b815260040161007b9061102a565b806001600160a01b03166310fdb0a26040518163ffffffff1660e01b8152600401600060405180830381600087803b15801561028457600080fd5b505af1158015610298573d6000803e3d6000fd5b50505082151590506102bc5760405162461bcd60e51b815260040161007b90610f96565b60006102c8858761118e565b116102e55760405162461bcd60e51b815260040161007b90610ef1565b6040517fc89bb8ba0000000000000000000000000000000000000000000000000000000081526000906001600160a01b0388169063c89bb8ba9061032d903390600401610e3b565b60206040518083038186803b15801561034557600080fd5b505afa158015610359573d6000803e3d6000fd5b505050506040513d601f19601f8201168201806040525081019061037d9190610cff565b90506000876001600160a01b031663593e96b67fea0ca03c7adbe41dc655fec28a9209dc8e6e042f3d991a67765ba285b9cf73a06040518263ffffffff1660e01b81526004016103cd9190610ee8565b60206040518083038186803b1580156103e557600080fd5b505afa1580156103f9573d6000803e3d6000fd5b505050506040513d601f19601f8201168201806040525081019061041d9190610cff565b905086816001600160a01b031663f7888aec84620ff1ce6040518363ffffffff1660e01b8152600401610451929190610e4f565b60206040518083038186803b15801561046957600080fd5b505afa15801561047d573d6000803e3d6000fd5b505050506040513d601f19601f820116820180604052508101906104a19190610cff565b6001600160a01b031610156104c85760405162461bcd60e51b815260040161007b90610f28565b604051633de222bb60e21b815286906001600160a01b0383169063f7888aec906104fc90869063b105f00d90600401610e4f565b60206040518083038186803b15801561051457600080fd5b505afa158015610528573d6000803e3d6000fd5b505050506040513d601f19601f8201168201806040525081019061054c9190610cff565b6001600160a01b031610156105735760405162461bcd60e51b815260040161007b9061112c565b6105b4828888888880806020026020016040519081016040528093929190818152602001838360200280828437600092019190915250889250610673915050565b5050806001600160a01b031663d4f7af436040518163ffffffff1660e01b8152600401600060405180830381600087803b1580156105f157600080fd5b505af1158015610605573d6000803e3d6000fd5b50505050505050505050565b60006001600160a01b03821661dead1480159061063957506001600160a01b03821661babe14155b801561065057506001600160a01b038216614bec14155b92915050565b6000610669600260ff841685901c61131a565b6001149392505050565b600061067e82610762565b60405163e3a05cc160e01b81529091506001600160a01b0383169063e3a05cc1906106b4908990620ff1ce908a90600401610e93565b600060405180830381600087803b1580156106ce57600080fd5b505af11580156106e2573d6000803e3d6000fd5b505060405163e3a05cc160e01b81526001600160a01b038516925063e3a05cc1915061071a90899063b105f00d908990600401610e93565b600060405180830381600087803b15801561073457600080fd5b505af1158015610748573d6000803e3d6000fd5b5050505061075a868686848787610770565b505050505050565b60006106508261babe610a3c565b600061077c858761118e565b835190915060005b818110156109f45760008582815181106107ae57634e487b7160e01b600052603260045260246000fd5b6020026020010151905060008260016107c7919061118e565b905083811015610829578681815181106107f157634e487b7160e01b600052603260045260246000fd5b60200260200101516001600160a01b0316826001600160a01b0316106108295760405162461bcd60e51b815260040161007b906110be565b6040517ff9eaee0d0000000000000000000000000000000000000000000000000000000081526001600160a01b0387169063f9eaee0d9061086e908590600401610e3b565b60206040518083038186803b15801561088657600080fd5b505afa15801561089a573d6000803e3d6000fd5b505050506040513d601f19601f820116820180604052508101906108be9190610d1b565b6108da5760405162461bcd60e51b815260040161007b90610f5f565b600061096f876001600160a01b031663f7888aec61dead866040518363ffffffff1660e01b815260040161090f929190610e4f565b60206040518083038186803b15801561092757600080fd5b505afa15801561093b573d6000803e3d6000fd5b505050506040513d601f19601f8201168201806040525081019061095f9190610cff565b6001600160a01b0316878b610c74565b905080156109de57866001600160a01b03166344a29e2a61dead8e86856040518563ffffffff1660e01b81526004016109ab9493929190610e69565b600060405180830381600087803b1580156109c557600080fd5b505af11580156109d9573d6000803e3d6000fd5b505050505b50505080806109ec906112ff565b915050610784565b507f909c16b9125501817a880388e0aa2ef17ebd406f416be8d7cd1ac08777ec954388888888604051610a2a9493929190610eb7565b60405180910390a15050505050505050565b604051633de222bb60e21b81526000906001600160a01b0384169063f7888aec90610a72908590640bb105f00d90600401610e4f565b60206040518083038186803b158015610a8a57600080fd5b505afa158015610a9e573d6000803e3d6000fd5b505050506040513d601f19601f82011682018060405250810190610ac29190610cff565b604051633de222bb60e21b81526001600160a01b0385169063f7888aec90610af490869063b105f00d90600401610e4f565b60206040518083038186803b158015610b0c57600080fd5b505afa158015610b20573d6000803e3d6000fd5b505050506040513d601f19601f82011682018060405250810190610b449190610cff565b604051633de222bb60e21b81526001600160a01b0386169063f7888aec90610b7590879062fff1ce90600401610e4f565b60206040518083038186803b158015610b8d57600080fd5b505afa158015610ba1573d6000803e3d6000fd5b505050506040513d601f19601f82011682018060405250810190610bc59190610cff565b604051633de222bb60e21b81526001600160a01b0387169063f7888aec90610bf6908890620ff1ce90600401610e4f565b60206040518083038186803b158015610c0e57600080fd5b505afa158015610c22573d6000803e3d6000fd5b505050506040513d601f19601f82011682018060405250810190610c469190610cff565b610c509190611163565b610c5a9190611163565b610c649190611163565b6001600160a01b03169392505050565b6000808211610c955760405162461bcd60e51b815260040161007b90610fcd565b81831115610cb55760405162461bcd60e51b815260040161007b90611061565b83610cc2575060006101a3565b6000610cce84866112c9565b9050610cda83826111a6565b95945050505050565b600060208284031215610cf4578081fd5b81356101a38161135a565b600060208284031215610d10578081fd5b81516101a38161135a565b600060208284031215610d2c578081fd5b81516101a381611372565b600080600080600060808688031215610d4e578081fd5b8535610d598161135a565b94506020860135935060408601359250606086013567ffffffffffffffff80821115610d83578283fd5b818801915088601f830112610d96578283fd5b813581811115610da4578384fd5b8960208083028501011115610db7578384fd5b9699959850939650602001949392505050565b600060208284031215610ddb578081fd5b5051919050565b60008060408385031215610df4578182fd5b50508035926020909101359150565b600080600060608486031215610e17578283fd5b83359250602084013591506040840135610e3081611372565b809150509250925092565b6001600160a01b0391909116815260200190565b6001600160a01b0392831681529116602082015260400190565b6001600160a01b039485168152928416602084015292166040820152606081019190915260800190565b6001600160a01b039384168152919092166020820152604081019190915260600190565b6001600160a01b0394909416845260208401929092526040830152606082015260800190565b901515815260200190565b90815260200190565b60208082526017908201527f696e73756666696369656e7420756e6974732f6c6f6f74000000000000000000604082015260600190565b60208082526012908201527f696e73756666696369656e7420756e6974730000000000000000000000000000604082015260600190565b60208082526011908201527f746f6b656e206e6f7420616c6c6f776564000000000000000000000000000000604082015260600190565b6020808252600e908201527f6d697373696e6720746f6b656e73000000000000000000000000000000000000604082015260600190565b60208082526021908201527f746f74616c556e697473206d7573742062652067726561746572207468616e2060408201527f3000000000000000000000000000000000000000000000000000000000000000606082015260800190565b60208082526010908201527f7265656e7472616e637920677561726400000000000000000000000000000000604082015260600190565b6020808252602e908201527f756e697473206d757374206265206c657373207468616e206f7220657175616c60408201527f20746f20746f74616c556e697473000000000000000000000000000000000000606082015260800190565b6020808252600f908201527f6475706c696361746520746f6b656e0000000000000000000000000000000000604082015260600190565b6020808252600f908201527f66616c6c6261636b207265766572740000000000000000000000000000000000604082015260600190565b60208082526011908201527f696e73756666696369656e74206c6f6f74000000000000000000000000000000604082015260600190565b60006001600160a01b038083168185168083038211156111855761118561132e565b01949350505050565b600082198211156111a1576111a161132e565b500190565b6000826111b5576111b5611344565b500490565b80825b60018086116111cc57506111f7565b8187048211156111de576111de61132e565b808616156111eb57918102915b9490941c9380026111bd565b94509492505050565b60006101a36000198484600082611219575060016101a3565b81611226575060006101a3565b816001811461123c576002811461124657611273565b60019150506101a3565b60ff8411156112575761125761132e565b6001841b91508482111561126d5761126d61132e565b506101a3565b5060208310610133831016604e8410600b84101617156112a1575081810a8381111561019b5761019b61132e565b6112ae84848460016111ba565b8086048211156112c0576112c061132e565b02949350505050565b60008160001904831182151516156112e3576112e361132e565b500290565b6000828210156112fa576112fa61132e565b500390565b60006000198214156113135761131361132e565b5060010190565b60008261132957611329611344565b500690565b634e487b7160e01b600052601160045260246000fd5b634e487b7160e01b600052601260045260246000fd5b6001600160a01b038116811461136f57600080fd5b50565b801515811461136f57600080fdfea2646970667358221220411a947f8674c37627e5218a5e381120d643184e5220a6646092f0325b5f5bfa64736f6c63430008000033",
  "linkReferences": {},
  "deployedLinkReferences": {}
}