{
  "_format": "hh-sol-artifact-1",
  "contractName": "SignaturesContract",
  "sourceName": "build/sources/adapters/Signatures.sol",
  "abi": [
    {
      "inputs": [
        {
          "internalType": "uint256",
          "name": "flags",
          "type": "uint256"
        },
        {
          "internalType": "uint256",
          "name": "flag",
          "type": "uint256"
        }
      ],
      "name": "getFlag",
      "outputs": [
        {
          "internalType": "bool",
          "name": "",
          "type": "bool"
        }
      ],
      "stateMutability": "pure",
      "type": "function"
    },
    {
      "inputs": [
        {
          "internalType": "contract DaoRegistry",
          "name": "dao",
          "type": "address"
        },
        {
          "internalType": "address",
          "name": "_addr",
          "type": "address"
        }
      ],
      "name": "isActiveMember",
      "outputs": [
        {
          "internalType": "bool",
          "name": "",
          "type": "bool"
        }
      ],
      "stateMutability": "view",
      "type": "function"
    },
    {
      "inputs": [
        {
          "internalType": "address",
          "name": "addr",
          "type": "address"
        }
      ],
      "name": "isNotReservedAddress",
      "outputs": [
        {
          "internalType": "bool",
          "name": "",
          "type": "bool"
        }
      ],
      "stateMutability": "pure",
      "type": "function"
    },
    {
      "inputs": [
        {
          "internalType": "address",
          "name": "addr",
          "type": "address"
        }
      ],
      "name": "isNotZeroAddress",
      "outputs": [
        {
          "internalType": "bool",
          "name": "",
          "type": "bool"
        }
      ],
      "stateMutability": "pure",
      "type": "function"
    },
    {
      "inputs": [
        {
          "internalType": "contract DaoRegistry",
          "name": "dao",
          "type": "address"
        },
        {
          "internalType": "bytes32",
          "name": "proposalId",
          "type": "bytes32"
        }
      ],
      "name": "processProposal",
      "outputs": [],
      "stateMutability": "nonpayable",
      "type": "function"
    },
    {
      "inputs": [
        {
          "internalType": "address",
          "name": "",
          "type": "address"
        },
        {
          "internalType": "bytes32",
          "name": "",
          "type": "bytes32"
        }
      ],
      "name": "proposals",
      "outputs": [
        {
          "internalType": "bytes32",
          "name": "permissionHash",
          "type": "bytes32"
        },
        {
          "internalType": "bytes32",
          "name": "signatureHash",
          "type": "bytes32"
        },
        {
          "internalType": "bytes4",
          "name": "magicValue",
          "type": "bytes4"
        }
      ],
      "stateMutability": "view",
      "type": "function"
    },
    {
      "inputs": [
        {
          "internalType": "uint256",
          "name": "flags",
          "type": "uint256"
        },
        {
          "internalType": "uint256",
          "name": "flag",
          "type": "uint256"
        },
        {
          "internalType": "bool",
          "name": "value",
          "type": "bool"
        }
      ],
      "name": "setFlag",
      "outputs": [
        {
          "internalType": "uint256",
          "name": "",
          "type": "uint256"
        }
      ],
      "stateMutability": "pure",
      "type": "function"
    },
    {
      "inputs": [
        {
          "internalType": "contract DaoRegistry",
          "name": "dao",
          "type": "address"
        },
        {
          "internalType": "bytes32",
          "name": "proposalId",
          "type": "bytes32"
        },
        {
          "internalType": "bytes32",
          "name": "permissionHash",
          "type": "bytes32"
        },
        {
          "internalType": "bytes32",
          "name": "signatureHash",
          "type": "bytes32"
        },
        {
          "internalType": "bytes4",
          "name": "magicValue",
          "type": "bytes4"
        },
        {
          "internalType": "bytes",
          "name": "data",
          "type": "bytes"
        }
      ],
      "name": "submitProposal",
      "outputs": [],
      "stateMutability": "nonpayable",
      "type": "function"
    },
    {
      "stateMutability": "payable",
      "type": "receive"
    }
  ],
  "bytecode": "0x608060405234801561001057600080fd5b506114f2806100206000396000f3fe60806040526004361061007f5760003560e01c8063b244a41d1161004e578063b244a41d14610151578063ca0f46331461017e578063ef6a24991461019e578063fc258031146101be576100a5565b80635cb75276146100aa578063604bdfb7146100e25780638ecf7720146101045780639573167d14610131576100a5565b366100a55760405162461bcd60e51b815260040161009c9061129e565b60405180910390fd5b600080fd5b3480156100b657600080fd5b506100ca6100c5366004610e9a565b6101de565b6040516100d99392919061116f565b60405180910390f35b3480156100ee57600080fd5b506101026100fd366004610f2b565b61020a565b005b34801561011057600080fd5b5061012461011f366004610ee1565b610632565b6040516100d9919061113c565b34801561013d57600080fd5b5061010261014c366004610f19565b6108b1565b34801561015d57600080fd5b5061017161016c36600461108b565b610d97565b6040516100d99190611147565b34801561018a57600080fd5b50610124610199366004610e62565b610df3565b3480156101aa57600080fd5b506101246101b9366004610e62565b610e01565b3480156101ca57600080fd5b506101246101d936600461106a565b610e45565b600060208181529281526040808220909352908152208054600182015460029092015490919060e01b83565b8543816001600160a01b031663b21634826040518163ffffffff1660e01b815260040160206040518083038186803b15801561024557600080fd5b505afa158015610259573d6000803e3d6000fd5b505050506040513d601f19601f8201168201806040525081019061027d9190611052565b141561029b5760405162461bcd60e51b815260040161009c90611230565b806001600160a01b03166310fdb0a26040518163ffffffff1660e01b8152600401600060405180830381600087803b1580156102d657600080fd5b505af11580156102ea573d6000803e3d6000fd5b50506040517fb73dc3890000000000000000000000000000000000000000000000000000000081526001600160a01b038a16925063b73dc3899150610333908990600401611147565b600060405180830381600087803b15801561034d57600080fd5b505af1158015610361573d6000803e3d6000fd5b505050506001600160a01b0387166000818152602081815260408083208a84529091528082208881556001810188905560028101805463ffffffff191660e089901c17905590517f17ba7d850000000000000000000000000000000000000000000000000000000081529092906317ba7d8590610402907f0e49311626a26ba5be58a3b13d239908e80ce0dffdd5c50bf1d9c82ff35d1ab390600401611147565b60206040518083038186803b15801561041a57600080fd5b505afa15801561042e573d6000803e3d6000fd5b505050506040513d601f19601f820116820180604052508101906104529190610e7e565b90506000816001600160a01b031663966917d08b3088336040518563ffffffff1660e01b815260040161048894939291906111a7565b602060405180830381600087803b1580156104a257600080fd5b505af11580156104b6573d6000803e3d6000fd5b505050506040513d601f19601f820116820180604052508101906104da9190610e7e565b6040517f896ae9ba0000000000000000000000000000000000000000000000000000000081529091506001600160a01b038b169063896ae9ba90610526908c9085908790600401611150565b600060405180830381600087803b15801561054057600080fd5b505af1158015610554573d6000803e3d6000fd5b50506040517f2b0974d00000000000000000000000000000000000000000000000000000000081526001600160a01b0385169250632b0974d091506105a1908d908d908a906004016111ff565b600060405180830381600087803b1580156105bb57600080fd5b505af11580156105cf573d6000803e3d6000fd5b50505050505050806001600160a01b031663d4f7af436040518163ffffffff1660e01b8152600401600060405180830381600087803b15801561061157600080fd5b505af1158015610625573d6000803e3d6000fd5b5050505050505050505050565b600080836001600160a01b031663fefbd8757fea0ca03c7adbe41dc655fec28a9209dc8e6e042f3d991a67765ba285b9cf73a06040518263ffffffff1660e01b81526004016106819190611147565b60206040518083038186803b15801561069957600080fd5b505afa1580156106ad573d6000803e3d6000fd5b505050506040513d601f19601f820116820180604052508101906106d19190610e7e565b90506001600160a01b03811615610812576040517fc89bb8ba0000000000000000000000000000000000000000000000000000000081526000906001600160a01b0386169063c89bb8ba9061072a90879060040161110e565b60206040518083038186803b15801561074257600080fd5b505afa158015610756573d6000803e3d6000fd5b505050506040513d601f19601f8201168201806040525081019061077a9190610e7e565b90506000826001600160a01b031663f7888aec83620ff1ce6040518363ffffffff1660e01b81526004016107af929190611122565b60206040518083038186803b1580156107c757600080fd5b505afa1580156107db573d6000803e3d6000fd5b505050506040513d601f19601f820116820180604052508101906107ff9190610e7e565b6001600160a01b031611925050506108ab565b6040517fa230c5240000000000000000000000000000000000000000000000000000000081526001600160a01b0385169063a230c5249061085790869060040161110e565b60206040518083038186803b15801561086f57600080fd5b505afa158015610883573d6000803e3d6000fd5b505050506040513d601f19601f820116820180604052508101906108a79190610ec5565b9150505b92915050565b8143816001600160a01b031663b21634826040518163ffffffff1660e01b815260040160206040518083038186803b1580156108ec57600080fd5b505afa158015610900573d6000803e3d6000fd5b505050506040513d601f19601f820116820180604052508101906109249190611052565b14156109425760405162461bcd60e51b815260040161009c90611230565b806001600160a01b03166310fdb0a26040518163ffffffff1660e01b8152600401600060405180830381600087803b15801561097d57600080fd5b505af1158015610991573d6000803e3d6000fd5b505050506001600160a01b03831660008181526020818152604080832086845282528083208151606081018352815481526001820154938101939093526002015460e01b7fffffffff000000000000000000000000000000000000000000000000000000001682820152517f40de703e0000000000000000000000000000000000000000000000000000000081529092906340de703e90610a36908790600401611147565b60206040518083038186803b158015610a4e57600080fd5b505afa158015610a62573d6000803e3d6000fd5b505050506040513d601f19601f82011682018060405250810190610a869190610e7e565b90506001600160a01b038116610aae5760405162461bcd60e51b815260040161009c906112d5565b60026040517f76225e730000000000000000000000000000000000000000000000000000000081526001600160a01b038316906376225e7390610af790899089906004016111e6565b602060405180830381600087803b158015610b1157600080fd5b505af1158015610b25573d6000803e3d6000fd5b505050506040513d601f19601f82011682018060405250810190610b499190611033565b6005811115610b6857634e487b7160e01b600052602160045260246000fd5b14610b855760405162461bcd60e51b815260040161009c90611267565b6040517f30490e910000000000000000000000000000000000000000000000000000000081526001600160a01b038616906330490e9190610bca908790600401611147565b600060405180830381600087803b158015610be457600080fd5b505af1158015610bf8573d6000803e3d6000fd5b50506040517f593e96b6000000000000000000000000000000000000000000000000000000008152600092506001600160a01b038816915063593e96b690610c64907fb14d84a476034f030ccbb775809e5e0bf701d09b86feedbb6007cad56c24d80c90600401611147565b60206040518083038186803b158015610c7c57600080fd5b505afa158015610c90573d6000803e3d6000fd5b505050506040513d601f19601f82011682018060405250810190610cb49190610e7e565b8351602085015160408087015190517fb461382d0000000000000000000000000000000000000000000000000000000081529394506001600160a01b0385169363b461382d93610d0a939092909160040161116f565b600060405180830381600087803b158015610d2457600080fd5b505af1158015610d38573d6000803e3d6000fd5b50505050505050806001600160a01b031663d4f7af436040518163ffffffff1660e01b8152600401600060405180830381600087803b158015610d7a57600080fd5b505af1158015610d8e573d6000803e3d6000fd5b50505050505050565b6000811515610da68585610e45565b151514610de9578115610dcf57610dbe83600261136a565b610dc8908561130c565b9050610dec565b610dda83600261136a565b610dc89085611433565b610dec565b50825b9392505050565b6001600160a01b0316151590565b60006001600160a01b03821661dead14801590610e2957506001600160a01b03821661babe14155b80156108ab57506001600160a01b038216614bec141592915050565b6000610e58600260ff841685901c61144a565b6001149392505050565b600060208284031215610e73578081fd5b8135610dec81611496565b600060208284031215610e8f578081fd5b8151610dec81611496565b60008060408385031215610eac578081fd5b8235610eb781611496565b946020939093013593505050565b600060208284031215610ed6578081fd5b8151610dec816114ae565b60008060408385031215610ef3578182fd5b8235610efe81611496565b91506020830135610f0e81611496565b809150509250929050565b60008060408385031215610eac578182fd5b60008060008060008060c08789031215610f43578182fd5b8635610f4e81611496565b95506020878101359550604088013594506060880135935060808801357fffffffff0000000000000000000000000000000000000000000000000000000081168114610f98578384fd5b925060a088013567ffffffffffffffff80821115610fb4578384fd5b818a0191508a601f830112610fc7578384fd5b813581811115610fd957610fd9611480565b604051601f8201601f1916810185018381118282101715610ffc57610ffc611480565b60405281815283820185018d1015611012578586fd5b81858501868301378585838301015280955050505050509295509295509295565b600060208284031215611044578081fd5b815160068110610dec578182fd5b600060208284031215611063578081fd5b5051919050565b6000806040838503121561107c578182fd5b50508035926020909101359150565b60008060006060848603121561109f578283fd5b833592506020840135915060408401356110b8816114ae565b809150509250925092565b60008151808452815b818110156110e8576020818501810151868301820152016110cc565b818111156110f95782602083870101525b50601f01601f19169290920160200192915050565b6001600160a01b0391909116815260200190565b6001600160a01b0392831681529116602082015260400190565b901515815260200190565b90815260200190565b9283526001600160a01b03918216602084015216604082015260600190565b92835260208301919091527fffffffff0000000000000000000000000000000000000000000000000000000016604082015260600190565b60006001600160a01b0380871683528086166020840152608060408401526111d260808401866110c3565b915080841660608401525095945050505050565b6001600160a01b03929092168252602082015260400190565b60006001600160a01b03851682528360208301526060604083015261122760608301846110c3565b95945050505050565b60208082526010908201527f7265656e7472616e637920677561726400000000000000000000000000000000604082015260600190565b60208082526016908201527f70726f706f73616c206e6565647320746f207061737300000000000000000000604082015260600190565b6020808252600f908201527f66616c6c6261636b207265766572740000000000000000000000000000000000604082015260600190565b60208082526011908201527f61646170746572206e6f7420666f756e64000000000000000000000000000000604082015260600190565b6000821982111561131f5761131f61146a565b500190565b80825b60018086116113365750611361565b8187048211156113485761134861146a565b8086161561135557918102915b9490941c938002611327565b94509492505050565b6000610dec600019848460008261138357506001610dec565b8161139057506000610dec565b81600181146113a657600281146113b0576113dd565b6001915050610dec565b60ff8411156113c1576113c161146a565b6001841b9150848211156113d7576113d761146a565b50610dec565b5060208310610133831016604e8410600b841016171561140b575081810a83811115610de457610de461146a565b6114188484846001611324565b80860482111561142a5761142a61146a565b02949350505050565b6000828210156114455761144561146a565b500390565b60008261146557634e487b7160e01b81526012600452602481fd5b500690565b634e487b7160e01b600052601160045260246000fd5b634e487b7160e01b600052604160045260246000fd5b6001600160a01b03811681146114ab57600080fd5b50565b80151581146114ab57600080fdfea26469706673582212205b5e219b35f29c3386277fe905bdeaaca63c883117fa5571a78da70bdfde7d3a64736f6c63430008000033",
  "linkReferences": {},
  "deployedLinkReferences": {}
}