{
  "_format": "hh-sol-artifact-1",
  "contractName": "SnapshotProposalContract",
  "sourceName": "build/sources/adapters/voting/SnapshotProposalContract.sol",
  "abi": [
    {
      "inputs": [
        {
          "internalType": "uint256",
          "name": "_chainId",
          "type": "uint256"
        }
      ],
      "stateMutability": "nonpayable",
      "type": "constructor"
    },
    {
      "inputs": [
        {
          "internalType": "contract DaoRegistry",
          "name": "dao",
          "type": "address"
        },
        {
          "internalType": "address",
          "name": "actionId",
          "type": "address"
        }
      ],
      "name": "DOMAIN_SEPARATOR",
      "outputs": [
        {
          "internalType": "bytes32",
          "name": "",
          "type": "bytes32"
        }
      ],
      "stateMutability": "view",
      "type": "function"
    },
    {
      "inputs": [],
      "name": "EIP712_DOMAIN",
      "outputs": [
        {
          "internalType": "string",
          "name": "",
          "type": "string"
        }
      ],
      "stateMutability": "view",
      "type": "function"
    },
    {
      "inputs": [],
      "name": "EIP712_DOMAIN_TYPEHASH",
      "outputs": [
        {
          "internalType": "bytes32",
          "name": "",
          "type": "bytes32"
        }
      ],
      "stateMutability": "view",
      "type": "function"
    },
    {
      "inputs": [],
      "name": "PROPOSAL_MESSAGE_TYPE",
      "outputs": [
        {
          "internalType": "string",
          "name": "",
          "type": "string"
        }
      ],
      "stateMutability": "view",
      "type": "function"
    },
    {
      "inputs": [],
      "name": "PROPOSAL_MESSAGE_TYPEHASH",
      "outputs": [
        {
          "internalType": "bytes32",
          "name": "",
          "type": "bytes32"
        }
      ],
      "stateMutability": "view",
      "type": "function"
    },
    {
      "inputs": [],
      "name": "PROPOSAL_PAYLOAD_TYPE",
      "outputs": [
        {
          "internalType": "string",
          "name": "",
          "type": "string"
        }
      ],
      "stateMutability": "view",
      "type": "function"
    },
    {
      "inputs": [],
      "name": "PROPOSAL_PAYLOAD_TYPEHASH",
      "outputs": [
        {
          "internalType": "bytes32",
          "name": "",
          "type": "bytes32"
        }
      ],
      "stateMutability": "view",
      "type": "function"
    },
    {
      "inputs": [],
      "name": "VOTE_MESSAGE_TYPE",
      "outputs": [
        {
          "internalType": "string",
          "name": "",
          "type": "string"
        }
      ],
      "stateMutability": "view",
      "type": "function"
    },
    {
      "inputs": [],
      "name": "VOTE_MESSAGE_TYPEHASH",
      "outputs": [
        {
          "internalType": "bytes32",
          "name": "",
          "type": "bytes32"
        }
      ],
      "stateMutability": "view",
      "type": "function"
    },
    {
      "inputs": [],
      "name": "VOTE_PAYLOAD_TYPE",
      "outputs": [
        {
          "internalType": "string",
          "name": "",
          "type": "string"
        }
      ],
      "stateMutability": "view",
      "type": "function"
    },
    {
      "inputs": [],
      "name": "VOTE_PAYLOAD_TYPEHASH",
      "outputs": [
        {
          "internalType": "bytes32",
          "name": "",
          "type": "bytes32"
        }
      ],
      "stateMutability": "view",
      "type": "function"
    },
    {
      "inputs": [],
      "name": "chainId",
      "outputs": [
        {
          "internalType": "uint256",
          "name": "",
          "type": "uint256"
        }
      ],
      "stateMutability": "view",
      "type": "function"
    },
    {
      "inputs": [
        {
          "internalType": "contract DaoRegistry",
          "name": "dao",
          "type": "address"
        },
        {
          "internalType": "address",
          "name": "actionId",
          "type": "address"
        },
        {
          "components": [
            {
              "internalType": "uint256",
              "name": "timestamp",
              "type": "uint256"
            },
            {
              "internalType": "bytes32",
              "name": "spaceHash",
              "type": "bytes32"
            },
            {
              "internalType": "address",
              "name": "submitter",
              "type": "address"
            },
            {
              "components": [
                {
                  "internalType": "bytes32",
                  "name": "nameHash",
                  "type": "bytes32"
                },
                {
                  "internalType": "bytes32",
                  "name": "bodyHash",
                  "type": "bytes32"
                },
                {
                  "internalType": "string[]",
                  "name": "choices",
                  "type": "string[]"
                },
                {
                  "internalType": "uint256",
                  "name": "start",
                  "type": "uint256"
                },
                {
                  "internalType": "uint256",
                  "name": "end",
                  "type": "uint256"
                },
                {
                  "internalType": "string",
                  "name": "snapshot",
                  "type": "string"
                }
              ],
              "internalType": "struct SnapshotProposalContract.ProposalPayload",
              "name": "payload",
              "type": "tuple"
            },
            {
              "internalType": "bytes",
              "name": "sig",
              "type": "bytes"
            }
          ],
          "internalType": "struct SnapshotProposalContract.ProposalMessage",
          "name": "message",
          "type": "tuple"
        }
      ],
      "name": "hashMessage",
      "outputs": [
        {
          "internalType": "bytes32",
          "name": "",
          "type": "bytes32"
        }
      ],
      "stateMutability": "view",
      "type": "function"
    },
    {
      "inputs": [
        {
          "components": [
            {
              "internalType": "uint256",
              "name": "timestamp",
              "type": "uint256"
            },
            {
              "internalType": "bytes32",
              "name": "spaceHash",
              "type": "bytes32"
            },
            {
              "internalType": "address",
              "name": "submitter",
              "type": "address"
            },
            {
              "components": [
                {
                  "internalType": "bytes32",
                  "name": "nameHash",
                  "type": "bytes32"
                },
                {
                  "internalType": "bytes32",
                  "name": "bodyHash",
                  "type": "bytes32"
                },
                {
                  "internalType": "string[]",
                  "name": "choices",
                  "type": "string[]"
                },
                {
                  "internalType": "uint256",
                  "name": "start",
                  "type": "uint256"
                },
                {
                  "internalType": "uint256",
                  "name": "end",
                  "type": "uint256"
                },
                {
                  "internalType": "string",
                  "name": "snapshot",
                  "type": "string"
                }
              ],
              "internalType": "struct SnapshotProposalContract.ProposalPayload",
              "name": "payload",
              "type": "tuple"
            },
            {
              "internalType": "bytes",
              "name": "sig",
              "type": "bytes"
            }
          ],
          "internalType": "struct SnapshotProposalContract.ProposalMessage",
          "name": "message",
          "type": "tuple"
        }
      ],
      "name": "hashProposalMessage",
      "outputs": [
        {
          "internalType": "bytes32",
          "name": "",
          "type": "bytes32"
        }
      ],
      "stateMutability": "pure",
      "type": "function"
    },
    {
      "inputs": [
        {
          "components": [
            {
              "internalType": "bytes32",
              "name": "nameHash",
              "type": "bytes32"
            },
            {
              "internalType": "bytes32",
              "name": "bodyHash",
              "type": "bytes32"
            },
            {
              "internalType": "string[]",
              "name": "choices",
              "type": "string[]"
            },
            {
              "internalType": "uint256",
              "name": "start",
              "type": "uint256"
            },
            {
              "internalType": "uint256",
              "name": "end",
              "type": "uint256"
            },
            {
              "internalType": "string",
              "name": "snapshot",
              "type": "string"
            }
          ],
          "internalType": "struct SnapshotProposalContract.ProposalPayload",
          "name": "payload",
          "type": "tuple"
        }
      ],
      "name": "hashProposalPayload",
      "outputs": [
        {
          "internalType": "bytes32",
          "name": "",
          "type": "bytes32"
        }
      ],
      "stateMutability": "pure",
      "type": "function"
    },
    {
      "inputs": [
        {
          "internalType": "contract DaoRegistry",
          "name": "dao",
          "type": "address"
        },
        {
          "internalType": "address",
          "name": "actionId",
          "type": "address"
        },
        {
          "components": [
            {
              "internalType": "uint256",
              "name": "timestamp",
              "type": "uint256"
            },
            {
              "components": [
                {
                  "internalType": "uint32",
                  "name": "choice",
                  "type": "uint32"
                },
                {
                  "internalType": "bytes32",
                  "name": "proposalId",
                  "type": "bytes32"
                }
              ],
              "internalType": "struct SnapshotProposalContract.VotePayload",
              "name": "payload",
              "type": "tuple"
            }
          ],
          "internalType": "struct SnapshotProposalContract.VoteMessage",
          "name": "message",
          "type": "tuple"
        }
      ],
      "name": "hashVote",
      "outputs": [
        {
          "internalType": "bytes32",
          "name": "",
          "type": "bytes32"
        }
      ],
      "stateMutability": "view",
      "type": "function"
    },
    {
      "inputs": [
        {
          "components": [
            {
              "internalType": "uint256",
              "name": "timestamp",
              "type": "uint256"
            },
            {
              "components": [
                {
                  "internalType": "uint32",
                  "name": "choice",
                  "type": "uint32"
                },
                {
                  "internalType": "bytes32",
                  "name": "proposalId",
                  "type": "bytes32"
                }
              ],
              "internalType": "struct SnapshotProposalContract.VotePayload",
              "name": "payload",
              "type": "tuple"
            }
          ],
          "internalType": "struct SnapshotProposalContract.VoteMessage",
          "name": "message",
          "type": "tuple"
        }
      ],
      "name": "hashVoteInternal",
      "outputs": [
        {
          "internalType": "bytes32",
          "name": "",
          "type": "bytes32"
        }
      ],
      "stateMutability": "pure",
      "type": "function"
    },
    {
      "inputs": [
        {
          "components": [
            {
              "internalType": "uint32",
              "name": "choice",
              "type": "uint32"
            },
            {
              "internalType": "bytes32",
              "name": "proposalId",
              "type": "bytes32"
            }
          ],
          "internalType": "struct SnapshotProposalContract.VotePayload",
          "name": "payload",
          "type": "tuple"
        }
      ],
      "name": "hashVotePayload",
      "outputs": [
        {
          "internalType": "bytes32",
          "name": "",
          "type": "bytes32"
        }
      ],
      "stateMutability": "pure",
      "type": "function"
    }
  ],
  "bytecode": "0x608060405234801561001057600080fd5b5060405161112338038061112383398101604081905261002f91610037565b60005561004f565b600060208284031215610048578081fd5b5051919050565b6110c58061005e6000396000f3fe608060405234801561001057600080fd5b50600436106101365760003560e01c80639a8a0592116100b2578063bb387d9c11610081578063e1b11da411610066578063e1b11da414610218578063ec6678b714610220578063fefbf7ce1461023357610136565b8063bb387d9c14610208578063c7977be71461021057610136565b80639a8a0592146101e85780639c953573146101f0578063a0e320f6146101f8578063b7b803781461020057610136565b80633ed14e46116101095780635c92fcbf116100ee5780635c92fcbf146101ba578063769b1cec146101cd578063938d8d21146101e057610136565b80633ed14e4614610194578063591e2371146101a757610136565b806307b47ae81461013b57806321c0bc49146101595780633084557f1461016e57806336b501c314610181575b600080fd5b61014361023b565b6040516101509190610d97565b60405180910390f35b610161610257565b6040516101509190610cd0565b61016161017c366004610af6565b610299565b61016161018f366004610c0b565b6102de565b6101616101a2366004610c2d565b610361565b6101616101b5366004610abe565b6103be565b6101616101c8366004610b9d565b610479565b6101616101db366004610bd8565b6104e4565b6101436105ad565b6101616105c9565b6101616105cf565b6101436105f8565b610161610614565b61014361063d565b610161610659565b610143610682565b61016161022e366004610b56565b61069e565b6101616106b3565b604051806080016040528060608152602001610e876060913981565b604051806080016040528060608152602001610e87606091396040516020016102809190610c7e565b6040516020818303038152906040528051906020012081565b60006102a584846103be565b6102ae83610479565b6040516020016102bf929190610c9a565b6040516020818303038152906040528051906020012090509392505050565b6000604051806080016040528060608152602001610e87606091396040516020016103099190610c7e565b6040516020818303038152906040528051906020012082600001516103318460200151610361565b60405160200161034393929190610d4a565b6040516020818303038152906040528051906020012090505b919050565b6000604051806060016040528060308152602001610ff66030913960405160200161038c9190610c7e565b604051602081830303815290604052805190602001208260000151836020015160405160200161034393929190610d7b565b60006040518060a0016040528060638152602001610ee7606391396040516020016103e99190610c7e565b604051602081830303815290604052805190602001207fe2ffb2e2c8bf0b9b360ecefb7de0735865e605d6ba933b6c7e12cee0e178c8bf7f13600b294191fc92924bb3ce4b969c1e7e2bab8f4c93c3fc6d0a51733df3c060600054868660405160200161045b96959493929190610d09565b60405160208183030381529060405280519060200120905092915050565b60006040518060e0016040528060ac8152602001610f4a60ac91396040516020016104a49190610c7e565b60405160208183030381529060405280519060200120826000015183602001516104d185606001516104e4565b6040516020016103439493929190610d60565b60006040518060a00160405280606a8152602001611026606a913960405160200161050f9190610c7e565b604051602081830303815290604052805190602001208260000151836020015161053c85604001516106dc565b60405160200161054c9190610c48565b60405160208183030381529060405280519060200120856060015186608001518760a001516040516020016105819190610c7e565b604051602081830303815290604052805190602001206040516020016103439796959493929190610cd9565b604051806060016040528060308152602001610ff66030913981565b60005481565b604051806060016040528060308152602001610ff6603091396040516020016102809190610c7e565b6040518060a00160405280606a8152602001611026606a913981565b6040518060a00160405280606a8152602001611026606a91396040516020016102809190610c7e565b6040518060e0016040528060ac8152602001610f4a60ac913981565b6040518060a0016040528060638152602001610ee7606391396040516020016102809190610c7e565b6040518060a0016040528060638152602001610ee76063913981565b60006106aa84846103be565b6102ae836102de565b6040518060e0016040528060ac8152602001610f4a60ac91396040516020016102809190610c7e565b6060815167ffffffffffffffff81111561070657634e487b7160e01b600052604160045260246000fd5b60405190808252806020026020018201604052801561072f578160200160208202803683370190505b50905060005b82518110156107c95782818151811061075e57634e487b7160e01b600052603260045260246000fd5b60200260200101516040516020016107769190610c7e565b604051602081830303815290604052805190602001208282815181106107ac57634e487b7160e01b600052603260045260246000fd5b6020908102919091010152806107c181610e24565b915050610735565b50919050565b803561035c81610e61565b600082601f8301126107ea578081fd5b8135602067ffffffffffffffff82111561080657610806610e4b565b6108138182840201610dca565b82815281810190858301855b8581101561084857610836898684358b0101610855565b8452928401929084019060010161081f565b5090979650505050505050565b600082601f830112610865578081fd5b813567ffffffffffffffff81111561087f5761087f610e4b565b610892601f8201601f1916602001610dca565b8181528460208386010111156108a6578283fd5b816020850160208301379081016020019190915292915050565b600060a082840312156108d1578081fd5b60405160a0810167ffffffffffffffff82821081831117156108f5576108f5610e4b565b816040528293508435835260208501356020840152610916604086016107cf565b6040840152606085013591508082111561092f57600080fd5b61093b8683870161096e565b6060840152608085013591508082111561095457600080fd5b5061096185828601610855565b6080830152505092915050565b600060c0828403121561097f578081fd5b61098960c0610dca565b90508135815260208201356020820152604082013567ffffffffffffffff808211156109b457600080fd5b6109c0858386016107da565b6040840152606084013560608401526080840135608084015260a08401359150808211156109ed57600080fd5b506109fa84828501610855565b60a08301525092915050565b600060608284031215610a17578081fd5b6040516040810181811067ffffffffffffffff82111715610a3a57610a3a610e4b565b60405282358152905080610a518460208501610a5d565b60208201525092915050565b600060408284031215610a6e578081fd5b6040516040810181811067ffffffffffffffff82111715610a9157610a91610e4b565b604052905080823563ffffffff81168114610aab57600080fd5b8152602092830135920191909152919050565b60008060408385031215610ad0578182fd5b8235610adb81610e61565b91506020830135610aeb81610e61565b809150509250929050565b600080600060608486031215610b0a578081fd5b8335610b1581610e61565b92506020840135610b2581610e61565b9150604084013567ffffffffffffffff811115610b40578182fd5b610b4c868287016108c0565b9150509250925092565b600080600060a08486031215610b6a578283fd5b8335610b7581610e61565b92506020840135610b8581610e61565b9150610b948560408601610a06565b90509250925092565b600060208284031215610bae578081fd5b813567ffffffffffffffff811115610bc4578182fd5b610bd0848285016108c0565b949350505050565b600060208284031215610be9578081fd5b813567ffffffffffffffff811115610bff578182fd5b610bd08482850161096e565b600060608284031215610c1c578081fd5b610c268383610a06565b9392505050565b600060408284031215610c3e578081fd5b610c268383610a5d565b815160009082906020808601845b83811015610c7257815185529382019390820190600101610c56565b50929695505050505050565b60008251610c90818460208701610df4565b9190910192915050565b7f190100000000000000000000000000000000000000000000000000000000000081526002810192909252602282015260420190565b90815260200190565b968752602087019590955260408601939093526060850191909152608084015260a083015260c082015260e00190565b95865260208601949094526040850192909252606084015273ffffffffffffffffffffffffffffffffffffffff90811660808401521660a082015260c00190565b9283526020830191909152604082015260600190565b93845260208401929092526040830152606082015260800190565b92835263ffffffff919091166020830152604082015260600190565b6000602082528251806020840152610db6816040850160208701610df4565b601f01601f19169190910160400192915050565b60405181810167ffffffffffffffff81118282101715610dec57610dec610e4b565b604052919050565b60005b83811015610e0f578181015183820152602001610df7565b83811115610e1e576000848401525b50505050565b6000600019821415610e4457634e487b7160e01b81526011600452602481fd5b5060010190565b634e487b7160e01b600052604160045260246000fd5b73ffffffffffffffffffffffffffffffffffffffff81168114610e8357600080fd5b5056fe4d6573736167652875696e7436342074696d657374616d702c4d6573736167655061796c6f6164207061796c6f6164294d6573736167655061796c6f61642875696e7433322063686f6963652c627974657333322070726f706f73616c496429454950373132446f6d61696e28737472696e67206e616d652c737472696e672076657273696f6e2c75696e7432353620636861696e49642c6164647265737320766572696679696e67436f6e74726163742c6164647265737320616374696f6e4964294d6573736167652875696e7436342074696d657374616d702c62797465733332207370616365486173682c4d6573736167655061796c6f6164207061796c6f6164294d6573736167655061796c6f61642862797465733332206e616d65486173682c6279746573333220626f6479486173682c737472696e675b5d2063686f696365732c75696e7436342073746172742c75696e74363420656e642c737472696e6720736e617073686f74294d6573736167655061796c6f61642875696e7433322063686f6963652c627974657333322070726f706f73616c4964294d6573736167655061796c6f61642862797465733332206e616d65486173682c6279746573333220626f6479486173682c737472696e675b5d2063686f696365732c75696e7436342073746172742c75696e74363420656e642c737472696e6720736e617073686f7429a2646970667358221220fdd7a5f3a2d3adca831055062f0afbe1a761e9b1a5973d157a97ca9d16f4ab2064736f6c63430008000033",
  "linkReferences": {},
  "deployedLinkReferences": {}
}