{
  "_format": "hh-sol-artifact-1",
  "contractName": "TestFairShareCalc",
  "sourceName": "build/sources/test/TestFairShareCalc.sol",
  "abi": [
    {
      "inputs": [
        {
          "internalType": "uint256",
          "name": "balance",
          "type": "uint256"
        },
        {
          "internalType": "uint256",
          "name": "units",
          "type": "uint256"
        },
        {
          "internalType": "uint256",
          "name": "totalUnits",
          "type": "uint256"
        }
      ],
      "name": "calculate",
      "outputs": [
        {
          "internalType": "uint256",
          "name": "",
          "type": "uint256"
        }
      ],
      "stateMutability": "pure",
      "type": "function"
    }
  ],
  "bytecode": "0x608060405234801561001057600080fd5b50610257806100206000396000f3fe608060405234801561001057600080fd5b506004361061002b5760003560e01c8063e97cf88314610030575b600080fd5b61004361003e3660046100e8565b610059565b60405161005091906101cd565b60405180910390f35b6000610066848484610070565b90505b9392505050565b600080821161009a5760405162461bcd60e51b815260040161009190610113565b60405180910390fd5b818311156100ba5760405162461bcd60e51b815260040161009190610170565b836100c757506000610069565b60006100d384866101f6565b90506100df83826101d6565b95945050505050565b6000806000606084860312156100fc578283fd5b505081359360208301359350604090920135919050565b60208082526021908201527f746f74616c556e697473206d7573742062652067726561746572207468616e2060408201527f3000000000000000000000000000000000000000000000000000000000000000606082015260800190565b6020808252602e908201527f756e697473206d757374206265206c657373207468616e206f7220657175616c60408201527f20746f20746f74616c556e697473000000000000000000000000000000000000606082015260800190565b90815260200190565b6000826101f157634e487b7160e01b81526012600452602481fd5b500490565b600081600019048311821515161561021c57634e487b7160e01b81526011600452602481fd5b50029056fea264697066735822122085c48db9d27a855eb9f292ba5a493a2af26a54795179d346404653cc2e6eff5264736f6c63430008000033",
  "linkReferences": {},
  "deployedLinkReferences": {}
}