{
  "_format": "hh-sol-artifact-1",
  "contractName": "TributeNFTContract",
  "sourceName": "build/sources/adapters/TributeNFT.sol",
  "abi": [
    {
      "inputs": [
        {
          "internalType": "contract DaoRegistry",
          "name": "dao",
          "type": "address"
        }
      ],
      "name": "configureDao",
      "outputs": [],
      "stateMutability": "nonpayable",
      "type": "function"
    },
    {
      "inputs": [
        {
          "internalType": "uint256",
          "name": "flags",
          "type": "uint256"
        },
        {
          "internalType": "uint256",
          "name": "flag",
          "type": "uint256"
        }
      ],
      "name": "getFlag",
      "outputs": [
        {
          "internalType": "bool",
          "name": "",
          "type": "bool"
        }
      ],
      "stateMutability": "pure",
      "type": "function"
    },
    {
      "inputs": [
        {
          "internalType": "contract DaoRegistry",
          "name": "dao",
          "type": "address"
        },
        {
          "internalType": "address",
          "name": "_addr",
          "type": "address"
        }
      ],
      "name": "isActiveMember",
      "outputs": [
        {
          "internalType": "bool",
          "name": "",
          "type": "bool"
        }
      ],
      "stateMutability": "view",
      "type": "function"
    },
    {
      "inputs": [
        {
          "internalType": "address",
          "name": "addr",
          "type": "address"
        }
      ],
      "name": "isNotReservedAddress",
      "outputs": [
        {
          "internalType": "bool",
          "name": "",
          "type": "bool"
        }
      ],
      "stateMutability": "pure",
      "type": "function"
    },
    {
      "inputs": [
        {
          "internalType": "address",
          "name": "addr",
          "type": "address"
        }
      ],
      "name": "isNotZeroAddress",
      "outputs": [
        {
          "internalType": "bool",
          "name": "",
          "type": "bool"
        }
      ],
      "stateMutability": "pure",
      "type": "function"
    },
    {
      "inputs": [
        {
          "internalType": "address",
          "name": "",
          "type": "address"
        },
        {
          "internalType": "address",
          "name": "",
          "type": "address"
        },
        {
          "internalType": "uint256[]",
          "name": "",
          "type": "uint256[]"
        },
        {
          "internalType": "uint256[]",
          "name": "",
          "type": "uint256[]"
        },
        {
          "internalType": "bytes",
          "name": "",
          "type": "bytes"
        }
      ],
      "name": "onERC1155BatchReceived",
      "outputs": [
        {
          "internalType": "bytes4",
          "name": "",
          "type": "bytes4"
        }
      ],
      "stateMutability": "pure",
      "type": "function"
    },
    {
      "inputs": [
        {
          "internalType": "address",
          "name": "",
          "type": "address"
        },
        {
          "internalType": "address",
          "name": "from",
          "type": "address"
        },
        {
          "internalType": "uint256",
          "name": "id",
          "type": "uint256"
        },
        {
          "internalType": "uint256",
          "name": "value",
          "type": "uint256"
        },
        {
          "internalType": "bytes",
          "name": "data",
          "type": "bytes"
        }
      ],
      "name": "onERC1155Received",
      "outputs": [
        {
          "internalType": "bytes4",
          "name": "",
          "type": "bytes4"
        }
      ],
      "stateMutability": "nonpayable",
      "type": "function"
    },
    {
      "inputs": [
        {
          "internalType": "address",
          "name": "",
          "type": "address"
        },
        {
          "internalType": "address",
          "name": "from",
          "type": "address"
        },
        {
          "internalType": "uint256",
          "name": "tokenId",
          "type": "uint256"
        },
        {
          "internalType": "bytes",
          "name": "data",
          "type": "bytes"
        }
      ],
      "name": "onERC721Received",
      "outputs": [
        {
          "internalType": "bytes4",
          "name": "",
          "type": "bytes4"
        }
      ],
      "stateMutability": "nonpayable",
      "type": "function"
    },
    {
      "inputs": [
        {
          "internalType": "address",
          "name": "memberAddress",
          "type": "address"
        },
        {
          "internalType": "contract DaoRegistry",
          "name": "dao",
          "type": "address"
        },
        {
          "internalType": "contract BankExtension",
          "name": "bank",
          "type": "address"
        }
      ],
      "name": "potentialNewMember",
      "outputs": [],
      "stateMutability": "nonpayable",
      "type": "function"
    },
    {
      "inputs": [
        {
          "internalType": "address",
          "name": "",
          "type": "address"
        },
        {
          "internalType": "bytes32",
          "name": "",
          "type": "bytes32"
        }
      ],
      "name": "proposals",
      "outputs": [
        {
          "internalType": "bytes32",
          "name": "id",
          "type": "bytes32"
        },
        {
          "internalType": "address",
          "name": "applicant",
          "type": "address"
        },
        {
          "internalType": "address",
          "name": "nftAddr",
          "type": "address"
        },
        {
          "internalType": "uint256",
          "name": "nftTokenId",
          "type": "uint256"
        },
        {
          "internalType": "uint256",
          "name": "requestAmount",
          "type": "uint256"
        }
      ],
      "stateMutability": "view",
      "type": "function"
    },
    {
      "inputs": [
        {
          "internalType": "uint256",
          "name": "flags",
          "type": "uint256"
        },
        {
          "internalType": "uint256",
          "name": "flag",
          "type": "uint256"
        },
        {
          "internalType": "bool",
          "name": "value",
          "type": "bool"
        }
      ],
      "name": "setFlag",
      "outputs": [
        {
          "internalType": "uint256",
          "name": "",
          "type": "uint256"
        }
      ],
      "stateMutability": "pure",
      "type": "function"
    },
    {
      "inputs": [
        {
          "internalType": "contract DaoRegistry",
          "name": "dao",
          "type": "address"
        },
        {
          "internalType": "bytes32",
          "name": "proposalId",
          "type": "bytes32"
        },
        {
          "internalType": "address",
          "name": "applicant",
          "type": "address"
        },
        {
          "internalType": "address",
          "name": "nftAddr",
          "type": "address"
        },
        {
          "internalType": "uint256",
          "name": "nftTokenId",
          "type": "uint256"
        },
        {
          "internalType": "uint256",
          "name": "requestAmount",
          "type": "uint256"
        },
        {
          "internalType": "bytes",
          "name": "data",
          "type": "bytes"
        }
      ],
      "name": "submitProposal",
      "outputs": [],
      "stateMutability": "nonpayable",
      "type": "function"
    },
    {
      "inputs": [
        {
          "internalType": "bytes4",
          "name": "interfaceID",
          "type": "bytes4"
        }
      ],
      "name": "supportsInterface",
      "outputs": [
        {
          "internalType": "bool",
          "name": "",
          "type": "bool"
        }
      ],
      "stateMutability": "pure",
      "type": "function"
    },
    {
      "stateMutability": "payable",
      "type": "receive"
    }
  ],
  "bytecode": "0x608060405234801561001057600080fd5b50612afb806100206000396000f3fe6080604052600436106100d65760003560e01c8063ae3f01501161007f578063ca0f463311610059578063ca0f463314610264578063ef6a249914610284578063f23a6e61146102a4578063fc258031146102c4576100fc565b8063ae3f0150146101f7578063b244a41d14610217578063bc197c8114610244576100fc565b806386c17fd5116100b057806386c17fd5146101955780638ecf7720146101b75780639f2a360b146101d7576100fc565b806301ffc9a714610101578063150b7a02146101375780635cb7527614610164576100fc565b366100fc5760405162461bcd60e51b81526004016100f39061280f565b60405180910390fd5b600080fd5b34801561010d57600080fd5b5061012161011c36600461218d565b6102e4565b60405161012e91906124bb565b60405180910390f35b34801561014357600080fd5b50610157610152366004612011565b61034f565b60405161012e919061254f565b34801561017057600080fd5b5061018461017f3660046120fc565b61076e565b60405161012e9594939291906124ee565b3480156101a157600080fd5b506101b56101b0366004612127565b6107b1565b005b3480156101c357600080fd5b506101216101d23660046121b5565b610972565b3480156101e357600080fd5b506101b56101f23660046121ed565b610bd6565b34801561020357600080fd5b506101b5610212366004611f1e565b611178565b34801561022357600080fd5b506102376102323660046123a0565b6113a4565b60405161012e91906124c6565b34801561025057600080fd5b5061015761025f366004611f56565b611400565b34801561027057600080fd5b5061012161027f366004611f1e565b61141a565b34801561029057600080fd5b5061012161029f366004611f1e565b611428565b3480156102b057600080fd5b506101576102bf366004612082565b611469565b3480156102d057600080fd5b506101216102df36600461237f565b6117c8565b60006001600160e01b031982167f01ffc9a700000000000000000000000000000000000000000000000000000000148061032e57506001600160e01b0319821663f23a6e6160e01b145b8061034957506001600160e01b03198216630a85bd0160e11b145b92915050565b60008061035e83850185612310565b90504381600001516001600160a01b031663b21634826040518163ffffffff1660e01b815260040160206040518083038186803b15801561039e57600080fd5b505afa1580156103b2573d6000803e3d6000fd5b505050506040513d601f19601f820116820180604052508101906103d69190612367565b14156103f45760405162461bcd60e51b81526004016100f390612642565b80600001516001600160a01b03166310fdb0a26040518163ffffffff1660e01b8152600401600060405180830381600087803b15801561043357600080fd5b505af1158015610447573d6000803e3d6000fd5b50505050600080610460836000015184602001516117e5565b91509150868260030154146104875760405162461bcd60e51b81526004016100f3906128b4565b60028201546001600160a01b031633146104b35760405162461bcd60e51b81526004016100f39061271e565b3360028260058111156104d657634e487b7160e01b600052602160045260246000fd5b1415610685578351604051632c9f4b5b60e11b81526000916001600160a01b03169063593e96b69061052c907f7dd481eb4b63b94bb55e6b98aabb06c3b8484f82a4d656d6bca0b0cf9b446be0906004016124c6565b60206040518083038186803b15801561054457600080fd5b505afa158015610558573d6000803e3d6000fd5b505050506040513d601f19601f8201168201806040525081019061057c9190611f3a565b60038501546040517f095ea7b30000000000000000000000000000000000000000000000000000000081529192506001600160a01b0384169163095ea7b3916105ca918591906004016124a2565b600060405180830381600087803b1580156105e457600080fd5b505af11580156105f8573d6000803e3d6000fd5b505050600285015460038601546040517f6b8357ac0000000000000000000000000000000000000000000000000000000081526001600160a01b038086169450636b8357ac9361064d939116916004016124a2565b600060405180830381600087803b15801561066757600080fd5b505af115801561067b573d6000803e3d6000fd5b5050505050610701565b6040517f42842e0e0000000000000000000000000000000000000000000000000000000081526001600160a01b038216906342842e0e906106ce9030908d908d90600401612446565b600060405180830381600087803b1580156106e857600080fd5b505af11580156106fc573d6000803e3d6000fd5b505050505b83600001516001600160a01b031663d4f7af436040518163ffffffff1660e01b8152600401600060405180830381600087803b15801561074057600080fd5b505af1158015610754573d6000803e3d6000fd5b50630a85bd0160e11b9d9c50505050505050505050505050565b60006020818152928152604080822090935290815220805460018201546002830154600384015460049094015492936001600160a01b0392831693929091169185565b6040517fdc929f4a0000000000000000000000000000000000000000000000000000000081526001600160a01b0383169063dc929f4a906107f6908690600401612418565b600060405180830381600087803b15801561081057600080fd5b505af1158015610824573d6000803e3d6000fd5b505050506001600160a01b03831661084e5760405162461bcd60e51b81526004016100f39061260b565b6001600160a01b0381161561096d576040517ff7888aec0000000000000000000000000000000000000000000000000000000081526001600160a01b0382169063f7888aec906108a890869063decafbad9060040161242c565b60206040518083038186803b1580156108c057600080fd5b505afa1580156108d4573d6000803e3d6000fd5b505050506040513d601f19601f820116820180604052508101906108f89190611f3a565b6001600160a01b031661096d5760405163c57d5fe960e01b81526001600160a01b0382169063c57d5fe99061093a90869063decafbad90600190600401612446565b600060405180830381600087803b15801561095457600080fd5b505af1158015610968573d6000803e3d6000fd5b505050505b505050565b600080836001600160a01b031663fefbd8757fea0ca03c7adbe41dc655fec28a9209dc8e6e042f3d991a67765ba285b9cf73a06040518263ffffffff1660e01b81526004016109c191906124c6565b60206040518083038186803b1580156109d957600080fd5b505afa1580156109ed573d6000803e3d6000fd5b505050506040513d601f19601f82011682018060405250810190610a119190611f3a565b90506001600160a01b03811615610b52576040517fc89bb8ba0000000000000000000000000000000000000000000000000000000081526000906001600160a01b0386169063c89bb8ba90610a6a908790600401612418565b60206040518083038186803b158015610a8257600080fd5b505afa158015610a96573d6000803e3d6000fd5b505050506040513d601f19601f82011682018060405250810190610aba9190611f3a565b90506000826001600160a01b031663f7888aec83620ff1ce6040518363ffffffff1660e01b8152600401610aef92919061242c565b60206040518083038186803b158015610b0757600080fd5b505afa158015610b1b573d6000803e3d6000fd5b505050506040513d601f19601f82011682018060405250810190610b3f9190611f3a565b6001600160a01b03161192505050610349565b60405163288c314960e21b81526001600160a01b0385169063a230c52490610b7e908690600401612418565b60206040518083038186803b158015610b9657600080fd5b505afa158015610baa573d6000803e3d6000fd5b505050506040513d601f19601f82011682018060405250810190610bce9190612171565b949350505050565b8643816001600160a01b031663b21634826040518163ffffffff1660e01b815260040160206040518083038186803b158015610c1157600080fd5b505afa158015610c25573d6000803e3d6000fd5b505050506040513d601f19601f82011682018060405250810190610c499190612367565b1415610c675760405162461bcd60e51b81526004016100f390612642565b806001600160a01b03166310fdb0a26040518163ffffffff1660e01b8152600401600060405180830381600087803b158015610ca257600080fd5b505af1158015610cb6573d6000803e3d6000fd5b50505050610cc386611428565b610cdf5760405162461bcd60e51b81526004016100f3906125d4565b6040517fb73dc3890000000000000000000000000000000000000000000000000000000081526001600160a01b0389169063b73dc38990610d24908a906004016124c6565b600060405180830381600087803b158015610d3e57600080fd5b505af1158015610d52573d6000803e3d6000fd5b50506040517f17ba7d85000000000000000000000000000000000000000000000000000000008152600092506001600160a01b038b1691506317ba7d8590610dbe907f0e49311626a26ba5be58a3b13d239908e80ce0dffdd5c50bf1d9c82ff35d1ab3906004016124c6565b60206040518083038186803b158015610dd657600080fd5b505afa158015610dea573d6000803e3d6000fd5b505050506040513d601f19601f82011682018060405250810190610e0e9190611f3a565b90506000816001600160a01b031663966917d08b3087336040518563ffffffff1660e01b8152600401610e449493929190612564565b602060405180830381600087803b158015610e5e57600080fd5b505af1158015610e72573d6000803e3d6000fd5b505050506040513d601f19601f82011682018060405250810190610e969190611f3a565b6040517f896ae9ba0000000000000000000000000000000000000000000000000000000081529091506001600160a01b038b169063896ae9ba90610ee2908c90859087906004016124cf565b600060405180830381600087803b158015610efc57600080fd5b505af1158015610f10573d6000803e3d6000fd5b50505050610fb5888b8c6001600160a01b031663593e96b67fea0ca03c7adbe41dc655fec28a9209dc8e6e042f3d991a67765ba285b9cf73a06040518263ffffffff1660e01b8152600401610f6591906124c6565b60206040518083038186803b158015610f7d57600080fd5b505afa158015610f91573d6000803e3d6000fd5b505050506040513d601f19601f820116820180604052508101906101b09190611f3a565b6040517f2b0974d00000000000000000000000000000000000000000000000000000000081526001600160a01b03831690632b0974d090610ffe908d908d9089906004016125a3565b600060405180830381600087803b15801561101857600080fd5b505af115801561102c573d6000803e3d6000fd5b505050506040518060a001604052808a8152602001896001600160a01b03168152602001886001600160a01b03168152602001878152602001868152506000808c6001600160a01b03166001600160a01b0316815260200190815260200160002060008b81526020019081526020016000206000820151816000015560208201518160010160006101000a8154816001600160a01b0302191690836001600160a01b0316021790555060408201518160020160006101000a8154816001600160a01b0302191690836001600160a01b0316021790555060608201518160030155608082015181600401559050505050806001600160a01b031663d4f7af436040518163ffffffff1660e01b8152600401600060405180830381600087803b15801561115657600080fd5b505af115801561116a573d6000803e3d6000fd5b505050505050505050505050565b806000816001600160a01b031663c19d93fb6040518163ffffffff1660e01b815260040160206040518083038186803b1580156111b457600080fd5b505afa1580156111c8573d6000803e3d6000fd5b505050506040513d601f19601f820116820180604052508101906111ec91906122d2565b600181111561120b57634e487b7160e01b600052602160045260246000fd5b14801561121c575061121c81611d24565b8061129e57506040516368c18beb60e01b81526001600160a01b038216906368c18beb9061124e903390600401612418565b60206040518083038186803b15801561126657600080fd5b505afa15801561127a573d6000803e3d6000fd5b505050506040513d601f19601f8201168201806040525081019061129e9190612171565b6112ba5760405162461bcd60e51b81526004016100f39061287d565b604051632c9f4b5b60e11b81526000906001600160a01b0384169063593e96b690611309907fea0ca03c7adbe41dc655fec28a9209dc8e6e042f3d991a67765ba285b9cf73a0906004016124c6565b60206040518083038186803b15801561132157600080fd5b505afa158015611335573d6000803e3d6000fd5b505050506040513d601f19601f820116820180604052508101906113599190611f3a565b6040517ff7e15acf0000000000000000000000000000000000000000000000000000000081529091506001600160a01b0382169063f7e15acf9061093a90620ff1ce90600401612418565b60008115156113b385856117c8565b1515146113f65781156113dc576113cb836002612973565b6113d59085612915565b90506113f9565b6113e7836002612973565b6113d59085612a3c565b6113f9565b50825b9392505050565b600060405162461bcd60e51b81526004016100f3906126e7565b6001600160a01b0316151590565b60006001600160a01b03821661dead1480159061145057506001600160a01b03821661babe14155b80156103495750506001600160a01b0316614bec141590565b60008061147883850185612310565b90504381600001516001600160a01b031663b21634826040518163ffffffff1660e01b815260040160206040518083038186803b1580156114b857600080fd5b505afa1580156114cc573d6000803e3d6000fd5b505050506040513d601f19601f820116820180604052508101906114f09190612367565b141561150e5760405162461bcd60e51b81526004016100f390612642565b80600001516001600160a01b03166310fdb0a26040518163ffffffff1660e01b8152600401600060405180830381600087803b15801561154d57600080fd5b505af1158015611561573d6000803e3d6000fd5b5050505060008061157a836000015184602001516117e5565b91509150878260030154146115a15760405162461bcd60e51b81526004016100f3906128b4565b60028201546001600160a01b031633146115cd5760405162461bcd60e51b81526004016100f39061271e565b60028160058111156115ef57634e487b7160e01b600052602160045260246000fd5b14156116fc578251604051632c9f4b5b60e11b81526000916001600160a01b03169063593e96b690611645907f38a57c12f369d37609a339de2f7bfc1ada61e073ae7c75a85c930af9dbe7202b906004016124c6565b60206040518083038186803b15801561165d57600080fd5b505afa158015611671573d6000803e3d6000fd5b505050506040513d601f19601f820116820180604052508101906116959190611f3a565b604051637921219560e11b81529091503390819063f242432a906116c390309086908f908f9060040161246a565b600060405180830381600087803b1580156116dd57600080fd5b505af11580156116f1573d6000803e3d6000fd5b50505050505061175b565b604051637921219560e11b81523390819063f242432a906117279030908e908e908e9060040161246a565b600060405180830381600087803b15801561174157600080fd5b505af1158015611755573d6000803e3d6000fd5b50505050505b82600001516001600160a01b031663d4f7af436040518163ffffffff1660e01b8152600401600060405180830381600087803b15801561179a57600080fd5b505af11580156117ae573d6000803e3d6000fd5b5063f23a6e6160e01b9d9c50505050505050505050505050565b60006117db600260ff841685901c612a53565b6001149392505050565b6001600160a01b0382166000908152602081815260408083208484529091528120805490919083146118295760405162461bcd60e51b81526004016100f390612679565b6040517ff941f6910000000000000000000000000000000000000000000000000000000081526001600160a01b0385169063f941f6919061187190869060029060040161251d565b60206040518083038186803b15801561188957600080fd5b505afa15801561189d573d6000803e3d6000fd5b505050506040513d601f19601f820116820180604052508101906118c19190612171565b156118de5760405162461bcd60e51b81526004016100f3906126b0565b6040517f40de703e0000000000000000000000000000000000000000000000000000000081526000906001600160a01b038616906340de703e906119269087906004016124c6565b60206040518083038186803b15801561193e57600080fd5b505afa158015611952573d6000803e3d6000fd5b505050506040513d601f19601f820116820180604052508101906119769190611f3a565b90506001600160a01b03811661199e5760405162461bcd60e51b81526004016100f390612846565b6040517f76225e730000000000000000000000000000000000000000000000000000000081526001600160a01b038216906376225e73906119e590889088906004016124a2565b602060405180830381600087803b1580156119ff57600080fd5b505af1158015611a13573d6000803e3d6000fd5b505050506040513d601f19601f82011682018060405250810190611a3791906122f1565b6040517f30490e910000000000000000000000000000000000000000000000000000000081529092506001600160a01b038616906330490e9190611a7f9087906004016124c6565b600060405180830381600087803b158015611a9957600080fd5b505af1158015611aad573d6000803e3d6000fd5b5060029250611aba915050565b826005811115611ada57634e487b7160e01b600052602160045260246000fd5b1415611cad57604051632c9f4b5b60e11b81526000906001600160a01b0387169063593e96b690611b2f907fea0ca03c7adbe41dc655fec28a9209dc8e6e042f3d991a67765ba285b9cf73a0906004016124c6565b60206040518083038186803b158015611b4757600080fd5b505afa158015611b5b573d6000803e3d6000fd5b505050506040513d601f19601f82011682018060405250810190611b7f9190611f3a565b6040517f14a332160000000000000000000000000000000000000000000000000000000081529091506001600160a01b038216906314a3321690611bca90620ff1ce90600401612418565b60206040518083038186803b158015611be257600080fd5b505afa158015611bf6573d6000803e3d6000fd5b505050506040513d601f19601f82011682018060405250810190611c1a9190612171565b611c365760405162461bcd60e51b81526004016100f3906127b2565b600184015460048086015460405163c57d5fe960e01b81526001600160a01b038086169463c57d5fe994611c74949190921692620ff1ce9201612446565b600060405180830381600087803b158015611c8e57600080fd5b505af1158015611ca2573d6000803e3d6000fd5b505050505050611d1d565b6003826005811115611ccf57634e487b7160e01b600052602160045260246000fd5b1480611cfa57506001826005811115611cf857634e487b7160e01b600052602160045260246000fd5b145b15611d055750611d1d565b60405162461bcd60e51b81526004016100f390612755565b9250929050565b6000816001600160a01b031663c67143666040518163ffffffff1660e01b815260040160206040518083038186803b158015611d5f57600080fd5b505afa158015611d73573d6000803e3d6000fd5b505050506040513d601f19601f82011682018060405250810190611d979190612367565b1580611e1a575060405163288c314960e21b81526001600160a01b0383169063a230c52490611dca903390600401612418565b60206040518083038186803b158015611de257600080fd5b505afa158015611df6573d6000803e3d6000fd5b505050506040513d601f19601f82011682018060405250810190611e1a9190612171565b8061034957506040516368c18beb60e01b81526001600160a01b038316906368c18beb90611e4c903390600401612418565b60206040518083038186803b158015611e6457600080fd5b505afa158015611e78573d6000803e3d6000fd5b505050506040513d601f19601f820116820180604052508101906103499190612171565b60008083601f840112611ead578081fd5b50813567ffffffffffffffff811115611ec4578182fd5b6020830191508360208083028501011115611d1d57600080fd5b60008083601f840112611eef578182fd5b50813567ffffffffffffffff811115611f06578182fd5b602083019150836020828501011115611d1d57600080fd5b600060208284031215611f2f578081fd5b81356113f981612a9f565b600060208284031215611f4b578081fd5b81516113f981612a9f565b60008060008060008060008060a0898b031215611f71578384fd5b8835611f7c81612a9f565b97506020890135611f8c81612a9f565b9650604089013567ffffffffffffffff80821115611fa8578586fd5b611fb48c838d01611e9c565b909850965060608b0135915080821115611fcc578586fd5b611fd88c838d01611e9c565b909650945060808b0135915080821115611ff0578384fd5b50611ffd8b828c01611ede565b999c989b5096995094979396929594505050565b600080600080600060808688031215612028578081fd5b853561203381612a9f565b9450602086013561204381612a9f565b935060408601359250606086013567ffffffffffffffff811115612065578182fd5b61207188828901611ede565b969995985093965092949392505050565b60008060008060008060a0878903121561209a578182fd5b86356120a581612a9f565b955060208701356120b581612a9f565b94506040870135935060608701359250608087013567ffffffffffffffff8111156120de578283fd5b6120ea89828a01611ede565b979a9699509497509295939492505050565b6000806040838503121561210e578182fd5b823561211981612a9f565b946020939093013593505050565b60008060006060848603121561213b578081fd5b833561214681612a9f565b9250602084013561215681612a9f565b9150604084013561216681612a9f565b809150509250925092565b600060208284031215612182578081fd5b81516113f981612ab7565b60006020828403121561219e578081fd5b81356001600160e01b0319811681146113f9578182fd5b600080604083850312156121c7578182fd5b82356121d281612a9f565b915060208301356121e281612a9f565b809150509250929050565b600080600080600080600060e0888a031215612207578081fd5b873561221281612a9f565b96506020888101359650604089013561222a81612a9f565b9550606089013561223a81612a9f565b94506080890135935060a0890135925060c089013567ffffffffffffffff80821115612264578384fd5b818b0191508b601f830112612277578384fd5b81358181111561228957612289612a89565b61229b601f8201601f191685016128eb565b91508082528c848285010111156122b0578485fd5b8084840185840137848482840101525080935050505092959891949750929550565b6000602082840312156122e3578081fd5b8151600281106113f9578182fd5b600060208284031215612302578081fd5b8151600681106113f9578182fd5b600060408284031215612321578081fd5b6040516040810181811067ffffffffffffffff8211171561234457612344612a89565b604052823561235281612a9f565b81526020928301359281019290925250919050565b600060208284031215612378578081fd5b5051919050565b60008060408385031215612391578182fd5b50508035926020909101359150565b6000806000606084860312156123b4578081fd5b8335925060208401359150604084013561216681612ab7565b60008151808452815b818110156123f2576020818501810151868301820152016123d6565b818111156124035782602083870101525b50601f01601f19169290920160200192915050565b6001600160a01b0391909116815260200190565b6001600160a01b0392831681529116602082015260400190565b6001600160a01b039384168152919092166020820152604081019190915260600190565b6001600160a01b0394851681529290931660208301526040820152606081019190915260a06080820181905260009082015260c00190565b6001600160a01b03929092168252602082015260400190565b901515815260200190565b90815260200190565b9283526001600160a01b03918216602084015216604082015260600190565b9485526001600160a01b0393841660208601529190921660408401526060830191909152608082015260a00190565b828152604081016003831061254257634e487b7160e01b600052602160045260246000fd5b8260208301529392505050565b6001600160e01b031991909116815260200190565b60006001600160a01b03808716835280861660208401526080604084015261258f60808401866123cd565b915080841660608401525095945050505050565b60006001600160a01b0385168252836020830152606060408301526125cb60608301846123cd565b95945050505050565b6020808252601d908201527f6170706c6963616e742069732072657365727665642061646472657373000000604082015260600190565b60208082526016908201527f696e76616c6964206d656d626572206164647265737300000000000000000000604082015260600190565b60208082526010908201527f7265656e7472616e637920677561726400000000000000000000000000000000604082015260600190565b60208082526017908201527f70726f706f73616c20646f6573206e6f74206578697374000000000000000000604082015260600190565b6020808252601a908201527f70726f706f73616c20616c72656164792070726f636573736564000000000000604082015260600190565b6020808252600d908201527f6e6f7420737570706f7274656400000000000000000000000000000000000000604082015260600190565b6020808252600e908201527f77726f6e67204e46542061646472000000000000000000000000000000000000604082015260600190565b60208082526022908201527f70726f706f73616c20686173206e6f74206265656e20766f746564206f6e207960408201527f6574000000000000000000000000000000000000000000000000000000000000606082015260800190565b60208082526024908201527f554e49545320746f6b656e206973206e6f7420616e20696e7465726e616c207460408201527f6f6b656e00000000000000000000000000000000000000000000000000000000606082015260800190565b6020808252600f908201527f66616c6c6261636b207265766572740000000000000000000000000000000000604082015260600190565b60208082526011908201527f61646170746572206e6f7420666f756e64000000000000000000000000000000604082015260600190565b6020808252600b908201527f6f6e6c7941646170746572000000000000000000000000000000000000000000604082015260600190565b60208082526009908201527f77726f6e67204e46540000000000000000000000000000000000000000000000604082015260600190565b60405181810167ffffffffffffffff8111828210171561290d5761290d612a89565b604052919050565b6000821982111561292857612928612a73565b500190565b80825b600180861161293f575061296a565b81870482111561295157612951612a73565b8086161561295e57918102915b9490941c938002612930565b94509492505050565b60006113f9600019848460008261298c575060016113f9565b81612999575060006113f9565b81600181146129af57600281146129b9576129e6565b60019150506113f9565b60ff8411156129ca576129ca612a73565b6001841b9150848211156129e0576129e0612a73565b506113f9565b5060208310610133831016604e8410600b8410161715612a14575081810a838111156113f1576113f1612a73565b612a21848484600161292d565b808604821115612a3357612a33612a73565b02949350505050565b600082821015612a4e57612a4e612a73565b500390565b600082612a6e57634e487b7160e01b81526012600452602481fd5b500690565b634e487b7160e01b600052601160045260246000fd5b634e487b7160e01b600052604160045260246000fd5b6001600160a01b0381168114612ab457600080fd5b50565b8015158114612ab457600080fdfea26469706673582212209db6fc0183c64de312bc46c4d860c057fbf2b7ab0cd329f0171a713a6abbfed064736f6c63430008000033",
  "linkReferences": {},
  "deployedLinkReferences": {}
}