{
  "_format": "hh-sol-artifact-1",
  "contractName": "TributeContract",
  "sourceName": "build/sources/adapters/Tribute.sol",
  "abi": [
    {
      "inputs": [
        {
          "internalType": "contract DaoRegistry",
          "name": "dao",
          "type": "address"
        },
        {
          "internalType": "address",
          "name": "tokenAddrToMint",
          "type": "address"
        }
      ],
      "name": "configureDao",
      "outputs": [],
      "stateMutability": "nonpayable",
      "type": "function"
    },
    {
      "inputs": [
        {
          "internalType": "uint256",
          "name": "flags",
          "type": "uint256"
        },
        {
          "internalType": "uint256",
          "name": "flag",
          "type": "uint256"
        }
      ],
      "name": "getFlag",
      "outputs": [
        {
          "internalType": "bool",
          "name": "",
          "type": "bool"
        }
      ],
      "stateMutability": "pure",
      "type": "function"
    },
    {
      "inputs": [
        {
          "internalType": "contract DaoRegistry",
          "name": "dao",
          "type": "address"
        },
        {
          "internalType": "address",
          "name": "_addr",
          "type": "address"
        }
      ],
      "name": "isActiveMember",
      "outputs": [
        {
          "internalType": "bool",
          "name": "",
          "type": "bool"
        }
      ],
      "stateMutability": "view",
      "type": "function"
    },
    {
      "inputs": [
        {
          "internalType": "address",
          "name": "addr",
          "type": "address"
        }
      ],
      "name": "isNotReservedAddress",
      "outputs": [
        {
          "internalType": "bool",
          "name": "",
          "type": "bool"
        }
      ],
      "stateMutability": "pure",
      "type": "function"
    },
    {
      "inputs": [
        {
          "internalType": "address",
          "name": "addr",
          "type": "address"
        }
      ],
      "name": "isNotZeroAddress",
      "outputs": [
        {
          "internalType": "bool",
          "name": "",
          "type": "bool"
        }
      ],
      "stateMutability": "pure",
      "type": "function"
    },
    {
      "inputs": [
        {
          "internalType": "address",
          "name": "memberAddress",
          "type": "address"
        },
        {
          "internalType": "contract DaoRegistry",
          "name": "dao",
          "type": "address"
        },
        {
          "internalType": "contract BankExtension",
          "name": "bank",
          "type": "address"
        }
      ],
      "name": "potentialNewMember",
      "outputs": [],
      "stateMutability": "nonpayable",
      "type": "function"
    },
    {
      "inputs": [
        {
          "internalType": "contract DaoRegistry",
          "name": "dao",
          "type": "address"
        },
        {
          "internalType": "bytes32",
          "name": "proposalId",
          "type": "bytes32"
        }
      ],
      "name": "processProposal",
      "outputs": [],
      "stateMutability": "nonpayable",
      "type": "function"
    },
    {
      "inputs": [
        {
          "internalType": "address",
          "name": "",
          "type": "address"
        },
        {
          "internalType": "bytes32",
          "name": "",
          "type": "bytes32"
        }
      ],
      "name": "proposals",
      "outputs": [
        {
          "internalType": "bytes32",
          "name": "id",
          "type": "bytes32"
        },
        {
          "internalType": "address",
          "name": "applicant",
          "type": "address"
        },
        {
          "internalType": "address",
          "name": "tokenToMint",
          "type": "address"
        },
        {
          "internalType": "uint256",
          "name": "requestAmount",
          "type": "uint256"
        },
        {
          "internalType": "address",
          "name": "token",
          "type": "address"
        },
        {
          "internalType": "uint256",
          "name": "tributeAmount",
          "type": "uint256"
        },
        {
          "internalType": "address",
          "name": "tributeTokenOwner",
          "type": "address"
        }
      ],
      "stateMutability": "view",
      "type": "function"
    },
    {
      "inputs": [
        {
          "internalType": "uint256",
          "name": "flags",
          "type": "uint256"
        },
        {
          "internalType": "uint256",
          "name": "flag",
          "type": "uint256"
        },
        {
          "internalType": "bool",
          "name": "value",
          "type": "bool"
        }
      ],
      "name": "setFlag",
      "outputs": [
        {
          "internalType": "uint256",
          "name": "",
          "type": "uint256"
        }
      ],
      "stateMutability": "pure",
      "type": "function"
    },
    {
      "inputs": [
        {
          "internalType": "contract DaoRegistry",
          "name": "dao",
          "type": "address"
        },
        {
          "internalType": "bytes32",
          "name": "proposalId",
          "type": "bytes32"
        },
        {
          "internalType": "address",
          "name": "applicant",
          "type": "address"
        },
        {
          "internalType": "address",
          "name": "tokenToMint",
          "type": "address"
        },
        {
          "internalType": "uint256",
          "name": "requestAmount",
          "type": "uint256"
        },
        {
          "internalType": "address",
          "name": "tokenAddr",
          "type": "address"
        },
        {
          "internalType": "uint256",
          "name": "tributeAmount",
          "type": "uint256"
        },
        {
          "internalType": "address",
          "name": "tributeTokenOwner",
          "type": "address"
        },
        {
          "internalType": "bytes",
          "name": "data",
          "type": "bytes"
        }
      ],
      "name": "submitProposal",
      "outputs": [],
      "stateMutability": "nonpayable",
      "type": "function"
    },
    {
      "stateMutability": "payable",
      "type": "receive"
    }
  ],
  "bytecode": "0x608060405234801561001057600080fd5b50612617806100206000396000f3fe6080604052600436106100b55760003560e01c8063b244a41d11610069578063ca0f46331161004e578063ca0f4633146101f8578063ef6a249914610218578063fc25803114610238576100db565b8063b244a41d146101ab578063c9c35c08146101d8576100db565b80638ecf77201161009a5780638ecf77201461013e5780639364a95e1461016b5780639573167d1461018b576100db565b80635cb75276146100e057806386c17fd51461011c576100db565b366100db5760405162461bcd60e51b81526004016100d290612360565b60405180910390fd5b600080fd5b3480156100ec57600080fd5b506101006100fb366004611c55565b610258565b6040516101139796959493929190611fc1565b60405180910390f35b34801561012857600080fd5b5061013c610137366004611c80565b6102ad565b005b34801561014a57600080fd5b5061015e610159366004611ce6565b61046e565b6040516101139190611f8e565b34801561017757600080fd5b5061013c610186366004611d30565b6106d4565b34801561019757600080fd5b5061013c6101a6366004611d1e565b610cf0565b3480156101b757600080fd5b506101cb6101c6366004611ec7565b611549565b6040516101139190611f99565b3480156101e457600080fd5b5061013c6101f3366004611ce6565b6115a5565b34801561020457600080fd5b5061015e610213366004611c1d565b611806565b34801561022457600080fd5b5061015e610233366004611c1d565b611814565b34801561024457600080fd5b5061015e610253366004611ea6565b611858565b6000602081815292815260408082209093529081522080546001820154600283015460038401546004850154600586015460069096015494956001600160a01b03948516959385169492939183169290911687565b6040517fdc929f4a0000000000000000000000000000000000000000000000000000000081526001600160a01b0383169063dc929f4a906102f2908690600401611f3c565b600060405180830381600087803b15801561030c57600080fd5b505af1158015610320573d6000803e3d6000fd5b505050506001600160a01b03831661034a5760405162461bcd60e51b81526004016100d29061215e565b6001600160a01b03811615610469576040517ff7888aec0000000000000000000000000000000000000000000000000000000081526001600160a01b0382169063f7888aec906103a490869063decafbad90600401611f50565b60206040518083038186803b1580156103bc57600080fd5b505afa1580156103d0573d6000803e3d6000fd5b505050506040513d601f19601f820116820180604052508101906103f49190611c39565b6001600160a01b03166104695760405163c57d5fe960e01b81526001600160a01b0382169063c57d5fe99061043690869063decafbad90600190600401611f6a565b600060405180830381600087803b15801561045057600080fd5b505af1158015610464573d6000803e3d6000fd5b505050505b505050565b600080836001600160a01b031663fefbd8757fea0ca03c7adbe41dc655fec28a9209dc8e6e042f3d991a67765ba285b9cf73a06040518263ffffffff1660e01b81526004016104bd9190611f99565b60206040518083038186803b1580156104d557600080fd5b505afa1580156104e9573d6000803e3d6000fd5b505050506040513d601f19601f8201168201806040525081019061050d9190611c39565b90506001600160a01b0381161561064e576040517fc89bb8ba0000000000000000000000000000000000000000000000000000000081526000906001600160a01b0386169063c89bb8ba90610566908790600401611f3c565b60206040518083038186803b15801561057e57600080fd5b505afa158015610592573d6000803e3d6000fd5b505050506040513d601f19601f820116820180604052508101906105b69190611c39565b90506000826001600160a01b031663f7888aec83620ff1ce6040518363ffffffff1660e01b81526004016105eb929190611f50565b60206040518083038186803b15801561060357600080fd5b505afa158015610617573d6000803e3d6000fd5b505050506040513d601f19601f8201168201806040525081019061063b9190611c39565b6001600160a01b031611925050506106ce565b60405163288c314960e21b81526001600160a01b0385169063a230c5249061067a908690600401611f3c565b60206040518083038186803b15801561069257600080fd5b505afa1580156106a6573d6000803e3d6000fd5b505050506040513d601f19601f820116820180604052508101906106ca9190611cca565b9150505b92915050565b8843816001600160a01b031663b21634826040518163ffffffff1660e01b815260040160206040518083038186803b15801561070f57600080fd5b505afa158015610723573d6000803e3d6000fd5b505050506040513d601f19601f820116820180604052508101906107479190611e8e565b14156107655760405162461bcd60e51b81526004016100d290612195565b806001600160a01b03166310fdb0a26040518163ffffffff1660e01b8152600401600060405180830381600087803b1580156107a057600080fd5b505af11580156107b4573d6000803e3d6000fd5b505050506107c188611814565b6107dd5760405162461bcd60e51b81526004016100d2906120ca565b6040517fb73dc3890000000000000000000000000000000000000000000000000000000081526001600160a01b038b169063b73dc38990610822908c90600401611f99565b600060405180830381600087803b15801561083c57600080fd5b505af1158015610850573d6000803e3d6000fd5b50506040517f17ba7d85000000000000000000000000000000000000000000000000000000008152600092506001600160a01b038d1691506317ba7d85906108bc907f0e49311626a26ba5be58a3b13d239908e80ce0dffdd5c50bf1d9c82ff35d1ab390600401611f99565b60206040518083038186803b1580156108d457600080fd5b505afa1580156108e8573d6000803e3d6000fd5b505050506040513d601f19601f8201168201806040525081019061090c9190611c39565b90506000816001600160a01b031663966917d08d3087336040518563ffffffff1660e01b8152600401610942949392919061202e565b602060405180830381600087803b15801561095c57600080fd5b505af1158015610970573d6000803e3d6000fd5b505050506040513d601f19601f820116820180604052508101906109949190611c39565b6040517f896ae9ba0000000000000000000000000000000000000000000000000000000081529091506001600160a01b038d169063896ae9ba906109e0908e9085908790600401611fa2565b600060405180830381600087803b1580156109fa57600080fd5b505af1158015610a0e573d6000803e3d6000fd5b50505050610ab38a8d8e6001600160a01b031663593e96b67fea0ca03c7adbe41dc655fec28a9209dc8e6e042f3d991a67765ba285b9cf73a06040518263ffffffff1660e01b8152600401610a639190611f99565b60206040518083038186803b158015610a7b57600080fd5b505afa158015610a8f573d6000803e3d6000fd5b505050506040513d601f19601f820116820180604052508101906101379190611c39565b6040517f2b0974d00000000000000000000000000000000000000000000000000000000081526001600160a01b03831690632b0974d090610afc908f908f908990600401612086565b600060405180830381600087803b158015610b1657600080fd5b505af1158015610b2a573d6000803e3d6000fd5b505050506040518060e001604052808c81526020018b6001600160a01b031681526020018a6001600160a01b03168152602001898152602001886001600160a01b03168152602001878152602001866001600160a01b03168152506000808e6001600160a01b03166001600160a01b0316815260200190815260200160002060008d81526020019081526020016000206000820151816000015560208201518160010160006101000a8154816001600160a01b0302191690836001600160a01b0316021790555060408201518160020160006101000a8154816001600160a01b0302191690836001600160a01b031602179055506060820151816003015560808201518160040160006101000a8154816001600160a01b0302191690836001600160a01b0316021790555060a0820151816005015560c08201518160060160006101000a8154816001600160a01b0302191690836001600160a01b031602179055509050505050806001600160a01b031663d4f7af436040518163ffffffff1660e01b8152600401600060405180830381600087803b158015610ccc57600080fd5b505af1158015610ce0573d6000803e3d6000fd5b5050505050505050505050505050565b8143816001600160a01b031663b21634826040518163ffffffff1660e01b815260040160206040518083038186803b158015610d2b57600080fd5b505afa158015610d3f573d6000803e3d6000fd5b505050506040513d601f19601f82011682018060405250810190610d639190611e8e565b1415610d815760405162461bcd60e51b81526004016100d290612195565b806001600160a01b03166310fdb0a26040518163ffffffff1660e01b8152600401600060405180830381600087803b158015610dbc57600080fd5b505af1158015610dd0573d6000803e3d6000fd5b5050506001600160a01b03808516600090815260208181526040808320878452825291829020825160e08101845281548082526001830154861693820193909352600282015485169381019390935260038101546060840152600481015484166080840152600581015460a08401526006015490921660c082015291508314610e6b5760405162461bcd60e51b81526004016100d2906121cc565b6040517ff941f6910000000000000000000000000000000000000000000000000000000081526001600160a01b0385169063f941f69190610eb3908690600290600401611ffc565b60206040518083038186803b158015610ecb57600080fd5b505afa158015610edf573d6000803e3d6000fd5b505050506040513d601f19601f82011682018060405250810190610f039190611cca565b15610f205760405162461bcd60e51b81526004016100d290612203565b6040517f40de703e0000000000000000000000000000000000000000000000000000000081526000906001600160a01b038616906340de703e90610f68908790600401611f99565b60206040518083038186803b158015610f8057600080fd5b505afa158015610f94573d6000803e3d6000fd5b505050506040513d601f19601f82011682018060405250810190610fb89190611c39565b90506001600160a01b038116610fe05760405162461bcd60e51b81526004016100d290612397565b6040517f76225e730000000000000000000000000000000000000000000000000000000081526000906001600160a01b038316906376225e739061102a908990899060040161206d565b602060405180830381600087803b15801561104457600080fd5b505af1158015611058573d6000803e3d6000fd5b505050506040513d601f19601f8201168201806040525081019061107c9190611e6f565b6040517f30490e910000000000000000000000000000000000000000000000000000000081529091506001600160a01b038716906330490e91906110c4908890600401611f99565b600060405180830381600087803b1580156110de57600080fd5b505af11580156110f2573d6000803e3d6000fd5b50600292506110ff915050565b81600581111561111f57634e487b7160e01b600052602160045260246000fd5b141561149c57604051632c9f4b5b60e11b81526000906001600160a01b0388169063593e96b690611174907fea0ca03c7adbe41dc655fec28a9209dc8e6e042f3d991a67765ba285b9cf73a090600401611f99565b60206040518083038186803b15801561118c57600080fd5b505afa1580156111a0573d6000803e3d6000fd5b505050506040513d601f19601f820116820180604052508101906111c49190611c39565b604080860151602087015160a088015160c089015193517f14a3321600000000000000000000000000000000000000000000000000000000815294955091939092906001600160a01b038616906314a3321690611225908790600401611f3c565b60206040518083038186803b15801561123d57600080fd5b505afa158015611251573d6000803e3d6000fd5b505050506040513d601f19601f820116820180604052508101906112759190611cca565b6112915760405162461bcd60e51b81526004016100d2906122ce565b60808801516040517ff9eaee0d0000000000000000000000000000000000000000000000000000000081526001600160a01b0387169163f9eaee0d916112da9190600401611f3c565b60206040518083038186803b1580156112f257600080fd5b505afa158015611306573d6000803e3d6000fd5b505050506040513d601f19601f8201168201806040525081019061132a9190611cca565b6113aa5760808801516040517f69af242f0000000000000000000000000000000000000000000000000000000081526001600160a01b038716916369af242f916113779190600401611f3c565b600060405180830381600087803b15801561139157600080fd5b505af11580156113a5573d6000803e3d6000fd5b505050505b60808801516113c46001600160a01b038216838886611875565b606089015160405163c57d5fe960e01b81526001600160a01b0388169163c57d5fe9916113f89188918a9190600401611f6a565b600060405180830381600087803b15801561141257600080fd5b505af1158015611426573d6000803e3d6000fd5b50505050608089015160405163c57d5fe960e01b81526001600160a01b0388169163c57d5fe99161145f9161dead918890600401611f6a565b600060405180830381600087803b15801561147957600080fd5b505af115801561148d573d6000803e3d6000fd5b5050505050505050505061150b565b60038160058111156114be57634e487b7160e01b600052602160045260246000fd5b14806114e9575060018160058111156114e757634e487b7160e01b600052602160045260246000fd5b145b156114f35761150b565b60405162461bcd60e51b81526004016100d29061223a565b505050806001600160a01b031663d4f7af436040518163ffffffff1660e01b8152600401600060405180830381600087803b15801561045057600080fd5b60008115156115588585611858565b15151461159b57811561158157611570836002612463565b61157a9085612405565b905061159e565b61158c836002612463565b61157a908561252c565b61159e565b50825b9392505050565b816000816001600160a01b031663c19d93fb6040518163ffffffff1660e01b815260040160206040518083038186803b1580156115e157600080fd5b505afa1580156115f5573d6000803e3d6000fd5b505050506040513d601f19601f820116820180604052508101906116199190611e50565b600181111561163857634e487b7160e01b600052602160045260246000fd5b148015611649575061164981611900565b806116cb57506040516368c18beb60e01b81526001600160a01b038216906368c18beb9061167b903390600401611f3c565b60206040518083038186803b15801561169357600080fd5b505afa1580156116a7573d6000803e3d6000fd5b505050506040513d601f19601f820116820180604052508101906116cb9190611cca565b6116e75760405162461bcd60e51b81526004016100d2906123ce565b604051632c9f4b5b60e11b81526000906001600160a01b0385169063593e96b690611736907fea0ca03c7adbe41dc655fec28a9209dc8e6e042f3d991a67765ba285b9cf73a090600401611f99565b60206040518083038186803b15801561174e57600080fd5b505afa158015611762573d6000803e3d6000fd5b505050506040513d601f19601f820116820180604052508101906117869190611c39565b6040517ff7e15acf0000000000000000000000000000000000000000000000000000000081529091506001600160a01b0382169063f7e15acf906117ce908690600401611f3c565b600060405180830381600087803b1580156117e857600080fd5b505af11580156117fc573d6000803e3d6000fd5b5050505050505050565b6001600160a01b0316151590565b60006001600160a01b03821661dead1480159061183c57506001600160a01b03821661babe14155b80156106ce57506001600160a01b038216614bec141592915050565b600061186b600260ff841685901c61256f565b6001149392505050565b6118fa846323b872dd60e01b85858560405160240161189693929190611f6a565b60408051601f198184030181529190526020810180517bffffffffffffffffffffffffffffffffffffffffffffffffffffffff167fffffffff0000000000000000000000000000000000000000000000000000000090931692909217909152611a78565b50505050565b6000816001600160a01b031663c67143666040518163ffffffff1660e01b815260040160206040518083038186803b15801561193b57600080fd5b505afa15801561194f573d6000803e3d6000fd5b505050506040513d601f19601f820116820180604052508101906119739190611e8e565b15806119f6575060405163288c314960e21b81526001600160a01b0383169063a230c524906119a6903390600401611f3c565b60206040518083038186803b1580156119be57600080fd5b505afa1580156119d2573d6000803e3d6000fd5b505050506040513d601f19601f820116820180604052508101906119f69190611cca565b806106ce57506040516368c18beb60e01b81526001600160a01b038316906368c18beb90611a28903390600401611f3c565b60206040518083038186803b158015611a4057600080fd5b505afa158015611a54573d6000803e3d6000fd5b505050506040513d601f19601f820116820180604052508101906106ce9190611cca565b6000611acd826040518060400160405280602081526020017f5361666545524332303a206c6f772d6c6576656c2063616c6c206661696c6564815250856001600160a01b0316611b079092919063ffffffff16565b8051909150156104695780806020019051810190611aeb9190611cca565b6104695760405162461bcd60e51b81526004016100d290612303565b6060611b168484600085611b1e565b949350505050565b606082471015611b405760405162461bcd60e51b81526004016100d290612101565b611b4985611bde565b611b655760405162461bcd60e51b81526004016100d290612297565b600080866001600160a01b03168587604051611b819190611f20565b60006040518083038185875af1925050503d8060008114611bbe576040519150601f19603f3d011682016040523d82523d6000602084013e611bc3565b606091505b5091509150611bd3828286611be4565b979650505050505050565b3b151590565b60608315611bf357508161159e565b825115611c035782518084602001fd5b8160405162461bcd60e51b81526004016100d291906120b7565b600060208284031215611c2e578081fd5b813561159e816125bb565b600060208284031215611c4a578081fd5b815161159e816125bb565b60008060408385031215611c67578081fd5b8235611c72816125bb565b946020939093013593505050565b600080600060608486031215611c94578081fd5b8335611c9f816125bb565b92506020840135611caf816125bb565b91506040840135611cbf816125bb565b809150509250925092565b600060208284031215611cdb578081fd5b815161159e816125d3565b60008060408385031215611cf8578182fd5b8235611d03816125bb565b91506020830135611d13816125bb565b809150509250929050565b60008060408385031215611c67578182fd5b60008060008060008060008060006101208a8c031215611d4e578485fd5b8935611d59816125bb565b985060208a810135985060408b0135611d71816125bb565b975060608b0135611d81816125bb565b965060808b0135955060a08b0135611d98816125bb565b945060c08b0135935060e08b0135611daf816125bb565b92506101008b013567ffffffffffffffff80821115611dcc578384fd5b818d0191508d601f830112611ddf578384fd5b813581811115611df157611df16125a5565b604051601f8201601f1916810185018381118282101715611e1457611e146125a5565b80604052508181528f85838601011115611e2c578586fd5b81858501868301378585838301015280955050505050509295985092959850929598565b600060208284031215611e61578081fd5b81516002811061159e578182fd5b600060208284031215611e80578081fd5b81516006811061159e578182fd5b600060208284031215611e9f578081fd5b5051919050565b60008060408385031215611eb8578182fd5b50508035926020909101359150565b600080600060608486031215611edb578081fd5b83359250602084013591506040840135611cbf816125d3565b60008151808452611f0c816020860160208601612543565b601f01601f19169290920160200192915050565b60008251611f32818460208701612543565b9190910192915050565b6001600160a01b0391909116815260200190565b6001600160a01b0392831681529116602082015260400190565b6001600160a01b039384168152919092166020820152604081019190915260600190565b901515815260200190565b90815260200190565b9283526001600160a01b03918216602084015216604082015260600190565b9687526001600160a01b039586166020880152938516604087015260608601929092528316608085015260a08401521660c082015260e00190565b828152604081016003831061202157634e487b7160e01b600052602160045260246000fd5b8260208301529392505050565b60006001600160a01b0380871683528086166020840152608060408401526120596080840186611ef4565b915080841660608401525095945050505050565b6001600160a01b03929092168252602082015260400190565b60006001600160a01b0385168252836020830152606060408301526120ae6060830184611ef4565b95945050505050565b60006020825261159e6020830184611ef4565b6020808252601d908201527f6170706c6963616e742069732072657365727665642061646472657373000000604082015260600190565b60208082526026908201527f416464726573733a20696e73756666696369656e742062616c616e636520666f60408201527f722063616c6c0000000000000000000000000000000000000000000000000000606082015260800190565b60208082526016908201527f696e76616c6964206d656d626572206164647265737300000000000000000000604082015260600190565b60208082526010908201527f7265656e7472616e637920677561726400000000000000000000000000000000604082015260600190565b60208082526017908201527f70726f706f73616c20646f6573206e6f74206578697374000000000000000000604082015260600190565b6020808252601a908201527f70726f706f73616c20616c72656164792070726f636573736564000000000000604082015260600190565b60208082526022908201527f70726f706f73616c20686173206e6f74206265656e20766f746564206f6e207960408201527f6574000000000000000000000000000000000000000000000000000000000000606082015260800190565b6020808252601d908201527f416464726573733a2063616c6c20746f206e6f6e2d636f6e7472616374000000604082015260600190565b6020808252818101527f69742063616e206f6e6c79206d696e7420696e7465726e616c20746f6b656e73604082015260600190565b6020808252602a908201527f5361666545524332303a204552433230206f7065726174696f6e20646964206e60408201527f6f74207375636365656400000000000000000000000000000000000000000000606082015260800190565b6020808252600f908201527f66616c6c6261636b207265766572740000000000000000000000000000000000604082015260600190565b60208082526011908201527f61646170746572206e6f7420666f756e64000000000000000000000000000000604082015260600190565b6020808252600b908201527f6f6e6c7941646170746572000000000000000000000000000000000000000000604082015260600190565b600082198211156124185761241861258f565b500190565b80825b600180861161242f575061245a565b8187048211156124415761244161258f565b8086161561244e57918102915b9490941c938002612420565b94509492505050565b600061159e600019848460008261247c5750600161159e565b816124895750600061159e565b816001811461249f57600281146124a9576124d6565b600191505061159e565b60ff8411156124ba576124ba61258f565b6001841b9150848211156124d0576124d061258f565b5061159e565b5060208310610133831016604e8410600b8410161715612504575081810a838111156115965761159661258f565b612511848484600161241d565b8086048211156125235761252361258f565b02949350505050565b60008282101561253e5761253e61258f565b500390565b60005b8381101561255e578181015183820152602001612546565b838111156118fa5750506000910152565b60008261258a57634e487b7160e01b81526012600452602481fd5b500690565b634e487b7160e01b600052601160045260246000fd5b634e487b7160e01b600052604160045260246000fd5b6001600160a01b03811681146125d057600080fd5b50565b80151581146125d057600080fdfea2646970667358221220d8f1dfd5b488a9d70aa67e2a3c283972733e784a19bdb88c3a9eb88ef841f9d564736f6c63430008000033",
  "linkReferences": {},
  "deployedLinkReferences": {}
}