{
  "_format": "hh-sol-artifact-1",
  "contractName": "UnagiiVaultWithdrawAdapter",
  "sourceName": "build/sources/adapters/UnagiiVaultWithdrawAdapter.sol",
  "abi": [
    {
      "anonymous": false,
      "inputs": [
        {
          "indexed": false,
          "internalType": "address",
          "name": "adapter",
          "type": "address"
        },
        {
          "indexed": false,
          "internalType": "bytes32",
          "name": "proposalId",
          "type": "bytes32"
        }
      ],
      "name": "ProposalProcessed",
      "type": "event"
    },
    {
      "anonymous": false,
      "inputs": [
        {
          "indexed": false,
          "internalType": "address",
          "name": "adapter",
          "type": "address"
        },
        {
          "indexed": false,
          "internalType": "bytes32",
          "name": "proposalId",
          "type": "bytes32"
        }
      ],
      "name": "ProposalSubmitted",
      "type": "event"
    },
    {
      "inputs": [
        {
          "internalType": "uint256",
          "name": "flags",
          "type": "uint256"
        },
        {
          "internalType": "uint256",
          "name": "flag",
          "type": "uint256"
        }
      ],
      "name": "getFlag",
      "outputs": [
        {
          "internalType": "bool",
          "name": "",
          "type": "bool"
        }
      ],
      "stateMutability": "pure",
      "type": "function"
    },
    {
      "inputs": [
        {
          "internalType": "contract DaoRegistry",
          "name": "dao",
          "type": "address"
        },
        {
          "internalType": "address",
          "name": "_addr",
          "type": "address"
        }
      ],
      "name": "isActiveMember",
      "outputs": [
        {
          "internalType": "bool",
          "name": "",
          "type": "bool"
        }
      ],
      "stateMutability": "view",
      "type": "function"
    },
    {
      "inputs": [
        {
          "internalType": "address",
          "name": "addr",
          "type": "address"
        }
      ],
      "name": "isNotReservedAddress",
      "outputs": [
        {
          "internalType": "bool",
          "name": "",
          "type": "bool"
        }
      ],
      "stateMutability": "pure",
      "type": "function"
    },
    {
      "inputs": [
        {
          "internalType": "address",
          "name": "addr",
          "type": "address"
        }
      ],
      "name": "isNotZeroAddress",
      "outputs": [
        {
          "internalType": "bool",
          "name": "",
          "type": "bool"
        }
      ],
      "stateMutability": "pure",
      "type": "function"
    },
    {
      "inputs": [
        {
          "internalType": "contract DaoRegistry",
          "name": "dao",
          "type": "address"
        },
        {
          "internalType": "bytes32",
          "name": "proposalId",
          "type": "bytes32"
        }
      ],
      "name": "processProposal",
      "outputs": [],
      "stateMutability": "nonpayable",
      "type": "function"
    },
    {
      "inputs": [
        {
          "internalType": "address",
          "name": "",
          "type": "address"
        },
        {
          "internalType": "bytes32",
          "name": "",
          "type": "bytes32"
        }
      ],
      "name": "proposals",
      "outputs": [
        {
          "internalType": "uint256",
          "name": "amount",
          "type": "uint256"
        },
        {
          "internalType": "address",
          "name": "vault",
          "type": "address"
        },
        {
          "internalType": "bool",
          "name": "isDeposit",
          "type": "bool"
        },
        {
          "internalType": "uint256",
          "name": "strategy",
          "type": "uint256"
        }
      ],
      "stateMutability": "view",
      "type": "function"
    },
    {
      "inputs": [
        {
          "internalType": "uint256",
          "name": "flags",
          "type": "uint256"
        },
        {
          "internalType": "uint256",
          "name": "flag",
          "type": "uint256"
        },
        {
          "internalType": "bool",
          "name": "value",
          "type": "bool"
        }
      ],
      "name": "setFlag",
      "outputs": [
        {
          "internalType": "uint256",
          "name": "",
          "type": "uint256"
        }
      ],
      "stateMutability": "pure",
      "type": "function"
    },
    {
      "inputs": [
        {
          "internalType": "contract DaoRegistry",
          "name": "dao",
          "type": "address"
        },
        {
          "internalType": "bytes32",
          "name": "proposalId",
          "type": "bytes32"
        },
        {
          "internalType": "address",
          "name": "vault",
          "type": "address"
        },
        {
          "internalType": "uint256",
          "name": "amount",
          "type": "uint256"
        },
        {
          "internalType": "bytes",
          "name": "data",
          "type": "bytes"
        }
      ],
      "name": "submitProposal",
      "outputs": [],
      "stateMutability": "nonpayable",
      "type": "function"
    },
    {
      "stateMutability": "payable",
      "type": "receive"
    }
  ],
  "bytecode": "0x608060405234801561001057600080fd5b50611d07806100206000396000f3fe60806040526004361061007f5760003560e01c8063b244a41d1161004e578063b244a41d14610152578063ca0f46331461017f578063ef6a24991461019f578063fc258031146101bf576100a5565b80635cb75276146100aa5780638ecf7720146100e35780639573167d146101105780639c8d0a1e14610132576100a5565b366100a55760405162461bcd60e51b815260040161009c906119f2565b60405180910390fd5b600080fd5b3480156100b657600080fd5b506100ca6100c5366004611499565b6101df565b6040516100da9493929190611abd565b60405180910390f35b3480156100ef57600080fd5b506101036100fe3660046114e0565b61021e565b6040516100da9190611749565b34801561011c57600080fd5b5061013061012b366004611518565b61049d565b005b34801561013e57600080fd5b5061013061014d36600461152a565b610ba5565b34801561015e57600080fd5b5061017261016d36600461165e565b611057565b6040516100da9190611754565b34801561018b57600080fd5b5061010361019a366004611461565b6110b3565b3480156101ab57600080fd5b506101036101ba366004611461565b6110c1565b3480156101cb57600080fd5b506101036101da36600461163d565b611105565b600060208181529281526040808220909352908152208054600182015460029092015490916001600160a01b03811691600160a01b90910460ff169084565b600080836001600160a01b031663fefbd8757fea0ca03c7adbe41dc655fec28a9209dc8e6e042f3d991a67765ba285b9cf73a06040518263ffffffff1660e01b815260040161026d9190611754565b60206040518083038186803b15801561028557600080fd5b505afa158015610299573d6000803e3d6000fd5b505050506040513d601f19601f820116820180604052508101906102bd919061147d565b90506001600160a01b038116156103fe576040517fc89bb8ba0000000000000000000000000000000000000000000000000000000081526000906001600160a01b0386169063c89bb8ba906103169087906004016116de565b60206040518083038186803b15801561032e57600080fd5b505afa158015610342573d6000803e3d6000fd5b505050506040513d601f19601f82011682018060405250810190610366919061147d565b90506000826001600160a01b031663f7888aec83620ff1ce6040518363ffffffff1660e01b815260040161039b9291906116f2565b60206040518083038186803b1580156103b357600080fd5b505afa1580156103c7573d6000803e3d6000fd5b505050506040513d601f19601f820116820180604052508101906103eb919061147d565b6001600160a01b03161192505050610497565b6040517fa230c5240000000000000000000000000000000000000000000000000000000081526001600160a01b0385169063a230c524906104439086906004016116de565b60206040518083038186803b15801561045b57600080fd5b505afa15801561046f573d6000803e3d6000fd5b505050506040513d601f19601f8201168201806040525081019061049391906114c4565b9150505b92915050565b8143816001600160a01b031663b21634826040518163ffffffff1660e01b815260040160206040518083038186803b1580156104d857600080fd5b505afa1580156104ec573d6000803e3d6000fd5b505050506040513d601f19601f820116820180604052508101906105109190611625565b141561052e5760405162461bcd60e51b815260040161009c906118ca565b806001600160a01b03166310fdb0a26040518163ffffffff1660e01b8152600401600060405180830381600087803b15801561056957600080fd5b505af115801561057d573d6000803e3d6000fd5b505050506001600160a01b038381166000818152602081815260408083208784528252808320815160808101835281548152600182015496871693810193909352600160a01b90950460ff16151582820152600290940154606082015292517f40de703e0000000000000000000000000000000000000000000000000000000081529091906340de703e90610616908790600401611754565b60206040518083038186803b15801561062e57600080fd5b505afa158015610642573d6000803e3d6000fd5b505050506040513d601f19601f82011682018060405250810190610666919061147d565b90506001600160a01b03811661068e5760405162461bcd60e51b815260040161009c90611a29565b60026040517f76225e730000000000000000000000000000000000000000000000000000000081526001600160a01b038316906376225e73906106d79089908990600401611730565b602060405180830381600087803b1580156106f157600080fd5b505af1158015610705573d6000803e3d6000fd5b505050506040513d601f19601f820116820180604052508101906107299190611606565b600581111561074857634e487b7160e01b600052602160045260246000fd5b146107655760405162461bcd60e51b815260040161009c90611901565b6000826020015190506000816001600160a01b031663fc0c546a6040518163ffffffff1660e01b815260040160206040518083038186803b1580156107a957600080fd5b505afa1580156107bd573d6000803e3d6000fd5b505050506040513d601f19601f820116820180604052508101906107e1919061147d565b90506000826001600160a01b031663633156376040518163ffffffff1660e01b815260040160206040518083038186803b15801561081e57600080fd5b505afa158015610832573d6000803e3d6000fd5b505050506040513d601f19601f82011682018060405250810190610856919061147d565b85516040517f30490e91000000000000000000000000000000000000000000000000000000008152919250906001600160a01b038a16906330490e91906108a1908b90600401611754565b600060405180830381600087803b1580156108bb57600080fd5b505af11580156108cf573d6000803e3d6000fd5b506108e8925050506001600160a01b0383168583611122565b6040517f441a3e700000000000000000000000000000000000000000000000000000000081526000906001600160a01b0386169063441a3e70906109329085908590600401611ae3565b602060405180830381600087803b15801561094c57600080fd5b505af1158015610960573d6000803e3d6000fd5b505050506040513d601f19601f820116820180604052508101906109849190611625565b905060008a6001600160a01b031663593e96b67fea0ca03c7adbe41dc655fec28a9209dc8e6e042f3d991a67765ba285b9cf73a06040518263ffffffff1660e01b81526004016109d49190611754565b60206040518083038186803b1580156109ec57600080fd5b505afa158015610a00573d6000803e3d6000fd5b505050506040513d601f19601f82011682018060405250810190610a24919061147d565b9050610a3a6001600160a01b0386168284611267565b6040517fc57d5fe90000000000000000000000000000000000000000000000000000000081526001600160a01b0382169063c57d5fe990610a859061dead908990879060040161170c565b600060405180830381600087803b158015610a9f57600080fd5b505af1158015610ab3573d6000803e3d6000fd5b5050506001600160a01b038c166000908152602081815260408083208e84529091528082208281556001810180547fffffffffffffffffffffff00000000000000000000000000000000000000000016905560020191909155517fc6e3e61ae1fad006f0fe39a22062b08c0b1d829f076121bd702ced30b9b048f89150610b3d9030908d90611730565b60405180910390a15050505050505050806001600160a01b031663d4f7af436040518163ffffffff1660e01b8152600401600060405180830381600087803b158015610b8857600080fd5b505af1158015610b9c573d6000803e3d6000fd5b50505050505050565b8443816001600160a01b031663b21634826040518163ffffffff1660e01b815260040160206040518083038186803b158015610be057600080fd5b505afa158015610bf4573d6000803e3d6000fd5b505050506040513d601f19601f82011682018060405250810190610c189190611625565b1415610c365760405162461bcd60e51b815260040161009c906118ca565b806001600160a01b03166310fdb0a26040518163ffffffff1660e01b8152600401600060405180830381600087803b158015610c7157600080fd5b505af1158015610c85573d6000803e3d6000fd5b5050505060008311610ca95760405162461bcd60e51b815260040161009c906117ff565b6040517fb73dc3890000000000000000000000000000000000000000000000000000000081526001600160a01b0387169063b73dc38990610cee908890600401611754565b600060405180830381600087803b158015610d0857600080fd5b505af1158015610d1c573d6000803e3d6000fd5b505050506001600160a01b0386811660009081526020818152604080832089845290915281206001810180547fffffffffffffffffffffffff00000000000000000000000000000000000000001693881693909317909255848255610d82908490611286565b60028201556040517f17ba7d850000000000000000000000000000000000000000000000000000000081526000906001600160a01b038916906317ba7d8590610def907f0e49311626a26ba5be58a3b13d239908e80ce0dffdd5c50bf1d9c82ff35d1ab390600401611754565b60206040518083038186803b158015610e0757600080fd5b505afa158015610e1b573d6000803e3d6000fd5b505050506040513d601f19601f82011682018060405250810190610e3f919061147d565b90506000816001600160a01b031663966917d08a3088336040518563ffffffff1660e01b8152600401610e75949392919061177c565b602060405180830381600087803b158015610e8f57600080fd5b505af1158015610ea3573d6000803e3d6000fd5b505050506040513d601f19601f82011682018060405250810190610ec7919061147d565b6040517f896ae9ba0000000000000000000000000000000000000000000000000000000081529091506001600160a01b038a169063896ae9ba90610f13908b908590879060040161175d565b600060405180830381600087803b158015610f2d57600080fd5b505af1158015610f41573d6000803e3d6000fd5b50506040517f2b0974d00000000000000000000000000000000000000000000000000000000081526001600160a01b0385169250632b0974d09150610f8e908c908c908a906004016117bb565b600060405180830381600087803b158015610fa857600080fd5b505af1158015610fbc573d6000803e3d6000fd5b505050507f9181e5ee1252a3d853fd34d3d8a48eceaeb399635045838e557bb0ff49def1133089604051610ff1929190611730565b60405180910390a1505050806001600160a01b031663d4f7af436040518163ffffffff1660e01b8152600401600060405180830381600087803b15801561103757600080fd5b505af115801561104b573d6000803e3d6000fd5b50505050505050505050565b60008115156110668585611105565b1515146110a957811561108f5761107e836002611b4f565b6110889085611af1565b90506110ac565b61109a836002611b4f565b6110889085611c18565b6110ac565b50825b9392505050565b6001600160a01b0316151590565b60006001600160a01b03821661dead148015906110e957506001600160a01b03821661babe14155b801561049757506001600160a01b038216614bec141592915050565b6000611118600260ff841685901c611c5f565b6001149392505050565b8015806111c357506040517fdd62ed3e0000000000000000000000000000000000000000000000000000000081526001600160a01b0384169063dd62ed3e9061117190309086906004016116f2565b60206040518083038186803b15801561118957600080fd5b505afa15801561119d573d6000803e3d6000fd5b505050506040513d601f19601f820116820180604052508101906111c19190611625565b155b6111df5760405162461bcd60e51b815260040161009c90611a60565b6112628363095ea7b360e01b84846040516024016111fe929190611730565b60408051601f198184030181529190526020810180517bffffffffffffffffffffffffffffffffffffffffffffffffffffffff167fffffffff00000000000000000000000000000000000000000000000000000000909316929092179091526112bc565b505050565b6112628363a9059cbb60e01b84846040516024016111fe929190611730565b6000611293826020611af1565b835110156112b35760405162461bcd60e51b815260040161009c90611836565b50016020015190565b6000611311826040518060400160405280602081526020017f5361666545524332303a206c6f772d6c6576656c2063616c6c206661696c6564815250856001600160a01b031661134b9092919063ffffffff16565b805190915015611262578080602001905181019061132f91906114c4565b6112625760405162461bcd60e51b815260040161009c90611995565b606061135a8484600085611362565b949350505050565b6060824710156113845760405162461bcd60e51b815260040161009c9061186d565b61138d85611422565b6113a95760405162461bcd60e51b815260040161009c9061195e565b600080866001600160a01b031685876040516113c591906116c2565b60006040518083038185875af1925050503d8060008114611402576040519150601f19603f3d011682016040523d82523d6000602084013e611407565b606091505b5091509150611417828286611428565b979650505050505050565b3b151590565b606083156114375750816110ac565b8251156114475782518084602001fd5b8160405162461bcd60e51b815260040161009c91906117ec565b600060208284031215611472578081fd5b81356110ac81611cab565b60006020828403121561148e578081fd5b81516110ac81611cab565b600080604083850312156114ab578081fd5b82356114b681611cab565b946020939093013593505050565b6000602082840312156114d5578081fd5b81516110ac81611cc3565b600080604083850312156114f2578182fd5b82356114fd81611cab565b9150602083013561150d81611cab565b809150509250929050565b600080604083850312156114ab578182fd5b600080600080600060a08688031215611541578081fd5b853561154c81611cab565b94506020868101359450604087013561156481611cab565b935060608701359250608087013567ffffffffffffffff80821115611587578384fd5b818901915089601f83011261159a578384fd5b8135818111156115ac576115ac611c95565b604051601f8201601f19168101850183811182821017156115cf576115cf611c95565b60405281815283820185018c10156115e5578586fd5b81858501868301378585838301015280955050505050509295509295909350565b600060208284031215611617578081fd5b8151600681106110ac578182fd5b600060208284031215611636578081fd5b5051919050565b6000806040838503121561164f578182fd5b50508035926020909101359150565b600080600060608486031215611672578283fd5b8335925060208401359150604084013561168b81611cc3565b809150509250925092565b600081518084526116ae816020860160208601611c2f565b601f01601f19169290920160200192915050565b600082516116d4818460208701611c2f565b9190910192915050565b6001600160a01b0391909116815260200190565b6001600160a01b0392831681529116602082015260400190565b6001600160a01b039384168152919092166020820152604081019190915260600190565b6001600160a01b03929092168252602082015260400190565b901515815260200190565b90815260200190565b9283526001600160a01b03918216602084015216604082015260600190565b60006001600160a01b0380871683528086166020840152608060408401526117a76080840186611696565b915080841660608401525095945050505050565b60006001600160a01b0385168252836020830152606060408301526117e36060830184611696565b95945050505050565b6000602082526110ac6020830184611696565b60208082526018908201527f696e76616c69642072657175657374656420616d6f756e740000000000000000604082015260600190565b60208082526014908201527f736c6963696e67206f7574206f662072616e6765000000000000000000000000604082015260600190565b60208082526026908201527f416464726573733a20696e73756666696369656e742062616c616e636520666f60408201527f722063616c6c0000000000000000000000000000000000000000000000000000606082015260800190565b60208082526010908201527f7265656e7472616e637920677561726400000000000000000000000000000000604082015260600190565b60208082526022908201527f70726f706f73616c20686173206e6f74206265656e20766f746564206f6e207960408201527f6574000000000000000000000000000000000000000000000000000000000000606082015260800190565b6020808252601d908201527f416464726573733a2063616c6c20746f206e6f6e2d636f6e7472616374000000604082015260600190565b6020808252602a908201527f5361666545524332303a204552433230206f7065726174696f6e20646964206e60408201527f6f74207375636365656400000000000000000000000000000000000000000000606082015260800190565b6020808252600f908201527f66616c6c6261636b207265766572740000000000000000000000000000000000604082015260600190565b60208082526011908201527f61646170746572206e6f7420666f756e64000000000000000000000000000000604082015260600190565b60208082526036908201527f5361666545524332303a20617070726f76652066726f6d206e6f6e2d7a65726f60408201527f20746f206e6f6e2d7a65726f20616c6c6f77616e636500000000000000000000606082015260800190565b9384526001600160a01b0392909216602084015215156040830152606082015260800190565b918252602082015260400190565b60008219821115611b0457611b04611c7f565b500190565b80825b6001808611611b1b5750611b46565b818704821115611b2d57611b2d611c7f565b80861615611b3a57918102915b9490941c938002611b0c565b94509492505050565b60006110ac6000198484600082611b68575060016110ac565b81611b75575060006110ac565b8160018114611b8b5760028114611b9557611bc2565b60019150506110ac565b60ff841115611ba657611ba6611c7f565b6001841b915084821115611bbc57611bbc611c7f565b506110ac565b5060208310610133831016604e8410600b8410161715611bf0575081810a838111156110a4576110a4611c7f565b611bfd8484846001611b09565b808604821115611c0f57611c0f611c7f565b02949350505050565b600082821015611c2a57611c2a611c7f565b500390565b60005b83811015611c4a578181015183820152602001611c32565b83811115611c59576000848401525b50505050565b600082611c7a57634e487b7160e01b81526012600452602481fd5b500690565b634e487b7160e01b600052601160045260246000fd5b634e487b7160e01b600052604160045260246000fd5b6001600160a01b0381168114611cc057600080fd5b50565b8015158114611cc057600080fdfea2646970667358221220dde5afe1fa2f5691dfb20b9dc1bd9024368a4a227ef18322e7188f44e0082a5f64736f6c63430008000033",
  "linkReferences": {},
  "deployedLinkReferences": {}
}