{
  "_format": "hh-sol-artifact-1",
  "contractName": "UnagiiVaultDepositAdapter",
  "sourceName": "build/sources/adapters/UnagiiVaultDepositAdapter.sol",
  "abi": [
    {
      "anonymous": false,
      "inputs": [
        {
          "indexed": false,
          "internalType": "address",
          "name": "adapter",
          "type": "address"
        },
        {
          "indexed": false,
          "internalType": "bytes32",
          "name": "proposalId",
          "type": "bytes32"
        }
      ],
      "name": "ProposalProcessed",
      "type": "event"
    },
    {
      "anonymous": false,
      "inputs": [
        {
          "indexed": false,
          "internalType": "address",
          "name": "adapter",
          "type": "address"
        },
        {
          "indexed": false,
          "internalType": "bytes32",
          "name": "proposalId",
          "type": "bytes32"
        }
      ],
      "name": "ProposalSubmitted",
      "type": "event"
    },
    {
      "inputs": [
        {
          "internalType": "uint256",
          "name": "flags",
          "type": "uint256"
        },
        {
          "internalType": "uint256",
          "name": "flag",
          "type": "uint256"
        }
      ],
      "name": "getFlag",
      "outputs": [
        {
          "internalType": "bool",
          "name": "",
          "type": "bool"
        }
      ],
      "stateMutability": "pure",
      "type": "function"
    },
    {
      "inputs": [
        {
          "internalType": "contract DaoRegistry",
          "name": "dao",
          "type": "address"
        },
        {
          "internalType": "address",
          "name": "_addr",
          "type": "address"
        }
      ],
      "name": "isActiveMember",
      "outputs": [
        {
          "internalType": "bool",
          "name": "",
          "type": "bool"
        }
      ],
      "stateMutability": "view",
      "type": "function"
    },
    {
      "inputs": [
        {
          "internalType": "address",
          "name": "addr",
          "type": "address"
        }
      ],
      "name": "isNotReservedAddress",
      "outputs": [
        {
          "internalType": "bool",
          "name": "",
          "type": "bool"
        }
      ],
      "stateMutability": "pure",
      "type": "function"
    },
    {
      "inputs": [
        {
          "internalType": "address",
          "name": "addr",
          "type": "address"
        }
      ],
      "name": "isNotZeroAddress",
      "outputs": [
        {
          "internalType": "bool",
          "name": "",
          "type": "bool"
        }
      ],
      "stateMutability": "pure",
      "type": "function"
    },
    {
      "inputs": [
        {
          "internalType": "contract DaoRegistry",
          "name": "dao",
          "type": "address"
        },
        {
          "internalType": "bytes32",
          "name": "proposalId",
          "type": "bytes32"
        }
      ],
      "name": "processProposal",
      "outputs": [],
      "stateMutability": "nonpayable",
      "type": "function"
    },
    {
      "inputs": [
        {
          "internalType": "address",
          "name": "",
          "type": "address"
        },
        {
          "internalType": "bytes32",
          "name": "",
          "type": "bytes32"
        }
      ],
      "name": "proposals",
      "outputs": [
        {
          "internalType": "uint256",
          "name": "amount",
          "type": "uint256"
        },
        {
          "internalType": "address",
          "name": "vault",
          "type": "address"
        },
        {
          "internalType": "bool",
          "name": "isDeposit",
          "type": "bool"
        },
        {
          "internalType": "uint256",
          "name": "strategy",
          "type": "uint256"
        }
      ],
      "stateMutability": "view",
      "type": "function"
    },
    {
      "inputs": [
        {
          "internalType": "uint256",
          "name": "flags",
          "type": "uint256"
        },
        {
          "internalType": "uint256",
          "name": "flag",
          "type": "uint256"
        },
        {
          "internalType": "bool",
          "name": "value",
          "type": "bool"
        }
      ],
      "name": "setFlag",
      "outputs": [
        {
          "internalType": "uint256",
          "name": "",
          "type": "uint256"
        }
      ],
      "stateMutability": "pure",
      "type": "function"
    },
    {
      "inputs": [
        {
          "internalType": "contract DaoRegistry",
          "name": "dao",
          "type": "address"
        },
        {
          "internalType": "bytes32",
          "name": "proposalId",
          "type": "bytes32"
        },
        {
          "internalType": "address",
          "name": "vault",
          "type": "address"
        },
        {
          "internalType": "uint256",
          "name": "amount",
          "type": "uint256"
        },
        {
          "internalType": "bytes",
          "name": "data",
          "type": "bytes"
        }
      ],
      "name": "submitProposal",
      "outputs": [],
      "stateMutability": "nonpayable",
      "type": "function"
    },
    {
      "stateMutability": "payable",
      "type": "receive"
    }
  ],
  "bytecode": "0x608060405234801561001057600080fd5b506121d2806100206000396000f3fe60806040526004361061007f5760003560e01c8063b244a41d1161004e578063b244a41d14610152578063ca0f46331461017f578063ef6a24991461019f578063fc258031146101bf576100a5565b80635cb75276146100aa5780638ecf7720146100e35780639573167d146101105780639c8d0a1e14610132576100a5565b366100a55760405162461bcd60e51b815260040161009c90611ebd565b60405180910390fd5b600080fd5b3480156100b657600080fd5b506100ca6100c5366004611964565b6101df565b6040516100da9493929190611f88565b60405180910390f35b3480156100ef57600080fd5b506101036100fe3660046119ab565b61021e565b6040516100da9190611c14565b34801561011c57600080fd5b5061013061012b3660046119e3565b61049d565b005b34801561013e57600080fd5b5061013061014d3660046119f5565b610d24565b34801561015e57600080fd5b5061017261016d366004611b29565b611522565b6040516100da9190611c1f565b34801561018b57600080fd5b5061010361019a36600461192c565b61157e565b3480156101ab57600080fd5b506101036101ba36600461192c565b61158c565b3480156101cb57600080fd5b506101036101da366004611b08565b6115d0565b600060208181529281526040808220909352908152208054600182015460029092015490916001600160a01b03811691600160a01b90910460ff169084565b600080836001600160a01b031663fefbd8757fea0ca03c7adbe41dc655fec28a9209dc8e6e042f3d991a67765ba285b9cf73a06040518263ffffffff1660e01b815260040161026d9190611c1f565b60206040518083038186803b15801561028557600080fd5b505afa158015610299573d6000803e3d6000fd5b505050506040513d601f19601f820116820180604052508101906102bd9190611948565b90506001600160a01b038116156103fe576040517fc89bb8ba0000000000000000000000000000000000000000000000000000000081526000906001600160a01b0386169063c89bb8ba90610316908790600401611ba9565b60206040518083038186803b15801561032e57600080fd5b505afa158015610342573d6000803e3d6000fd5b505050506040513d601f19601f820116820180604052508101906103669190611948565b90506000826001600160a01b031663f7888aec83620ff1ce6040518363ffffffff1660e01b815260040161039b929190611be1565b60206040518083038186803b1580156103b357600080fd5b505afa1580156103c7573d6000803e3d6000fd5b505050506040513d601f19601f820116820180604052508101906103eb9190611948565b6001600160a01b03161192505050610497565b6040517fa230c5240000000000000000000000000000000000000000000000000000000081526001600160a01b0385169063a230c52490610443908690600401611ba9565b60206040518083038186803b15801561045b57600080fd5b505afa15801561046f573d6000803e3d6000fd5b505050506040513d601f19601f82011682018060405250810190610493919061198f565b9150505b92915050565b8143816001600160a01b031663b21634826040518163ffffffff1660e01b815260040160206040518083038186803b1580156104d857600080fd5b505afa1580156104ec573d6000803e3d6000fd5b505050506040513d601f19601f820116820180604052508101906105109190611af0565b141561052e5760405162461bcd60e51b815260040161009c90611d95565b806001600160a01b03166310fdb0a26040518163ffffffff1660e01b8152600401600060405180830381600087803b15801561056957600080fd5b505af115801561057d573d6000803e3d6000fd5b505050506001600160a01b038381166000818152602081815260408083208784528252808320815160808101835281548152600182015496871693810193909352600160a01b90950460ff16151582820152600290940154606082015292517f40de703e0000000000000000000000000000000000000000000000000000000081529091906340de703e90610616908790600401611c1f565b60206040518083038186803b15801561062e57600080fd5b505afa158015610642573d6000803e3d6000fd5b505050506040513d601f19601f820116820180604052508101906106669190611948565b90506001600160a01b03811661068e5760405162461bcd60e51b815260040161009c90611ef4565b60026040517f76225e730000000000000000000000000000000000000000000000000000000081526001600160a01b038316906376225e73906106d79089908990600401611bfb565b602060405180830381600087803b1580156106f157600080fd5b505af1158015610705573d6000803e3d6000fd5b505050506040513d601f19601f820116820180604052508101906107299190611ad1565b600581111561074857634e487b7160e01b600052602160045260246000fd5b146107655760405162461bcd60e51b815260040161009c90611dcc565b6000826020015190506000816001600160a01b031663fc0c546a6040518163ffffffff1660e01b815260040160206040518083038186803b1580156107a957600080fd5b505afa1580156107bd573d6000803e3d6000fd5b505050506040513d601f19601f820116820180604052508101906107e19190611948565b90506000826001600160a01b031663633156376040518163ffffffff1660e01b815260040160206040518083038186803b15801561081e57600080fd5b505afa158015610832573d6000803e3d6000fd5b505050506040513d601f19601f820116820180604052508101906108569190611948565b85516040517f593e96b6000000000000000000000000000000000000000000000000000000008152919250906000906001600160a01b038b169063593e96b6906108c4907fea0ca03c7adbe41dc655fec28a9209dc8e6e042f3d991a67765ba285b9cf73a090600401611c1f565b60206040518083038186803b1580156108dc57600080fd5b505afa1580156108f0573d6000803e3d6000fd5b505050506040513d601f19601f820116820180604052508101906109149190611948565b60405163c57d5fe960e01b81529091506001600160a01b0382169063c57d5fe99061094790309088908790600401611bbd565b600060405180830381600087803b15801561096157600080fd5b505af1158015610975573d6000803e3d6000fd5b50506040517fd9caed120000000000000000000000000000000000000000000000000000000081526001600160a01b038416925063d9caed1291506109c290309088908790600401611bbd565b600060405180830381600087803b1580156109dc57600080fd5b505af11580156109f0573d6000803e3d6000fd5b50506040517f30490e910000000000000000000000000000000000000000000000000000000081526001600160a01b038d1692506330490e919150610a39908c90600401611c1f565b600060405180830381600087803b158015610a5357600080fd5b505af1158015610a67573d6000803e3d6000fd5b50610a80925050506001600160a01b03851686846115ed565b6040517fe2bbb1580000000000000000000000000000000000000000000000000000000081526000906001600160a01b0387169063e2bbb15890610acb908690600190600401611fae565b602060405180830381600087803b158015610ae557600080fd5b505af1158015610af9573d6000803e3d6000fd5b505050506040513d601f19601f82011682018060405250810190610b1d9190611af0565b905060008b6001600160a01b03166317ba7d857fe82fcd3ea6660c44cbaa3f427bea713ef557e716477955c6b4273755405ff0c36040518263ffffffff1660e01b8152600401610b6d9190611c1f565b60206040518083038186803b158015610b8557600080fd5b505afa158015610b99573d6000803e3d6000fd5b505050506040513d601f19601f82011682018060405250810190610bbd9190611948565b9050610bd36001600160a01b0386168284611732565b60405163c57d5fe960e01b81526001600160a01b0384169063c57d5fe990610c0390849089908790600401611bbd565b600060405180830381600087803b158015610c1d57600080fd5b505af1158015610c31573d6000803e3d6000fd5b5050506001600160a01b038d166000908152602081815260408083208f84529091528082208281556001810180547fffffffffffffffffffffff00000000000000000000000000000000000000000016905560020191909155517fc6e3e61ae1fad006f0fe39a22062b08c0b1d829f076121bd702ced30b9b048f89150610cbb9030908e90611bfb565b60405180910390a1505050505050505050806001600160a01b031663d4f7af436040518163ffffffff1660e01b8152600401600060405180830381600087803b158015610d0757600080fd5b505af1158015610d1b573d6000803e3d6000fd5b50505050505050565b8443816001600160a01b031663b21634826040518163ffffffff1660e01b815260040160206040518083038186803b158015610d5f57600080fd5b505afa158015610d73573d6000803e3d6000fd5b505050506040513d601f19601f82011682018060405250810190610d979190611af0565b1415610db55760405162461bcd60e51b815260040161009c90611d95565b806001600160a01b03166310fdb0a26040518163ffffffff1660e01b8152600401600060405180830381600087803b158015610df057600080fd5b505af1158015610e04573d6000803e3d6000fd5b5050505060008311610e285760405162461bcd60e51b815260040161009c90611cca565b6000846001600160a01b031663fc0c546a6040518163ffffffff1660e01b815260040160206040518083038186803b158015610e6357600080fd5b505afa158015610e77573d6000803e3d6000fd5b505050506040513d601f19601f82011682018060405250810190610e9b9190611948565b90506000856001600160a01b031663633156376040518163ffffffff1660e01b815260040160206040518083038186803b158015610ed857600080fd5b505afa158015610eec573d6000803e3d6000fd5b505050506040513d601f19601f82011682018060405250810190610f109190611948565b90506000886001600160a01b031663593e96b67fea0ca03c7adbe41dc655fec28a9209dc8e6e042f3d991a67765ba285b9cf73a06040518263ffffffff1660e01b8152600401610f609190611c1f565b60206040518083038186803b158015610f7857600080fd5b505afa158015610f8c573d6000803e3d6000fd5b505050506040513d601f19601f82011682018060405250810190610fb09190611948565b60405163f9eaee0d60e01b81529091506001600160a01b0382169063f9eaee0d90610fdf908690600401611ba9565b60206040518083038186803b158015610ff757600080fd5b505afa15801561100b573d6000803e3d6000fd5b505050506040513d601f19601f8201168201806040525081019061102f919061198f565b611092576040516369af242f60e01b81526001600160a01b038216906369af242f9061105f908690600401611ba9565b600060405180830381600087803b15801561107957600080fd5b505af115801561108d573d6000803e3d6000fd5b505050505b60405163f9eaee0d60e01b81526001600160a01b0382169063f9eaee0d906110be908590600401611ba9565b60206040518083038186803b1580156110d657600080fd5b505afa1580156110ea573d6000803e3d6000fd5b505050506040513d601f19601f8201168201806040525081019061110e919061198f565b611171576040516369af242f60e01b81526001600160a01b038216906369af242f9061113e908590600401611ba9565b600060405180830381600087803b15801561115857600080fd5b505af115801561116c573d6000803e3d6000fd5b505050505b6040517fb73dc3890000000000000000000000000000000000000000000000000000000081526001600160a01b038a169063b73dc389906111b6908b90600401611c1f565b600060405180830381600087803b1580156111d057600080fd5b505af11580156111e4573d6000803e3d6000fd5b505050506001600160a01b038981166000908152602081815260408083208c845290915281206001810180547fffffffffffffffffffffffff000000000000000000000000000000000000000016938b169390931790925587825561124a908790611751565b60028201556040517f17ba7d850000000000000000000000000000000000000000000000000000000081526000906001600160a01b038c16906317ba7d85906112b7907f0e49311626a26ba5be58a3b13d239908e80ce0dffdd5c50bf1d9c82ff35d1ab390600401611c1f565b60206040518083038186803b1580156112cf57600080fd5b505afa1580156112e3573d6000803e3d6000fd5b505050506040513d601f19601f820116820180604052508101906113079190611948565b90506000816001600160a01b031663966917d08d308b336040518563ffffffff1660e01b815260040161133d9493929190611c47565b602060405180830381600087803b15801561135757600080fd5b505af115801561136b573d6000803e3d6000fd5b505050506040513d601f19601f8201168201806040525081019061138f9190611948565b6040517f896ae9ba0000000000000000000000000000000000000000000000000000000081529091506001600160a01b038d169063896ae9ba906113db908e9085908790600401611c28565b600060405180830381600087803b1580156113f557600080fd5b505af1158015611409573d6000803e3d6000fd5b50506040517f2b0974d00000000000000000000000000000000000000000000000000000000081526001600160a01b0385169250632b0974d09150611456908f908f908d90600401611c86565b600060405180830381600087803b15801561147057600080fd5b505af1158015611484573d6000803e3d6000fd5b505050507f9181e5ee1252a3d853fd34d3d8a48eceaeb399635045838e557bb0ff49def113308c6040516114b9929190611bfb565b60405180910390a1505050505050806001600160a01b031663d4f7af436040518163ffffffff1660e01b8152600401600060405180830381600087803b15801561150257600080fd5b505af1158015611516573d6000803e3d6000fd5b50505050505050505050565b600081151561153185856115d0565b15151461157457811561155a5761154983600261201a565b6115539085611fbc565b9050611577565b61156583600261201a565b61155390856120e3565b611577565b50825b9392505050565b6001600160a01b0316151590565b60006001600160a01b03821661dead148015906115b457506001600160a01b03821661babe14155b801561049757506001600160a01b038216614bec141592915050565b60006115e3600260ff841685901c61212a565b6001149392505050565b80158061168e57506040517fdd62ed3e0000000000000000000000000000000000000000000000000000000081526001600160a01b0384169063dd62ed3e9061163c9030908690600401611be1565b60206040518083038186803b15801561165457600080fd5b505afa158015611668573d6000803e3d6000fd5b505050506040513d601f19601f8201168201806040525081019061168c9190611af0565b155b6116aa5760405162461bcd60e51b815260040161009c90611f2b565b61172d8363095ea7b360e01b84846040516024016116c9929190611bfb565b60408051601f198184030181529190526020810180517bffffffffffffffffffffffffffffffffffffffffffffffffffffffff167fffffffff0000000000000000000000000000000000000000000000000000000090931692909217909152611787565b505050565b61172d8363a9059cbb60e01b84846040516024016116c9929190611bfb565b600061175e826020611fbc565b8351101561177e5760405162461bcd60e51b815260040161009c90611d01565b50016020015190565b60006117dc826040518060400160405280602081526020017f5361666545524332303a206c6f772d6c6576656c2063616c6c206661696c6564815250856001600160a01b03166118169092919063ffffffff16565b80519091501561172d57808060200190518101906117fa919061198f565b61172d5760405162461bcd60e51b815260040161009c90611e60565b6060611825848460008561182d565b949350505050565b60608247101561184f5760405162461bcd60e51b815260040161009c90611d38565b611858856118ed565b6118745760405162461bcd60e51b815260040161009c90611e29565b600080866001600160a01b031685876040516118909190611b8d565b60006040518083038185875af1925050503d80600081146118cd576040519150601f19603f3d011682016040523d82523d6000602084013e6118d2565b606091505b50915091506118e28282866118f3565b979650505050505050565b3b151590565b60608315611902575081611577565b8251156119125782518084602001fd5b8160405162461bcd60e51b815260040161009c9190611cb7565b60006020828403121561193d578081fd5b813561157781612176565b600060208284031215611959578081fd5b815161157781612176565b60008060408385031215611976578081fd5b823561198181612176565b946020939093013593505050565b6000602082840312156119a0578081fd5b81516115778161218e565b600080604083850312156119bd578182fd5b82356119c881612176565b915060208301356119d881612176565b809150509250929050565b60008060408385031215611976578182fd5b600080600080600060a08688031215611a0c578081fd5b8535611a1781612176565b945060208681013594506040870135611a2f81612176565b935060608701359250608087013567ffffffffffffffff80821115611a52578384fd5b818901915089601f830112611a65578384fd5b813581811115611a7757611a77612160565b604051601f8201601f1916810185018381118282101715611a9a57611a9a612160565b60405281815283820185018c1015611ab0578586fd5b81858501868301378585838301015280955050505050509295509295909350565b600060208284031215611ae2578081fd5b815160068110611577578182fd5b600060208284031215611b01578081fd5b5051919050565b60008060408385031215611b1a578182fd5b50508035926020909101359150565b600080600060608486031215611b3d578283fd5b83359250602084013591506040840135611b568161218e565b809150509250925092565b60008151808452611b798160208601602086016120fa565b601f01601f19169290920160200192915050565b60008251611b9f8184602087016120fa565b9190910192915050565b6001600160a01b0391909116815260200190565b6001600160a01b039384168152919092166020820152604081019190915260600190565b6001600160a01b0392831681529116602082015260400190565b6001600160a01b03929092168252602082015260400190565b901515815260200190565b90815260200190565b9283526001600160a01b03918216602084015216604082015260600190565b60006001600160a01b038087168352808616602084015260806040840152611c726080840186611b61565b915080841660608401525095945050505050565b60006001600160a01b038516825283602083015260606040830152611cae6060830184611b61565b95945050505050565b6000602082526115776020830184611b61565b60208082526018908201527f696e76616c69642072657175657374656420616d6f756e740000000000000000604082015260600190565b60208082526014908201527f736c6963696e67206f7574206f662072616e6765000000000000000000000000604082015260600190565b60208082526026908201527f416464726573733a20696e73756666696369656e742062616c616e636520666f60408201527f722063616c6c0000000000000000000000000000000000000000000000000000606082015260800190565b60208082526010908201527f7265656e7472616e637920677561726400000000000000000000000000000000604082015260600190565b60208082526022908201527f70726f706f73616c20686173206e6f74206265656e20766f746564206f6e207960408201527f6574000000000000000000000000000000000000000000000000000000000000606082015260800190565b6020808252601d908201527f416464726573733a2063616c6c20746f206e6f6e2d636f6e7472616374000000604082015260600190565b6020808252602a908201527f5361666545524332303a204552433230206f7065726174696f6e20646964206e60408201527f6f74207375636365656400000000000000000000000000000000000000000000606082015260800190565b6020808252600f908201527f66616c6c6261636b207265766572740000000000000000000000000000000000604082015260600190565b60208082526011908201527f61646170746572206e6f7420666f756e64000000000000000000000000000000604082015260600190565b60208082526036908201527f5361666545524332303a20617070726f76652066726f6d206e6f6e2d7a65726f60408201527f20746f206e6f6e2d7a65726f20616c6c6f77616e636500000000000000000000606082015260800190565b9384526001600160a01b0392909216602084015215156040830152606082015260800190565b918252602082015260400190565b60008219821115611fcf57611fcf61214a565b500190565b80825b6001808611611fe65750612011565b818704821115611ff857611ff861214a565b8086161561200557918102915b9490941c938002611fd7565b94509492505050565b6000611577600019848460008261203357506001611577565b8161204057506000611577565b816001811461205657600281146120605761208d565b6001915050611577565b60ff8411156120715761207161214a565b6001841b9150848211156120875761208761214a565b50611577565b5060208310610133831016604e8410600b84101617156120bb575081810a8381111561156f5761156f61214a565b6120c88484846001611fd4565b8086048211156120da576120da61214a565b02949350505050565b6000828210156120f5576120f561214a565b500390565b60005b838110156121155781810151838201526020016120fd565b83811115612124576000848401525b50505050565b60008261214557634e487b7160e01b81526012600452602481fd5b500690565b634e487b7160e01b600052601160045260246000fd5b634e487b7160e01b600052604160045260246000fd5b6001600160a01b038116811461218b57600080fd5b50565b801515811461218b57600080fdfea26469706673582212208883d76238a19279c516c4ec3190677154c6043a7f57d67c611378d3af4ecf5464736f6c63430008000033",
  "linkReferences": {},
  "deployedLinkReferences": {}
}