{
  "_format": "hh-sol-artifact-1",
  "contractName": "VotingContract",
  "sourceName": "build/sources/adapters/voting/Voting.sol",
  "abi": [
    {
      "inputs": [],
      "name": "ADAPTER_NAME",
      "outputs": [
        {
          "internalType": "string",
          "name": "",
          "type": "string"
        }
      ],
      "stateMutability": "view",
      "type": "function"
    },
    {
      "inputs": [
        {
          "internalType": "contract DaoRegistry",
          "name": "dao",
          "type": "address"
        },
        {
          "internalType": "uint256",
          "name": "votingPeriod",
          "type": "uint256"
        },
        {
          "internalType": "uint256",
          "name": "gracePeriod",
          "type": "uint256"
        }
      ],
      "name": "configureDao",
      "outputs": [],
      "stateMutability": "nonpayable",
      "type": "function"
    },
    {
      "inputs": [],
      "name": "getAdapterName",
      "outputs": [
        {
          "internalType": "string",
          "name": "",
          "type": "string"
        }
      ],
      "stateMutability": "pure",
      "type": "function"
    },
    {
      "inputs": [
        {
          "internalType": "uint256",
          "name": "flags",
          "type": "uint256"
        },
        {
          "internalType": "uint256",
          "name": "flag",
          "type": "uint256"
        }
      ],
      "name": "getFlag",
      "outputs": [
        {
          "internalType": "bool",
          "name": "",
          "type": "bool"
        }
      ],
      "stateMutability": "pure",
      "type": "function"
    },
    {
      "inputs": [
        {
          "internalType": "contract DaoRegistry",
          "name": "",
          "type": "address"
        },
        {
          "internalType": "address",
          "name": "",
          "type": "address"
        },
        {
          "internalType": "bytes",
          "name": "",
          "type": "bytes"
        },
        {
          "internalType": "address",
          "name": "sender",
          "type": "address"
        }
      ],
      "name": "getSenderAddress",
      "outputs": [
        {
          "internalType": "address",
          "name": "",
          "type": "address"
        }
      ],
      "stateMutability": "pure",
      "type": "function"
    },
    {
      "inputs": [
        {
          "internalType": "contract DaoRegistry",
          "name": "dao",
          "type": "address"
        },
        {
          "internalType": "address",
          "name": "_addr",
          "type": "address"
        }
      ],
      "name": "isActiveMember",
      "outputs": [
        {
          "internalType": "bool",
          "name": "",
          "type": "bool"
        }
      ],
      "stateMutability": "view",
      "type": "function"
    },
    {
      "inputs": [
        {
          "internalType": "address",
          "name": "addr",
          "type": "address"
        }
      ],
      "name": "isNotReservedAddress",
      "outputs": [
        {
          "internalType": "bool",
          "name": "",
          "type": "bool"
        }
      ],
      "stateMutability": "pure",
      "type": "function"
    },
    {
      "inputs": [
        {
          "internalType": "address",
          "name": "addr",
          "type": "address"
        }
      ],
      "name": "isNotZeroAddress",
      "outputs": [
        {
          "internalType": "bool",
          "name": "",
          "type": "bool"
        }
      ],
      "stateMutability": "pure",
      "type": "function"
    },
    {
      "inputs": [
        {
          "internalType": "uint256",
          "name": "flags",
          "type": "uint256"
        },
        {
          "internalType": "uint256",
          "name": "flag",
          "type": "uint256"
        },
        {
          "internalType": "bool",
          "name": "value",
          "type": "bool"
        }
      ],
      "name": "setFlag",
      "outputs": [
        {
          "internalType": "uint256",
          "name": "",
          "type": "uint256"
        }
      ],
      "stateMutability": "pure",
      "type": "function"
    },
    {
      "inputs": [
        {
          "internalType": "contract DaoRegistry",
          "name": "dao",
          "type": "address"
        },
        {
          "internalType": "bytes32",
          "name": "proposalId",
          "type": "bytes32"
        },
        {
          "internalType": "bytes",
          "name": "",
          "type": "bytes"
        }
      ],
      "name": "startNewVotingForProposal",
      "outputs": [],
      "stateMutability": "nonpayable",
      "type": "function"
    },
    {
      "inputs": [
        {
          "internalType": "contract DaoRegistry",
          "name": "dao",
          "type": "address"
        },
        {
          "internalType": "bytes32",
          "name": "proposalId",
          "type": "bytes32"
        },
        {
          "internalType": "uint256",
          "name": "voteValue",
          "type": "uint256"
        }
      ],
      "name": "submitVote",
      "outputs": [],
      "stateMutability": "nonpayable",
      "type": "function"
    },
    {
      "inputs": [
        {
          "internalType": "contract DaoRegistry",
          "name": "dao",
          "type": "address"
        },
        {
          "internalType": "bytes32",
          "name": "proposalId",
          "type": "bytes32"
        }
      ],
      "name": "voteResult",
      "outputs": [
        {
          "internalType": "enum IVoting.VotingState",
          "name": "state",
          "type": "uint8"
        }
      ],
      "stateMutability": "view",
      "type": "function"
    },
    {
      "inputs": [
        {
          "internalType": "address",
          "name": "",
          "type": "address"
        },
        {
          "internalType": "bytes32",
          "name": "",
          "type": "bytes32"
        }
      ],
      "name": "votes",
      "outputs": [
        {
          "internalType": "uint256",
          "name": "nbYes",
          "type": "uint256"
        },
        {
          "internalType": "uint256",
          "name": "nbNo",
          "type": "uint256"
        },
        {
          "internalType": "uint256",
          "name": "startingTime",
          "type": "uint256"
        },
        {
          "internalType": "uint256",
          "name": "blockNumber",
          "type": "uint256"
        }
      ],
      "stateMutability": "view",
      "type": "function"
    }
  ],
  "bytecode": "0x608060405234801561001057600080fd5b50611afe806100206000396000f3fe608060405234801561001057600080fd5b50600436106100df5760003560e01c80638ecf77201161008c578063b244a41d11610066578063b244a41d146101c8578063ca0f4633146101e8578063ef6a2499146101fb578063fc2580311461020e576100df565b80638ecf772014610175578063966917d014610195578063a60e68fe146101b5576100df565b8063325b72f2116100bd578063325b72f21461013a57806376225e731461014d5780637fd3cd8b1461016d576100df565b80631db5ade8146100e45780631f86f5b3146101105780632b0974d014610125575b600080fd5b6100f76100f23660046112e2565b610221565b60405161010794939291906118e7565b60405180910390f35b610118610250565b6040516101079190611644565b61013861013336600461144a565b610287565b005b6101386101483660046114ce565b610405565b61016061015b366004611438565b6108e0565b604051610107919061162a565b610118610b6c565b610188610183366004611329565b610ba5565b60405161010791906115e4565b6101a86101a3366004611361565b610df0565b6040516101079190611592565b6101386101c33660046114ce565b610df7565b6101db6101d636600461155a565b611035565b60405161010791906115ef565b6101886101f63660046112aa565b61108a565b6101886102093660046112aa565b61109c565b61018861021c366004611539565b6110e0565b600060208181529281526040808220909352908152208054600182015460028301546003909301549192909184565b60408051808201909152600e81527f566f74696e67436f6e7472616374000000000000000000000000000000000000602082015290565b836000816001600160a01b031663c19d93fb6040518163ffffffff1660e01b815260040160206040518083038186803b1580156102c357600080fd5b505afa1580156102d7573d6000803e3d6000fd5b505050506040513d601f19601f820116820180604052508101906102fb9190611502565b600181111561031a57634e487b7160e01b600052602160045260246000fd5b14801561032b575061032b816110fd565b806103ad57506040516368c18beb60e01b81526001600160a01b038216906368c18beb9061035d903390600401611592565b60206040518083038186803b15801561037557600080fd5b505afa158015610389573d6000803e3d6000fd5b505050506040513d601f19601f820116820180604052508101906103ad919061130d565b6103d25760405162461bcd60e51b81526004016103c9906118b0565b60405180910390fd5b5050506001600160a01b039091166000908152602081815260408083209383529290522042600282015543600390910155565b826104108133611275565b60405163f941f69160e01b81526001600160a01b0385169063f941f6919061043f9086906001906004016115f8565b60206040518083038186803b15801561045757600080fd5b505afa15801561046b573d6000803e3d6000fd5b505050506040513d601f19601f8201168201806040525081019061048f919061130d565b6104ab5760405162461bcd60e51b81526004016103c9906117ae565b60405163f941f69160e01b81526001600160a01b0385169063f941f691906104da9086906002906004016115f8565b60206040518083038186803b1580156104f257600080fd5b505afa158015610506573d6000803e3d6000fd5b505050506040513d601f19601f8201168201806040525081019061052a919061130d565b156105475760405162461bcd60e51b81526004016103c9906116f4565b6003821080156105575750600082115b6105735760405162461bcd60e51b81526004016103c990611697565b6001600160a01b038416600090815260208181526040808320868452909152902060028101546105b55760405162461bcd60e51b81526004016103c990611751565b604051634941d71d60e11b81526001600160a01b03861690639283ae3a90610601907ff86bf955456792ffa818919c8668cdc4eb9cc84889fd215a27d329f90efbb2f3906004016115ef565b60206040518083038186803b15801561061957600080fd5b505afa15801561062d573d6000803e3d6000fd5b505050506040513d601f19601f820116820180604052508101906106519190611521565b81600201546106609190611902565b421061067e5760405162461bcd60e51b81526004016103c990611879565b60405163644ddc5d60e11b81526000906001600160a01b0387169063c89bb8ba906106ad903390600401611592565b60206040518083038186803b1580156106c557600080fd5b505afa1580156106d9573d6000803e3d6000fd5b505050506040513d601f19601f820116820180604052508101906106fd91906112c6565b6001600160a01b0381166000908152600484016020526040902054909150156107385760405162461bcd60e51b81526004016103c99061180b565b6040517f593e96b60000000000000000000000000000000000000000000000000000000081526000906001600160a01b0388169063593e96b6906107a0907fea0ca03c7adbe41dc655fec28a9209dc8e6e042f3d991a67765ba285b9cf73a0906004016115ef565b60206040518083038186803b1580156107b857600080fd5b505afa1580156107cc573d6000803e3d6000fd5b505050506040513d601f19601f820116820180604052508101906107f091906112c6565b90506000816001600160a01b031663faaf38b384620ff1ce87600301546040518463ffffffff1660e01b815260040161082b939291906115c0565b60206040518083038186803b15801561084357600080fd5b505afa158015610857573d6000803e3d6000fd5b505050506040513d601f19601f8201168201806040525081019061087b9190611521565b6001600160a01b03841660009081526004860160205260409020879055905060018614156108b75783546108b0908290611902565b84556108d6565b85600214156108d6578084600101546108d09190611902565b60018501555b5050505050505050565b6001600160a01b03821660009081526020818152604080832084845290915281206002810154610914576000915050610b66565b604051634941d71d60e11b81526001600160a01b03851690639283ae3a90610960907ff86bf955456792ffa818919c8668cdc4eb9cc84889fd215a27d329f90efbb2f3906004016115ef565b60206040518083038186803b15801561097857600080fd5b505afa15801561098c573d6000803e3d6000fd5b505050506040513d601f19601f820116820180604052508101906109b09190611521565b81600201546109bf9190611902565b4210156109d0576004915050610b66565b604051634941d71d60e11b81526001600160a01b03851690639283ae3a90610a1c907fbb091d3568b6c70eab2bc93e5592945bd187d1508b523f4b1b92b116331cb896906004016115ef565b60206040518083038186803b158015610a3457600080fd5b505afa158015610a48573d6000803e3d6000fd5b505050506040513d601f19601f82011682018060405250810190610a6c9190611521565b604051634941d71d60e11b81526001600160a01b03861690639283ae3a90610ab8907ff86bf955456792ffa818919c8668cdc4eb9cc84889fd215a27d329f90efbb2f3906004016115ef565b60206040518083038186803b158015610ad057600080fd5b505afa158015610ae4573d6000803e3d6000fd5b505050506040513d601f19601f82011682018060405250810190610b089190611521565b8260020154610b179190611902565b610b219190611902565b421015610b32576005915050610b66565b600181015481541115610b49576002915050610b66565b600181015481541015610b60576003915050610b66565b60019150505b92915050565b6040518060400160405280600e81526020017f566f74696e67436f6e747261637400000000000000000000000000000000000081525081565b600080836001600160a01b031663fefbd8757fea0ca03c7adbe41dc655fec28a9209dc8e6e042f3d991a67765ba285b9cf73a06040518263ffffffff1660e01b8152600401610bf491906115ef565b60206040518083038186803b158015610c0c57600080fd5b505afa158015610c20573d6000803e3d6000fd5b505050506040513d601f19601f82011682018060405250810190610c4491906112c6565b90506001600160a01b03811615610d6c5760405163644ddc5d60e11b81526000906001600160a01b0386169063c89bb8ba90610c84908790600401611592565b60206040518083038186803b158015610c9c57600080fd5b505afa158015610cb0573d6000803e3d6000fd5b505050506040513d601f19601f82011682018060405250810190610cd491906112c6565b90506000826001600160a01b031663f7888aec83620ff1ce6040518363ffffffff1660e01b8152600401610d099291906115a6565b60206040518083038186803b158015610d2157600080fd5b505afa158015610d35573d6000803e3d6000fd5b505050506040513d601f19601f82011682018060405250810190610d5991906112c6565b6001600160a01b03161192505050610b66565b60405163288c314960e21b81526001600160a01b0385169063a230c52490610d98908690600401611592565b60206040518083038186803b158015610db057600080fd5b505afa158015610dc4573d6000803e3d6000fd5b505050506040513d601f19601f82011682018060405250810190610de8919061130d565b949350505050565b9392505050565b826000816001600160a01b031663c19d93fb6040518163ffffffff1660e01b815260040160206040518083038186803b158015610e3357600080fd5b505afa158015610e47573d6000803e3d6000fd5b505050506040513d601f19601f82011682018060405250810190610e6b9190611502565b6001811115610e8a57634e487b7160e01b600052602160045260246000fd5b148015610e9b5750610e9b816110fd565b80610f1d57506040516368c18beb60e01b81526001600160a01b038216906368c18beb90610ecd903390600401611592565b60206040518083038186803b158015610ee557600080fd5b505afa158015610ef9573d6000803e3d6000fd5b505050506040513d601f19601f82011682018060405250810190610f1d919061130d565b610f395760405162461bcd60e51b81526004016103c9906118b0565b604051630da0f6c760e41b81526001600160a01b0385169063da0f6c7090610f87907ff86bf955456792ffa818919c8668cdc4eb9cc84889fd215a27d329f90efbb2f390879060040161161c565b600060405180830381600087803b158015610fa157600080fd5b505af1158015610fb5573d6000803e3d6000fd5b5050604051630da0f6c760e41b81526001600160a01b038716925063da0f6c709150611007907fbb091d3568b6c70eab2bc93e5592945bd187d1508b523f4b1b92b116331cb89690869060040161161c565b600060405180830381600087803b15801561102157600080fd5b505af11580156108d6573d6000803e3d6000fd5b600081151561104485856110e0565b15151461108257811561106d5761105c836002611960565b6110669085611902565b9050610df0565b611078836002611960565b6110669085611a29565b509192915050565b6001600160a01b03811615155b919050565b60006001600160a01b03821661dead148015906110c457506001600160a01b03821661babe14155b8015610b6657506001600160a01b038216614bec141592915050565b60006110f3600260ff841685901c611a40565b6001149392505050565b6000816001600160a01b031663c67143666040518163ffffffff1660e01b815260040160206040518083038186803b15801561113857600080fd5b505afa15801561114c573d6000803e3d6000fd5b505050506040513d601f19601f820116820180604052508101906111709190611521565b15806111f3575060405163288c314960e21b81526001600160a01b0383169063a230c524906111a3903390600401611592565b60206040518083038186803b1580156111bb57600080fd5b505afa1580156111cf573d6000803e3d6000fd5b505050506040513d601f19601f820116820180604052508101906111f3919061130d565b80610b6657506040516368c18beb60e01b81526001600160a01b038316906368c18beb90611225903390600401611592565b60206040518083038186803b15801561123d57600080fd5b505afa158015611251573d6000803e3d6000fd5b505050506040513d601f19601f82011682018060405250810190610b66919061130d565b61127f8282610ba5565b61129b5760405162461bcd60e51b81526004016103c990611842565b5050565b803561109781611aa2565b6000602082840312156112bb578081fd5b8135610df081611aa2565b6000602082840312156112d7578081fd5b8151610df081611aa2565b600080604083850312156112f4578081fd5b82356112ff81611aa2565b946020939093013593505050565b60006020828403121561131e578081fd5b8151610df081611aba565b6000806040838503121561133b578182fd5b823561134681611aa2565b9150602083013561135681611aa2565b809150509250929050565b60008060008060808587031215611376578182fd5b843561138181611aa2565b935060208581013561139281611aa2565b9350604086013567ffffffffffffffff808211156113ae578485fd5b818801915088601f8301126113c1578485fd5b8135818111156113d3576113d3611a8c565b604051601f8201601f19168101850183811182821017156113f6576113f6611a8c565b60405281815283820185018b101561140c578687fd5b81858501868301379081019093019490945250915061142d6060860161129f565b905092959194509250565b600080604083850312156112f4578182fd5b6000806000806060858703121561145f578384fd5b843561146a81611aa2565b935060208501359250604085013567ffffffffffffffff8082111561148d578384fd5b818701915087601f8301126114a0578384fd5b8135818111156114ae578485fd5b8860208285010111156114bf578485fd5b95989497505060200194505050565b6000806000606084860312156114e2578283fd5b83356114ed81611aa2565b95602085013595506040909401359392505050565b600060208284031215611513578081fd5b815160028110610df0578182fd5b600060208284031215611532578081fd5b5051919050565b6000806040838503121561154b578182fd5b50508035926020909101359150565b60008060006060848603121561156e578081fd5b8335925060208401359150604084013561158781611aba565b809150509250925092565b6001600160a01b0391909116815260200190565b6001600160a01b0392831681529116602082015260400190565b6001600160a01b039384168152919092166020820152604081019190915260600190565b901515815260200190565b90815260200190565b828152604081016003831061160f5761160f611a76565b8260208301529392505050565b918252602082015260400190565b602081016006831061163e5761163e611a76565b91905290565b6000602080835283518082850152825b8181101561167057858101830151858201604001528201611654565b818111156116815783604083870101525b50601f01601f1916929092016040019392505050565b6020808252602b908201527f6f6e6c79207965732028312920616e64206e6f202832292061726520706f737360408201527f69626c652076616c756573000000000000000000000000000000000000000000606082015260800190565b60208082526027908201527f7468652070726f706f73616c2068617320616c7265616479206265656e20707260408201527f6f63657373656400000000000000000000000000000000000000000000000000606082015260800190565b60208082526032908201527f746869732070726f706f73616c496420686173206e6f20766f746520676f696e60408201527f67206f6e20617420746865206d6f6d656e740000000000000000000000000000606082015260800190565b60208082526027908201527f7468652070726f706f73616c20686173206e6f74206265656e2073706f6e736f60408201527f7265642079657400000000000000000000000000000000000000000000000000606082015260800190565b60208082526018908201527f6d656d6265722068617320616c726561647920766f7465640000000000000000604082015260600190565b6020808252600a908201527f6f6e6c794d656d62657200000000000000000000000000000000000000000000604082015260600190565b60208082526016908201527f766f74652068617320616c726561647920656e64656400000000000000000000604082015260600190565b6020808252600b908201527f6f6e6c7941646170746572000000000000000000000000000000000000000000604082015260600190565b93845260208401929092526040830152606082015260800190565b6000821982111561191557611915611a60565b500190565b80825b600180861161192c5750611957565b81870482111561193e5761193e611a60565b8086161561194b57918102915b9490941c93800261191d565b94509492505050565b6000610df0600019848460008261197957506001610df0565b8161198657506000610df0565b816001811461199c57600281146119a6576119d3565b6001915050610df0565b60ff8411156119b7576119b7611a60565b6001841b9150848211156119cd576119cd611a60565b50610df0565b5060208310610133831016604e8410600b8410161715611a01575081810a838111156101a3576101a3611a60565b611a0e848484600161191a565b808604821115611a2057611a20611a60565b02949350505050565b600082821015611a3b57611a3b611a60565b500390565b600082611a5b57634e487b7160e01b81526012600452602481fd5b500690565b634e487b7160e01b600052601160045260246000fd5b634e487b7160e01b600052602160045260246000fd5b634e487b7160e01b600052604160045260246000fd5b6001600160a01b0381168114611ab757600080fd5b50565b8015158114611ab757600080fdfea26469706673582212205991484251fea6bc597b92c5350d601c7cffab7e5e0dc1042a0659fe7b5b659864736f6c63430008000033",
  "linkReferences": {},
  "deployedLinkReferences": {}
}